:020000040800F2
:1000000000000120252B0008390600083B060008E7
:100010003D0600083F0600084106000800000000F9
:10002000000000000000000000000000A11F000808
:100030004306000800000000412000088520000859
:100040006D2B00086D2B00086D2B00086D2B000830
:100050006D2B00086D2B00086D2B00086D2B000820
:100060006D2B00086D2B00086D2B00086D2B000810
:100070006D2B00086D2B00086D2B00086D2B000800
:100080006D2B00086D2B00086D2B00086D2B0008F0
:100090006D2B00086D2B00086D2B00086D2B0008E0
:1000A0006D2B0008450600086D2B00086D2B00081D
:1000B0006D2B00086D2B00086D2B00086D2B0008C0
:1000C0006D2B00086D2B00086D2B00086D2B0008B0
:1000D0006D2B00086D2B00086D2B00086D2B0008A0
:1000E0006D2B00086D2B00086D2B00086D2B000890
:1000F0006D2B00086D2B00086D2B00086D2B000880
:100100006D2B00086D2B00086D2B00086D2B00086F
:100110006D2B00086D2B00086D2B00086D2B00085F
:100120006D2B00086D2B00086D2B00086D2B00084F
:1001300000000000000000000000000000000000BF
:1001400000000000000000000000000000000000AF
:10015000000000000000000000000000000000009F
:10016000000000000000000000000000000000008F
:10017000000000000000000000000000000000007F
:10018000000000000000000000000000000000006F
:10019000000000000000000000000000000000005F
:1001A000000000000000000000000000000000004F
:1001B000000000000000000000000000000000003F
:1001C000000000000000000000000000000000002F
:1001D000000000000000000000000000000000001F
:0401E0005FF8E0F1F3
:1001F00010B5054C237833B9044B13B10448AFF361
:1002000000800123237010BD3C040020000000008A
:100210003C2D000808B5034B1BB103490348AFF35D
:10022000008008BD00000000400400203C2D0008B4
:1002300008B5012001F022FEFBE708B5012001F01E
:100240001DFEFBE708B5012001F018FEFBE70000EA
:10025000034B0360034B0B6080231360704700BFA8
:10026000640600206404002010B596B01B4C0DF10C
:100270003C0CA646BEE80F00ACE80F009EE8070065
:100280008CE8070000210FA801F0C3FD144B186093
:100290000DF1200C04F11C0EBEE80F00ACE80F00BD
:1002A0009EE807008CE80700002108A801F0B1FDD6
:1002B0000C4B18600DF1040E04F1380CBCE80F0073
:1002C000AEE80F009CE807008EE80700002101A8B7
:1002D00001F09FFD044B186016B010BD542D0008AE
:1002E000580400205C0400206004002030B587B072
:1002F00000230293039304930593184B1B680BB1DF
:1003000007B030BD154B01221A60154B5A6942F4F3
:1003100080725A615B6903F480730193019B41F21F
:1003200001030293022503950324059402A90D48B5
:1003300000F006FC4FF6807302930395059402A922
:10034000094800F0FDFB4CF23373029303950594CA
:1003500002A9064800F0F4FBD2E700BFB80600206F
:10036000001002400020014000180140001401402C
:1003700010B58EB000230793089309930A930B934B
:100380000C930D93009301930293039304930593AD
:1003900006931C484FF02042026002F582724260D0
:1003A00006228260C3600361102242618361C361DF
:1003B000036243624FF480518162C3624FF4804113
:1003C0000163436383630F2307930893FF24099416
:1003D0000A930B9211210C910093019302940393C1
:1003E000049205916A4607A901F020F830B9064A3F
:1003F000D36943F48063D3610EB010BD00F06CF894
:10040000F5E700BFBC0600200000014008B5FFF77B
:100410006DFF08BD70B58AB0002406940794089457
:100420000994254B9A6942F004029A619A6902F094
:1004300004020192019A9A6942F008029A619A694B
:1004400002F008020292029A9A6942F480729A615A
:100450009A6902F480720392039A9A6942F0400208
:100460009A619A6902F040020492049A9A6942F0F1
:1004700020029A619B6903F020030593059B0F4EB0
:1004800022462121304600F07BFC01250695079588
:1004900008950323099306A9304600F051FB202359
:1004A0000693079508940223099306A9304600F0A5
:1004B00047FB0AB070BD00BF00100240000C0140B5
:1004C00008B50268034B9A4200D008BD00F0CEFA8E
:1004D000FBE700BF002C014072B6FEE700B591B00B
:1004E0002822002106A802F067FB00230193029353
:1004F000039304930593012206924FF480330793EC
:100500000A9202220D920E934FF4E0130F9306A865
:1005100000F052FC80B90F230193022102910023C5
:1005200003934FF480620492059301A800F084FEC7
:1005300020B911B05DF804FBFFF7CEFFFFF7CCFF49
:1005400008B500F081FAFFF7C9FFFFF763FF00F07D
:100550001FF900F073F900F0C9F900F01FFAFFF776
:1005600007FFFFF781FE01F04FFCFEE700B583B007
:10057000114B9A6942F001029A619A6902F00102F4
:100580000092009ADA6942F08052DA61DB6903F086
:1005900080530193019B00220F216FF0010000F0B6
:1005A00089FA064A536823F0E06343F0007353600E
:1005B00003B05DF804FB00BF0010024000000140E2
:1005C00000B589B001460022192000F073FA192005
:1005D00000F0A8FA144B9A6942F400629A619B6990
:1005E00003F400630193019B02A903A800F000FF3C
:1005F00000F0EEFE0D4BA3FB00239B0C013B0C48CF
:100600000C4A026040F2E732C2604360002303619B
:10061000836001F049F918B1012009B05DF804FBCD
:10062000034800F0F7FFF8E70010024083DE1B43A9
:1006300004070020002C0140FEE7FEE7FEE7FEE78E
:10064000FEE7704708B5024801F025F808BD00BF75
:10065000040700207047000084B00368B3F1804FA6
:1006600007D0154A934210D0144A934218D004B0D0
:10067000704703F50433DA6942F00102DA61DB699D
:1006800003F001030193019BF1E70D4BDA6942F09E
:100690000202DA61DB6903F002030293029BE6E7E0
:1006A000074BDA6942F00402DA61DB6903F0040304
:1006B0000393039BDBE700BF0004004000080040F9
:1006C0000010024000B589B00023049305930693FF
:1006D00007930368B3F1804F08D0274A93421AD09A
:1006E000264A93422BD009B05DF804FB03F504338E
:1006F0009A6942F004029A619B6903F00403019332
:10070000019B0123049302230593079304A91C482A
:1007100000F016FAE7E71B4B9A6942F004029A616F
:100720009B6903F004030293029B4023049302237A
:100730000593079304A9124800F002FAD3E7114B7E
:100740009A6942F020029A619B6903F020030393A7
:10075000039B4FF48053049302230593079304A94A
:10076000094800F0EDF9094A536843F0E06343F4A7
:1007700080535360B7E700BF00040040000800400A
:100780000008014000100240001401400000014038
:1007900000B58FB000230A930B930C930D9308932D
:1007A000099301930293039304930593069307938C
:1007B00021484FF08042026047224260836040F24D
:1007C000F312C26003618023836101F06DF820BBE6
:1007D0004FF480530A930AA9174801F069F9F8B950
:1007E000154801F08DF8F0B900230893099308A982
:1007F000114801F0CBF9C8B960230193002202929D
:100800000392059201A90C4801F0DEF888B90A4864
:10081000FFF758FF0FB05DF804FBFFF75DFED7E769
:10082000FFF75AFEDCE7FFF757FEDDE7FFF754FE60
:10083000E2E7FFF751FEEAE74C07002000B58FB072
:1008400000230A930B930C930D9308930993019340
:100850000293039304930593069307932148224A36
:1008600002601722426083604EF66022C26003611C
:100870008023836101F018F820BB4FF480530A9362
:100880000AA9184801F014F9F8B9164801F038F827
:10089000F0B900230893099308A9124801F076F9EA
:1008A000C8B960230193002202920392059201A924
:1008B0000C4801F089F888B90A48FFF703FF0FB028
:1008C0005DF804FBFFF708FED7E7FFF705FEDCE75E
:1008D000FFF702FEDDE7FFF7FFFDE2E7FFF7FCFDB4
:1008E000EAE700BF940700200004004000B58FB085
:1008F00000230A930B930C930D9308930993019390
:100900000293039304930593069307932148224A85
:10091000026047224260836040F2F312C2600361CA
:100920008023836100F0C0FF20BB4FF480530A9303
:100930000AA9184801F0BCF8F8B9164800F0E0FF21
:10094000F0B900230893099308A9124801F01EF991
:10095000C8B960230193002202920392059201A973
:100960000C4801F031F888B90A48FFF7ABFE0FB028
:100970005DF804FBFFF7B0FDD7E7FFF7ADFDDCE75F
:10098000FFF7AAFDDDE7FFF7A7FDE2E7FFF7A4FD0C
:10099000EAE700BFDC0700200008004008B50A486D
:1009A0000A4B03604FF4E133436000238360C3606C
:1009B00003610C2242618361C36101F071F900B9E6
:1009C00008BDFFF789FDFBE724080020003801403F
:1009D00010B586B000230293039304930593026835
:1009E000174B9A4201D006B010BD03F558439A69DF
:1009F00042F480429A619A6902F480420092009A1D
:100A00009A6942F004029A619B6903F0040301931E
:100A1000019B4FF400730293022303930323059376
:100A2000084C02A9204600F08BF84FF48063029333
:100A300000230393049302A9204600F081F8D2E733
:100A4000003801400008014008B5074A136843F028
:100A500010031360032000F01BF80020FFF7B0FD27
:100A6000FFF784FD002008BD00200240034A116802
:100A7000034B1B780B441360704700BF68080020CD
:100A800004000020014B1868704700BF6808002070
:100A9000074AD36823F4E0631B041B0C000200F434
:100AA000E060034343F0BF6343F40033D360704717
:100AB00000ED00E000B5194BDB68C3F30223C3F17E
:100AC000070CBCF1040F28BF4FF0040C03F1040E17
:100AD000BEF1060F18D9033B4FF0FF3E0EFA0CFC97
:100AE00021EA0C0199400EFA03F322EA03031943A9
:100AF00000280BDB0901C9B200F1604000F561403C
:100B000080F800135DF804FB0023E5E700F00F0018
:100B10000901C9B2024B1954F4E700BF00ED00E02F
:100B200014ED00E0002807DB00F01F02400901235C
:100B30009340024A42F82030704700BF00E100E0D5
:100B400070B582B00024A446B0E0874DAA4210D010
:100B500007D9864DAA420CD005F58035AA4208D0A7
:100B600013E0A5F58015AA4203D005F57025AA4229
:100B700007D18A68002A62D0012A5BD04361082429
:100B800003E0A5F58015AA42F3D0BEF1FF0F58D8B7
:100B90000646BEF1FF0F56D84FEA8C0233680F2588
:100BA000954023EA050304FA02F2134333604B68CD
:100BB00013F0805F78D06E4B9A6942F001029A611F
:100BC0009B6903F001030193019B4FEA9C02951C72
:100BD000684B53F825600CF003039D000F23AB40D6
:100BE00026EA0306644B984233D003F580639842AB
:100BF00000F0988003F58063984200F0958003F53B
:100C00008063984200F0928003F58063984200F080
:100C10008F8003F58063984219D006231AE0CC68D0
:100C2000B3E7CC680434B0E7CC680834ADE7CC68EF
:100C30000C34AAE703610824A7E70024A5E70424ED
:100C4000A3E7061DA5E7ACF108029200A6E705237D
:100C500000E00023AB4033430232464D45F82230DA
:100C60004B6813F4803F65D0444A136843EA0E038F
:100C700013604B6813F4003F62D0404A536843EA64
:100C80000E0353604B6813F4801F5FD03B4A936898
:100C900043EA0E0393604B6813F4001F5CD0374A9D
:100CA000D36843EA0E03D3600CF1010C0A6832FAF0
:100CB0000CF357D0012303FA0CF302EA030E33EAD4
:100CC0000202F1D14A68122A3FF63FAF122A3FF6DC
:100CD0005CAF01A555F822F0730B00081F0C00084B
:100CE000290C00083B0C00088B0B00088B0B00083C
:100CF0008B0B00088B0B00088B0B00088B0B00087C
:100D00008B0B00088B0B00088B0B00088B0B00086B
:100D10008B0B00088B0B00088B0B0008230C0008C2
:100D20002F0C0008012395E7022393E7032391E7A3
:100D300004238FE7114A136823EA0E03136098E730
:100D40000E4A536823EA0E0353609BE70B4A9368ED
:100D500023EA0E0393609EE7084AD36823EA0E0352
:100D6000D360A1E702B070BD000022100000311076
:100D70000010024000000140000801400004014052
:100D80000AB10161704709040161704782B0084BE4
:100D90001B68084AA2FB03235B0A00FB03F30193D1
:100DA00000BF019B5A1E0192002BF9D102B070477F
:100DB00000000020D34D6210002800F0F18170B5D2
:100DC00082B00446036813F0010F2CD0994B5B6886
:100DD00003F00C03042B1DD0964B5B6803F00C034F
:100DE000082B12D06368B3F5803F41D0002B55D15A
:100DF00003F1804303F504331A6822F480321A6049
:100E00001A6822F480221A6037E08A4B5B6813F478
:100E1000803FE7D0874B1B6813F4003F03D0636823
:100E2000002B00F0BF81236813F0020F75D0814BB7
:100E30005B6813F00C0F5FD07E4B5B6803F00C0314
:100E4000082B54D02369002B00F08A807A4B0122B2
:100E50001A60FFF717FE0546764B1B6813F0020F6A
:100E600075D1FFF70FFE401B0228F5D903209EE144
:100E7000704A136843F480331360636843B3FFF729
:100E800001FE05466B4B1B6813F4003FCBD1FFF707
:100E9000F9FD401B6428F5D9032088E1B3F5A02FA4
:100EA00009D0644B1A6822F480321A601A6822F45E
:100EB00080221A60E1E703F18043A3F53C331A680E
:100EC00042F480221A601A6842F480321A60D4E731
:100ED000FFF7D8FD0546574B1B6813F4003FA2D01F
:100EE000FFF7D0FD401B6428F5D903205FE1514B8B
:100EF0005B6813F4803FA5D14E4B1B6813F0020FC3
:100F000003D02369012B40F04F814A4A136823F034
:100F1000F803616943EAC1031360236813F0080F03
:100F200033D0A369002B5CD0434B0122C3F880244B
:100F3000FFF7A8FD05463F4B5B6A13F0020F21D176
:100F4000FFF7A0FD401B0228F5D903202FE1394A05
:100F5000136823F0F803616943EAC1031360DCE717
:100F6000354B00221A60FFF78DFD0546314B1B689B
:100F700013F0020FD1D0FFF785FD401B0228F5D9F1
:100F8000032014E10120FFF701FF236813F0040F91
:100F900000F09680274BDB6913F0805F34D1254B3E
:100FA000DA6942F08052DA61DB6903F08053019321
:100FB000019B0125214B1B6813F4807F26D0E36839
:100FC000012B3DD0002B53D103F1804303F50433B3
:100FD0001A6A22F001021A621A6A22F004021A62E4
:100FE00033E0154B0022C3F88024FFF74BFD054684
:100FF000104B5B6A13F0020FC7D0FFF743FD401B95
:101000000228F5D90320D2E00025D3E70B4A136864
:1010100043F480731360FFF735FD0646074B1B68EA
:1010200013F4807FCBD1FFF72DFD801B6428F5D909
:101030000320BCE00010024000004242007000406B
:101040005F4A136A43F001031362E36833B3FFF7A7
:1010500019FD06465A4B1B6A13F0020F2FD1FFF7FA
:1010600011FD801B41F288339842F3D903209EE0A2
:10107000052B09D0524B1A6A22F001021A621A6A31
:1010800022F004021A62E0E74D4B1A6A42F00402B1
:101090001A621A6A42F001021A62D6E7FFF7F2FCFE
:1010A0000646474B1B6A13F0020F08D0FFF7EAFC15
:1010B000801B41F288339842F3D9032077E0E5B9E9
:1010C000E369002B72D03E4A526802F00C02082AF3
:1010D00056D0022B17D03B4B00221A66FFF7D2FCEA
:1010E0000446374B1B6813F0007F47D0FFF7CAFC5C
:1010F000001B0228F5D9032059E0314AD36923F0B7
:101100008053D361DCE72F4B00221A66FFF7BAFC4D
:1011100005462B4B1B6813F0007F06D0FFF7B2FC8F
:10112000401B0228F5D9032041E0236AB3F5803F34
:101130001AD023494B6823F47413226A606A02436D
:1011400013434B601F4B01221A66FFF79BFC0446BA
:101150001B4B1B6813F0007F0ED1FFF793FC001BA5
:101160000228F5D9032022E0154A536823F40033FE
:10117000A1680B435360DCE7002018E0002016E074
:10118000012B16D00E4B5B6803F48031226A91422A
:1011900011D103F47013626A93420ED1002006E06D
:1011A00001207047012002E0012000E0002002B091
:1011B00070BD0120FBE70120F9E70120F7E700BF40
:1011C000001002400000424286B0174B0FCB0DF1D9
:1011D000180C0CE90F0040F20123ADF80430134B5A
:1011E0005B6803F00C02082A02D0114806B0704771
:1011F000C3F3834218326A4412F8100C13F4803F90
:101200000DD00A4B5B68C3F3404318336B4413F8AB
:10121000143C074A02FB00F0B0FBF3F0E6E7054B95
:1012200003FB00F0E2E700BFE82D000800100240D9
:1012300000127A0000093D00002800F0A08070B57F
:101240000D460446524B1B6803F007038B420BD23A
:101250004F4A136823F007030B431360136803F02E
:1012600007038B4240F08D80236813F0020F17D0E4
:1012700013F0040F04D0474A536843F4E06353600B
:10128000236813F0080F04D0424A536843F46053B4
:101290005360404A536823F0F003A1680B43536046
:1012A000236813F0010F31D06368012B20D0022B8B
:1012B00025D0384A126812F0020F64D035494A68C6
:1012C00022F0030213434B60FFF7DCFB0646314B71
:1012D0005B6803F00C036268B3EB820F16D0FFF774
:1012E000D1FB801B41F288339842F0D9032045E0BE
:1012F000284A126812F4003FE0D101203EE0254A5E
:10130000126812F0007FD9D1012037E0204B1B6812
:1013100003F00703AB420AD91D4A136823F0070301
:101320002B431360136803F00703AB422DD12368EE
:1013300013F0040F06D0174A536823F4E063E16802
:101340000B435360236813F0080F07D0114A53680A
:1013500023F46053216943EAC1035360FFF734FF6C
:101360000C4B5B68C3F303130B4AD35CD8400B4BA5
:1013700018600B4B1868FFF723F9002070BD01209F
:1013800070470120FAE70120F8E70120F6E700BFE7
:101390000020024000100240D02D00080000002074
:1013A00008000020014B1868704700BF00000020B3
:1013B00008B5FFF7F7FF044B5B68C3F30223034A4A
:1013C000D35CD84008BD00BF00100240E02D0008EB
:1013D00008B5FFF7E7FF044B5B68C3F3C223034A7A
:1013E000D35CD84008BD00BF00100240E02D0008CB
:1013F0000F2303600B4B5A6802F0030242605A68E5
:1014000002F0F00282605A6802F4E062C2605B6837
:10141000DB0803F4E0630361034B1B6803F007037D
:101420000B607047001002400020024060B370B5AE
:101430000E46154604468369B3F5807F26D090F8A2
:101440004130E3B1214651F8080B00F059FCA26885
:101450003146206800F088FC236BA268294660684A
:1014600000F0AAFC2268A16852F8213043F0010381
:1014700042F82130012384F84130002070BD80F80B
:101480004030FEF7C3FFDDE7012070470120F5E79C
:1014900030B4036A23F001030362036A426884697B
:1014A00024F073040D682C4323F0020C8B6843EA8C
:1014B0000C03104DA84203D005F50065A84205D1E4
:1014C00023F00803CD682B4323F00403094DA84201
:1014D00003D005F50065A84205D122F440724D699C
:1014E0002A438D692A43426084614A6842630362E9
:1014F00030BC7047002C014030B4036A23F4807381
:101500000362036A4268C46924F0730C0C6844EAFD
:101510000C0523F400738C6843EA0423114CA042A9
:1015200003D004F50064A04206D123F40063CC6824
:1015300043EA042323F480630A4CA04203D004F559
:101540000064A04207D122F440524C6942EA0412DE
:101550008C6942EA04124260C5614A68C263036250
:1015600030BC7047002C014030B4036A23F4805330
:101570000362036A4468C26922F4E6420D6842EAE3
:10158000052223F400538D6843EA0533094DA84230
:1015900003D005F50065A84204D124F480444D69C8
:1015A00044EA85144460C2614A680264036230BC44
:1015B000704700BF002C014010B4036A046A24F095
:1015C00001040462846924F0F00C4CEA021223F056
:1015D0000A030B438261036210BC704710B4046AB3
:1015E00024F0100404628469036A24F4704C4CEA09
:1015F000023223F0A00343EA01138261036210BCAC
:101600007047836823F070030B4343F00703836044
:101610007047000090F83D30DBB2012B2FD1022340
:1016200080F83D300268D36843F00103D36003685B
:10163000154A934218D002F50062934214D0B3F1D8
:10164000804F11D0A2F5983293420DD002F58062FE
:10165000934209D002F58062934205D01A6842F0A5
:1016600001021A60002070479A6802F00702062AF9
:1016700007D01A6842F001021A600020704701206A
:1016800070470020704700BF002C01407047704732
:1016900070477047704710B5044603681A6912F026
:1016A000020F11D0DA6812F0020F0DD06FF00202B3
:1016B0001A610123037703689B6913F0030F70D04D
:1016C000FFF7E6FF0023237723681A6912F0040F5F
:1016D00012D0DA6812F0040F0ED06FF004021A6113
:1016E0000223237723689B6913F4407F5FD0204651
:1016F000FFF7CEFF0023237723681A6912F0080F43
:1017000012D0DA6812F0080F0ED06FF008021A61DA
:10171000042323772368DB6913F0030F4ED02046A0
:10172000FFF7B6FF0023237723681A6912F0100F22
:1017300012D0DA6812F0100F0ED06FF010021A619A
:10174000082323772368DB6913F4407F3DD02046CC
:10175000FFF79EFF0023237723681A6912F0010F19
:1017600003D0DA6812F0010F36D123681A6912F03B
:10177000800F03D0DA6812F0800F34D123681A6921
:1017800012F0400F03D0DA6812F0400F32D1236814
:101790001A6912F0200F03D0DA6812F0200F30D14E
:1017A00010BDFFF774FF2046FFF773FF8AE720465E
:1017B000FFF76DFF2046FFF76CFF9BE72046FFF722
:1017C00066FF2046FFF765FFACE72046FFF75FFFA7
:1017D0002046FFF75EFFBDE76FF001021A61204669
:1017E000FEF76EFEC1E76FF080021A61204600F03E
:1017F0000CFAC3E76FF040021A612046FFF74AFF78
:10180000C5E76FF020021A61204600F0FDF9C7E736
:101810000368244A904212D002F5006290420ED032
:10182000B0F1804F0BD0A2F59832904207D002F56C
:101830008062904203D002F58062904203D123F08F
:1018400070034A681343174A904212D002F50062AF
:1018500090420ED0B0F1804F0BD0A2F5983290425A
:1018600007D002F58062904203D002F58062904278
:1018700003D123F44073CA68134323F080034A69F9
:10188000134303608B68C3620B688362054B984205
:1018900003D003F50063984201D10B690363012370
:1018A00043617047002C014040B310B5044690F8E6
:1018B0003D30F3B1022384F83D30214651F8040B4A
:1018C000FFF7A6FF012384F8463084F83E3084F801
:1018D0003F3084F8403084F8413084F8423084F856
:1018E000433084F8443084F8453084F83D3000209B
:1018F00010BD80F83C30FEF7AFFEDBE701207047FB
:1019000040B310B5044690F83D30F3B1022384F89B
:101910003D30214651F8040BFFF77AFF012384F88C
:10192000463084F83E3084F83F3084F8403084F804
:10193000413084F8423084F8433084F8443084F8ED
:10194000453084F83D30002010BD80F83C30FFF772
:101950009DFEDBE70120704730B4036A23F01003DB
:101960000362036A4468826922F4E6420D6842EA2F
:10197000052223F020038D6843EA0513114DA84288
:1019800003D005F50065A84206D123F08003CD6899
:1019900043EA051323F040030A4DA84203D005F59E
:1019A0000065A84207D124F440644D6944EA8504E7
:1019B0008D6944EA8504446082614A6882630362F7
:1019C00030BC7047002C014038B590F83C30012BFA
:1019D00060D004460D46012380F83C300C2A1AD80A
:1019E000DFE802F0071919191D1919193119191908
:1019F00044000068FFF74CFD2268936943F0080338
:101A000093612268936923F00403936122689369C8
:101A100029690B439361002084F83C0038BD0068BD
:101A2000FFF79AFF2268936943F400639361226889
:101A3000936923F48063936122689369296943EA77
:101A400001239361E7E70068FFF756FD2268D36939
:101A500043F00803D3612268D36923F00403D36100
:101A60002268D36929690B43D361D4E70068FFF783
:101A70007BFD2268D36943F40063D3612268D36994
:101A800023F48063D3612268D369296943EA01237F
:101A9000D361C0E70220C1E710B4846824F47F4C0E
:101AA00042EA03220A4342EA0C02826010BC7047F9
:101AB00090F83C30012B66D010B50446012380F825
:101AC0003C30022380F83D300268936823F47F4362
:101AD00023F0770393600B68602B40D022D8402B13
:101AE00047D00BD9502B0ED1CA6849680068FFF760
:101AF00063FD50212068FFF784FD04E0202B0CD00B
:101B000008D9302B09D0012384F83D30002084F817
:101B10003C0010BD0BB1102BF5D119462068FFF722
:101B200070FDF0E7702B0ED0B3F5005FEBD1CB6802
:101B30004A6889680068FFF7AFFF2268936843F43A
:101B400080439360DFE7CB684A6889680068FFF7E5
:101B5000A3FF2268936843F077039360D3E7CA68D2
:101B600049680068FFF73AFD60212068FFF749FDEA
:101B7000C9E7CA6849680068FFF71EFD4021206870
:101B8000FFF73FFDBFE702207047000090F83C30B0
:101B9000012B34D010B4012380F83C30022380F8AC
:101BA0003D3003685A689C6822F0700C0A6842EA6B
:101BB0000C025A600368134A934212D002F5006285
:101BC00093420ED0B3F1804F0BD0A2F598329342DE
:101BD00007D002F58062934203D002F580629342FF
:101BE00004D124F080044A6814439C60012380F8E7
:101BF0003D30002380F83C30184610BC704702206E
:101C0000704700BF002C01407047704710B5044674
:101C10000268136923F44053C1680B43136183685E
:101C20000269134342691A430168CB6823F4B05335
:101C300023F00C031343CB600268536923F4407311
:101C400081690B4353610268134B9A4220D0FFF71E
:101C5000AFFB024602EB820202EB820263689B004A
:101C6000B2FBF3F20D48A0FB02314909642303FBE8
:101C700011231B013233A0FB03235B0903F0F002A5
:101C800002EB011203F00F03216813448B6010BDB7
:101C9000FFF79EFB0246DDE7003801401F85EB5150
:101CA00058B310B5044690F83D300BB3242384F8A4
:101CB0003D302268D36823F40053D3602046FFF7F9
:101CC000A5FF2268136923F49043136122685369C6
:101CD00023F02A0353612268D36843F40053D3608E
:101CE00000202064202384F83D3084F83E3010BD6D
:101CF00080F83C30FEF76CFED8E70120704700000A
:101D000010B40A6850F8223023F0010340F8223062
:101D10008B68082B24D000244A6822431343CA68E6
:101D200013430A6913434A691343CA6913430A6A8E
:101D300013434A6A13438A6A1343CA6A13430A6BFA
:101D400013438A6913434A6B1343096850F82140CF
:101D5000044A22401A4340F82120002010BC70475A
:101D60004024D9E78000F0FF00B5013250F822305E
:101D700003F0404C0B68D1F804E043EA0E13D1F8AD
:101D800008E043EA0E23D1F80CE043EA0E43D1F811
:101D900010E00EF1FF3E43EA0E53D1F814E0AEF12D
:101DA000020E43EA0E6389690B434CEA030340F8D1
:101DB000223000205DF804FBB3F5804F05D06FF0B2
:101DC000704340F822300020704730B450F8223081
:101DD000094C1C400B684D6843EA05138D6843EAC3
:101DE00005238D692B43C96843EA0143234340F827
:101DF0002230002030BC70470000F0CF842801D092
:101E0000033070470020704708B500F0CFFC002079
:101E100008BD2DE9F04387B004460F464569BDB1C2
:101E20008669AEB1D0F80480D0F80090B0F908000F
:101E3000FFF7E4FF0296019500903B462269494670
:101E4000404600F045FC0590059807B0BDE8F083DA
:101E500065682668D4F81080B4F90800FFF7CEFF53
:101E600005AB019300903B461FFA88F231462846A5
:101E700000F068FC0128E7D00020E6E708B500B9CB
:101E8000012000F0DDFD002008BD00F108034360E3
:101E90004FF0FF328260C36003610023036070472C
:101EA00000230361704743684B609A688A60516001
:101EB00099600861036801330360704730B40D68AE
:101EC000B5F1FF3F11D000F108031C465B681A68AA
:101ED000AA42FAD963684B6099608C6061600861BE
:101EE00003680133036030BC70470469F2E703699B
:101EF000416882688A60416851605A68824206D0AF
:101F0000002202611A68013A1A60186870478268F4
:101F10005A60F5E782B0002301930D4B1B68B3F1C3
:101F2000FF3F08D04FF0500383F31188BFF36F8F4A
:101F3000BFF34F8FFEE74FF0500383F31188BFF3D9
:101F40006F8FBFF34F8F019B002BFCD002B0704707
:101F50000C00002006480068006880F3088862B61C
:101F600061B6BFF34F8FBFF36F8F00DF00BF00007C
:101F700008ED00E04FF0807340F8043C21F00101CF
:101F800040F8081C034B40F80C3C40F8202C40382B
:101F9000704700BF151F000800000000000000008F
:101FA000074B19680868B0E8F00F80F30988BFF3A1
:101FB0006F8F4FF0000080F311884EF00D0E7047C8
:101FC0008C1400204FF0500383F31188BFF36F8F00
:101FD000BFF34F8F0B4A136801331360012B00D0FE
:101FE00070474FF0E023D3F8043D13F0FF0FF7D014
:101FF0004FF0500383F31188BFF36F8FBFF34F8F00
:10200000FEE700BF0C000020094B1B6843B94FF0EE
:10201000500383F31188BFF36F8FBFF34F8FFEE739
:10202000013B034A13600BB983F31188704700BF6B
:102030000C00002000000000000000000000000074
:10204000EFF30980BFF36F8F0D4B1A6820E9F00F93
:1020500010602DE908404FF0500080F3118800F027
:1020600015FD4FF0000080F31188BDE808401968A5
:102070000868B0E8F00F80F30988BFF36F8F7047EE
:102080008C14002008B54FF0500383F31188BFF380
:102090006F8FBFF34F8F00F0CBFB28B14FF0E023E1
:1020A0004FF08052C3F8042D002383F3118808BD3C
:1020B0004FF0E022002313619361054B1B68054933
:1020C000A1FB03139B09013B536107231361704775
:1020D00000000020D34D621010B582B02A4B1A7850
:1020E000D2B20192FF221A701B78DBB28DF8033056
:1020F0009DF8033003F05003244A1370244B072249
:102100001A6009E0224A1368013B13609DF803300E
:102110005B00DBB28DF803309DF8033013F0800FC5
:10212000F0D11B4B1B68032B08D04FF0500383F3F7
:102130001188BFF36F8FBFF34F8FFEE71B02144A66
:10214000136003F4E0631360019BDBB20E4A13706B
:102150004FF0E023D3F8202D42F47002C3F8202D75
:10216000D3F8202D42F07042C3F8202DFFF7A0FFD6
:102170000024084B1C60FFF7EDFE00F087FCFFF722
:10218000C9FE204602B010BD00E400E06C0800204B
:10219000700800200C000020124A12F0070F1ED019
:1021A000D11D21F00701C1F5406313440A460E48D2
:1021B0000260002141601344083B23F007030B48F1
:1021C000036059601960991A51601360084B1960D7
:1021D000084B1960084B4FF000421A6070474FF4EB
:1021E0004063E4E77808002084140020740800208D
:1021F000801400207C14002078140020154B1A460F
:102200001B688342FBD3516802EB010C844509D063
:10221000416800EB010C634509D00360904218D07F
:10222000106070474068014451601046F0E710B4F8
:10223000094C2468A3420AD05B68194441601368C2
:102240001B680360904200D0106010BC70470460AF
:10225000F8E77047841400207408002070B5054624
:1022600000F0DEFA344B1B68A3B1344B1B681D42EF
:102270004AD135B1083515F0070F02D025F0070512
:102280000835002D42D02E4B1B68AB424DD32D4A52
:10229000146804E0FFF780FFE7E722461C46636806
:1022A000AB4202D22368002BF7D1234B1B68A34219
:1022B0003DD0166808362368136063685B1B102BDB
:1022C00010D9601910F0070F08D04FF0500383F3B6
:1022D0001188BFF36F8FBFF34F8FFEE743606560D8
:1022E000FFF78CFF626816490B689B1A0B60164952
:1022F00009688B4201D214490B60104B1B681343D1
:1023000063600023236002E0002600E0002600F066
:102310001BFB16F0070F0CD04FF0500383F311880E
:10232000BFF36F8FBFF34F8FFEE70026EFE7002666
:10233000EDE7304670BD00BF74080020781400201F
:102340007C140020841400208014002080B338B551
:102350000446A0F1080550F8043C164A12681342DE
:1023600008D14FF0500383F31188BFF36F8FBFF391
:102370004F8FFEE750F8081C41B14FF0500383F334
:102380001188BFF36F8FBFF34F8FFEE723EA02037D
:1023900040F8043C00F044FA54F8041C064A136860
:1023A0000B4413602846FFF729FF00F0CDFA38BD33
:1023B000704700BF781400207C140020084B1B6875
:1023C0001B6823B9074B4FF0FF321A607047044B6C
:1023D0001B68DB68DB685A68024B1A60704700BFF5
:1023E00090140020681500202DE9F0470746984614
:1023F000089DDDF824900A9C266B02F18042013A88
:1024000006EB820626F007064FF0000CBCF10F0F1A
:102410000BD811F80C2004EB0C0383F8342011F8CE
:102420000C3013B10CF1010CF0E7002384F84330B9
:10243000062D00D90625E56265644FF0000AC4F850
:1024400048A0201DFFF72CFD04F11800FFF728FD20
:102450002461C5F10705A5616462C4F84CA084F845
:1024600050A0424639463046FFF784FD2060B9F15E
:10247000000F01D0C9F80040BDE8F08738B500244E
:1024800007E004EB840293000E481844FFF7FDFCBC
:102490000134062CF5D90C4D2846FFF7F6FC0B4C01
:1024A0002046FFF7F2FC0A48FFF7EFFC0948FFF768
:1024B000ECFC0948FFF7E9FC084B1D60084B1C6069
:1024C00038BD00BF981400203C1500205015002096
:1024D000701500209C150020881500209014002005
:1024E0009414002010B50446FFF76CFD214A1368D0
:1024F00001331360204B1B685BB1204B1B686BB929
:102500001D4B1B68DA6AE36A9A4207D81A4B1C60B3
:1025100004E0194B1C601368012B28D0184A13687B
:1025200001331360E06A01238340164A11680B43AC
:10253000136000EB8000211D134B03EB8000FFF7BD
:10254000B2FCFFF761FD0D4B1B687BB10A4B1B68AA
:10255000DA6AE36A9A4209D24FF0E0234FF08052E0
:10256000C3F8042DBFF34F8FBFF36F8F10BDFFF77C
:1025700085FFD3E7241500208C140020841500204B
:1025800034150020381500209814002010B504469A
:1025900090F8513063B1012B11D0022B0ED04FF0C7
:1025A000500383F31188BFF36F8FBFF34F8FFEE7A4
:1025B000006BFFF7CBFE2046FFF7C8FE10BDFFF70C
:1025C000C5FEFBE70F4B1B68D3B110B5FFF7FAFC54
:1025D0000D4BDB68DC68201DFFF789FC0B4A136894
:1025E000013B1360074A1368013B1360FFF70CFDC2
:1025F0002046FFF7CBFF034B1B68002BE6D110BD35
:10260000704700BF281500209C15002024150020CD
:1026100008B5FFF7D7FF074B1B68012BF9D94FF01F
:10262000E0234FF08052C3F8042DBFF34F8FBFF368
:102630006F8FEEE79814002070B504460D461D4BD1
:102640001E681D4B18680430FFF751FC50B91A4B37
:102650001B68DA6A012303FA02F218490B6823EABD
:1026600002030B60B4F1FF3F0DD03444124B1B68E2
:102670005C60A64210D9124B18680F4B19680431E0
:10268000FFF71CFC70BD002DEFD00B4B1968043117
:102690000C48FFF708FCF5E70B4B1868064B196868
:1026A0000431FFF70BFC094B1B68A342EAD9074B27
:1026B0001C60E7E7B01500208C14002038150020BE
:1026C0009414002088150020901400206815002024
:1026D00030B587B00B9C7CB10C9DB5B154250495E9
:1026E000049D542D1AD04FF0500383F31188BFF38B
:1026F0006F8FBFF34F8FFEE74FF0500383F31188C6
:10270000BFF36F8FBFF34F8FFEE74FF0500383F39C
:102710001188BFF36F8FBFF34F8FFEE70C9D2C63C3
:10272000022485F8514000240394029505AC0194DD
:102730000A9C0094FFF758FE0C98FFF7D3FE05980B
:1027400007B030BD2DE9F04385B0074688461446F2
:102750001E469000FFF782FD00B381465420FFF72C
:102760007DFD0546B0B1C0F83090E5B1002385F895
:102770005130039302950D9B01930C9B00933346BC
:10278000224641463846FFF72FFE2846FFF7AAFEAD
:10279000012005E04846FFF7D9FDE6E74FF0FF309E
:1027A00005B0BDE8F0834FF0FF30F9E710B588B011
:1027B00000240594069407AA06A905A8FDF748FD7C
:1027C000059B0293069B019300942346079A0E49AA
:1027D0000E48FFF77DFF0E4B186090B14FF050038D
:1027E00083F31188BFF36F8FBFF34F8F094B4FF007
:1027F000FF321A60084B01221A60084B1C60FFF779
:102800006BFC08B010BD00BFFC2D000811260008AD
:10281000641500206815002084150020B0150020E4
:10282000024A136801331360704700BF301500205F
:10283000F8B53A4B1B68002B64D1394B1D68013544
:102840001D60C5B9374B1B681B6843B14FF050037F
:1028500083F31188BFF36F8FBFF34F8FFEE7314AC9
:102860001168314B186810601960304A13680133E1
:102870001360FFF7A3FD2E4B1B68AB4238D900272E
:102880002C4B1B68DB6A03EB83039A002A4B9B5893
:10289000012B3CD901273AE00127224B1B681B681A
:1028A00043B3204B1B68DB68DC6863689D4226D31A
:1028B000261D3046FFF71BFBA36A1BB104F118006D
:1028C000FFF715FBE36A01229A401C49086802439E
:1028D0000A6003EB83039A00314617481044FFF760
:1028E000E2FAE26A134B1B68DB6A9A42D4D2D4E75D
:1028F0000027D2E70E4B4FF0FF321A60C0E70C4AB8
:102900001360BDE70E4A13680133136000270D4BB7
:102910001B6803B101273846F8BD00BF3015002001
:10292000B015002090140020941400206C15002095
:10293000681500208C140020981400203815002001
:102940002C150020B415002038B5354B1B6843B951
:102950004FF0500383F31188BFF36F8FBFF34F8F96
:10296000FEE7FFF72FFB2E4B1A68013A1A601B682F
:10297000002B4FD12B4B1B680BB900244BE00024DC
:10298000294B1B681BB3284BDB68DC6804F118007B
:10299000FFF7ADFA251D2846FFF7A9FAE06A0123E3
:1029A0008340224A11680B43136000EB80002946E4
:1029B0001F4B03EB8000FFF776FAE26A1D4B1B68A2
:1029C000DB6A9A42DCD31C4B01221A60D8E70CB1B7
:1029D000FFF7F4FC194B1C6884B9174B1C68D4B181
:1029E0004FF0E0234FF08052C3F8042DBFF34F8F18
:1029F000BFF36F8F01240EE0013C07D0FFF718FFF3
:102A00000028F9D00C4B01221A60F5E70B4B00228D
:102A10001A60E2E70024FFF7F7FA204638BD00BF4E
:102A200030150020241500207015002038150020D6
:102A3000981400208C140020B41500202C150020C0
:102A400010B5A8B10446104B1B6843B14FF05003BA
:102A500083F31188BFF36F8FBFF34F8FFEE7FFF74C
:102A6000DFFE00212046FFF7E7FDFFF76DFF48B9C5
:102A70004FF0E0234FF08052C3F8042DBFF34F8F87
:102A8000BFF36F8F10BD00BF30150020204B1B68B7
:102A90001BB1204B01221A6070471E4B00221A60A6
:102AA0001D4B1B68B3FA83F3DBB2C3F11F0303EBC7
:102AB00083018A0019498A5842B94FF0500383F3C1
:102AC0001188BFF36F8FBFF34F8FFEE7134903EBFE
:102AD000830082000A4450684068506003EB830C16
:102AE0004FEA8C0208321144884209D003EB830379
:102AF0009A000A4B13445B68DA68094B1A60704706
:102B0000406862469100054A0A445060EEE700BF03
:102B100030150020B415002038150020981400202E
:102B20008C1400200C480D490D4A002302E0D458B3
:102B3000C4500433C4188C42F9D30A4A0A4C002307
:102B400001E013600432A242FBD3FDF783FD00F0E5
:102B50000FF8FDF7F5FC7047000000203C04002052
:102B6000142E00083C040020BC150020FEE70000E5
:102B700070B50D4E0D4D761BB61006D0002455F8DD
:102B8000043B01349847A642F9D1094E094D00F0A3
:102B9000D5F8761BB61006D0002455F8043B013456
:102BA0009847A642F9D170BD082E0008082E0008EB
:102BB000102E0008082E0008830730B548D0541E98
:102BC000002A3FD00346CAB201E0013C3AD303F8E1
:102BD000012B9D07F9D1032C2DD9CDB245EA05254E
:102BE0000F2C45EA054536D9A4F1100222F00F0C4E
:102BF00003F1200EE6444FEA121C03F1100242E9F1
:102C0000045542E9025510327245F8D10CF1010227
:102C100014F00C0F03EB021204F00F0C13D0ACF104
:102C2000040323F003030433134442F8045B934288
:102C3000FBD10CF003042CB1CAB21C4403F8012BE5
:102C40009C42FBD130BD64461346002CF4D1F9E719
:102C500003461446BFE71A46A446E0E7024B13B109
:102C6000024800F005B87047000000007D2C000805
:102C7000002301461A46184600F01AB838B5084B2A
:102C8000084D5B1B9C1007D0043B1D44013C55F8CC
:102C900004399847002CF9D1BDE8384000F054B809
:102CA000142E0008102E0008704700BF704700BFA8
:102CB0002DE9F047DFF87CA00646DAF800009846D8
:102CC0000F469146FFF7F0FF1B4B1B68D3F84841B6
:102CD00024B365681F2D26DC5EB96B1C0235DAF85B
:102CE0000000636044F82570FFF7E0FF0020BDE8B6
:102CF000F087012304EB8501C1F88890D4F888217E
:102D0000AB401A43022EC4F88821C1F80881E4D1EF
:102D1000D4F88C211343C4F88C31DEE703F5A67494
:102D2000C3F84841D5E7DAF80000FFF7BFFF4FF0DE
:102D3000FF30DCE738040020042E0008F8B500BF9F
:102D4000F8BC08BC9E467047F8B500BFF8BC08BC8C
:042D50009E467047E4
:102D5400A82D000831020008000000000000000057
:102D6400800000000000000000000000B42D0008F6
:102D74003B020008FDFF000000000000800000008E
:102D84000000000000000000C02D000845020008FB
:102D9400FDFF0000000000008000000000000000B3
:102DA4000000000064656661756C745461736B00A7
:102DB4006C696768745461736B0000007461736BB1
:102DC4005F6C6176676C5F696E6974000000000077
:102DD40000000000010203040607080900000000C7
:102DE4000102030402030405060708090A0B0C0D7B
:102DF4000E0F10100000000049444C450000000074
:042E0400100000209A
:082E08005D2C00081502000812
:042E1000F1010008C4
:102E14000024F4000100000010000000AAAAAAAADD
:102E240000000000FC02002064030020CC0300200A
:102E3400000000000000000000000000000000008E
:102E4400000000000000000000000000000000007E
:102E5400000000000000000000000000000000006E
:102E6400000000000000000000000000000000005E
:102E7400000000000000000000000000000000004E
:102E8400000000000000000000000000000000003E
:102E9400000000000000000000000000000000002E
:102EA400000000000000000000000000000000001E
:102EB400000000000000000000000000000000000E
:102EC40000000000000000000100000000000000FD
:102ED4000E33CDAB34126DE6ECDE05000B000000C2
:102EE40000000000000000000000000000000000DE
:102EF40000000000000000000000000000000000CE
:102F040000000000000000000000000000000000BD
:102F140000000000000000000000000000000000AD
:0C3244000000000000000000B815002091
:0400000508002B259F
:00000001FF
