:020000040800F2
:100000000000012051F90208091300080B13000831
:100010000D1300080F130008111300080000000062
:10002000000000000000000000000000D1EE020807
:10003000131300080000000071EF0208B5EF02087A
:1000400099F9020899F9020899F9020899F9020840
:1000500099F9020899F9020899F9020899F9020830
:1000600099F9020899F9020899F9020899F9020820
:1000700099F9020899F9020899F9020899F9020810
:1000800099F9020899F9020899F9020899F9020800
:1000900099F9020899F9020899F9020899F90208F0
:1000A00099F902081513000899F9020899F902084C
:1000B0002513000899F9020899F9020899F902082C
:1000C00099F9020899F9020899F9020899F90208C0
:1000D00099F9020899F9020899F9020899F90208B0
:1000E00099F9020899F9020899F9020899F90208A0
:1000F00099F9020899F9020899F9020899F9020890
:1001000099F9020899F9020899F9020899F902087F
:1001100099F9020899F9020899F9020899F902086F
:1001200099F9020899F9020899F9020899F902085F
:1001300000000000000000000000000000000000BF
:1001400000000000000000000000000000000000AF
:10015000000000000000000000000000000000009F
:10016000000000000000000000000000000000008F
:10017000000000000000000000000000000000007F
:10018000000000000000000000000000000000006F
:10019000000000000000000000000000000000005F
:1001A000000000000000000000000000000000004F
:1001B000000000000000000000000000000000003F
:1001C000000000000000000000000000000000002F
:1001D000000000000000000000000000000000001F
:0401E0005FF8E0F1F3
:1001F00010B5054C237833B9044B13B10448AFF361
:1002000000800123237010BD6C100020000000004E
:10021000C809030808B5034B1BB103490348AFF3F2
:10022000008008BD0000000070100020C80903080D
:1002300081F0004102E000BF83F0004330B54FEA97
:1002400041044FEA430594EA050F08BF90EA020F04
:100250001FBF54EA000C55EA020C7FEA645C7FEA97
:10026000655C00F0E2804FEA5454D4EB5555B8BFBA
:100270006D420CDD2C4480EA020281EA030382EA2B
:10028000000083EA010180EA020281EA0303362DBD
:1002900088BF30BD11F0004F4FEA01314FF4801C90
:1002A0004CEA113102D0404261EB410113F0004FA2
:1002B0004FEA03334CEA133302D0524263EB430359
:1002C00094EA050F00F0A780A4F10104D5F1200EF7
:1002D0000DDB02FA0EFC22FA05F2801841F1000152
:1002E00003FA0EF2801843FA05F359410EE0A5F126
:1002F00020050EF1200E012A03FA0EFC28BF4CF057
:10030000020C43FA05F3C01851EBE37101F000450C
:1003100007D54FF0000EDCF1000C7EEB00006EEB19
:100320000101B1F5801F1BD3B1F5001F0CD34908A3
:100330005FEA30004FEA3C0C04F101044FEA4452FA
:1003400012F5800F80F09A80BCF1004F08BF5FEA81
:10035000500C50F1000041EB045141EA050130BD61
:100360005FEA4C0C404141EB0101013C28BFB1F573
:10037000801FE9D291F0000F04BF01460020B1FABE
:1003800081F308BF2033A3F10B03B3F120020CDA91
:100390000C3208DD02F1140CC2F10C0201FA0CF06F
:1003A00021FA02F10CE002F11402D8BFC2F1200CD4
:1003B00001FA02F120FA0CFCDCBF41EA0C0190408A
:1003C000E41AA2BF01EB0451294330BD6FEA0404D3
:1003D0001F3C1CDA0C340EDC04F11404C4F12002BE
:1003E00020FA04F001FA02F340EA030021FA04F3D0
:1003F00045EA030130BDC4F10C04C4F1200220FA27
:1004000002F001FA04F340EA0300294630BD21FA64
:1004100004F0294630BD94F0000F83F4801306BF2A
:1004200081F480110134013D4EE77FEA645C18BF1E
:100430007FEA655C29D094EA050F08BF90EA020FB5
:1004400005D054EA000C04BF1946104630BD91EAAD
:10045000030F1EBF0021002030BD5FEA545C05D1B0
:100460004000494128BF41F0004130BD14F58004EF
:100470003CBF01F5801130BD01F0004545F0FE4163
:1004800041F470014FF0000030BD7FEA645C1ABF98
:10049000194610467FEA655C1CBF0B46024650EACF
:1004A000013406BF52EA033591EA030F41F40021FB
:1004B00030BD00BF90F0000F04BF0021704730B581
:1004C0004FF4806404F132044FF000054FF0000156
:1004D00050E700BF90F0000F04BF0021704730B517
:1004E0004FF4806404F1320410F0004548BF4042EC
:1004F0004FF000013EE700BF42004FEAE2014FEA41
:1005000031014FEA02701FBF12F07F4393F07F4F1B
:1005100081F06051704732F07F4208BF704793F01E
:100520007F4F04BF41F40021704730B54FF4607431
:1005300001F0004521F000411CE700BF50EA010234
:1005400008BF704730B54FF000050AE050EA0102DD
:1005500008BF704730B511F0004502D5404261EB4D
:1005600041014FF4806404F132045FEA915C3FF48E
:10057000D8AE4FF003025FEADC0C18BF03325FEA2B
:10058000DC0C18BF033202EBDC02C2F1200300FADC
:1005900003FC20FA02F001FA03FE40EA0E0021FA01
:1005A00002F11444BDE600BF70B54FF0FF0C4CF4EF
:1005B000E06C1CEA11541DBF1CEA135594EA0C0FA1
:1005C00095EA0C0F00F0DEF82C4481EA030621EADC
:1005D0004C5123EA4C5350EA013518BF52EA033517
:1005E00041F4801143F4801338D0A0FB02CE4FF0C9
:1005F0000005E1FB02E506F00042E0FB03E54FF0F9
:100600000006E1FB03569CF0000F18BF4EF0010EF0
:10061000A4F1FF04B6F5007F64F5407404D25FEAEC
:100620004E0E6D4146EB060642EAC62141EA55519F
:100630004FEAC52040EA5E504FEACE2EB4F1FD0CE1
:1006400088BFBCF5E06F1ED8BEF1004F08BF5FEA5F
:10065000500E50F1000041EB045170BD06F0004611
:1006600046EA010140EA020081EA0301B4EB5C04BE
:10067000C2BFD4EB0C0541EA045170BD41F48011B6
:100680004FF0000E013C00F3AB8014F1360FDEBFDB
:10069000002001F0004170BDC4F10004203C35DAB7
:1006A0000C341BDC04F11404C4F1200500FA05F33A
:1006B00020FA04F001FA05F240EA020001F00042DB
:1006C00021F0004110EBD37021FA04F642EB060151
:1006D0005EEA430E08BF20EAD37070BDC4F10C047B
:1006E000C4F1200500FA04F320FA05F001FA04F23F
:1006F00040EA020001F0004110EBD37041F100012B
:100700005EEA430E08BF20EAD37070BDC4F1200535
:1007100000FA05F24EEA020E20FA04F301FA05F29D
:1007200043EA020321FA04F001F0004121FA04F245
:1007300020EA020000EBD3705EEA430E08BF20EA15
:10074000D37070BD94F0000F0FD101F0004640004F
:1007500041EB010111F4801F08BF013CF7D041EAD1
:10076000060195F0000F18BF704703F000465200D5
:1007700043EB030313F4801F08BF013DF7D043EAA6
:100780000603704794EA0C0F0CEA135518BF95EA5C
:100790000C0F0CD050EA410618BF52EA4306D1D1E3
:1007A00081EA030101F000414FF0000070BD50EA02
:1007B000410606BF1046194652EA430619D094EA8C
:1007C0000C0F02D150EA013613D195EA0C0F05D176
:1007D00052EA03361CBF104619460AD181EA0301CA
:1007E00001F0004141F0FE4141F470014FF0000082
:1007F00070BD41F0FE4141F4780170BD70B54FF01D
:10080000FF0C4CF4E06C1CEA11541DBF1CEA13559C
:1008100094EA0C0F95EA0C0F00F0A7F8A4EB05047E
:1008200081EA030E52EA03354FEA013100F0888075
:100830004FEA03334FF0805545EA131343EA12633E
:100840004FEA022245EA111545EA10654FEA0026F3
:100850000EF000419D4208BF964244F1FD0404F5AC
:10086000407402D25B084FEA3202B61A65EB030508
:100870005B084FEA32024FF480104FF4002CB6EBC5
:10088000020E75EB030E22BFB61A754640EA0C0045
:100890005B084FEA3202B6EB020E75EB030E22BF85
:1008A000B61A754640EA5C005B084FEA3202B6EBC6
:1008B000020E75EB030E22BFB61A754640EA9C0085
:1008C0005B084FEA3202B6EB020E75EB030E22BF55
:1008D000B61A754640EADC0055EA060E18D04FEA13
:1008E000051545EA16754FEA06164FEAC30343EAB3
:1008F00052734FEAC2025FEA1C1CC0D111F4801F80
:100900000BD141EA00014FF000004FF0004CB6E778
:1009100011F4801F04BF01430020B4F1FD0C88BF17
:10092000BCF5E06F3FF6AFAEB5EB030C04BFB6EB22
:10093000020C5FEA500C50F1000041EB045170BD15
:100940000EF0004E4EEA113114EB5C04C2BFD4EB42
:100950000C0541EA045170BD41F480114FF0000EC6
:10096000013C90E645EA060E8DE60CEA135594EA42
:100970000C0F08BF95EA0C0F3FF43BAF94EA0C0F45
:100980000AD150EA01347FF434AF95EA0C0F7FF4BA
:1009900025AF104619462CE795EA0C0F06D152EA0E
:1009A00003353FF4FDAE1046194622E750EA4106F2
:1009B00018BF52EA43067FF4C5AE50EA41047FF403
:1009C0000DAF52EA43057FF4EBAE12E74A0011D2B5
:1009D00012F5001211D20DD56FF47873B3EB625299
:1009E0000ED44FEAC12343F0004343EA505323FAA5
:1009F00002F070474FF00000704750EA013002D11A
:100A00004FF0FF3070474FF00000704753B94AB9BC
:100A1000002908BF00281CBF4FF0FF314FF0FF3006
:100A200000F076B9ADF1080C6DE904CE00F006F8DF
:100A3000DDF804E0DDE9022304B070472DE9F0475A
:100A4000089E0D4604468846002B4DD18A429446A6
:100A500068D9B2FA82F252B101FA02F3C2F120016E
:100A600020FA01F10CFA02FC41EA030894404FEA33
:100A70001C41B8FBF1F71FFA8CFE01FB178807FB3E
:100A80000EF0230C43EA084398420AD91CEB0303F7
:100A900007F1FF3580F01E81984240F21B81023F32
:100AA00063441B1AB3FBF1F001FB103300FB0EFE95
:100AB000A4B244EA0344A6450AD91CEB040400F19D
:100AC000FF3380F00981A64540F206816444023874
:100AD0000021A4EB0E0440EA07401EB10023D440DD
:100AE000C6E90043BDE8F0878B4208D9002E00F02C
:100AF000EE800021C6E900050846BDE8F087B3FA9C
:100B000083F100294AD1AB4202D3824200F2FC8039
:100B1000841A65EB030301209846002EE2D0C6E953
:100B20000048DFE702B9FFDEB2FA82F2002A40F0A5
:100B30009180A1EB0C0001214FEA1C471FFA8CFEAB
:100B4000B0FBF7F307FB1300250C45EA00450EFB4D
:100B500003F0A84208D91CEB050503F1FF3802D2C7
:100B6000A84200F2CE8043462D1AB5FBF7F007FBF2
:100B700010550EFB00FEA4B244EA0544A64508D970
:100B80001CEB040400F1FF3502D2A64500F2B6804A
:100B90002846A4EB0E0440EA03409EE7C1F120077B
:100BA0008B4022FA07FC4CEA030C25FA07FA4FEABD
:100BB0001C49BAFBF9F820FA07F309FB18AA8D4083
:100BC0001FFA8CFE1D4300FA01F308FB0EF02C0CFB
:100BD00044EA0A44A04202FA01F20BD91CEB0404D5
:100BE00008F1FF3A80F08880A04240F28580A8F1A9
:100BF00002086444241AB4FBF9F009FB104400FB1A
:100C00000EFEADB245EA0444A64508D91CEB040427
:100C100000F1FF356CD2A6456AD90238644440EA37
:100C20000840A0FB0295A4EB0E04AC42C846AE46B9
:100C300056D353D0002E69D0B3EB080264EB0E04F8
:100C400022FA01F304FA07F71F43CC40C6E9007407
:100C5000002147E70CFA02FCC2F1200125FA01F35A
:100C60004FEA1C4720FA01F195400D43B3FBF7F121
:100C700007FB11331FFA8CFE280C40EA034001FBEE
:100C80000EF3834204FA02F408D91CEB000001F1D0
:100C9000FF382FD283422DD902396044C01AB0FBED
:100CA000F7F307FB1300ADB245EA004503FB0EF076
:100CB000A84208D91CEB050503F1FF3816D2A8425B
:100CC00014D9023B6544281A43EA014138E731460A
:100CD000304607E72F46E4E61846F9E64B45A9D229
:100CE000B9EB020865EB0C0E0138A3E74346EAE7CF
:100CF000284694E74146D1E7D0467BE76444023872
:100D000047E7023B65442FE7084606E73146E9E638
:100D1000704700BF80EA010C1CF0030F37D110F0C0
:100D2000030C20F0030021F0030150F8042B08BF4E
:100D300051F8043B0ED08CF0030C6FF07F434FEA68
:100D4000CC0C23FA0CFC51F8043B42EA0C0243EAB7
:100D50000C0300BFA2F1013C9A4201BF2CEA020C35
:100D60001CF0803F50F8042B51F8043BF2D04FEABE
:100D700002604FEA1222012828BFB0EB036F08BFC0
:100D80001B0AF4D003F0FF03000EC01A704710F0E6
:100D9000030F0AD010F8012B11F8013B012A28BFDC
:100DA0009A42F4D0A2EB030070474DF8045D50F86E
:100DB000042B01F0030521F0030151F8043B022D3F
:100DC00026D04DD822F07F45B5EB132FA2F1013C80
:100DD0002CEA020C0DD11CF0803C08BF51F8043BFA
:100DE0000AD185EA0205B5EB036F0CD150F8042B4C
:100DF000E8E74FEA13235BE03CF07F4C54D10B78DB
:100E00004FEA126554E04FEA126503F0FF034FE02A
:100E10004FEA0245A2F1013C4FEA15452CEA020CCB
:100E2000B5EB134F18D11CF0803C08BF51F8043BC0
:100E300007D185EA0205B5EB034F09D150F8042B21
:100E4000E6E75FEA0C4C2FD10B884FEA12452FE002
:100E50004FEA03434FEA12454FEA134328E000BF2D
:100E600002F0FF05B5EB136FA2F1013C2CEA020C76
:100E70000DD11CF0803C08BF51F8043B0AD185EA33
:100E80000205B5EB032F0AD150F8042BE8E74FEA2F
:100E900013630DE012F0FF0F06D051F8043B4FEA48
:100EA000122523F07F4303E04FF0000020BC704781
:100EB00005F0FF0203F0FF00012828BF904204BFA5
:100EC0002D0A1B0AF4D0A2EB000020BC704700BF23
:100ED00008B505201FF058F805202DF067FFF8E74A
:100EE000034B0360034B0B6080231360704700BF0C
:100EF000981200209810002010B59CB0244C0DF1E1
:100F0000540CA646BEE80F00ACE80F009EE80700B0
:100F10008CE80700002115A82DF013FF1D4B186069
:100F20000DF1380C04F11C0EBEE80F00ACE80F0008
:100F30009EE807008CE8070000210EA82DF001FFB5
:100F4000154B18600DF11C0C04F1380EBEE80F00B3
:100F5000ACE80F009EE807008CE80700002107A816
:100F60002DF0EFFE0D4B1860EE4604F1540CBCE87A
:100F70000F00AEE80F009CE807008EE80700002194
:100F800068462DF0DEFE064B18601CB010BD00BF99
:100F9000E009030888100020901000209410002021
:100FA0008C10002030B587B0002302930393049384
:100FB0000593184B1B680BB107B030BD154B0122D0
:100FC0001A60154B5A6942F480725A615B6903F4E6
:100FD00080730193019B41F2010302930225039563
:100FE0000324059402A90D482CF098FE4FF6807357
:100FF00002930395059402A909482CF08FFE4CF248
:10100000337302930395059402A906482CF086FEDB
:10101000D2E700BFEC120020001002400020014087
:10102000001801400014014010B58EB00023079352
:10103000089309930A930B930C930D9300930193D8
:10104000029303930493059306931C484FF02042A8
:10105000026002F58272426006228260C360036110
:10106000102242618361C361036243624FF4805185
:101070008162C3624FF480410163436383630F2342
:1010800007930893FF2409940A930B9211210C9162
:101090000093019302940393049205916A4607A971
:1010A0002DF0BCFA30B9064AD36943F48063D361AA
:1010B0000EB010BD00F076F8F5E700BFF01200208A
:1010C0000000014008B5FFF76DFF08BD70B58AB09C
:1010D00000240694079408940994254B9A6942F0D9
:1010E00008029A619A6902F008020192019A9A69CB
:1010F00042F480729A619A6902F480720292029AB2
:101100009A6942F040029A619A6902F040020392A1
:10111000039A9A6942F020029A619A6902F02002C9
:101120000492049A9A6942F004029A619B6903F05E
:1011300004030593059B0F4E2246212130462CF0D7
:101140000DFF01250695079508950323099306A928
:1011500030462CF0E3FD20230693079508940223E4
:10116000099306A930462CF0D9FD0AB070BD00BF26
:1011700000100240000C0140A82303FB00F080088F
:1011800000BF03460138002BFAD1704708B502684A
:10119000034B9A4200D008BD2CF042FDFBE700BF94
:1011A000002C014072B6FEE700B591B02822002164
:1011B00006A82EF055FF0023019302930393049396
:1011C0000593012206924FF4803307930A9202227C
:1011D0000D920E934FF4E0130F9306A82CF0E4FE4B
:1011E00080B90F23019302210291002303934FF44E
:1011F00080620492059301A82DF016F920B911B070
:101200005DF804FBFFF7CEFFFFF7CCFF08B52CF02D
:10121000F5FCFFF7C9FFFFF759FF00F001F9FFF7F1
:1012200003FF00F0A7F804F047F802F04FFF2CF09E
:10123000DDFCFFF761FE2DF07FFDFEE700B583B01A
:10124000114B9A6942F001029A619A6902F0010217
:101250000092009ADA6942F08052DA61DB6903F0A9
:1012600080530193019B00220F216FF001002CF0AD
:101270000FFD064A536823F0E06343F000735360A8
:1012800003B05DF804FB00BF001002400000014005
:1012900000B589B00146002219202CF0F9FC192074
:1012A0002CF02EFD144B9A6942F400629A619B69FE
:1012B00003F400630193019B02A903A82DF090F9A8
:1012C0002DF07EF90D4BA3FB00239B0C013B0C483A
:1012D0000C4A026040F2E732C260436000230361BF
:1012E00083602DF045FB18B1012009B05DF804FBC7
:1012F00003482DF0F3F9F8E70010024083DE1B43AA
:1013000038130020002C0140FEE7FEE7FEE7FEE771
:10131000FEE7704708B502482DF020FA08BD00BF6F
:101320003813002008B502482DF018FA08BD00BF98
:101330008413002008B503460B4A126842B10A4ADA
:10134000106803446A46934206D8074A136008BDF2
:10135000054A06491160F2E72EF020FB0C230360DA
:101360004FF0FF30F3E700BF80130020E06700205C
:101370007047000000B587B00023029303930493E5
:1013800005930093019316484FF08042026047F6A0
:10139000FF424260836045F6B372C26003618361BD
:1013A0002DF0E6FA90B94FF48053029302A90C484D
:1013B0002DF016FB68B90023009301936946084895
:1013C0002DF07CFB40B907B05DF804FBFFF7EAFEA7
:1013D000E9E7FFF7E7FEEEE7FFF7E4FEF3E700BF1C
:1013E000841300200368B3F1804F00D0704700B52C
:1013F00083B003F50433DA6942F00102DA61DB6994
:1014000003F001030193019B002205211C202CF015
:101410003FFC1C202CF074FC03B05DF804FB0000C2
:1014200008B50A480A4B03604FF4E13343600023D8
:101430008360C36003610C2242618361C3612DF04C
:10144000C7FB00B908BDFFF7ADFEFBE7CC130020DA
:101450000038014010B586B0002302930393049333
:1014600005930268174B9A4201D006B010BD03F5F0
:1014700058439A6942F480429A619A6902F4804220
:101480000092009A9A6942F004029A619B6903F003
:1014900004030193019B4FF400730293022303930F
:1014A00003230593084C02A920462CF037FC4FF487
:1014B0008063029300230393049302A920462CF037
:1014C0002DFCD2E7003801400008014008B520217A
:1014D00003482CF049FD4FF47A702DF067FCF6E7D5
:1014E000000C014008B521F0A1F932202DF05EFC7E
:1014F000F9E708B500202DF0F7FF08BD08B5012079
:101500001EF042FD08BD000082B0054BB3F800316B
:101510009BB2ADF80630BDF8060080B202B070474D
:101520000007006C82B0ADF80600BDF806309BB233
:10153000ADF80630BDF806309BB2024AA2F8003181
:1015400002B070470007006C82B0ADF80600BDF82D
:1015500006309BB2ADF80630BDF806309BB2024AA9
:10156000A2F8FE3002B070470007006C024BA3F8EF
:10157000FE00A3F8001170470007006C024B1A89A7
:10158000024BA3F8FE207047581400200007006C9F
:1015900070B505460C46404B9B8841F6631293425A
:1015A00017D045F21052934257D03B4E7089FFF747
:1015B000CBFF280AFFF7B6FFE8B2FFF7B3FFB08909
:1015C000FFF7C2FF200AFFF7ADFFE0B2FFF7AAFF67
:1015D00070BD314B9B7953BB2F4B1888451BADB267
:1015E000013DADB25889FFF7AFFF0020FFF79AFF2A
:1015F0000020FFF797FF280AFFF794FFE8B2FFF7F4
:1016000091FF254DA889FFF79FFF200AFFF78AFF6A
:10161000E0B2FFF787FF68880138C0F30F20FFF7BB
:1016200081FF68880138C0B2FFF77CFFD0E71A4E0F
:101630007089FFF789FF280AFFF774FFE8B2FFF708
:1016400071FF30880138C0F30F20FFF76BFF30883F
:101650000138C0B2FFF766FFD3E70F4E7089FFF77E
:1016600073FF280AFFF75EFF7089013080B2FFF731
:101670006BFFE8B2FFF756FFB089FFF765FF200A5E
:10168000FFF750FFB089013080B2FFF75DFFE0B295
:10169000FFF748FF9CE700BF5814002010B5744BBB
:1016A0009B79012B10D02BB9714B9A8841F66313AB
:1016B0009A420FD00138062800F28480DFE800F05B
:1016C0007472706E6C6A1600694A918841F66312F2
:1016D0009142E8D00728EDD8DFE800F072706C6E18
:1016E00006046A68002402E0802400E0E024604BE5
:1016F0009B8845F21052934266D0362049F241321F
:10170000934203D047F28972934201D144F0080416
:101710002146FFF72BFF564B9B8841F663129342FD
:101720000AD014F0200F52D0514A118852889142A9
:1017300002D24F480280418045F2105293424FD06E
:101740004B4C6089FFF700FF0020FFF7EBFE002005
:10175000FFF7E8FE20880138C0F30F20FFF7E2FE14
:1017600020880138C0B2FFF7DDFEA089FFF7ECFE4C
:101770000020FFF7D7FE0020FFF7D4FE6088013875
:10178000C0F30F20FFF7CEFE60880138C0B2FFF72C
:10179000C9FE10BDA024AAE76024A8E72024A6E77C
:1017A000C024A4E74024A2E78024A0E740249EE7C9
:1017B000C0249CE720249AE7602498E7E02496E779
:1017C000A02494E7002492E74FF4585096E7284A63
:1017D000118852889142AFD9254802804180ABE7F9
:1017E000234C6089FFF7B0FE0020FFF79BFE608965
:1017F000013080B2FFF7A8FE0020FFF793FE60895A
:10180000023080B2FFF7A0FE20880138C0F30F201D
:10181000FFF788FE6089033080B2FFF795FE2088CD
:101820000138C0B2FFF77EFEA089FFF78DFE0020D1
:10183000FFF778FEA089013080B2FFF785FE002017
:10184000FFF770FEA089023080B2FFF77DFE60884E
:101850000138C0F30F20FFF765FEA089033080B286
:10186000FFF772FE60880138C0B2FFF75BFE90E7B9
:10187000581400200000000010B50446BE20FFF7F9
:1018800063FE0520FFF74EFE2046FEF723FE0CA365
:10189000D3E90023FEF788FEFFF798F880B2FFF740
:1018A00041FE0120FFF73EFEFF20FFF73BFE002038
:1018B000FFF738FE0020FFF735FE10BDAFF30080C4
:1018C000666666666666044008B5444B98710028F3
:1018D00043D1F0221A804FF4A0725A809B8845F2BF
:1018E0001052934212D041F6631293421FD03B4AEA
:1018F0002C2111812A2151812B21918145F2103215
:10190000934222D00020FFF7C9FE08BD334A4FF4AE
:10191000305111814FF4285151814FF42C51918154
:101920004FF4F07111804FF448715180E6E72B4A73
:101930002C2111812B2151812A2191814FF4F071A9
:1019400011804FF448715180D8E7244B4FF4A072B6
:101950001A804FF4F0725A80D4E7204B4FF4A072F3
:101960001A80F0225A809B8845F21052934216D07A
:1019700041F66312934223D0184A2C2111812A2167
:1019800051812B21918145F210329342BAD1134BF0
:101990004FF4F0721A804FF4A0725A80B2E70F4AE7
:1019A0004FF4305111814FF4285151814FF42C5193
:1019B00091814FF4487111804FF4F0715180E2E74A
:1019C000064A2C2111812A2151812B2191814FF42A
:1019D000487111804FF4F0715180D4E75814002001
:1019E00038B50546094B1A885C8802FB04F40021CF
:1019F0000846FFF7CDFDFFF7C1FD002303E0044AD1
:101A0000A2F800510133A342F9D338BD5814002085
:101A10000007006C2DE9F04198B0AC4B9A6942F494
:101A200080729A619A6902F480720192019A9A69AD
:101A300042F020029A619A6902F020020292029A10
:101A40009A6942F020029A619A6902F02002039298
:101A5000039A9A6942F480729A619A6902F48072D8
:101A60000492049A9A6942F008029A619B6903F011
:101A700008030593059B4FF4805514950223159395
:101A80000124169403231793914F14A938462CF080
:101A900045F920231493DFF83C8214A940462CF02A
:101AA0003DF91026149614A940462CF037F91494E9
:101AB00014A938462CF032F91494159414A98648C8
:101AC0002CF02CF985484FF02043036003F5827316
:101AD0004360062383600023C36046618361C36162
:101AE00043628562C3624FF480420263436383634F
:101AF0000D930E930F220F9213930693079308945E
:101B00000C9306AA0DA92CF089FD32202CF09AF82E
:101B1000D320FFF719FDFFF7F7FC714CA080FFF70A
:101B2000F3FCA080FFF7F0FCA0800002A080FFF78C
:101B3000EBFCA388184380B2A08049F2413398425D
:101B400029D1674B9B8847F28972934200F0AC80A1
:101B500049F24132934200F0AA8045F2103293429A
:101B600000F0A88045F21052934200F0A68041F6A2
:101B70006312934200F0A4800020FFF7A5FE01222B
:101B8000114655482CF0EAF94FF6FF70FFF728FF91
:101B900018B0BDE8F0810420FFF7D6FCFFF7B4FCD5
:101BA000A080FFF7B1FCA080FFF7AEFCA080000290
:101BB000A080FFF7A9FCA388184380B2A08048F258
:101BC000525398426CD0464B9A8847F289739A4296
:101BD000B7D0D420FFF7B8FCFFF796FC404CA080AC
:101BE000FFF792FCA080FFF78FFCA0800002A0808E
:101BF000FFF78AFCA388184380B2A08045F2103317
:101C000098429ED055214FF47040FFF7AFFCAA21B7
:101C10004FF20100FFF7AAFC52214FF20200FFF73A
:101C2000A5FC08214FF20300FFF7A0FC01214FF2B1
:101C30000400FFF79BFC4FF44540FFF785FCFFF7DE
:101C400063FCA0800002A0804CF20150FFF77CFCF6
:101C5000FFF75AFCA3881843A08005202BF0F2FF61
:101C6000A28845F210539A423FF46BAFA120FFF7D0
:101C70006BFCFFF749FCA080FFF746FCA080000248
:101C8000A080FFF741FCA38803439BB2A38045F2E9
:101C9000617293427FF455AF41F66312A28050E720
:101CA00047F28972A2808EE700F048F864E700F0FE
:101CB00016F961E700F029FA5EE701F09FF95BE7AA
:101CC00002F01AF96420FFF7D7FD55E70010024033
:101CD0000020014000140140000C014010140020BD
:101CE000581400202DE9F84381468846089E141AAE
:101CF000A4B20134A4B25F1ABFB20137BFB200254B
:101D00000CE004FB053236F812100B4AA2F8001161
:101D100001339BB2A342F4D30135ADB2BD4209D227
:101D200005EB080189B24846FFF732FCFFF726FCB5
:101D30000023EFE7BDE8F8830007006C08B5112029
:101D4000FFF702FC3620FFF7FFFB0020FFF7EAFB5E
:101D50003A20FFF7F9FB0520FFF7E4FBB220FFF77D
:101D6000F3FB0C20FFF7DEFB0C20FFF7DBFB002072
:101D7000FFF7D8FB3320FFF7D5FB3320FFF7D2FB6B
:101D8000B720FFF7E1FB3520FFF7CCFBBB20FFF7C7
:101D9000DBFB3220FFF7C6FBC020FFF7D5FB0C2092
:101DA000FFF7C0FBC220FFF7CFFB0120FFF7BAFB14
:101DB000C320FFF7C9FB1020FFF7B4FBC420FFF7D7
:101DC000C3FB2020FFF7AEFBC620FFF7BDFB0F20B3
:101DD000FFF7A8FBD020FFF7B7FBA420FFF7A2FB7B
:101DE000A120FFF79FFBE020FFF7AEFBD020FFF71D
:101DF00099FB0020FFF796FB0220FFF793FB0720DB
:101E0000FFF790FB0A20FFF78DFB2820FFF78AFBE6
:101E10003220FFF787FB4420FFF784FB4220FFF7C7
:101E200081FB0620FFF77EFB0E20FFF77BFB1220D5
:101E3000FFF778FB1420FFF775FB1720FFF772FB05
:101E4000E120FFF781FBD020FFF76CFB0020FFF7BC
:101E500069FB0220FFF766FB0720FFF763FB0A2000
:101E6000FFF760FB2820FFF75DFB3120FFF75AFBEF
:101E70005420FFF757FB4720FFF754FB0E20FFF7D6
:101E800051FB1C20FFF74EFB1720FFF74BFB1B20DD
:101E9000FFF748FB1E20FFF745FB2A20FFF754FB06
:101EA0000020FFF73FFB0020FFF73CFB0020FFF77F
:101EB00039FBEF20FFF736FB2B20FFF745FB002017
:101EC000FFF730FB0020FFF72DFB0120FFF72AFB77
:101ED0003F20FFF727FB2920FFF736FB08BD08B599
:101EE000CF20FFF731FB0020FFF71CFBC120FFF7DD
:101EF00019FB3020FFF716FBED20FFF725FB6420D0
:101F0000FFF710FB0320FFF70DFB1220FFF70AFB82
:101F10008120FFF707FBE820FFF716FB8520FFF77E
:101F200001FB1020FFF7FEFA7A20FFF7FBFACB2027
:101F3000FFF70AFB3920FFF7F5FA2C20FFF7F2FA3A
:101F40000020FFF7EFFA3420FFF7ECFA0220FFF74A
:101F5000E9FAF720FFF7F8FA2020FFF7E3FAEA2082
:101F6000FFF7F2FA0020FFF7DDFA0020FFF7DAFAB8
:101F7000C020FFF7E9FA1B20FFF7D4FAC120FFF7D2
:101F8000E3FA0120FFF7CEFAC520FFF7DDFA302093
:101F9000FFF7C8FA3020FFF7C5FAC720FFF7D4FAD9
:101FA000B720FFF7BFFA3620FFF7CEFA4820FFF739
:101FB000B9FA3A20FFF7C8FA5520FFF7B3FAB12073
:101FC000FFF7C2FA0020FFF7ADFA1A20FFF7AAFACE
:101FD000B620FFF7B9FA0A20FFF7A4FAA220FFF70C
:101FE000A1FAF220FFF7B0FA0020FFF79BFA2620B3
:101FF000FFF7AAFA0120FFF795FAE020FFF7A4FA0D
:102000000F20FFF78FFA2A20FFF78CFA2820FFF71E
:1020100089FA0820FFF786FA0E20FFF783FA0820D6
:10202000FFF780FA5420FFF77DFAA920FFF77AFA2C
:102030004320FFF777FA0A20FFF774FA0F20FFF723
:1020400071FA0020FFF76EFA0020FFF76BFA00200C
:10205000FFF768FA0020FFF765FAE120FFF774FA4E
:102060000020FFF75FFA1520FFF75CFA1720FFF753
:1020700059FA0720FFF756FA1120FFF753FA062006
:10208000FFF750FA2B20FFF74DFA5620FFF74AFAD8
:102090003C20FFF747FA0520FFF744FA1020FFF72E
:1020A00041FA0F20FFF73EFA3F20FFF73BFA3F20AF
:1020B000FFF738FA0F20FFF735FA2B20FFF744FA25
:1020C0000020FFF72FFA0020FFF72CFA0120FFF77E
:1020D00029FA3F20FFF726FA2A20FFF735FA0020D9
:1020E000FFF720FA0020FFF71DFA0020FFF71AFA89
:1020F000EF20FFF717FA1120FFF726FA78202BF0D0
:10210000A1FD2920FFF720FA08BD08B5ED20FFF753
:102110001BFA0120FFF706FAFE20FFF703FAEE2074
:10212000FFF712FADE20FFF7FDF92120FFF7FAF999
:10213000F120FFF709FA0120FFF7F4F9DF20FFF79C
:1021400003FA1020FFF7EEF9C420FFF7FDF98F2006
:10215000FFF7E8F9C620FFF7F7F90020FFF7E2F9EB
:10216000E220FFF7DFF9E220FFF7DCF9E220FFF7DA
:10217000D9F9BF20FFF7E8F9AA20FFF7D3F9B0207B
:10218000FFF7E2F90D20FFF7CDF90020FFF7CAF9BC
:102190000D20FFF7C7F90020FFF7C4F91120FFF762
:1021A000C1F90020FFF7BEF91920FFF7BBF90020A5
:1021B000FFF7B8F92120FFF7B5F90020FFF7B2F9D2
:1021C0002D20FFF7AFF90020FFF7ACF93D20FFF716
:1021D000A9F90020FFF7A6F95D20FFF7A3F9002079
:1021E000FFF7A0F95D20FFF79DF90020FFF79AF9AE
:1021F000B120FFF7A9F98020FFF794F90020FFF73D
:1022000091F98B20FFF78EF90020FFF78BF99620CC
:10221000FFF788F90020FFF785F9B220FFF794F95E
:102220000020FFF77FF90020FFF77CF90220FFF77D
:1022300079F90020FFF776F90320FFF773F9002002
:10224000FFF770F9B320FFF77FF90020FFF76AF975
:102250000020FFF767F90020FFF764F90020FFF77F
:1022600061F90020FFF75EF90020FFF75BF900201D
:10227000FFF758F90020FFF755F90020FFF752F952
:102280000020FFF74FF90020FFF74CF90020FFF77F
:1022900049F90020FFF746F90020FFF743F9002035
:1022A000FFF740F90020FFF73DF90020FFF73AF96A
:1022B0000020FFF737F90020FFF734F90020FFF77F
:1022C00031F90020FFF72EF90020FFF72BF900204D
:1022D000FFF728F90020FFF725F9B420FFF734F9BC
:1022E0008B20FFF71FF90020FFF71CF99620FFF75E
:1022F00019F90020FFF716F9A120FFF713F90020C4
:10230000FFF710F9B520FFF71FF90220FFF70AF9D0
:102310000020FFF707F90320FFF704F90020FFF77B
:1023200001F90420FFF7FEF80020FFF7FBF8B620C4
:10233000FFF70AF90020FFF7F5F80020FFF7F2F8A1
:10234000B720FFF701F90020FFF7ECF80020FFF7B6
:10235000E9F83F20FFF7E6F80020FFF7E3F85E20FA
:10236000FFF7E0F80020FFF7DDF86420FFF7DAF868
:102370000020FFF7D7F88C20FFF7D4F80020FFF7F4
:10238000D1F8AC20FFF7CEF80020FFF7CBF8DC2027
:10239000FFF7C8F80020FFF7C5F87020FFF7C2F874
:1023A0000020FFF7BFF89020FFF7BCF80020FFF7F0
:1023B000B9F8EB20FFF7B6F80020FFF7B3F8DC2000
:1023C000FFF7B0F80020FFF7ADF8B820FFF7BCF832
:1023D0000020FFF7A7F80020FFF7A4F80020FFF780
:1023E000A1F80020FFF79EF80020FFF79BF80020DF
:1023F000FFF798F80020FFF795F80020FFF792F814
:10240000BA20FFF7A1F82420FFF78CF80020FFF78F
:1024100089F80020FFF786F80020FFF783F8C12035
:10242000FFF792F82020FFF77DF80020FFF77AF8F9
:102430005420FFF777F80020FFF774F8FF20FFF72C
:1024400071F80020FFF76EF8C220FFF77DF80A2030
:10245000FFF768F80020FFF765F80420FFF762F83F
:102460000020FFF75FF8C320FFF76EF83C20FFF76E
:1024700059F80020FFF756F83A20FFF753F80020EC
:10248000FFF750F83920FFF74DF80020FFF74AF822
:102490003720FFF747F80020FFF744F83C20FFF70C
:1024A00041F80020FFF73EF83620FFF73BF8002008
:1024B000FFF738F83220FFF735F80020FFF732F841
:1024C0002F20FFF72FF80020FFF72CF82C20FFF724
:1024D00029F80020FFF726F82920FFF723F800202D
:1024E000FFF720F82620FFF71DF80020FFF71AF865
:1024F0002420FFF717F80020FFF714F82420FFF737
:1025000011F80020FFF70EF82320FFF70BF800204A
:10251000FFF708F83C20FFF705F80020FFF702F866
:102520003620FEF7FFFF0020FEF7FCFF3220FEF70B
:10253000F9FF0020FEF7F6FF2F20FEF7F3FF002043
:10254000FEF7F0FF2C20FEF7EDFF0020FEF7EAFF7C
:102550002920FEF7E7FF0020FEF7E4FF2620FEF724
:10256000E1FF0020FEF7DEFF2420FEF7DBFF002066
:10257000FEF7D8FF2420FEF7D5FF0020FEF7D2FF9C
:102580002320FEF7CFFF0020FEF7CCFFC420FEF78C
:10259000DBFF6220FEF7C6FF0020FEF7C3FF052029
:1025A000FEF7C0FF0020FEF7BDFF8420FEF7BAFF54
:1025B0000020FEF7B7FFF020FEF7B4FF0020FEF783
:1025C000B1FF1820FEF7AEFF0020FEF7ABFFA420FE
:1025D000FEF7A8FF0020FEF7A5FF1820FEF7A2FFD8
:1025E0000020FEF79FFF5020FEF79CFF0020FEF723
:1025F00099FF0C20FEF796FF0020FEF793FF1720AF
:10260000FEF790FF0020FEF78DFF9520FEF78AFF72
:102610000020FEF787FFF320FEF784FF0020FEF77F
:1026200081FFE620FEF77EFF0020FEF77BFFC5203E
:10263000FEF78AFF3220FEF775FF0020FEF772FFDB
:102640004420FEF76FFF0020FEF76CFF6520FEF7C9
:1026500069FF0020FEF766FF7620FEF763FF00208B
:10266000FEF760FF8820FEF75DFF0020FEF75AFFAF
:10267000C620FEF769FF2020FEF754FF0020FEF77A
:1026800051FF1720FEF74EFF0020FEF74BFF012001
:10269000FEF748FF0020FEF745FFC720FEF754FF76
:1026A0000020FEF73FFF0020FEF73CFF0020FEF772
:1026B00039FF0020FEF736FFC820FEF745FF002057
:1026C000FEF730FF0020FEF72DFF0020FEF72AFF67
:1026D0000020FEF727FFC920FEF736FF0020FEF797
:1026E00021FF0020FEF71EFF0020FEF71BFF002049
:1026F000FEF718FF0020FEF715FF0020FEF712FF7F
:102700000020FEF70FFF0020FEF70CFF0020FEF771
:1027100009FF0020FEF706FF0020FEF703FF002060
:10272000FEF700FF0020FEF7FDFE0020FEF7FAFE98
:102730000020FEF7F7FE0020FEF7F4FEE020FEF793
:1027400003FF1620FEF7EEFE0020FEF7EBFE1C2036
:10275000FEF7E8FE0020FEF7E5FE2120FEF7E2FE90
:102760000020FEF7DFFE3620FEF7DCFE0020FEF73D
:10277000D9FE4620FEF7D6FE0020FEF7D3FE5220FB
:10278000FEF7D0FE0020FEF7CDFE6420FEF7CAFE65
:102790000020FEF7C7FE7A20FEF7C4FE0020FEF7F9
:1027A000C1FE8B20FEF7BEFE0020FEF7BBFE992087
:1027B000FEF7B8FE0020FEF7B5FEA820FEF7B2FE39
:1027C0000020FEF7AFFEB920FEF7ACFE0020FEF7BA
:1027D000A9FEC420FEF7A6FE0020FEF7A3FECA2035
:1027E000FEF7A0FE0020FEF79DFED220FEF79AFE27
:1027F0000020FEF797FED920FEF794FE0020FEF79A
:1028000091FEE020FEF78EFE0020FEF78BFEF32007
:10281000FEF788FE0020FEF785FEE120FEF794FE1D
:102820001620FEF77FFE0020FEF77CFE1C20FEF740
:1028300079FE0020FEF776FE2220FEF773FE0020D0
:10284000FEF770FE3620FEF76DFE0020FEF76AFEF2
:102850004520FEF767FE0020FEF764FE5220FEF7DB
:1028600061FE0020FEF75EFE6420FEF75BFE0020A6
:10287000FEF758FE7A20FEF755FE0020FEF752FEC6
:102880008B20FEF74FFE0020FEF74CFE9920FEF74E
:1028900049FE0020FEF746FEA820FEF743FE00207A
:1028A000FEF740FEB920FEF73DFE0020FEF73AFE9F
:1028B000C420FEF737FE0020FEF734FECA20FEF7E4
:1028C00031FE0020FEF72EFED220FEF72BFE002068
:1028D000FEF728FED820FEF725FE0020FEF722FE98
:1028E000E020FEF71FFE0020FEF71CFEF320FEF79F
:1028F00019FE0020FEF716FEE220FEF725FE052059
:10290000FEF710FE0020FEF70DFE0B20FEF70AFE7C
:102910000020FEF707FE1B20FEF704FE0020FEF756
:1029200001FE3420FEF7FEFD0020FEF7FBFD4420F3
:10293000FEF7F8FD0020FEF7F5FD4F20FEF7F2FD53
:102940000020FEF7EFFD6120FEF7ECFD0020FEF712
:10295000E9FD7920FEF7E6FD0020FEF7E3FD882083
:10296000FEF7E0FD0020FEF7DDFD9720FEF7DAFD23
:102970000020FEF7D7FDA620FEF7D4FD0020FEF7CD
:10298000D1FDB720FEF7CEFD0020FEF7CBFDC22023
:10299000FEF7C8FD0020FEF7C5FDC720FEF7C2FD0B
:1029A0000020FEF7BFFDD120FEF7BCFD0020FEF7A2
:1029B000B9FDD620FEF7B6FD0020FEF7B3FDDD2001
:1029C000FEF7B0FD0020FEF7ADFDF320FEF7AAFDF7
:1029D0000020FEF7A7FDE320FEF7B6FD0520FEF779
:1029E000A1FD0020FEF79EFD0A20FEF79BFD0020C2
:1029F000FEF798FD1C20FEF795FD0020FEF792FDE6
:102A00003320FEF78FFD0020FEF78CFD4420FEF7FB
:102A100089FD0020FEF786FD5020FEF783FD002093
:102A2000FEF780FD6220FEF77DFD0020FEF77AFDB7
:102A30007820FEF777FD0020FEF774FD8820FEF772
:102A400071FD0020FEF76EFD9720FEF76BFD002064
:102A5000FEF768FDA620FEF765FD0020FEF762FD8B
:102A6000B720FEF75FFD0020FEF75CFDC220FEF7F9
:102A700059FD0020FEF756FDC720FEF753FD00204C
:102A8000FEF750FDD120FEF74DFD0020FEF74AFD78
:102A9000D520FEF747FD0020FEF744FDDD20FEF7C0
:102AA00041FD0020FEF73EFDF320FEF73BFD002038
:102AB000FEF738FDE420FEF747FD0120FEF732FD6A
:102AC0000020FEF72FFD0120FEF72CFD0020FEF771
:102AD00029FD0220FEF726FD0020FEF723FD2A2017
:102AE000FEF720FD0020FEF71DFD3C20FEF71AFD3D
:102AF0000020FEF717FD4B20FEF714FD0020FEF727
:102B000011FD5D20FEF70EFD0020FEF70BFD742089
:102B1000FEF708FD0020FEF705FD8420FEF702FD0C
:102B20000020FEF7FFFC9320FEF7FCFC0020FEF7E0
:102B3000F9FCA220FEF7F6FC0020FEF7F3FCB32020
:102B4000FEF7F0FC0020FEF7EDFCBE20FEF7EAFCED
:102B50000020FEF7E7FCC420FEF7E4FC0020FEF7AF
:102B6000E1FCCD20FEF7DEFC0020FEF7DBFCD320ED
:102B7000FEF7D8FC0020FEF7D5FCDD20FEF7D2FCE6
:102B80000020FEF7CFFCF320FEF7CCFC0020FEF780
:102B9000C9FCE520FEF7D8FC0020FEF7C3FC0020AE
:102BA000FEF7C0FC0020FEF7BDFC0020FEF7BAFCDB
:102BB0000220FEF7B7FC0020FEF7B4FC2920FEF748
:102BC000B1FC0020FEF7AEFC3C20FEF7ABFC002081
:102BD000FEF7A8FC4B20FEF7A5FC0020FEF7A2FCA8
:102BE0005D20FEF79FFC0020FEF79CFC7420FEF7A2
:102BF00099FC0020FEF796FC8420FEF793FC002051
:102C0000FEF790FC9320FEF78DFC0020FEF78AFC77
:102C1000A220FEF787FC0020FEF784FCB320FEF71D
:102C200081FC0020FEF77EFCBE20FEF77BFC00202E
:102C3000FEF778FCC420FEF775FC0020FEF772FC5E
:102C4000CD20FEF76FFC0020FEF76CFCD320FEF7D2
:102C500069FC0020FEF766FCDC20FEF763FC002028
:102C6000FEF760FCF320FEF75DFC0020FEF75AFC47
:102C7000E620FEF769FC1120FEF754FC0020FEF769
:102C800051FC3420FEF74EFC0020FEF74BFC562092
:102C9000FEF748FC0020FEF745FC7620FEF742FCDC
:102CA0000020FEF73FFC7720FEF73CFC0020FEF7FB
:102CB00039FC6620FEF736FC0020FEF733FC882046
:102CC000FEF730FC0020FEF72DFC9920FEF72AFCD1
:102CD0000020FEF727FCBB20FEF724FC0020FEF7B7
:102CE00021FC9920FEF71EFC0020FEF71BFC66204D
:102CF000FEF718FC0020FEF715FC5520FEF712FC2D
:102D00000020FEF70FFC5520FEF70CFC0020FEF71C
:102D100009FC4520FEF706FC0020FEF703FC4320DB
:102D2000FEF700FC0020FEF7FDFB4420FEF7FAFB57
:102D30000020FEF7F7FBE720FEF706FC3220FEF747
:102D4000F1FB0020FEF7EEFB5520FEF7EBFB002029
:102D5000FEF7E8FB7620FEF7E5FB0020FEF7E2FB3E
:102D60006620FEF7DFFB0020FEF7DCFB6720FEF7A6
:102D7000D9FB0020FEF7D6FB6720FEF7D3FB00202F
:102D8000FEF7D0FB8720FEF7CDFB0020FEF7CAFB45
:102D90009920FEF7C7FB0020FEF7C4FBBB20FEF71F
:102DA000C1FB0020FEF7BEFB9920FEF7BBFB002015
:102DB000FEF7B8FB7720FEF7B5FB0020FEF7B2FB6D
:102DC0004420FEF7AFFB0020FEF7ACFB5620FEF7D9
:102DD000A9FB0020FEF7A6FB2320FEF7A3FB0020A3
:102DE000FEF7A0FB3320FEF79DFB0020FEF79AFBC9
:102DF0004520FEF797FB0020FEF794FBE820FEF746
:102E0000A3FB0020FEF78EFB0020FEF78BFB992032
:102E1000FEF788FB0020FEF785FB8720FEF782FB8C
:102E20000020FEF77FFB8820FEF77CFB0020FEF7EA
:102E300079FB7720FEF776FB0020FEF773FB662018
:102E4000FEF770FB0020FEF76DFB8820FEF76AFBA3
:102E50000020FEF767FBAA20FEF764FB0020FEF7C8
:102E600061FBBB20FEF75EFB0020FEF75BFB9920B9
:102E7000FEF758FB0020FEF755FB6620FEF752FBDD
:102E80000020FEF74FFB5520FEF74CFB0020FEF71D
:102E900049FB5520FEF746FB0020FEF743FB44208C
:102EA000FEF740FB0020FEF73DFB4420FEF73AFB17
:102EB0000020FEF737FB5520FEF734FB0020FEF71D
:102EC00031FBE920FEF740FBAA20FEF72BFB002098
:102ED000FEF728FB0020FEF725FB0020FEF722FB73
:102EE0000020FEF731FBAA20FEF71CFBCF20FEF7E7
:102EF0002BFB0020FEF716FB0020FEF713FB002043
:102F0000FEF710FB0020FEF70DFB0020FEF70AFB8A
:102F10000020FEF707FB0020FEF704FB0020FEF771
:102F200001FB0020FEF7FEFA0020FEF7FBFA00206E
:102F3000FEF7F8FA0020FEF7F5FA0020FEF7F2FAA5
:102F40000020FEF7EFFA0020FEF7ECFA0020FEF773
:102F5000E9FA0020FEF7E6FAF020FEF7F5FA002085
:102F6000FEF7E0FA5020FEF7DDFA0020FEF7DAFA6D
:102F70000020FEF7D7FA0020FEF7D4FAF320FEF780
:102F8000E3FA0020FEF7CEFAF920FEF7DDFA06207C
:102F9000FEF7C8FA1020FEF7C5FA2920FEF7C2FA9C
:102FA0000020FEF7BFFA3A20FEF7CEFA5520FEF7D2
:102FB000B9FA1120FEF7C8FA64202AF043FE29204E
:102FC000FEF7C2FA3520FEF7BFFA0020FEF7AAFA94
:102FD0005120FEF7B9FAFF20FEF7A4FA5320FEF7BE
:102FE000B3FA2C20FEF79EFA5520FEF7ADFA8220A8
:102FF000FEF798FA2C20FEF7A7FA08BD08B5552170
:103000004FF47040FEF7B2FAAA214FF20100FEF72A
:10301000ADFA52214FF20200FEF7A8FA08214FF252
:103020000300FEF7A3FA01214FF20400FEF79EFA17
:103030000D214FF43040FEF799FA0D214BF20100BB
:10304000FEF794FA0D214BF20200FEF78FFA3421BD
:103050004FF43640FEF78AFA34214BF20160FEF756
:1030600085FA34214BF20260FEF780FA0D214FF40D
:103070003140FEF77BFA0D214BF20110FEF776FA94
:103080000D214BF20210FEF771FA34214FF4374054
:10309000FEF76CFA34214BF20170FEF767FA342127
:1030A0004BF20270FEF762FA00214FF43240FEF755
:1030B0005DFA00214BF20120FEF758FA00214BF295
:1030C0000220FEF753FA24214FF43840FEF74EFA5F
:1030D00024214BF60100FEF749FA24214BF60200A9
:1030E000FEF744FA01214FF43F40FEF73FFA0F216B
:1030F0004FF43340FEF73AFA0F214BF20130FEF75E
:1031000035FA0F214BF20230FEF730FA34214FF43A
:103110003940FEF72BFA34214BF60110FEF726FA60
:1031200034214BF60210FEF721FA08214FF4354006
:10313000FEF71CFA08214BF20150FEF717FA08219E
:103140004BF20250FEF712FA03214FF44240FEF711
:103150000DFA24214FF43A40FEF708FA24214BF6E9
:103160000120FEF703FA24214BF60220FEF7FEF9B8
:1031700000214FF43C40FEF7F9F978214BF601406D
:10318000FEF7F4F900214BF60240FEF7EFF90021BB
:103190004FF43D40FEF7EAF978214BF60150FEF777
:1031A000E5F900214BF60250FEF7E0F900214FF45B
:1031B0003E40FEF7DBF964214BF60160FEF7D6F9DD
:1031C00000214FF45140FEF7D1F933214DF20110A7
:1031D000FEF7CCF900214DF20210FEF7C7F93421B9
:1031E0004DF20310FEF7C2F900214DF20410FEF774
:1031F000BDF93A214DF20510FEF7B8F900214DF264
:103200000610FEF7B3F94A214DF20710FEF7AEF9AA
:1032100000214DF20810FEF7A9F95C214DF20910CA
:10322000FEF7A4F900214DF20A10FEF79FF9812163
:103230004DF20B10FEF79AF900214DF20C10FEF73B
:1032400095F9A6214DF20D10FEF790F900214DF2EF
:103250000E10FEF78BF9E5214DF20F10FEF786F9FF
:1032600001214DF21010FEF781F913214DF21110DA
:10327000FEF77CF901214DF21210FEF777F9542187
:103280004DF21310FEF772F901214DF21410FEF702
:103290006DF982214DF21510FEF768F901214DF20A
:1032A0001610FEF763F9CA214DF21710FEF75EF90A
:1032B00002214DF21810FEF759F900214DF21910B4
:1032C000FEF754F902214DF21A10FEF74FF90121D1
:1032D0004DF21B10FEF74AF902214DF21C10FEF7C9
:1032E00045F934214DF21D10FEF740F902214DF24F
:1032F0001E10FEF73BF967214DF21F10FEF736F95D
:1033000002214DF22010FEF731F984214DF22110F7
:10331000FEF72CF902214DF22210FEF727F9A42125
:103320004DF22310FEF722F902214DF22410FEF790
:103330001DF9B7214DF22510FEF718F902214DF2C3
:103340002610FEF713F9CF214DF22710FEF70EF9E4
:1033500002214DF22810FEF709F9DE214DF2291065
:10336000FEF704F902214DF22A10FEF7FFF8F221D0
:103370004DF22B10FEF7FAF802214DF22C10FEF759
:10338000F5F8FE214DF22D10FEF7F0F803214DF275
:103390002E10FEF7EBF810214DF22F10FEF7E6F895
:1033A00003214DF23010FEF7E1F833214DF23110D8
:1033B000FEF7DCF803214DF23210FEF7D7F86D214D
:1033C0004DF23310FEF7D2F800214FF45240FEF7D1
:1033D000CDF833214DF20120FEF7C8F800214DF25F
:1033E0000220FEF7C3F834214DF20320FEF7BEF8A9
:1033F00000214DF20420FEF7B9F83A214DF20520E4
:10340000FEF7B4F800214DF20620FEF7AFF84A218E
:103410004DF20720FEF7AAF800214DF20820FEF732
:10342000A5F85C214DF20920FEF7A0F800214DF22D
:103430000A20FEF79BF881214DF20B20FEF796F84B
:1034400000214DF20C20FEF791F8A6214DF20D203F
:10345000FEF78CF800214DF20E20FEF787F8E521EB
:103460004DF20F20FEF782F801214DF21020FEF7F9
:103470007DF813214DF21120FEF778F801214DF26D
:103480001220FEF773F854214DF21320FEF76EF868
:1034900001214DF21420FEF769F882214DF215202A
:1034A000FEF764F801214DF21620FEF75FF8CA21FD
:1034B0004DF21720FEF75AF802214DF21820FEF7C0
:1034C00055F800214DF21920FEF750F802214DF277
:1034D0001A20FEF74BF801214DF21B20FEF746F8AB
:1034E00002214DF21C20FEF741F834214DF21D203F
:1034F000FEF73CF802214DF21E20FEF737F8672157
:103500004DF21F20FEF732F802214DF22020FEF787
:103510002DF884214DF22120FEF728F802214DF2EA
:103520002220FEF723F8A4214DF22320FEF71EF8F7
:1035300002214DF22420FEF719F8B7214DF2252083
:10354000FEF714F802214DF22620FEF70FF8CF21E6
:103550004DF22720FEF70AF802214DF22820FEF74F
:1035600005F8DE214DF22920FEF700F802214DF288
:103570002A20FDF7FBFFF2214DF22B20FDF7F6FF8D
:1035800002214DF22C20FDF7F1FFFE214DF22D20FE
:10359000FDF7ECFF03214DF22E20FDF7E7FF102190
:1035A0004DF22F20FDF7E2FF03214DF23020FDF711
:1035B000DDFF33214DF23120FDF7D8FF03214DF21D
:1035C0003220FDF7D3FF6D214DF23320FDF7CEFF02
:1035D00000214FF45340FDF7C9FF33214DF2013074
:1035E000FDF7C4FF00214DF20230FDF7BFFF34218B
:1035F0004DF20330FDF7BAFF00214DF20430FDF724
:10360000B5FF3A214DF20530FDF7B0FF00214DF234
:103610000630FDF7ABFF4A214DF20730FDF7A6FF5C
:1036200000214DF20830FDF7A1FF5C214DF2093079
:10363000FDF79CFF00214DF20A30FDF797FF812135
:103640004DF20B30FDF792FF00214DF20C30FDF7EB
:103650008DFFA6214DF20D30FDF788FF00214DF2C0
:103660000E30FDF783FFE5214DF20F30FDF77EFFB1
:1036700001214DF21030FDF779FF13214DF2113089
:10368000FDF774FF01214DF21230FDF76FFF542159
:103690004DF21330FDF76AFF01214DF21430FDF7B2
:1036A00065FF82214DF21530FDF760FF01214DF2DB
:1036B0001630FDF75BFFCA214DF21730FDF756FFBC
:1036C00002214DF21830FDF751FF00214DF2193063
:1036D000FDF74CFF02214DF21A30FDF747FF0121A3
:1036E0004DF21B30FDF742FF02214DF21C30FDF779
:1036F0003DFF34214DF21D30FDF738FF02214DF220
:103700001E30FDF733FF67214DF21F30FDF72EFF0E
:1037100002214DF22030FDF729FF84214DF22130A6
:10372000FDF724FF02214DF22230FDF71FFFA421F7
:103730004DF22330FDF71AFF02214DF22430FDF740
:1037400015FFB7214DF22530FDF710FF02214DF294
:103750002630FDF70BFFCF214DF22730FDF706FF96
:1037600002214DF22830FDF701FFDE214DF2293014
:10377000FDF7FCFE02214DF22A30FDF7F7FEF221A3
:103780004DF22B30FDF7F2FE02214DF22C30FDF709
:10379000EDFEFE214DF22D30FDF7E8FE03214DF246
:1037A0002E30FDF7E3FE10214DF22F30FDF7DEFE47
:1037B00003214DF23030FDF7D9FE33214DF2313087
:1037C000FDF7D4FE03214DF23230FDF7CFFE6D211F
:1037D0004DF23330FDF7CAFE00214FF45440FDF79F
:1037E000C5FE33214DF20140FDF7C0FE00214DF230
:1037F0000240FDF7BBFE34214DF20340FDF7B6FE5B
:1038000000214DF20440FDF7B1FE3A214DF2054092
:10381000FDF7ACFE00214DF20640FDF7A7FE4A2160
:103820004DF20740FDF7A2FE00214DF20840FDF7E2
:103830009DFE5C214DF20940FDF798FE00214DF2FE
:103840000A40FDF793FE81214DF20B40FDF78EFEFD
:1038500000214DF20C40FDF789FEA6214DF20D40EE
:10386000FDF784FE00214DF20E40FDF77FFEE521BD
:103870004DF20F40FDF77AFE01214DF21040FDF7A9
:1038800075FE13214DF21140FDF770FE01214DF23E
:103890001240FDF76BFE54214DF21340FDF766FE1A
:1038A00001214DF21440FDF761FE82214DF21540D9
:1038B000FDF75CFE01214DF21640FDF757FECA21CF
:1038C0004DF21740FDF752FE02214DF21840FDF770
:1038D0004DFE00214DF21940FDF748FE02214DF248
:1038E0001A40FDF743FE01214DF21B40FDF73EFE5D
:1038F00002214DF21C40FDF739FE34214DF21D40EE
:10390000FDF734FE02214DF21E40FDF72FFE672128
:103910004DF21F40FDF72AFE02214DF22040FDF737
:1039200025FE84214DF22140FDF720FE02214DF2BB
:103930002240FDF71BFEA4214DF22340FDF716FEA9
:1039400002214DF22440FDF711FEB7214DF2254032
:10395000FDF70CFE02214DF22640FDF707FECF21B8
:103960004DF22740FDF702FE02214DF22840FDF7FF
:10397000FDFDDE214DF22940FDF7F8FD02214DF25B
:103980002A40FDF7F3FDF2214DF22B40FDF7EEFD4D
:1039900002214DF22C40FDF7E9FDFE214DF22D40B4
:1039A000FDF7E4FD03214DF22E40FDF7DFFD102170
:1039B0004DF22F40FDF7DAFD03214DF23040FDF7C7
:1039C000D5FD33214DF23140FDF7D0FD03214DF2FD
:1039D0003240FDF7CBFD6D214DF23340FDF7C6FDC2
:1039E00000214FF45540FDF7C1FD33214DF2015048
:1039F000FDF7BCFD00214DF20250FDF7B7FD34216B
:103A00004DF20350FDF7B2FD00214DF20450FDF7D9
:103A1000ADFD3A214DF20550FDF7A8FD00214DF214
:103A20000650FDF7A3FD4A214DF20750FDF79EFD1C
:103A300000214DF20850FDF799FD5C214DF209502F
:103A4000FDF794FD00214DF20A50FDF78FFD812115
:103A50004DF20B50FDF78AFD00214DF20C50FDF7A1
:103A600085FDA6214DF20D50FDF780FD00214DF2A0
:103A70000E50FDF77BFDE5214DF20F50FDF776FD71
:103A800001214DF21050FDF771FD13214DF211503F
:103A9000FDF76CFD01214DF21250FDF767FD542139
:103AA0004DF21350FDF762FD01214DF21450FDF768
:103AB0005DFD82214DF21550FDF758FD01214DF2BB
:103AC0001650FDF753FDCA214DF21750FDF74EFD7C
:103AD00002214DF21850FDF749FD00214DF2195019
:103AE000FDF744FD02214DF21A50FDF73FFD012183
:103AF0004DF21B50FDF73AFD02214DF21C50FDF72F
:103B000035FD34214DF21D50FDF730FD02214DF2FF
:103B10001E50FDF72BFD67214DF21F50FDF726FDCE
:103B200002214DF22050FDF721FD84214DF221505C
:103B3000FDF71CFD02214DF22250FDF717FDA421D7
:103B40004DF22350FDF712FD02214DF22450FDF7F6
:103B50000DFDB7214DF22550FDF708FD02214DF274
:103B60002650FDF703FDCF214DF22750FDF7FEFC57
:103B700002214DF22850FDF7F9FCDE214DF22950CB
:103B8000FDF7F4FC02214DF22A50FDF7EFFCF22183
:103B90004DF22B50FDF7EAFC02214DF22C50FDF7BF
:103BA000E5FCFE214DF22D50FDF7E0FC03214DF226
:103BB0002E50FDF7DBFC10214DF22F50FDF7D6FC07
:103BC00003214DF23050FDF7D1FC33214DF231503D
:103BD000FDF7CCFC03214DF23250FDF7C7FC6D21FF
:103BE0004DF23350FDF7C2FC00214FF45640FDF773
:103BF000BDFC33214DF20160FDF7B8FC00214DF210
:103C00000260FDF7B3FC34214DF20360FDF7AEFC1A
:103C100000214DF20460FDF7A9FC3A214DF2056048
:103C2000FDF7A4FC00214DF20660FDF79FFC4A2140
:103C30004DF20760FDF79AFC00214DF20860FDF798
:103C400095FC5C214DF20960FDF790FC00214DF2DE
:103C50000A60FDF78BFC81214DF20B60FDF786FCBD
:103C600000214DF20C60FDF781FCA6214DF20D60A4
:103C7000FDF77CFC00214DF20E60FDF777FCE5219D
:103C80004DF20F60FDF772FC01214DF21060FDF75F
:103C90006DFC13214DF21160FDF768FC01214DF21E
:103CA0001260FDF763FC54214DF21360FDF75EFCDA
:103CB00001214DF21460FDF759FC82214DF215608F
:103CC000FDF754FC01214DF21660FDF74FFCCA21AF
:103CD0004DF21760FDF74AFC02214DF21860FDF726
:103CE00045FC00214DF21960FDF740FC02214DF228
:103CF0001A60FDF73BFC01214DF21B60FDF736FC1D
:103D000002214DF21C60FDF731FC34214DF21D60A3
:103D1000FDF72CFC02214DF21E60FDF727FC672108
:103D20004DF21F60FDF722FC02214DF22060FDF7ED
:103D30001DFC84214DF22160FDF718FC02214DF29B
:103D40002260FDF713FCA4214DF22360FDF70EFC69
:103D500002214DF22460FDF709FCB7214DF22560E8
:103D6000FDF704FC02214DF22660FDF7FFFBCF2199
:103D70004DF22760FDF7FAFB02214DF22860FDF7B6
:103D8000F5FBDE214DF22960FDF7F0FB02214DF23B
:103D90002A60FDF7EBFBF2214DF22B60FDF7E6FB0D
:103DA00002214DF22C60FDF7E1FBFE214DF22D606A
:103DB000FDF7DCFB03214DF22E60FDF7D7FB102150
:103DC0004DF22F60FDF7D2FB03214DF23060FDF77D
:103DD000CDFB33214DF23160FDF7C8FB03214DF2DD
:103DE0003260FDF7C3FB6D214DF23360FDF7BEFB82
:103DF00055214FF47040FDF7B9FBAA214FF20100A5
:103E0000FDF7B4FB52214FF20200FDF7AFFB082192
:103E10004FF20300FDF7AAFB00214FF20400FDF76B
:103E2000A5FBCC214FF43140FDF7A0FB00214BF264
:103E30000110FDF79BFB05214FF43640FDF796FB83
:103E400070214FF43740FDF791FB70214BF2017068
:103E5000FDF78CFB01214FF43840FDF787FB032170
:103E60004BF60100FDF782FB03214BF60200FDF744
:103E70007DFB03214BF60300FDF778FB02214FF495
:103E80003C40FDF773FB00214BF60140FDF76EFB54
:103E900000214BF60240FDF769FBD0214FF4494069
:103EA000FDF764FB02214CF60110FDF75FFB50218A
:103EB0004CF60210FDF75AFB50214CF60310FDF7AB
:103EC00055FB50214CF60410FDF750FB00214FF438
:103ED0005450FDF74BFB55214FF46850FDF746FB5E
:103EE0004FF48850FDF730FB7820FDF745F94FF48B
:103EF0002450FDF729FB08BD08B5E220FDF724FB9F
:103F00001D20FDF70FFB0220FDF70CFB0420FDF741
:103F100009FB6420FDF730F9E020FDF715FB0120D7
:103F2000FDF700FB0A2029F08DFEE020FDF70CFBD9
:103F30000320FDF7F7FA0C2029F084FE0120FDF79D
:103F400003FB0A2029F07EFEE620FDF7FDFA2F2074
:103F5000FDF7E8FAFF20FDF7E5FAFF20FDF7E2FAAA
:103F6000B020FDF7F1FA2020FDF7DCFA0020FDF784
:103F7000D9FA0320FDF7D6FA40F21F30FDF7D2FA46
:103F80000120FDF7CFFA40F2DF10FDF7CBFA002059
:103F9000FDF7C8FAB420FDF7D7FA0420FDF7C2FAFE
:103FA00040F21F40FDF7BEFA0020FDF7BBFA2E20BD
:103FB000FDF7B8FA0020FDF7B5FA0020FDF7B2FAD8
:103FC0000020FDF7AFFA0020FDF7ACFAB620FDF7B0
:103FD000BBFA0220FDF7A6FA4FF40370FDF7A2FA30
:103FE0000020FDF79FFA1720FDF79CFA1520FDF73A
:103FF00099FA0020FDF796FA0020FDF793FAF020D9
:10400000FDF7A2FA0320FDF78DFA2920FDF79CFAAF
:10401000D020FDF799FA0020FDF784FABE20FDF7C5
:1040200093FA0520FDF77EFAFE20FDF77BFA0120CA
:10403000FDF778FA0020FDF775FA0020FDF772FA17
:104040000020FDF76FFAB820FDF77EFA0320FDF798
:1040500069FA0120FDF766FABA20FDF775FA01202A
:10406000FDF760FA08BD000030B583B00546144B7B
:104070001B7823B928461BF060FF03B030BD0C4607
:10408000B1F90000B1F90210B4F904C0B4F9063076
:1040900000929BB21FFA8CF289B280B2FDF722FE29
:1040A000B4F9021005E00133B4F904209A42FADAB7
:1040B0000131B4F906308B42DCDBB4F90030F3E7B0
:1040C0000400002008B5FDF7A5FC08BD38B5FFF7D2
:1040D000F9FF0C4D4FF496530B4A0C4928461BF040
:1040E0003BFE0B4C20461BF00DFE4FF4F07323807B
:1040F0004FF448736380074B6361E56020461BF013
:1041000039FE38BDB85F0020E8390020681400206F
:10411000685F00206940000808B5034610B12BB164
:10412000186908BD1BF0C4FE0346F8E71846F8E717
:1041300008B5034610B12BB1586908BD1BF0B8FE95
:104140000346F8E71846F8E708B5034610B12BB167
:10415000D86908BD1BF0ACFE0346F8E71846F8E73F
:1041600008B5034610B12BB1186A08BD1BF0A0FEBC
:104170000346F8E71846F8E708B5034608B198681B
:1041800008BD1BF095FE0346F9E710B50C46034643
:1041900040B133B1D3F8542144B101210A44C3F8EA
:1041A000542110BD1BF084FE0346F2E74FF0FF31AF
:1041B000F4E708B5034638B153B1D3F854010028E9
:1041C000D4BF0020012008BD1BF072FE0346F3E7B8
:1041D0000020F8E708B5034610B12BB1586808BDB8
:1041E0001BF066FE0346F8E71846F8E7806858B10A
:1041F000837E03F03F038B4205D9C06801EB410188
:1042000000EB81007047002070470000037E13F030
:10421000040F4FD110B50446037A233B012B01D87C
:10422000012010BD4FF48041406801F00EF90028D4
:10423000F7D0237A113B1B2BF3D801A252F823F0BD
:10424000B1420008B1420008B1420008B142000882
:10425000B1420008B1420008B1420008B142000872
:10426000B1420008B1420008B142000823420008F0
:1042700023420008B14200082342000823420008FC
:10428000B1420008B1420008B1420008B142000842
:10429000234200082342000823420008234200086A
:1042A000B1420008B142000823420008B1420008B0
:1042B0000020B6E70020704710B50C4608B1006832
:1042C00003E04B68186800E0006810B10369002B38
:1042D000FAD060B1036963B10023E360036921464A
:1042E0009847237E13F0010F05D1012010BD012056
:1042F000FCE70120FAE70020F8E7F8B5064600F0F1
:1043000001FB58B1006883680BB1317A9847337E5E
:1043100013F0020774D113F0010F5BD10021706814
:10432000FFF764FF0446002511E06368F36023682B
:1043300030469847337E13F0020763D113F0010F24
:1043400048D1013529467068FFF750FF04467CB11B
:104350002368002BF5D0237A94F90820002AF0DA9C
:10436000802BE2D023F08003327A9342E9D1DCE75C
:1043700031460020FFF7A0FF074620B100217068FA
:10438000FFF734FF0446002511E06368F3602368FB
:1043900030469847337E13F002021BD113F0010F11
:1043A00032D1013529467068FFF720FF04467CB101
:1043B000012F0DD12368002BF3D0227A94F9083015
:1043C000002BEEDB002AE0D0337A9A42E9D1DCE719
:1043D000012F01D03846F8BD73685B68002BF9D017
:1043E0003046FFF713FF0028F4D073685B687360F2
:1043F0003046FFF782FF07460128EBD00027E9E7A8
:104400000127E7E70127E5E71746E3E718B310B50B
:1044100088B0019002908DF80C100023049305924F
:104420009DF81C2063F300028DF81C20D2B263F3C8
:1044300082028DF81C20D2B263F341028DF81C2059
:10444000064C2368069301A82060FFF756FF069BE1
:10445000236008B010BD0120704700BFD45F00206A
:104460000068704740687047007A00F07F0070472E
:1044700000697047C0687047084B1B6804E01A7EEB
:1044800042F001021A765B6933B15A688242F6D073
:104490001A688242F7D1F2E7704700BFD45F00206C
:1044A0002DE9F04104460F4616461D4601F0F2F98B
:1044B000A1688B7E03F03F02013262F305038B7625
:1044C000D4F8088098F81A1001F03F0101EB41017F
:1044D0008900D8F80C001CF023FFC8F80C00A36872
:1044E000DA684AB39B7E03F03F0303EB43039B0070
:1044F0000C3BD750A368DA68997E01F03F0101EBCD
:1045000041039B000C3B13441E72A268D368927E49
:1045100002F03F0202EB420292000C3A1A4455604C
:10452000A368D8689B7E03F03F0303EB43039B0023
:104530000C3B1844BDE8F081FEE708B5037A013B67
:10454000DBB20F2B02D8FFF793FF08BD0020FCE77A
:1045500008B5027AA2F11403DBB2022B05D9182A9E
:1045600003D0172A01D0192A02D1FFF781FF08BD15
:104570000020FCE7037A132B00D0704710B50C46DF
:10458000FFF776FFB0F90010A142B8BF21460180C5
:1045900010BDF8B5054600201BF0E8FC04460026D7
:1045A000374605E02646274620461BF0DFFC04463A
:1045B0005CB1204600F0ACF9636DAB42F4D1022847
:1045C0000ED00428EED02646EEE70FB13846F8BDEF
:1045D0000EB13746FAE700201BF0C8FC0746F5E7A6
:1045E0002746F3E72DE9F047037F13F0010F6FD162
:1045F00006468A469146C5684FF001080027E5B196
:10460000012357B32BB129463046C8470546874298
:1046100069D0002DF3D0286800F024FF10F0800F3F
:10462000EDD12C68ECB10121204600F00EFFC0B99D
:10463000204605F09BFC0446F4E7337F13F0080F97
:1046400001D1002F49D1B8F1000F43D03046D047F7
:1046500005464FF000084346D3E7002D40D02F46D3
:10466000D0E72CB10121204600F0EFFE0028C6D192
:10467000F368AB423AD08BB11C683046FFF789FF34
:1046800002460F212046FFF7C1FE012802D04FF05D
:1046900000081FE0F368186802F04FFBF5602C6813
:1046A0003046FFF776FF02460E212046FFF7AEFEAA
:1046B000012802D04FF000080CE0F368186802F0FF
:1046C0003CFB3369ABB1304698474FF0010801E03D
:1046D0004FF000084046BDE8F0874FF00008F9E7CA
:1046E0004FF00008F6E74FF00008F3E74FF000083E
:1046F000F0E74FF00108EDE708B5202101481CF074
:104700002DFC08BD24630020014B1868704700BFD2
:10471000D85F002010B50446054A0649FFF762FF3E
:1047200063691BB110B901212046984710BD00BF35
:10473000F90F0208E90F020810B50446054A0649B8
:10474000FFF750FF63691BB110B90021204698475D
:1047500010BD00BF01100208F10F020838B5044671
:10476000037FC3F3C00543F008030377DBB213F004
:10477000040F06D1FFF7CEFF237F65F3C303237732
:1047800038BDFFF7D9FFF7E770B5064600F06CFEBD
:10479000002849D00546C36813B11B68B34213D043
:1047A000EB6813B11B68B34230D028461CF01CFCE8
:1047B0000446002C38D02368B3422AD0214628462C
:1047C0001CF01AFC0446F4E7037F13F0010F03D03A
:1047D000037F6FF30003037728461CF005FCEB68AA
:1047E000834203D02846FFF7B9FFD9E728461CF0DB
:1047F000FFFBEB688342F5D11C682846FFF7C9FE32
:1048000002460F212046FFF701FEC9E70023EB60B7
:10481000CBE7214628461CF0F6FB20461CF076FD2F
:10482000B3680BB100229A6070BD002839D070B512
:104830000C4605460846FFF7A7FF28461CF0D4FBA8
:10484000014639B10B68A3421ED028461CF0D4FBA8
:104850000146F6E7204600F007FE30B1A3689B68EA
:104860001BB1DB681B68A3420FD0A36883B1A368A8
:104870009D6028461CF099FB064668B104602846F6
:104880001CF0B2FB864208D070BDFFF767FFECE773
:10489000204600F0FFFFEAE7FEE72846FFF75EFF4D
:1048A000F2E7704718B1C06808B1006870477047F8
:1048B000F8B170B50446037FC3F340038B4213D0B5
:1048C000037F61F341030377FFF7ECFF054658B11F
:1048D000E3681E682046FFF75CFE02460E21304664
:1048E000FFF794FD012800D070BD284602F025FA9C
:1048F000FAE7704718B1007FC0F34000704700200E
:1049000070470000014B1868704700BFDC5F002053
:1049100010B10368187870470020704710B50C4636
:1049200030B30346427942F002024271254A1268CE
:10493000824206D01A681278013AD2B2012A04D90A
:1049400010BD214A00211160F4E714B15A6BA24254
:1049500001D100225A6314B19A6AA24201D1002205
:104960009A6214B1DA6AA242EAD10022DA62E7E777
:1049700000201BF0FBFA03E00023C3621BF0F6FAF1
:10498000D8B1437943F00203437103681B78013BBC
:10499000DBB2012BF2D814B1436BA34201D1002347
:1049A000436314B1836AA34201D100238362002CC4
:1049B000E2D0C36AA342E1D1DEE7034B00221A60D2
:1049C000BEE700BFDC5F0020E05F002010B50446BA
:1049D00043796FF3000343711BF0E2FAE0641BF0CC
:1049E000DFFAA06410BD034650B102681278012AB4
:1049F0000AD0032A08D04FF6FF730B804B80704714
:104A000000230B804B807047B3F908200A80B3F96C
:104A10000A304B807047034650B102681278012A71
:104A200001D0032A06D193F8440000F00F0070472C
:104A30000020704700207047034638B102681278A2
:104A4000012A01D0032A02D1186B70477047002059
:104A5000704700230B804B80034658B102681278E0
:104A6000012A01D0032A05D1B3F918200A80B3F92D
:104A70001A304B80704718B1437943F008034371F3
:104A800070470000014B1868704700BFE05F0020CE
:104A90000246E0B1032907D00C291AD1B0F926301B
:104AA0001268517E00200FE0B0F92430F8E7184476
:104AB00000B2C1F1640202FB03F3074A82FB03C2A6
:104AC000DB17C3EB62131BB2002BF0D17047002041
:104AD00070470020704700BF1F85EB5138B5054671
:104AE0000C46084609F080F821224FF48031284610
:104AF00004F012FDC0B2E07002283CD831224FF41D
:104B00008031284604F008FDC0B284F82200022853
:104B100039D845224FF48031284604F0FDFCC0B25C
:104B200084F83600022844D860224FF480312846A9
:104B300004F0F2FCC3B2FC2B0CD8E378C0B200FB4B
:104B400003F31B0AE37000FB03F31B0A84F8223013
:104B500084F83630E3782BB994F8223013B994F8FE
:104B6000360038B10B224FF48031284604F0D4FCD3
:104B70002080012038BD20224FF48031284604F0E7
:104B8000CBFCA080BAE732224FF48031284604F0F3
:104B9000C3FC00B22084002803DC002384F8223008
:104BA000B7E730224FF48031284604F0B5FCE083AB
:104BB000AFE740224FF48031284604F0ADFC00B24C
:104BC000E085002803DC002384F83630ACE743227C
:104BD0004FF48031284604F09FFCA08644224FF415
:104BE0008031284604F098FCA0859DE770B5A4B0FC
:104BF00004460D4620AA22A903F0EEFC22A81BF0D1
:104C000031FC18B920A81BF02DFC28B112A92046B0
:104C1000FFF764FF012801D024B070BD2946684623
:104C200001F09EFA1B4B01930223029312AB0493F3
:104C30004FF480330D9322A81BF014FCB8B920A8C0
:104C40001BF010FC0028E7D020AE03966A461A211C
:104C50002046FFF7DBFB0396324612A9284608F0F0
:104C6000EBFF6A461B212046FFF7D0FBD4E722AEBC
:104C700003966A461A212046FFF7C8FB324612A95E
:104C8000284608F0D9FF6A461B212046FFF7BEFBE5
:104C9000D5E700BFB40A03082DE9F041A2B00646EB
:104CA000FFF7E2FB05463046FFF7DAFB0446122D1C
:104CB00007D0152D5BD0182D00F0EE8022B0BDE896
:104CC000F0813046FFF7D4FB05460378022BF5D080
:104CD00017220021204604F01FFC10B102232B7084
:104CE000ECE70B220021204604F016FC07B26822F4
:104CF0000021204604F010FC0646692200212046CF
:104D000004F00AFCB4F91410ADF84010B4F9162000
:104D1000ADF84220B4F918E0ADF844E0B4F91AC097
:104D2000ADF846C0B3B2C91AADF840107344ADF83F
:104D3000443080B2121AADF842206044ADF846000B
:104D40003A4610A968681BF0EDFC10B901232B70DE
:104D5000B4E721220021204604F0DEFBC0B2FC288B
:104D600002D900232B70A9E701232B70A6E7304658
:104D7000FFF7EEFB064602A808F036FF34220021BA
:104D8000204604F0C9FB28B19DF82B3043F0010305
:104D90008DF82B3002AF3A460021204600F09CFEF1
:104DA00068220021204604F0B7FB05466922002155
:104DB000204604F0B1FBB4F914C0ADF800C0B4F95A
:104DC0001610ADF80210B4F91830ADF80430B4F98B
:104DD0001AE0ADF806E0AAB2ACEB020CADF800C0E8
:104DE0001A44ADF8042083B2C91AADF80210734416
:104DF000ADF80630314610A801F0B2F9644B1193BA
:104E0000002512951497CDF84CD01D9510AA1A21A3
:104E10002046FFF7FBFA17222946204604F07CFBC8
:104E200020B1BDF908309BB92B4600E00023069F56
:104E30001D460BB1002306936A4602A9304608F0CE
:104E4000FBFE3DB910AA1B212046FFF7DFFA35E72C
:104E50000123ECE718201CF075FA05460023BDF984
:104E6000082004F1140108F00BFE04F590712846A7
:104E700008F0E0FB002FE5D000238DF80B308DF813
:104E80002A308DF832308DF83E3006976A4602A9F6
:104E9000304608F0D1FED5E73046FFF759FB05460E
:104EA00001462046FFF7A2FE17220021204604F00B
:104EB00033FB00285FD134220021204604F02CFB74
:104EC00000283FF4FBAE02AF384608F08DFE002606
:104ED0008DF80B608DF822608DF832608DF83E60A1
:104EE0003A463146204600F0F7FD6822314620461A
:104EF00004F012FB804669223146204604F00CFB88
:104F0000B4F91410ADF80010B4F91620ADF8022071
:104F1000B4F918E0ADF804E0B4F91AC0ADF806C071
:104F20001FFA88F3C91AADF800107344ADF80430C5
:104F300080B2121AADF802206044ADF8060029468E
:104F400010A801F00DF9124B11930123129314973D
:104F5000CDF84CD01D9610AA1A212046FFF756FA1C
:104F60006A463946284608F067FE10AA1B212046EB
:104F7000FFF74CFAA2E604F5907008F0B1FB064684
:104F8000002898D008F0C6FB30461CF03DFA92E7A6
:104F9000B40A03082DE9F0410C464D6825B32846B4
:104FA00002F0C2FE0746284602F05CFE8046EE8A0A
:104FB00010220021284604F0AFFA83B233449BB29A
:104FC000A3EB08039AB2E382531E6383AE8A1222D4
:104FD0000021284604F0A0FA80B20644B6B2F01BC5
:104FE00083B2A082013B23830223E36141F20203E7
:104FF000E36115B143F20203E3611DB1E36943F4D8
:105000004073E361E36943F00402E26143F0140298
:10501000E26143F03402E26143F07403E36143F47C
:105020000063E36115B143F40043E361BDE8F0813F
:105030002DE9F04F8DB082460691008C0990884290
:1050400008D0AAF820100A460146504604F097F806
:10505000089010B90DB0BDE8F08F4FF420701CF02F
:1050600071F983464FF420711CF0BFFA0026B14657
:10507000CDF814A043E014F4004F3AD114F4804F5B
:1050800003D16B680A93012336E01DF09FF80A9064
:10509000F9E70022C87982422ED2086800EBC205E7
:1050A00030F83240C4F30D006628E4D00132F1E755
:1050B00011F4004F67D111F4804F04D157F822301A
:1050C0000A93012318E01DF081F80A90F9E7C2F372
:1050D0000D00662810D112F4004F56D112F4804F03
:1050E00003D10B680A93012306E01DF06FF80A90C4
:1050F000F9E7022300E02346012B48D00136059B47
:105100005B8CC3F3C503B34240F2C380B9F11F0FF8
:1051100000F29480DDF81480D8F80C50F40005EB10
:10512000C6070797786820F07F4004F026F882468B
:105130000490D8F80C302344586820F07F4004F0E5
:1051400053F90290069B3AEA0303D7D1FB7913F097
:105150000203D3D129598A884FF6FF70824298D032
:10516000CC79002CC7D0012CB1D90F6807EB84058E
:1051700000229442C0D935F81210C1F30D00662800
:1051800096D00132F5E70223B6E70223B4E7DDF853
:105190002880002303930B96029E20E00134A14552
:1051A00018D904EB84050BEB85056F68384603F0CE
:1051B000E4FF0290384604F017F92A89D8F8003045
:1051C00033F80A309A42E9D18642E7D1049B029A29
:1051D0009342E3D8A1450FD0039B01330393D8F842
:1051E0000030039A4FEA420A33F8123023B3B9F180
:1051F0001F0F1FD80024D2E7D8F80C1009EB890242
:105200000BEB82032BF82210D8F810205A80D8F824
:105210000820DA60D8F8002032F80A201A81D8F87D
:1052200004201A61079A5268C2F317025A6009F102
:105230000109D1E70B9E61E70B9E5FE7DDF814A043
:105240000024099E069F0EE004EB84050BEB850508
:10525000686804F0C9F8014600953B46324650465E
:1052600004F0D0F90134A145EED858461CF0CCF832
:10527000089B012B13D0089B032B14D0089B022BF7
:105280007FF4E8AE504601F058FD504600F077FF3D
:10529000E0E6DDF814A00024099E069FE3E75046EF
:1052A00001F04BFDD6E64FF6FF724FF470215046E9
:1052B00004F06AFACEE6000008B5124B1B7803B181
:1052C00008BD1CF018F81DF06DFB1BF02BFD1AF04B
:1052D00073FFFFF711FA06F0F1F903F01FFF4FF427
:1052E000AE7109481BF03AFE5C2108481BF036FEFF
:1052F00005F0FCFB09F096F910F048FE014B012285
:105300001A70DDE7E45F00208862002068630020F7
:1053100010B50146034800F007FB044600F0A3FB6C
:10532000204610BDB40A0308F0B585B004460D460A
:1053300001F05AF8064615F0010718D1E3692B432E
:10534000E361C7B9204601F04FF8B04202D115F031
:10535000C07F07D0204604F009FE01F05FF8204628
:1053600001F05CF815F0100F09D105B0F0BD204632
:1053700001F0E3FCE2E7204601F0DFFCE2E702AAED
:105380006946204603F028F96946204601F0ADFC45
:1053900002A9204601F0A9FCE7E770B584B00446F5
:1053A0000D4601F021F8064615F0100F15D1E369FE
:1053B00023EA0503E36115F0010F1CD1204601F03B
:1053C00013F8B04202D115F0C07F04D0204604F09B
:1053D000CDFD01F023F804B070BD02AA6946204655
:1053E00003F0FAF86946204601F07FFC02A9204646
:1053F00001F07BFCDBE7204601F09FFC204600F03B
:10540000F3FF0028DAD0204604F0B0FD01F006F8E2
:10541000204601F003F8D1E708B5038C43EA010206
:1054200031EA030300D108BD1146FFF701FEFAE798
:1054300008B5028CB0F9203023EA010189B28A4212
:1054400000D108BDFFF7F4FDFBE7C36931EA0303B0
:105450000CBF012000207047C3690B4214BF01201C
:1054600000207047008C7047806800B180687047EA
:10547000F0B585B00E460846FEF7F6FF0446304606
:10548000FEF7F0FF0546012C26D0082C29D0032C6E
:105490004CD02A2C4ED00D2C5AD00E2C00F02A8144
:1054A000092C00F058810A2C00F059810F2C00F0D3
:1054B0006D81292C00F06E81222C00F08B81132C41
:1054C00000F0AC81152C03D0182C01D0122C06D181
:1054D0003046FFF7E1FB02E02021FFF79DFF05B01A
:1054E000F0BD2021FFF7A4FF3046FEF7C1FFFFF714
:1054F000A3FA0028F3D108212846FFF7A6FF0028C9
:10550000EDD02846FFF7AEFF10F0010F09D10121C1
:105510002846FFF781FF00221C212846FEF776FF70
:10552000DDE701212846FFF783FFF4E72021FFF79D
:105530007FFFD4E704F059FD06460024B442CED2E2
:10554000AB681B6853F8240000F068FF0134F5E7EE
:105550000821FFF77AFF00283ED14FF40161284669
:10556000FFF773FF0028BAD0284600F056FA00284B
:10557000B5D1284602F0D8FB0746284602F044FC85
:1055800004463046FEF774FF0378122B42D0112BED
:1055900054D0132B66D0142BA1D1284602F03AFB2D
:1055A00010F0030F00F09080002F02DC002C40F37D
:1055B0008B80284602F046FB84B2284600F0D0FFDC
:1055C00001460028C0F29480A4EBA101002209B298
:1055D000284602F0F5FD82E73046FEF749FF0478E1
:1055E000132C0AD0112C08D0142C01D0122C08D165
:1055F00001212846FFF71CFF03E001212846FFF7A1
:105600000BFF0A2C3FF46BAF00221C212846FEF74B
:10561000FDFE64E7284602F01DFB84B2284600F038
:10562000A7FF0146002807DB04EBA101002209B215
:10563000284602F0D9FD52E7C11CF5E7284602F0E2
:1056400009FB84B2284600F093FF0146002807DBDF
:10565000A4EBA101002209B2284602F0C5FD3EE7F5
:10566000C11CF5E7284602F0D5FA10F0030F15D05B
:10567000002F01DC002C11DD284602F0E3FA84B291
:10568000284600F06DFF014600281BDB04EBA1015A
:10569000002209B2284602F093FD20E7284602F0D6
:1056A000D9FA84B2284600F063FF0146002807DBE0
:1056B00004EBA101002209B2284602F095FD0EE795
:1056C000C11CF5E7C11CE1E7284602F0C3FA84B229
:1056D000284600F04DFF0146002807DBA4EBA1019E
:1056E000002209B2284602F07FFDF8E6C11CF5E76A
:1056F000C11C69E74FF48061FFF7A7FEB0B92846E7
:10570000FFF7B2FEFFF7F6F80446FFF7FBF890B19B
:10571000FFF7FEF8022812D0042812D0022194B11B
:1057200041F008012846FFF777FED8E60121284618
:1057300002F032FFE3E73046FEF7FFFEE8E706211E
:10574000EDE70621EBE72846FFF766FE082128462D
:10575000FFF76EFEC3E64021FFF75EFEBFE6402185
:10576000FFF766FE284602F04DFA02287FF4B7AE36
:1057700002AA6946284602F02FFF6946284601F032
:10578000B4FA02A9284601F0B0FAA8E60E21FFF704
:105790004FFEA4E60922002103F0BEFEC4B20A2295
:1057A0000021284603F0B8FE80B200B914B12846A3
:1057B00000F034FE284604F018FC0646002406E0FB
:1057C000AB681B6853F8240000F028FE0134B44293
:1057D000F6D384E60122002103F09EFE07B20422E4
:1057E0000021284603F098FE06B20922002128462F
:1057F00003F092FEC4B20A220021284603F08CFE78
:1058000080B238B934B942F2D1739F4202D09E427D
:105810007FF465AE284600F001FE60E6002100F04E
:1058200033FC01463046FEF7A5FE58E610B50C469F
:105830000846FEF721FE002003F078FC144A002100
:10584000204604F0D9F9012003F070FC0021204625
:105850001AF0E6FC2046FFF707FE10B12046FEF7DF
:1058600093FFA3689BB1186820B11BF04FFDA3689C
:1058700000221A60A368D86820B11BF047FDA36816
:105880000022DA60A0681BF041FD0023A36010BD78
:10589000FFFF0F00836803B1704710B504460C4A40
:1058A0001368013313601C201BF026FDA06068B153
:1058B0001C211BF09AFEA268537E43F00F0353761F
:1058C000A268137E43F00303137610BDFEE700BF0A
:1058D000E85F002028B10068884214BF0020012042
:1058E00070470020704738B5044605682B6813B12F
:1058F0000360FFF7F8FF25606B6813B12146284667
:10590000984738BD00E0006820B18269054B13401C
:10591000002BF8D018B18069C0F30F107047002039
:10592000704700BFF0FF0F00F8B505460C46FFF7C3
:10593000E9FF06461BF0E0FC0746F0B131461BF0DC
:1059400054FE3D607C60D4B1A368002B47D0A568AD
:105950002B68002B47D06B6801336B60A5686968C2
:10596000890028681BF0DCFC2860A3681A685B6863
:1059700003F18043013B42F823703846F8BD1AF02A
:1059800097FA0446F0B1C06808B3616A01316162F8
:1059900089001BF0C5FCE060636A03F18043013BB2
:1059A00040F823700024BC82FC8220461AF086FA5C
:1059B00080B20138388320461AF098FA80B2013854
:1059C0007883DAE738461BF0A1FC2746D5E70420A8
:1059D0001BF092FCE060076001236362E2E720466F
:1059E000FFF758FFB3E704201BF086FC2860A3688C
:1059F0001B681F60A36801225A60BEE710B5044609
:105A0000006883680BB12146984723681B681BB167
:105A100023602046FFF7F2FF10BD036800E01B681B
:105A20001BB11A7E12F0030FF9D03BB1187E00F0C3
:105A30000300012814BF0020012070470020704798
:105A4000036800E01B681BB11A7E12F00C0FF9D03E
:105A50003BB1187E00F00C00042814BF0020012088
:105A600070470020704738B5044600F0D7FC00208E
:105A700003F05CFB204605F0E7FD2046FFF733FF0F
:105A8000012003F053FB4FF6FF724FF470212046C4
:105A900003F07AFE204600F0A3FFFEF735FE20B1AA
:105AA00005462046FFF7CCFF88B9204604F05EFA91
:105AB000054658B122462221FEF7A8FC22462321A2
:105AC0002846FEF7A3FC204601F037F938BD2146F1
:105AD0002846FEF7AAFEE8E7F8B5054614460E4646
