:020000040800F2
:1000000000000120D1180308651A0008671A0008CB
:10001000691A00086B1A00086D1A00080000000039
:10002000000000000000000000000000410F030875
:100030006F1A000800000000E10F030825100308F4
:1000400019190308191903081919030819190308BC
:1000500019190308191903081919030819190308AC
:10006000191903081919030819190308191903089C
:10007000191903081919030819190308191903088C
:10008000191903081919030819190308191903087C
:10009000191903081919030819190308191903086C
:1000A00019190308711A0008191903081919030806
:1000B000191903081919030819190308191903084C
:1000C000191903081919030819190308191903083C
:1000D000191903081919030819190308191903082C
:1000E000191903081919030819190308191903081C
:1000F000191903081919030819190308191903080C
:1001000019190308191903081919030819190308FB
:1001100019190308191903081919030819190308EB
:1001200019190308191903081919030819190308DB
:1001300000000000000000000000000000000000BF
:1001400000000000000000000000000000000000AF
:10015000000000000000000000000000000000009F
:10016000000000000000000000000000000000008F
:10017000000000000000000000000000000000007F
:10018000000000000000000000000000000000006F
:10019000000000000000000000000000000000005F
:1001A000000000000000000000000000000000004F
:1001B000000000000000000000000000000000003F
:1001C000000000000000000000000000000000002F
:1001D000000000000000000000000000000000001F
:0401E0005FF8E0F1F3
:1001F00010B5054C237833B9044B13B10448AFF361
:1002000000800123237010BDA00A00200000000020
:100210005C7A030808B5034B1BB103490348AFF3ED
:10022000008008BD00000000A40A00205C7A0308DA
:1002300081F0004102E000BF83F0004330B54FEA97
:1002400041044FEA430594EA050F08BF90EA020F04
:100250001FBF54EA000C55EA020C7FEA645C7FEA97
:10026000655C00F0E2804FEA5454D4EB5555B8BFBA
:100270006D420CDD2C4480EA020281EA030382EA2B
:10028000000083EA010180EA020281EA0303362DBD
:1002900088BF30BD11F0004F4FEA01314FF4801C90
:1002A0004CEA113102D0404261EB410113F0004FA2
:1002B0004FEA03334CEA133302D0524263EB430359
:1002C00094EA050F00F0A780A4F10104D5F1200EF7
:1002D0000DDB02FA0EFC22FA05F2801841F1000152
:1002E00003FA0EF2801843FA05F359410EE0A5F126
:1002F00020050EF1200E012A03FA0EFC28BF4CF057
:10030000020C43FA05F3C01851EBE37101F000450C
:1003100007D54FF0000EDCF1000C7EEB00006EEB19
:100320000101B1F5801F1BD3B1F5001F0CD34908A3
:100330005FEA30004FEA3C0C04F101044FEA4452FA
:1003400012F5800F80F09A80BCF1004F08BF5FEA81
:10035000500C50F1000041EB045141EA050130BD61
:100360005FEA4C0C404141EB0101013C28BFB1F573
:10037000801FE9D291F0000F04BF01460020B1FABE
:1003800081F308BF2033A3F10B03B3F120020CDA91
:100390000C3208DD02F1140CC2F10C0201FA0CF06F
:1003A00021FA02F10CE002F11402D8BFC2F1200CD4
:1003B00001FA02F120FA0CFCDCBF41EA0C0190408A
:1003C000E41AA2BF01EB0451294330BD6FEA0404D3
:1003D0001F3C1CDA0C340EDC04F11404C4F12002BE
:1003E00020FA04F001FA02F340EA030021FA04F3D0
:1003F00045EA030130BDC4F10C04C4F1200220FA27
:1004000002F001FA04F340EA0300294630BD21FA64
:1004100004F0294630BD94F0000F83F4801306BF2A
:1004200081F480110134013D4EE77FEA645C18BF1E
:100430007FEA655C29D094EA050F08BF90EA020FB5
:1004400005D054EA000C04BF1946104630BD91EAAD
:10045000030F1EBF0021002030BD5FEA545C05D1B0
:100460004000494128BF41F0004130BD14F58004EF
:100470003CBF01F5801130BD01F0004545F0FE4163
:1004800041F470014FF0000030BD7FEA645C1ABF98
:10049000194610467FEA655C1CBF0B46024650EACF
:1004A000013406BF52EA033591EA030F41F40021FB
:1004B00030BD00BF90F0000F04BF0021704730B581
:1004C0004FF4806404F132044FF000054FF0000156
:1004D00050E700BF90F0000F04BF0021704730B517
:1004E0004FF4806404F1320410F0004548BF4042EC
:1004F0004FF000013EE700BF42004FEAE2014FEA41
:1005000031014FEA02701FBF12F07F4393F07F4F1B
:1005100081F06051704732F07F4208BF704793F01E
:100520007F4F04BF41F40021704730B54FF4607431
:1005300001F0004521F000411CE700BF50EA010234
:1005400008BF704730B54FF000050AE050EA0102DD
:1005500008BF704730B511F0004502D5404261EB4D
:1005600041014FF4806404F132045FEA915C3FF48E
:10057000D8AE4FF003025FEADC0C18BF03325FEA2B
:10058000DC0C18BF033202EBDC02C2F1200300FADC
:1005900003FC20FA02F001FA03FE40EA0E0021FA01
:1005A00002F11444BDE600BF70B54FF0FF0C4CF4EF
:1005B000E06C1CEA11541DBF1CEA135594EA0C0FA1
:1005C00095EA0C0F00F0DEF82C4481EA030621EADC
:1005D0004C5123EA4C5350EA013518BF52EA033517
:1005E00041F4801143F4801338D0A0FB02CE4FF0C9
:1005F0000005E1FB02E506F00042E0FB03E54FF0F9
:100600000006E1FB03569CF0000F18BF4EF0010EF0
:10061000A4F1FF04B6F5007F64F5407404D25FEAEC
:100620004E0E6D4146EB060642EAC62141EA55519F
:100630004FEAC52040EA5E504FEACE2EB4F1FD0CE1
:1006400088BFBCF5E06F1ED8BEF1004F08BF5FEA5F
:10065000500E50F1000041EB045170BD06F0004611
:1006600046EA010140EA020081EA0301B4EB5C04BE
:10067000C2BFD4EB0C0541EA045170BD41F48011B6
:100680004FF0000E013C00F3AB8014F1360FDEBFDB
:10069000002001F0004170BDC4F10004203C35DAB7
:1006A0000C341BDC04F11404C4F1200500FA05F33A
:1006B00020FA04F001FA05F240EA020001F00042DB
:1006C00021F0004110EBD37021FA04F642EB060151
:1006D0005EEA430E08BF20EAD37070BDC4F10C047B
:1006E000C4F1200500FA04F320FA05F001FA04F23F
:1006F00040EA020001F0004110EBD37041F100012B
:100700005EEA430E08BF20EAD37070BDC4F1200535
:1007100000FA05F24EEA020E20FA04F301FA05F29D
:1007200043EA020321FA04F001F0004121FA04F245
:1007300020EA020000EBD3705EEA430E08BF20EA15
:10074000D37070BD94F0000F0FD101F0004640004F
:1007500041EB010111F4801F08BF013CF7D041EAD1
:10076000060195F0000F18BF704703F000465200D5
:1007700043EB030313F4801F08BF013DF7D043EAA6
:100780000603704794EA0C0F0CEA135518BF95EA5C
:100790000C0F0CD050EA410618BF52EA4306D1D1E3
:1007A00081EA030101F000414FF0000070BD50EA02
:1007B000410606BF1046194652EA430619D094EA8C
:1007C0000C0F02D150EA013613D195EA0C0F05D176
:1007D00052EA03361CBF104619460AD181EA0301CA
:1007E00001F0004141F0FE4141F470014FF0000082
:1007F00070BD41F0FE4141F4780170BD70B54FF01D
:10080000FF0C4CF4E06C1CEA11541DBF1CEA13559C
:1008100094EA0C0F95EA0C0F00F0A7F8A4EB05047E
:1008200081EA030E52EA03354FEA013100F0888075
:100830004FEA03334FF0805545EA131343EA12633E
:100840004FEA022245EA111545EA10654FEA0026F3
:100850000EF000419D4208BF964244F1FD0404F5AC
:10086000407402D25B084FEA3202B61A65EB030508
:100870005B084FEA32024FF480104FF4002CB6EBC5
:10088000020E75EB030E22BFB61A754640EA0C0045
:100890005B084FEA3202B6EB020E75EB030E22BF85
:1008A000B61A754640EA5C005B084FEA3202B6EBC6
:1008B000020E75EB030E22BFB61A754640EA9C0085
:1008C0005B084FEA3202B6EB020E75EB030E22BF55
:1008D000B61A754640EADC0055EA060E18D04FEA13
:1008E000051545EA16754FEA06164FEAC30343EAB3
:1008F00052734FEAC2025FEA1C1CC0D111F4801F80
:100900000BD141EA00014FF000004FF0004CB6E778
:1009100011F4801F04BF01430020B4F1FD0C88BF17
:10092000BCF5E06F3FF6AFAEB5EB030C04BFB6EB22
:10093000020C5FEA500C50F1000041EB045170BD15
:100940000EF0004E4EEA113114EB5C04C2BFD4EB42
:100950000C0541EA045170BD41F480114FF0000EC6
:10096000013C90E645EA060E8DE60CEA135594EA42
:100970000C0F08BF95EA0C0F3FF43BAF94EA0C0F45
:100980000AD150EA01347FF434AF95EA0C0F7FF4BA
:1009900025AF104619462CE795EA0C0F06D152EA0E
:1009A00003353FF4FDAE1046194622E750EA4106F2
:1009B00018BF52EA43067FF4C5AE50EA41047FF403
:1009C0000DAF52EA43057FF4EBAE12E74FF0FF3C68
:1009D00006E000BF4FF0010C02E000BF4FF0010C39
:1009E0004DF804CD4FEA410C7FEA6C5C4FEA430CB2
:1009F00018BF7FEA6C5C1BD001B050EA410C0CBF01
:100A000052EA430C91EA030F02BF90EA020F002062
:100A1000704710F1000F91EA030F58BF994208BFC9
:100A200090422CBFD8176FEAE37040F00100704786
:100A30004FEA410C7FEA6C5C02D150EA013C07D1DD
:100A40004FEA430C7FEA6C5CD6D152EA033CD3D028
:100A50005DF8040B704700BF8446104662468C4622
:100A60001946634600E000BF01B5FFF7B7FF002855
:100A700048BF10F1000F01BD4DF808EDFFF7F4FF7E
:100A80000CBF012000205DF808FB00BF4DF808ED09
:100A9000FFF7EAFF34BF012000205DF808FB00BF2C
:100AA0004DF808EDFFF7E0FF94BF012000205DF84E
:100AB00008FB00BF4DF808EDFFF7CEFF94BF012003
:100AC00000205DF808FB00BF4DF808EDFFF7C4FFFC
:100AD00034BF012000205DF808FB00BF4A0011D29E
:100AE00012F5001211D20DD56FF47873B3EB625288
:100AF0000ED44FEAC12343F0004343EA505323FA94
:100B000002F070474FF00000704750EA013002D108
:100B10004FF0FF3070474FF00000704780F000400A
:100B200002E000BF81F0004142001FBF5FEA4103C5
:100B300092EA030F7FEA226C7FEA236C6AD04FEAC5
:100B40001262D2EB1363C1BFD2184140484041400A
:100B5000B8BF5B42192B88BF704710F0004F40F4BC
:100B6000000020F07F4018BF404211F0004F41F4D8
:100B7000000121F07F4118BF494292EA030F3FD0A4
:100B8000A2F1010241FA03FC10EB0C00C3F12003B7
:100B900001FA03F100F0004302D5494260EB400046
:100BA000B0F5000F13D3B0F1807F06D340084FEAB1
:100BB000310102F10102FE2A51D2B1F1004F40EBA6
:100BC000C25008BF20F0010040EA0300704749000E
:100BD00040EB0000013A28BFB0F5000FEDD2B0FAAB
:100BE00080FCACF1080CB2EB0C0200FA0CF0AABFCE
:100BF00000EBC25052421843BCBFD040184370476C
:100C000092F0000F81F4000106BF80F40000013271
:100C1000013BB5E74FEA41037FEA226C18BF7FEA48
:100C2000236C21D092EA030F04D092F0000F08BF8A
:100C30000846704790EA010F1CBF0020704712F071
:100C40007F4F04D1400028BF40F00040704712F1B0
:100C500000723CBF00F50000704700F0004343F015
:100C6000FE4040F4000070477FEA226216BF08464B
:100C70007FEA23630146420206BF5FEA412390EA0E
:100C8000010F40F4800070474FF0000304E000BF04
:100C900010F0004348BF40425FEA000C08BF7047B5
:100CA00043F0964301464FF000001CE050EA010279
:100CB00008BF70474FF000030AE000BF50EA01028E
:100CC00008BF704711F0004302D5404261EB41017B
:100CD0005FEA010C02BF84460146002043F0B643A0
:100CE00008BFA3F18053A3F50003BCFA8CF2083AC5
:100CF000A3EBC25310DB01FA02FC634400FA02FCCE
:100D0000C2F12002BCF1004F20FA02F243EB0200D4
:100D100008BF20F00100704702F1200201FA02FC36
:100D2000C2F1200250EA4C0021FA02F243EB020029
:100D300008BF20EADC7070474FF0FF0C1CEAD0526D
:100D40001EBF1CEAD15392EA0C0F93EA0C0F6FD02E
:100D50001A4480EA010C400218BF5FEA41211ED00C
:100D60004FF0006343EA501043EA5111A0FB0131F8
:100D70000CF00040B1F5000F3EBF490041EAD371CD
:100D80005B0040EA010062F17F02FD2A1DD8B3F149
:100D9000004F40EBC25008BF20F00100704790F0B8
:100DA000000F0CF0004C08BF49024CEA502040EA0A
:100DB00051207F3AC2BFD2F1FF0340EAC2507047D0
:100DC00040F400004FF00003013A5DDC12F1190F0E
:100DD000DCBF00F000407047C2F10002410021FA80
:100DE00002F1C2F1200200FA02FC5FEA310040F198
:100DF000000053EA4C0308BF20EADC70704792F011
:100E0000000F00F0004C02BF400010F4000F013A48
:100E1000F9D040EA0C0093F0000F01F0004C02BF43
:100E2000490011F4000F013BF9D041EA0C018FE7B2
:100E30000CEAD15392EA0C0F18BF93EA0C0F0AD0B8
:100E400030F0004C18BF31F0004CD8D180EA0100DE
:100E500000F00040704790F0000F17BF90F0004F77
:100E6000084691F0000F91F0004F14D092EA0C0F59
:100E700001D142020FD193EA0C0F03D14B0218BFEC
:100E8000084608D180EA010000F0004040F0FE4032
:100E900040F40000704740F0FE4040F440007047CE
:100EA0004FF0FF0C1CEAD0521EBF1CEAD15392EA4D
:100EB0000C0F93EA0C0F69D0A2EB030280EA010C3D
:100EC00049024FEA402037D04FF0805343EA1111D6
:100ED00043EA10130CF000408B4238BF5B0042F134
:100EE0007D024FF4000C8B4224BF5B1A40EA0C00D9
:100EF000B3EB510F24BFA3EB510340EA5C00B3EB0B
:100F0000910F24BFA3EB910340EA9C00B3EBD10FF8
:100F100024BFA3EBD10340EADC001B0118BF5FEA4A
:100F20001C1CE0D1FD2A3FF650AF8B4240EBC25073
:100F300008BF20F0010070470CF0004C4CEA502034
:100F40007F32C2BFD2F1FF0340EAC250704740F483
:100F500000004FF00003013A37E792F0000F00F075
:100F6000004C02BF400010F4000F013AF9D040EAF3
:100F70000C0093F0000F01F0004C02BF490011F487
:100F8000000F013BF9D041EA0C0195E70CEAD1537F
:100F900092EA0C0F08D142027FF47DAF93EA0C0F66
:100FA0007FF470AF084676E793EA0C0F04D14B024A
:100FB0003FF44CAF08466EE730F0004C18BF31F0FC
:100FC000004CCAD130F000427FF45CAF31F00043F6
:100FD0007FF43CAF5FE700BF42000ED2B2F1FE4F9C
:100FE0000BD34FF09E03B3EB126209D44FEA0023F8
:100FF00043F0004323FA02F070474FF000007047BF
:1010000012F1610F01D1420202D14FF0FF3070475F
:101010004FF00000704700BF53B94AB9002908BF1C
:1010200000281CBF4FF0FF314FF0FF3000F076B9C1
:10103000ADF1080C6DE904CE00F006F8DDF804E02F
:10104000DDE9022304B070472DE9F047089E0D4604
:1010500004468846002B4DD18A42944668D9B2FA9C
:1010600082F252B101FA02F3C2F1200120FA01F139
:101070000CFA02FC41EA030894404FEA1C41B8FB19
:10108000F1F71FFA8CFE01FB178807FB0EF0230C0B
:1010900043EA084398420AD91CEB030307F1FF35E2
:1010A00080F01E81984240F21B81023F63441B1A6C
:1010B000B3FBF1F001FB103300FB0EFEA4B244EAD7
:1010C0000344A6450AD91CEB040400F1FF3380F069
:1010D0000981A64540F20681644402380021A4EB50
:1010E0000E0440EA07401EB10023D440C6E9004385
:1010F000BDE8F0878B4208D9002E00F0EE80002179
:10110000C6E900050846BDE8F087B3FA83F1002977
:101110004AD1AB4202D3824200F2FC80841A65EBD2
:10112000030301209846002EE2D0C6E90048DFE71D
:1011300002B9FFDEB2FA82F2002A40F09180A1EB00
:101140000C0001214FEA1C471FFA8CFEB0FBF7F39D
:1011500007FB1300250C45EA00450EFB03F0A842EF
:1011600008D91CEB050503F1FF3802D2A84200F2B2
:10117000CE8043462D1AB5FBF7F007FB10550EFB4A
:1011800000FEA4B244EA0544A64508D91CEB0404B9
:1011900000F1FF3502D2A64500F2B6802846A4EB46
:1011A0000E0440EA03409EE7C1F120078B4022FA7B
:1011B00007FC4CEA030C25FA07FA4FEA1C49BAFB74
:1011C000F9F820FA07F309FB18AA8D401FFA8CFEE4
:1011D0001D4300FA01F308FB0EF02C0C44EA0A440C
:1011E000A04202FA01F20BD91CEB040408F1FF3A09
:1011F00080F08880A04240F28580A8F10208644413
:10120000241AB4FBF9F009FB104400FB0EFEADB24A
:1012100045EA0444A64508D91CEB040400F1FF3557
:101220006CD2A6456AD90238644440EA0840A0FB63
:101230000295A4EB0E04AC42C846AE4656D353D03A
:10124000002E69D0B3EB080264EB0E0422FA01F31E
:1012500004FA07F71F43CC40C6E90074002147E7B2
:101260000CFA02FCC2F1200125FA01F34FEA1C47F7
:1012700020FA01F195400D43B3FBF7F107FB113361
:101280001FFA8CFE280C40EA034001FB0EF3834258
:1012900004FA02F408D91CEB000001F1FF382FD248
:1012A00083422DD902396044C01AB0FBF7F307FB23
:1012B0001300ADB245EA004503FB0EF0A84208D981
:1012C0001CEB050503F1FF3816D2A84214D9023BE6
:1012D0006544281A43EA014138E73146304607E7BA
:1012E0002F46E4E61846F9E64B45A9D2B9EB0208C9
:1012F00065EB0C0E0138A3E74346EAE7284694E77E
:101300004146D1E7D0467BE76444023847E7023BD9
:1013100065442FE7084606E73146E9E6704700BF17
:10132000844641EA000313F0030349D1403A23D332
:101330000B6803604B6843608B688360CB68C36055
:101340000B6903614B6943618B698361CB69C3613D
:101350000B6A03624B6A43628B6A8362CB6AC36225
:101360000B6B03634B6B43638B6B8363CB6BC3630D
:1013700040304031403ADBD230320BD30B6803604F
:101380004B6843608B688360CB68C360103010315A
:10139000103AF3D20C3205D351F8043B40F8043B29
:1013A000043AF9D2043208D0D2071CBF11F8013B2D
:1013B00000F8013B01D30B8803806046704700BFF3
:1013C000082A13D38B07B1D010F00303AED0C3F1BA
:1013D0000403D21ADB071CBF11F8013B00F8013BE4
:1013E000A4D331F8023B20F8023B9FE7043AD9D35B
:1013F000013A11F8013B00F8013BF9D20B78037078
:101400004B7843708B7883706046704780EA010C9C
:101410001CF0030F37D110F0030C20F0030021F073
:10142000030150F8042B08BF51F8043B0ED08CF098
:10143000030C6FF07F434FEACC0C23FA0CFC51F8FD
:10144000043B42EA0C0243EA0C0300BFA2F1013C58
:101450009A4201BF2CEA020C1CF0803F50F8042B8A
:1014600051F8043BF2D04FEA02604FEA1222012801
:1014700028BFB0EB036F08BF1B0AF4D003F0FF03D3
:10148000000EC01A704710F0030F0AD010F8012B9D
:1014900011F8013B012A28BF9A42F4D0A2EB0300C5
:1014A00070474DF8045D50F8042B01F0030521F05E
:1014B000030151F8043B022D26D04DD822F07F4580
:1014C000B5EB132FA2F1013C2CEA020C0DD11CF05C
:1014D000803C08BF51F8043B0AD185EA0205B5EB10
:1014E000036F0CD150F8042BE8E74FEA13235BE0BD
:1014F0003CF07F4C54D10B784FEA126554E04FEA30
:10150000126503F0FF034FE04FEA0245A2F1013CF0
:101510004FEA15452CEA020CB5EB134F18D11CF01D
:10152000803C08BF51F8043B07D185EA0205B5EBC2
:10153000034F09D150F8042BE6E75FEA0C4C2FD19A
:101540000B884FEA12452FE04FEA03434FEA12455A
:101550004FEA134328E000BF02F0FF05B5EB136F1D
:10156000A2F1013C2CEA020C0DD11CF0803C08BF1A
:1015700051F8043B0AD185EA0205B5EB032F0AD1E5
:1015800050F8042BE8E74FEA13630DE012F0FF0F69
:1015900006D051F8043B4FEA122523F07F4303E0C5
:1015A0004FF0000020BC704705F0FF0203F0FF0081
:1015B000012828BF904204BF2D0A1B0AF4D0A2EBD9
:1015C000000020BC704700BF4FEA410C7FEA6C5C12
:1015D00002D150EA013C0AD14FEA430C7FEA6C5C2D
:1015E00002D152EA033C02D14FF0000070474FF0A5
:1015F000010070474FEA410212F5001215D211D5D1
:101600006FF47873B3EB625212D94FEAC12343F0FF
:10161000004343EA505311F0004F23FA02F018BF81
:10162000404270474FF00000704750EA013005D14A
:1016300011F0004008BF6FF0004070474FF000000D
:10164000704700BF08B501202FF0EAFBFBE708B5A3
:1016500001202FF0E5FBFBE708B524F035FF05205E
:101660002FF0DEFBF9E70000034B0360034B0B6038
:1016700080231360704700BFC80C0020C80A0020F8
:1016800010B596B01B4C0DF13C0CA646BEE80F0001
:10169000ACE80F009EE807008CE8070000210FA8C7
:1016A0002FF089FB144B18600DF1200C04F11C0E77
:1016B000BEE80F00ACE80F009EE807008CE80700CA
:1016C000002108A82FF077FB0C4B18600DF1040ED9
:1016D00004F1380CBCE80F00AEE80F009CE80700EE
:1016E0008EE80700002101A82FF065FB044B18606D
:1016F00016B010BD787A0308BC0A0020C00A00208A
:10170000C40A002030B587B00023029303930493EA
:101710000593184B1B680BB107B030BD154B012268
:101720001A60154B5A6942F480725A615B6903F47E
:1017300080730193019B41F20103029302250395FB
:101740000324059402A90D482EF060FB4FF6807328
:1017500002930395059402A909482EF057FB4CF219
:10176000337302930395059402A906482EF04EFBAD
:10177000D2E700BF1C0D00200010024000200140F5
:10178000001801400014014010B58EB000230793EB
:10179000089309930A930B930C930D930093019371
:1017A000029303930493059306931C484FF0204241
:1017B000026002F58272426006228260C3600361A9
:1017C000102242618361C361036243624FF480511E
:1017D0008162C3624FF480410163436383630F23DB
:1017E00007930893FF2409940A930B9211210C91FB
:1017F0000093019302940393049205916A4607A90A
:101800002EF082FF30B9064AD36943F48063D36176
:101810000EB010BD00F076F8F5E700BF200D0020F7
:101820000000014008B5FFF76DFF08BD70B58AB034
:1018300000240694079408940994254B9A6942F071
:1018400008029A619A6902F008020192019A9A6963
:1018500042F480729A619A6902F480720292029A4A
:101860009A6942F040029A619A6902F0400203923A
:10187000039A9A6942F020029A619A6902F0200262
:101880000492049A9A6942F004029A619B6903F0F7
:1018900004030593059B0F4E2246212130462EF06E
:1018A000DCFB01250695079508950323099306A9F6
:1018B00030462EF0ABFA20230693079508940223B6
:1018C000099306A930462EF0A1FA0AB070BD00BFF8
:1018D00000100240000C0140A82303FB00F0800828
:1018E00000BF03460138002BFAD1704708B50268E3
:1018F000034B9A4200D008BD2EF00AFAFBE700BF66
:10190000002C014072B6FEE700B591B028220021FC
:1019100006A830F099FB00230193029303930493EC
:101920000593012206924FF4803307930A92022214
:101930000D920E934FF4E0130F9306A82EF0AAFB1E
:1019400080B90F23019302210291002303934FF4E6
:1019500080620492059301A82EF0DCFD20B911B03D
:101960005DF804FBFFF7CEFFFFF7CCFF08B52EF0C4
:10197000BDF9FFF7C9FFFFF759FF00F0DBF8FFF7EC
:1019800003FF07F0C7FB04F0D3FB04F02BFCFFF7C9
:1019900077FE2FF00BFAFEE700B583B0114B9A6982
:1019A00042F001029A619A6902F001020092009AE3
:1019B000DA6942F08052DA61DB6903F08053019307
:1019C000019B00220F216FF001002EF0D9F9064A89
:1019D000536823F0E06343F00073536003B05DF895
:1019E00004FB00BF001002400000014000B589B0B8
:1019F0000146002219202EF0C3F919202EF0F8F923
:101A0000144B9A6942F400629A619B6903F4006383
:101A10000193019B02A903A82EF058FE2EF046FE6A
:101A20000D4BA3FB00239B0C013B0C480C4A0260AE
:101A300040F2E732C26043600023036183602EF00E
:101A4000E1FF18B1012009B05DF804FB03482EF056
:101A50008FFEF8E70010024083DE1B43680D002074
:101A6000002C0140FEE7FEE7FEE7FEE7FEE77047D9
:101A700008B502482EF0BCFE08BD00BF680D00206E
:101A80000120704708B52FF069FF162303604FF05F
:101A9000FF3008BD08B54FF0FF31FFF7F3FFFEE759
:101AA00070B50C461646002506E0AFF300802146CF
:101AB00001F8010B01350C46B542F6DB304670BD2E
:101AC00070B50C461646002504E014F8010BAFF380
:101AD00000800135B542F8DB304670BD08B50346DD
:101AE0000B4A126842B10A4A106803446A4693429C
:101AF00006D8074A136008BD054A06491160F2E797
:101B00002FF02CFF0C2303604FF0FF30F3E700BFF2
:101B1000B00D0020B85F00204FF0FF3070474FF449
:101B200000534B6000207047012070470020704731
:101B30007047000008B50A480A4B03604FF4E133D0
:101B4000436000238360C36003610C2242618361B0
:101B5000C3612FF005F800B908BDFFF7D3FEFBE71E
:101B6000B40D00200038014010B586B00023029368
:101B70000393049305930268174B9A4201D006B071
:101B800010BD03F558439A6942F480429A619A69FC
:101B900002F480420092009A9A6942F004029A612B
:101BA0009B6903F004030193019B4FF400730293BC
:101BB0000223039303230593084C02A920462EF029
:101BC00025F94FF48063029300230393049302A941
:101BD00020462EF01BF9D2E70038014000080140F2
:101BE0000FB400B593B00DF1500C8CE80F00EFF37B
:101BF00005835BB34FF0500383F31188BFF36F8FFE
:101C0000BFF34F8F26AA0192259902A833F0CEF98F
:101C100002A830F001FD642382B202A914A82EF0BC
:101C2000CEFFEFF3058313B1002383F3118813B0C4
:101C30005DF804EB04B070474FF0E0234FF08052A2
:101C4000C3F8042DBFF34F8FBFF36F8F14A82FF08D
:101C500022F82128F0D0D5E782B0054BB3F8003147
:101C60009BB2ADF80630BDF8060080B202B07047F6
:101C70000007006C82B0ADF80600BDF806309BB2DC
:101C8000ADF80630BDF806309BB2024AA2F800312A
:101C900002B070470007006C82B0ADF80600BDF8D6
:101CA00006309BB2ADF80630BDF806309BB2024A52
:101CB000A2F8FE3002B070470007006C024BA3F898
:101CC000FE00A3F8001170470007006C024B1A8950
:101CD000024BA3F8FE207047400E00200007006C66
:101CE00070B505460C46404B9B8841F66312934203
:101CF00017D045F21052934257D03B4E7089FFF7F0
:101D0000CBFF280AFFF7B6FFE8B2FFF7B3FFB089B1
:101D1000FFF7C2FF200AFFF7ADFFE0B2FFF7AAFF0F
:101D200070BD314B9B7953BB2F4B1888451BADB20F
:101D3000013DADB25889FFF7AFFF0020FFF79AFFD2
:101D40000020FFF797FF280AFFF794FFE8B2FFF79C
:101D500091FF254DA889FFF79FFF200AFFF78AFF13
:101D6000E0B2FFF787FF68880138C0F30F20FFF764
:101D700081FF68880138C0B2FFF77CFFD0E71A4EB8
:101D80007089FFF789FF280AFFF774FFE8B2FFF7B1
:101D900071FF30880138C0F30F20FFF76BFF3088E8
:101DA0000138C0B2FFF766FFD3E70F4E7089FFF727
:101DB00073FF280AFFF75EFF7089013080B2FFF7DA
:101DC0006BFFE8B2FFF756FFB089FFF765FF200A07
:101DD000FFF750FFB089013080B2FFF75DFFE0B23E
:101DE000FFF748FF9CE700BF400E002010B5744B82
:101DF0009B79012B10D02BB9714B9A8841F6631354
:101E00009A420FD00138062800F28480DFE800F003
:101E10007472706E6C6A1600694A918841F663129A
:101E20009142E8D00728EDD8DFE800F072706C6EC0
:101E300006046A68002402E0802400E0E024604B8D
:101E40009B8845F21052934266D0362049F24132C7
:101E5000934203D047F28972934201D144F00804BF
:101E60002146FFF72BFF564B9B8841F663129342A6
:101E70000AD014F0200F52D0514A11885288914252
:101E800002D24F480280418045F2105293424FD017
:101E90004B4C6089FFF700FF0020FFF7EBFE0020AE
:101EA000FFF7E8FE20880138C0F30F20FFF7E2FEBD
:101EB00020880138C0B2FFF7DDFEA089FFF7ECFEF5
:101EC0000020FFF7D7FE0020FFF7D4FE608801381E
:101ED000C0F30F20FFF7CEFE60880138C0B2FFF7D5
:101EE000C9FE10BDA024AAE76024A8E72024A6E725
:101EF000C024A4E74024A2E78024A0E740249EE772
:101F0000C0249CE720249AE7602498E7E02496E721
:101F1000A02494E7002492E74FF4585096E7284A0B
:101F2000118852889142AFD9254802804180ABE7A1
:101F3000234C6089FFF7B0FE0020FFF79BFE60890D
:101F4000013080B2FFF7A8FE0020FFF793FE608902
:101F5000023080B2FFF7A0FE20880138C0F30F20C6
:101F6000FFF788FE6089033080B2FFF795FE208876
:101F70000138C0B2FFF77EFEA089FFF78DFE00207A
:101F8000FFF778FEA089013080B2FFF785FE0020C0
:101F9000FFF770FEA089023080B2FFF77DFE6088F7
:101FA0000138C0F30F20FFF765FEA089033080B22F
:101FB000FFF772FE60880138C0B2FFF75BFE90E762
:101FC000400E002010B51446FFF78AFEFFF77EFE94
:101FD000A4B2024BA3F8004110BD00BF0007006C83
:101FE00010B50446BE20FFF757FE0520FFF742FE5E
:101FF0002046FEF76FFA0CA3D3E90023FEF7D4FACC
:10200000FEF76CFD80B2FFF735FE0120FFF732FED0
:10201000FF20FFF72FFE0020FFF72CFE0020FFF728
:1020200029FE10BDAFF300806666666666660440F2
:1020300008B5444B9871002843D1F0221A804FF420
:10204000A0725A809B8845F21052934212D041F6FA
:10205000631293421FD03B4A2C2111812A215181C6
:102060002B21918145F21032934222D00020FFF7BC
:10207000BDFE08BD334A4FF4305111814FF4285151
:1020800051814FF42C5191814FF4F07111804FF434
:1020900048715180E6E72B4A2C2111812B21518177
:1020A0002A2191814FF4F07111804FF448715180D1
:1020B000D8E7244B4FF4A0721A804FF4F0725A8084
:1020C000D4E7204B4FF4A0721A80F0225A809B88EC
:1020D00045F21052934216D041F66312934223D038
:1020E000184A2C2111812A2151812B21918145F2FD
:1020F00010329342BAD1134B4FF4F0721A804FF45E
:10210000A0725A80B2E70F4A4FF4305111814FF458
:10211000285151814FF42C5191814FF44871118015
:102120004FF4F0715180E2E7064A2C2111812A21F7
:1021300051812B2191814FF4487111804FF4F0713E
:102140005180D4E7400E002038B50546094B1A8867
:102150005C8802FB04F400210846FFF7C1FDFFF78D
:10216000B5FD002303E0044AA2F800510133A34265
:10217000F9D338BD400E00200007006C2DE9F04176
:10218000A8B0BA4B9A6942F480729A619A6902F4D3
:1021900080721192119A9A6942F020029A619A69AA
:1021A00002F020021292129A9A6942F020029A6179
:1021B0009A6902F020021392139A9A6942F480728B
:1021C0009A619A6902F480721492149A9A6942F0A0
:1021D00008029A619B6903F008031593159B4FF45D
:1021E00080552495022325930124269403232793C5
:1021F0009F4F24A938462DF009FE20232493DFF8B1
:10220000748224A940462DF001FE1026249624A9AC
:1022100040462DF0FBFD249424A938462DF0F6FD10
:102220002494259424A994482DF0F0FD93484FF070
:102230002043036003F58273436006238360002319
:10224000C36046618361C36143628562C3624FF4C8
:1022500080420263436383631D931E930F221F9288
:1022600023931693179318941C9316AA1DA92EF066
:102270004BFA32202DF05EFDD320FFF70DFDFFF766
:10228000EBFC7F4CA080FFF7E7FCA080FFF7E4FCAD
:10229000A0800002A080FFF7DFFCA388184380B273
:1022A000A08049F24133984245D1754DAB88754CB9
:1022B0000E93754B0D93EC4604F1100EBEE80F0023
:1022C000ACE80F00BEE80F00ACE80F00BEE80F005E
:1022D000ACE80F00DEF80030CCF8003094E80F00D6
:1022E000FFF77EFCAB8847F28972934200F0AC8026
:1022F00049F24132934200F0AA8045F210329342F3
:1023000000F0A88045F21052934200F0A68041F6FA
:102310006312934200F0A4800020FFF789FE01229F
:10232000114655482DF099FE4FF6FF70FFF70CFF50
:1023300028B0BDE8F0810420FFF7AEFCFFF78CFC6D
:10234000A080FFF789FCA080FFF786FCA080000238
:10235000A080FFF781FCA388184380B2A08048F2D8
:10236000525398426CD0464B9A8847F289739A42EE
:102370009BD0D420FFF790FCFFF76EFC404CA08070
:10238000FFF76AFCA080FFF767FCA0800002A08036
:10239000FFF762FCA388184380B2A08045F2103397
:1023A000984282D055214FF47040FFF787FCAA2154
:1023B0004FF20100FFF782FC52214FF20200FFF7BB
:1023C0007DFC08214FF20300FFF778FC01214FF25A
:1023D0000400FFF773FC4FF44540FFF75DFCFFF787
:1023E0003BFCA0800002A0804CF20150FFF754FC9F
:1023F000FFF732FCA3881843A08005202DF09AFC3B
:10240000A28845F210539A423FF44FAFA120FFF744
:1024100043FCFFF721FCA080FFF71EFCA080000218
:10242000A080FFF719FCA38803439BB2A38045F269
:10243000617293427FF439AF41F66312A28034E7B0
:1024400047F28972A2808EE700F0F1F964E700F0AC
:10245000BFFA61E700F0D2FB5EE701F048FB5BE703
:1024600002F0C3FA6420FFF7BBFD55E700100240FD
:102470000020014000140140000C0140F80D002034
:10248000400E0020B40D0020247B03082DE9F0410C
:1024900007460E469846069D141AA4B20134A4B20B
:1024A00009E0A9B20A4BA3F80011013292B2A2428C
:1024B000F7D30136B6B2464507D831463846FFF75E
:1024C0000FFCFFF703FC0022F1E7BDE8F08100BF3D
:1024D0000007006C2DE9F84381468846089E141ACF
:1024E000A4B20134A4B25F1ABFB20137BFB2002553
:1024F0000CE004FB053236F812100B4AA2F800116A
:1025000001339BB2A342F4D30135ADB2BD4209D22F
:1025100005EB080189B24846FFF7E2FBFFF7D6FB5F
:102520000023EFE7BDE8F8830007006C2DE9F04FCA
:1025300085B0BDF8384001948046A2EB000A894678
:10254000A3EB010BBAF1000F0DDD01220292BBF1EA
:10255000000F14DD01230393DA451CDD56460025E8
:102560002F462C461BE0BAF1000F05D0A0EB020A63
:102570004FF0FF320292EAE7CDF808A0E7E7BBF19F
:10258000000F05D0A1EB030B4FF0FF330393E3E7FC
:10259000CDF80CB0E0E75E46E1E70134A4B2731C6D
:1025A0009C4213DC019A1FFA89F11FFA88F0FFF7A9
:1025B00009FD57445D44BE4202DABF1B029B9844AA
:1025C000AE42EADAAD1B039B9944E6E705B0BDE8ED
:1025D000F08F2DE9F04F87B0814688461E46019264
:1025E0005200C2F103030293002708E0019ABB1ACC
:1025F0009B000A33029919440291531E0193019BD7
:102600009F4254DCBDB205EB090B1FFA8BFBBDF8F2
:102610000440A8EB04039BB2324603931946584684
:10262000FFF7D0FC04EB090A1FFA8AFAA8EB0503AE
:102630009AB210463246049001465046FFF7C2FC5B
:1026400005EB08039AB294463246CDF814C06146B1
:102650005046FFF7B7FC04EB080A1FFA8AFA324625
:1026600051465846FFF7AEFCA9EB0505ADB2324620
:1026700051462846FFF7A6FCA9EB0404A4B2324653
:1026800005992046FFF79EFC324603992846FFF73E
:1026900099FC324604992046FFF794FC0137029AD0
:1026A000002AA3DABB0006331A440292A7E707B058
:1026B000BDE8F08F2DE9F04F85B0824688461F4671
:1026C0009DF838B0BDF83C30019317F0070318BFF0
:1026D000012303EBD703790801FB03F3DBB2029379
:1026E000A2F12003DBB2A7F10C02142A5ED8DFE8C6
:1026F00002F00B5D5D5D155D5D5D5D5D5D5D1A5DAF
:102700005D5D5D5D5D5D210003EB4303294A02EBE6
:102710008303039344464FF000093FE0264A02EB4F
:1027200003130393F6E703EBC303244A02EB83038B
:102730000393EFE7224A02EB83130393EAE7019A3C
:1027400021465046FFF73EFC6D00EDB20134A4B2C5
:102750001C4B5B88A34229D9A4EB08039F4210D0ED
:102760000136F6B2072E15D815F0800FE7D1BBF170
:10277000000FE9D1144B1A6821465046FFF722FC9E
:10278000E2E70AF1010A1FFA8AFA0E4B1B88534549
:102790000CD9444609F101095FFA89F9029B994570
:1027A00004D2039B13F809500026DBE705B0BDE80F
:1027B000F08F00BF307B0308A47F030894850308D3
:1027C000F0920308400E0020040000202DE9F04F95
:1027D00083B082460D469DF830700D9EBDF838B02E
:1027E00002441FFA82F90B441FFA83F804460EE0F4
:1027F000454519D2CDF804B0002300933B46294645
:102800002046FFF757FF04EB5704A4B20136327895
:10281000A2F12003DBB25E2B06D84C45E8D35FFA69
:102820008AF43D44ADB2E3E703B0BDE8F08F08B5EC
:102830001120FFF731FA3620FFF72EFA0020FFF7BC
:1028400019FA3A20FFF728FA0520FFF713FAB22009
:10285000FFF722FA0C20FFF70DFA0C20FFF70AFA17
:102860000020FFF707FA3320FFF704FA3320FFF7C1
:1028700001FAB720FFF710FA3520FFF7FBF9BB206C
:10288000FFF70AFA3220FFF7F5F9C020FFF704FA44
:102890000C20FFF7EFF9C220FFF7FEF90120FFF748
:1028A000E9F9C320FFF7F8F91020FFF7E3F9C42096
:1028B000FFF7F2F92020FFF7DDF9C620FFF7ECF96A
:1028C0000F20FFF7D7F9D020FFF7E6F9A420FFF794
:1028D000D1F9A120FFF7CEF9E020FFF7DDF9D020F4
:1028E000FFF7C8F90020FFF7C5F90220FFF7C2F98A
:1028F0000720FFF7BFF90A20FFF7BCF92820FFF7F0
:10290000B9F93220FFF7B6F94420FFF7B3F94220B6
:10291000FFF7B0F90620FFF7ADF90E20FFF7AAF98F
:102920001220FFF7A7F91420FFF7A4F91720FFF7EB
:10293000A1F9E120FFF7B0F9D020FFF79BF90020C3
:10294000FFF798F90220FFF795F90720FFF792F9B2
:102950000A20FFF78FF92820FFF78CF93120FFF7C5
:1029600089F95420FFF786F94720FFF783F90E20F5
:10297000FFF780F91C20FFF77DF91720FFF77AF9A0
:102980001B20FFF777F91E20FFF774F92A20FFF7C5
:1029900083F90020FFF76EF90020FFF76BF90020A4
:1029A000FFF768F9EF20FFF765F92B20FFF774F9BF
:1029B0000020FFF75FF90020FFF75CF90120FFF727
:1029C00059F93F20FFF756F92920FFF765F908BDAF
:1029D00008B5CF20FFF760F90020FFF74BF9C120C1
:1029E000FFF748F93020FFF745F9ED20FFF754F9DC
:1029F0006420FFF73FF90320FFF73CF91220FFF7AF
:102A000039F98120FFF736F9E820FFF745F98520ED
:102A1000FFF730F91020FFF72DF97A20FFF72AF998
:102A2000CB20FFF739F93920FFF724F92C20FFF7E5
:102A300021F90020FFF71EF93420FFF71BF90220CF
:102A4000FFF718F9F720FFF727F92020FFF712F911
:102A5000EA20FFF721F90020FFF70CF90020FFF72B
:102A600009F9C020FFF718F91B20FFF703F9C1206F
:102A7000FFF712F90120FFF7FDF8C520FFF70CF969
:102A80003020FFF7F7F83020FFF7F4F8C720FFF702
:102A900003F9B720FFF7EEF83620FFF7FDF84820DE
:102AA000FFF7E8F83A20FFF7F7F85520FFF7E2F8CC
:102AB000B120FFF7F1F80020FFF7DCF81A20FFF74C
:102AC000D9F8B620FFF7E8F80A20FFF7D3F8A220DC
:102AD000FFF7D0F8F220FFF7DFF80020FFF7CAF881
:102AE0002620FFF7D9F80120FFF7C4F8E020FFF710
:102AF000D3F80F20FFF7BEF82A20FFF7BBF82820F5
:102B0000FFF7B8F80820FFF7B5F80E20FFF7B2F886
:102B10000820FFF7AFF85420FFF7ACF8A920FFF723
:102B2000A9F84320FFF7A6F80A20FFF7A3F80F2023
:102B3000FFF7A0F80020FFF79DF80020FFF79AF8B4
:102B40000020FFF797F80020FFF794F8E120FFF747
:102B5000A3F80020FFF78EF81520FFF78BF8172059
:102B6000FFF788F80720FFF785F81120FFF782F8B4
:102B70000620FFF77FF82B20FFF77CF85620FFF7A1
:102B800079F83C20FFF776F80520FFF773F810205E
:102B9000FFF770F80F20FFF76DF83F20FFF76AF896
:102BA0003F20FFF767F80F20FFF764F82B20FFF7AF
:102BB00073F80020FFF75EF80020FFF75BF80120B4
:102BC000FFF758F83F20FFF755F82A20FFF764F881
:102BD0000020FFF74FF80020FFF74CF80020FFF728
:102BE00049F8EF20FFF746F81120FFF755F8782055
:102BF0002DF0A0F82920FFF74FF808BD08B5ED200B
:102C0000FFF74AF80120FFF735F8FE20FFF732F80A
:102C1000EE20FFF741F8DE20FFF72CF82120FFF728
:102C200029F8F120FFF738F80120FFF723F8DF201B
:102C3000FFF732F81020FFF71DF8C420FFF72CF83B
:102C40008F20FFF717F8C620FFF726F80020FFF7C0
:102C500011F8E220FFF70EF8E220FFF70BF8E22070
:102C6000FFF708F8BF20FFF717F8AA20FFF702F8D0
:102C7000B020FFF711F80D20FEF7FCFF0020FEF753
:102C8000F9FF0D20FEF7F6FF0020FEF7F3FF1120FD
:102C9000FEF7F0FF0020FEF7EDFF1920FEF7EAFF38
:102CA0000020FEF7E7FF2120FEF7E4FF0020FEF7FB
:102CB000E1FF2D20FEF7DEFF0020FEF7DBFF3D20C9
:102CC000FEF7D8FF0020FEF7D5FF5D20FEF7D2FF0C
:102CD0000020FEF7CFFF5D20FEF7CCFF0020FEF7BF
:102CE000C9FFB120FEF7D8FF8020FEF7C3FF002008
:102CF000FEF7C0FF8B20FEF7BDFF0020FEF7BAFFF6
:102D00009620FEF7B7FF0020FEF7B4FFB220FEF7D3
:102D1000C3FF0020FEF7AEFF0020FEF7ABFF02204E
:102D2000FEF7A8FF0020FEF7A5FF0320FEF7A2FF95
:102D30000020FEF79FFFB320FEF7AEFF0020FEF756
:102D400099FF0020FEF796FF0020FEF793FF00207A
:102D5000FEF790FF0020FEF78DFF0020FEF78AFFB0
:102D60000020FEF787FF0020FEF784FF0020FEF71B
:102D700081FF0020FEF77EFF0020FEF77BFF002092
:102D8000FEF778FF0020FEF775FF0020FEF772FFC8
:102D90000020FEF76FFF0020FEF76CFF0020FEF71B
:102DA00069FF0020FEF766FF0020FEF763FF0020AA
:102DB000FEF760FF0020FEF75DFF0020FEF75AFFE0
:102DC0000020FEF757FF0020FEF754FFB420FEF767
:102DD00063FF8B20FEF74EFF0020FEF74BFF96208F
:102DE000FEF748FF0020FEF745FFA120FEF742FF57
:102DF0000020FEF73FFFB520FEF74EFF0220FEF752
:102E000039FF0020FEF736FF0320FEF733FF0020D6
:102E1000FEF730FF0420FEF72DFF0020FEF72AFF0B
:102E2000B620FEF739FF0020FEF724FF0020FEF752
:102E300021FFB720FEF730FF0020FEF71BFF002028
:102E4000FEF718FF3F20FEF715FF0020FEF712FFE8
:102E50005E20FEF70FFF0020FEF70CFF6420FEF758
:102E600009FF0020FEF706FF8C20FEF703FF00207D
:102E7000FEF700FFAC20FEF7FDFE0020FEF7FAFE95
:102E8000DC20FEF7F7FE0020FEF7F4FE7020FEF7D0
:102E9000F1FE0020FEF7EEFE9020FEF7EBFE002094
:102EA000FEF7E8FEEB20FEF7E5FE0020FEF7E2FE6F
:102EB000DC20FEF7DFFE0020FEF7DCFEB820FEF788
:102EC000EBFE0020FEF7D6FE0020FEF7D3FE00202A
:102ED000FEF7D0FE0020FEF7CDFE0020FEF7CAFE72
:102EE0000020FEF7C7FE0020FEF7C4FE0020FEF71C
:102EF000C1FEBA20FEF7D0FE2420FEF7BBFE002064
:102F0000FEF7B8FE0020FEF7B5FE0020FEF7B2FE89
:102F1000C120FEF7C1FE2020FEF7ACFE0020FEF728
:102F2000A9FE5420FEF7A6FE0020FEF7A3FEFF2018
:102F3000FEF7A0FE0020FEF79DFEC220FEF7ACFECD
:102F40000A20FEF797FE0020FEF794FE0420FEF70D
:102F500091FE0020FEF78EFEC320FEF79DFE3C2072
:102F6000FEF788FE0020FEF785FE3A20FEF782FE7F
:102F70000020FEF77FFE3920FEF77CFE0020FEF7E2
:102F800079FE3720FEF776FE0020FEF773FE3C2028
:102F9000FEF770FE0020FEF76DFE3620FEF76AFE9B
:102FA0000020FEF767FE3220FEF764FE0020FEF7E9
:102FB00061FE2F20FEF75EFE0020FEF75BFE2C2058
:102FC000FEF758FE0020FEF755FE2920FEF752FEC0
:102FD0000020FEF74FFE2620FEF74CFE0020FEF7F5
:102FE00049FE2420FEF746FE0020FEF743FE242083
:102FF000FEF740FE0020FEF73DFE2320FEF73AFEDE
:103000000020FEF737FE3C20FEF734FE0020FEF7DE
:1030100031FE3620FEF72EFE0020FEF72BFE32207A
:10302000FEF728FE0020FEF725FE2F20FEF722FEE9
:103030000020FEF71FFE2C20FEF71CFE0020FEF7EE
:1030400019FE2920FEF716FE0020FEF713FE2620AB
:10305000FEF710FE0020FEF70DFE2420FEF70AFE0C
:103060000020FEF707FE2420FEF704FE0020FEF7F6
:1030700001FE2320FEF7FEFD0020FEF7FBFDC4202D
:10308000FEF70AFE6220FEF7F5FD0020FEF7F2FDD6
:103090000520FEF7EFFD0020FEF7ECFD8420FEF793
:1030A000E9FD0020FEF7E6FDF020FEF7E3FD00203D
:1030B000FEF7E0FD1820FEF7DDFD0020FEF7DAFD4B
:1030C000A420FEF7D7FD0020FEF7D4FD1820FEF760
:1030D000D1FD0020FEF7CEFD5020FEF7CBFD0020F5
:1030E000FEF7C8FD0C20FEF7C5FD0020FEF7C2FD6F
:1030F0001720FEF7BFFD0020FEF7BCFD9520FEF770
:10310000B9FD0020FEF7B6FDF320FEF7B3FD002069
:10311000FEF7B0FDE620FEF7ADFD0020FEF7AAFDAC
:10312000C520FEF7B9FD3220FEF7A4FD0020FEF712
:10313000A1FD4420FEF79EFD0020FEF79BFD6520CB
:10314000FEF798FD0020FEF795FD7620FEF792FD34
:103150000020FEF78FFD8820FEF78CFD0020FEF793
:1031600089FDC620FEF798FD2020FEF783FD002094
:10317000FEF780FD1720FEF77DFD0020FEF77AFDAB
:103180000120FEF777FD0020FEF774FDC720FEF753
:1031900083FD0020FEF76EFD0020FEF76BFD002092
:1031A000FEF768FD0020FEF765FDC820FEF774FD00
:1031B0000020FEF75FFD0020FEF75CFD0020FEF71B
:1031C00059FD0020FEF756FDC920FEF765FD0020E1
:1031D000FEF750FD0020FEF74DFD0020FEF74AFDF2
:1031E0000020FEF747FD0020FEF744FD0020FEF71B
:1031F00041FD0020FEF73EFD0020FEF73BFD0020D4
:10320000FEF738FD0020FEF735FD0020FEF732FD09
:103210000020FEF72FFD0020FEF72CFD0020FEF71A
:1032200029FD0020FEF726FD0020FEF723FDE0200B
:10323000FEF732FD1620FEF71DFD0020FEF71AFDF9
:103240001C20FEF717FD0020FEF714FD2120FEF7DD
:1032500011FD0020FEF70EFD3620FEF70BFD0020CD
:10326000FEF708FD4620FEF705FD0020FEF702FDF3
:103270005220FEF7FFFC0020FEF7FCFC6420FEF766
:10328000F9FC0020FEF7F6FC7A20FEF7F3FC0020A4
:10329000FEF7F0FC8B20FEF7EDFC0020FEF7EAFCC9
:1032A0009920FEF7E7FC0020FEF7E4FCA820FEF7DB
:1032B000E1FC0020FEF7DEFCB920FEF7DBFC00207D
:1032C000FEF7D8FCC420FEF7D5FC0020FEF7D2FCA8
:1032D000CA20FEF7CFFC0020FEF7CCFCD220FEF780
:1032E000C9FC0020FEF7C6FCD920FEF7C3FC002075
:1032F000FEF7C0FCE020FEF7BDFC0020FEF7BAFCA4
:10330000F320FEF7B7FC0020FEF7B4FCE120FEF747
:10331000C3FC1620FEF7AEFC0020FEF7ABFC1C2021
:10332000FEF7A8FC0020FEF7A5FC2220FEF7A2FC79
:103330000020FEF79FFC3620FEF79CFC0020FEF7E5
:1033400099FC4520FEF796FC0020FEF793FC5220E6
:10335000FEF790FC0020FEF78DFC6420FEF78AFC4F
:103360000020FEF787FC7A20FEF784FC0020FEF7A1
:1033700081FC8B20FEF77EFC0020FEF77BFC992071
:10338000FEF778FC0020FEF775FCA820FEF772FC23
:103390000020FEF76FFCB920FEF76CFC0020FEF762
:1033A00069FCC420FEF766FC0020FEF763FCCA201F
:1033B000FEF760FC0020FEF75DFCD220FEF75AFC11
:1033C0000020FEF757FCD820FEF754FC0020FEF743
:1033D00051FCE020FEF74EFC0020FEF74BFCF320F2
:1033E000FEF748FC0020FEF745FCE220FEF754FC07
:1033F0000520FEF73FFC0020FEF73CFC0B20FEF70B
:1034000039FC0020FEF736FC1B20FEF733FC0020C1
:10341000FEF730FC3420FEF72DFC0020FEF72AFCDE
:103420004420FEF727FC0020FEF724FC4F20FEF787
:1034300021FC0020FEF71EFC6120FEF71BFC002093
:10344000FEF718FC7920FEF715FC0020FEF712FCB1
:103450008820FEF70FFC0020FEF70CFC9720FEF7FB
:1034600009FC0020FEF706FCA620FEF703FC002066
:10347000FEF700FCB720FEF7FDFB0020FEF7FAFB8D
:10348000C220FEF7F7FB0020FEF7F4FBC720FEF793
:10349000F1FB0020FEF7EEFBD120FEF7EBFB002056
:1034A000FEF7E8FBD620FEF7E5FB0020FEF7E2FB87
:1034B000DD20FEF7DFFB0020FEF7DCFBF320FEF74C
:1034C000D9FB0020FEF7D6FBE320FEF7E5FB052045
:1034D000FEF7D0FB0020FEF7CDFB0A20FEF7CAFB6B
:1034E0000020FEF7C7FB1C20FEF7C4FB0020FEF700
:1034F000C1FB3320FEF7BEFB0020FEF7BBFB4420E0
:10350000FEF7B8FB0020FEF7B5FB5020FEF7B2FB3C
:103510000020FEF7AFFB6220FEF7ACFB0020FEF7B9
:10352000A9FB7820FEF7A6FB0020FEF7A3FB88206E
:10353000FEF7A0FB0020FEF79DFB9720FEF79AFB0D
:103540000020FEF797FBA620FEF794FB0020FEF775
:1035500091FBB720FEF78EFB0020FEF78BFBC2200D
:10356000FEF788FB0020FEF785FBC720FEF782FBF5
:103570000020FEF77FFBD120FEF77CFB0020FEF74A
:1035800079FBD520FEF776FB0020FEF773FBDD20EC
:10359000FEF770FB0020FEF76DFBF320FEF76AFBE1
:1035A0000020FEF767FBE420FEF776FB0120FEF724
:1035B00061FB0020FEF75EFB0120FEF75BFB0020B5
:1035C000FEF758FB0220FEF755FB0020FEF752FBEA
:1035D0002A20FEF74FFB0020FEF74CFB3C20FEF7B5
:1035E00049FB0020FEF746FB4B20FEF743FB002083
:1035F000FEF740FB5D20FEF73DFB0020FEF73AFBA7
:103600007420FEF737FB0020FEF734FB8420FEF722
:1036100031FB0020FEF72EFB9320FEF72BFB002052
:10362000FEF728FBA220FEF725FB0020FEF722FB79
:10363000B320FEF71FFB0020FEF71CFBBE20FEF7A9
:1036400019FB0020FEF716FBC420FEF713FB002039
:10365000FEF710FBCD20FEF70DFB0020FEF70AFB66
:10366000D320FEF707FB0020FEF704FBDD20FEF76A
:1036700001FB0020FEF7FEFAF320FEF7FBFA002024
:10368000FEF7F8FAE520FEF707FB0020FEF7F2FA56
:103690000020FEF7EFFA0020FEF7ECFA0020FEF71C
:1036A000E9FA0220FEF7E6FA0020FEF7E3FA292005
:1036B000FEF7E0FA0020FEF7DDFA3C20FEF7DAFA2A
:1036C0000020FEF7D7FA4B20FEF7D4FA0020FEF7D1
:1036D000D1FA5D20FEF7CEFA0020FEF7CBFA742077
:1036E000FEF7C8FA0020FEF7C5FA8420FEF7C2FAFA
:1036F0000020FEF7BFFA9320FEF7BCFA0020FEF789
:10370000B9FAA220FEF7B6FA0020FEF7B3FAB3200A
:10371000FEF7B0FA0020FEF7ADFABE20FEF7AAFAD7
:103720000020FEF7A7FAC420FEF7A4FA0020FEF757
:10373000A1FACD20FEF79EFA0020FEF79BFAD320D7
:10374000FEF798FA0020FEF795FADC20FEF792FAD1
:103750000020FEF78FFAF320FEF78CFA0020FEF728
:1037600089FAE620FEF798FA1120FEF783FA002086
:10377000FEF780FA3420FEF77DFA0020FEF77AFA91
:103780005620FEF777FA0020FEF774FA7620FEF74F
:1037900071FA0020FEF76EFA7720FEF76BFA002030
:1037A000FEF768FA6620FEF765FA0020FEF762FA77
:1037B0008820FEF75FFA0020FEF75CFA9920FEF7FA
:1037C00059FA0020FEF756FABB20FEF753FA002004
:1037D000FEF750FA9920FEF74DFA0020FEF74AFA5C
:1037E0006620FEF747FA0020FEF744FA5520FEF760
:1037F00041FA0020FEF73EFA5520FEF73BFA002082
:10380000FEF738FA4520FEF735FA0020FEF732FAC7
:103810004320FEF72FFA0020FEF72CFA4420FEF793
:1038200029FA0020FEF726FAE720FEF735FA3220C3
:10383000FEF720FA0020FEF71DFA5520FEF71AFACF
:103840000020FEF717FA7620FEF714FA0020FEF7A4
:1038500011FA6620FEF70EFA0020FEF70BFA672039
:10386000FEF708FA0020FEF705FA6720FEF702FAD5
:103870000020FEF7FFF98720FEF7FCF90020FEF795
:10388000F9F99920FEF7F6F90020FEF7F3F9BB20CD
:10389000FEF7F0F90020FEF7EDF99920FEF7EAF9BE
:1038A0000020FEF7E7F97720FEF7E4F90020FEF7A5
:1038B000E1F94420FEF7DEF90020FEF7DBF956209F
:1038C000FEF7D8F90020FEF7D5F92320FEF7D2F94C
:1038D0000020FEF7CFF93320FEF7CCF90020FEF7E9
:1038E000C9F94520FEF7C6F90020FEF7C3F9E82024
:1038F000FEF7D2F90020FEF7BDF90020FEF7BAF975
:103900009920FEF7B7F90020FEF7B4F98720FEF7FB
:10391000B1F90020FEF7AEF98820FEF7ABF90020E0
:10392000FEF7A8F97720FEF7A5F90020FEF7A2F927
:103930006620FEF79FF90020FEF79CF98820FEF72D
:1039400099F90020FEF796F9AA20FEF793F90020D6
:10395000FEF790F9BB20FEF78DF90020FEF78AF9FB
:103960009920FEF787F90020FEF784F96620FEF71C
:1039700081F90020FEF77EF95520FEF77BF9002043
:10398000FEF778F95520FEF775F90020FEF772F979
:103990004420FEF76FF90020FEF76CF94420FEF793
:1039A00069F90020FEF766F95520FEF763F900205B
:1039B000FEF760F9E920FEF76FF9AA20FEF75AF941
:1039C0000020FEF757F90020FEF754F90020FEF71B
:1039D00051F90020FEF760F9AA20FEF74BF9CF203D
:1039E000FEF75AF90020FEF745F90020FEF742F9EC
:1039F0000020FEF73FF90020FEF73CF90020FEF71B
:103A000039F90020FEF736F90020FEF733F90020DF
:103A1000FEF730F90020FEF72DF90020FEF72AF915
:103A20000020FEF727F90020FEF724F90020FEF71A
:103A300021F90020FEF71EF90020FEF71BF90020F7
:103A4000FEF718F90020FEF715F9F020FEF724F92B
:103A50000020FEF70FF95020FEF70CF90020FEF7CA
:103A600009F90020FEF706F90020FEF703F9F3201C
:103A7000FEF712F90020FEF7FDF8F920FEF70CF929
:103A80000620FEF7F7F81020FEF7F4F82920FEF7DD
:103A9000F1F80020FEF7EEF83A20FEF7FDF8552089
:103AA000FEF7E8F81120FEF7F7F864202CF042F951
:103AB0002920FEF7F1F83520FEF7EEF80020FEF79A
:103AC000D9F85120FEF7E8F8FF20FEF7D3F853208D
:103AD000FEF7E2F82C20FEF7CDF85520FEF7DCF8D3
:103AE0008220FEF7C7F82C20FEF7D6F808BD08B5EF
:103AF00055214FF47040FEF7E1F8AA214FF2010082
:103B0000FEF7DCF852214FF20200FEF7D7F8082149
:103B10004FF20300FEF7D2F801214FF20400FEF746
:103B2000CDF80D214FF43040FEF7C8F80D214BF2CF
:103B30000100FEF7C3F80D214BF20200FEF7BEF8BC
:103B400034214FF43640FEF7B9F834214BF20160CE
:103B5000FEF7B4F834214BF20260FEF7AFF80D2106
:103B60004FF43140FEF7AAF80D214BF20110FEF799
:103B7000A5F80D214BF20210FEF7A0F834214FF406
:103B80003740FEF79BF834214BF20170FEF796F8B0
:103B900034214BF20270FEF791F800214FF43240CD
:103BA000FEF78CF800214BF20120FEF787F8002188
:103BB0004BF20220FEF782F824214FF43840FEF742
:103BC0007DF824214BF60100FEF778F824214BF60E
:103BD0000200FEF773F801214FF43F40FEF76EF844
:103BE0000F214FF43340FEF769F80F214BF20130FB
:103BF000FEF764F80F214BF20230FEF75FF8342134
:103C00004FF43940FEF75AF834214BF60110FEF715
:103C100055F834214BF60210FEF750F808214FF406
:103C20003540FEF74BF808214BF20150FEF746F8FD
:103C300008214BF20250FEF741F803214FF44240B5
:103C4000FEF73CF824214FF43A40FEF737F82421E0
:103C50004BF60120FEF732F824214BF60220FEF746
:103C60002DF800214FF43C40FEF728F878214BF660
:103C70000140FEF723F800214BF60240FEF71EF844
:103C800000214FF43D40FEF719F878214BF6015022
:103C9000FEF714F800214BF60250FEF70FF8002152
:103CA0004FF43E40FEF70AF864214BF60160FEF740
:103CB00005F800214FF45140FEF700F833214DF292
:103CC0000110FDF7FBFF00214DF20210FDF7F6FF9A
:103CD00034214DF20310FDF7F1FF00214DF20410E5
:103CE000FDF7ECFF3A214DF20510FDF7E7FF00214B
:103CF0004DF20610FDF7E2FF4A214DF20710FDF7E5
:103D0000DDFF00214DF20810FDF7D8FF5C214DF2D8
:103D10000910FDF7D3FF00214DF20A10FDF7CEFF89
:103D200081214DF20B10FDF7C9FF00214DF20C105F
:103D3000FDF7C4FFA6214DF20D10FDF7BFFF0021D6
:103D40004DF20E10FDF7BAFFE5214DF20F10FDF711
:103D5000B5FF01214DF21010FDF7B0FF13214DF218
:103D60001110FDF7ABFF01214DF21210FDF7A6FF78
:103D700054214DF21310FDF7A1FF01214DF2141053
:103D8000FDF79CFF82214DF21510FDF797FF0121F1
:103D90004DF21610FDF792FFCA214DF21710FDF7F4
:103DA0008DFF02214DF21810FDF788FF00214DF222
:103DB0001910FDF783FF02214DF21A10FDF77EFF67
:103DC00001214DF21B10FDF779FF02214DF21C106D
:103DD000FDF774FF34214DF21D10FDF76FFF022136
:103DE0004DF21E10FDF76AFF67214DF21F10FDF71F
:103DF00065FF02214DF22010FDF760FF84214DF296
:103E00002110FDF75BFF02214DF22210FDF756FF56
:103E1000A4214DF22310FDF751FF02214DF2241091
:103E2000FDF74CFFB7214DF22510FDF747FF0221AA
:103E30004DF22610FDF742FFCF214DF22710FDF77E
:103E40003DFF02214DF22810FDF738FFDE214DF233
:103E50002910FDF733FF02214DF22A10FDF72EFF46
:103E6000F2214DF22B10FDF729FF02214DF22C100B
:103E7000FDF724FFFE214DF22D10FDF71FFF03215A
:103E80004DF22E10FDF71AFF10214DF22F10FDF705
:103E900015FF03214DF23010FDF710FF33214DF2D5
:103EA0003110FDF70BFF03214DF23210FDF706FF35
:103EB0006D214DF23310FDF701FF00214FF4524008
:103EC000FDF7FCFE33214DF20120FDF7F7FE002146
:103ED0004DF20220FDF7F2FE34214DF20320FDF7F2
:103EE000EDFE00214DF20420FDF7E8FE3A214DF2EF
:103EF0000520FDF7E3FE00214DF20620FDF7DEFE72
:103F00004A214DF20720FDF7D9FE00214DF208208D
:103F1000FDF7D4FE5C214DF20920FDF7CFFE002114
:103F20004DF20A20FDF7CAFE81214DF20B20FDF76C
:103F3000C5FE00214DF20C20FDF7C0FEA6214DF27A
:103F40000D20FDF7BBFE00214DF20E20FDF7B6FE61
:103F5000E5214DF20F20FDF7B1FE01214DF21020B9
:103F6000FDF7ACFE13214DF21120FDF7A7FE012154
:103F70004DF21220FDF7A2FE54214DF21320FDF761
:103F80009DFE01214DF21420FDF798FE82214DF295
:103F90001520FDF793FE01214DF21620FDF78EFE50
:103FA000CA214DF21720FDF789FE02214DF218209B
:103FB000FDF784FE00214DF21920FDF77FFE02215E
:103FC0004DF21A20FDF77AFE01214DF21B20FDF77C
:103FD00075FE02214DF21C20FDF770FE34214DF2DA
:103FE0001D20FDF76BFE02214DF21E20FDF766FE3F
:103FF00067214DF21F20FDF761FE02214DF22020C6
:10400000FDF75CFE84214DF22120FDF757FE0221D1
:104010004DF22220FDF752FEA4214DF22320FDF7A0
:104020004DFE02214DF22420FDF748FEB7214DF24E
:104030002520FDF743FE02214DF22620FDF73EFE2E
:10404000CF214DF22720FDF739FE02214DF2282025
:10405000FDF734FEDE214DF22920FDF72FFE02216F
:104060004DF22A20FDF72AFEF2214DF22B20FDF71A
:1040700025FE02214DF22C20FDF720FEFE214DF2FF
:104080002D20FDF71BFE03214DF22E20FDF716FE1D
:1040900010214DF22F20FDF711FE03214DF23020AB
:1040A000FDF70CFE33214DF23120FDF707FE032111
:1040B0004DF23220FDF702FE6D214DF23320FDF767
:1040C000FDFD00214FF45340FDF7F8FD33214DF283
:1040D0000130FDF7F3FD00214DF20230FDF7EEFD5A
:1040E00034214DF20330FDF7E9FD00214DF204309B
:1040F000FDF7E4FD3A214DF20530FDF7DFFD00212B
:104100004DF20630FDF7DAFD4A214DF20730FDF79A
:10411000D5FD00214DF20830FDF7D0FD5C214DF2B8
:104120000930FDF7CBFD00214DF20A30FDF7C6FD49
:1041300081214DF20B30FDF7C1FD00214DF20C3015
:10414000FDF7BCFDA6214DF20D30FDF7B7FD0021B6
:104150004DF20E30FDF7B2FDE5214DF20F30FDF7C7
:10416000ADFD01214DF21030FDF7A8FD13214DF2F8
:104170001130FDF7A3FD01214DF21230FDF79EFD38
:1041800054214DF21330FDF799FD01214DF2143009
:10419000FDF794FD82214DF21530FDF78FFD0121D1
:1041A0004DF21630FDF78AFDCA214DF21730FDF7AA
:1041B00085FD02214DF21830FDF780FD00214DF202
:1041C0001930FDF77BFD02214DF21A30FDF776FD27
:1041D00001214DF21B30FDF771FD02214DF21C3023
:1041E000FDF76CFD34214DF21D30FDF767FD022116
:1041F0004DF21E30FDF762FD67214DF21F30FDF7D5
:104200005DFD02214DF22030FDF758FD84214DF275
:104210002130FDF753FD02214DF22230FDF74EFD16
:10422000A4214DF22330FDF749FD02214DF2243047
:10423000FDF744FDB7214DF22530FDF73FFD02218A
:104240004DF22630FDF73AFDCF214DF22730FDF734
:1042500035FD02214DF22830FDF730FDDE214DF213
:104260002930FDF72BFD02214DF22A30FDF726FD06
:10427000F2214DF22B30FDF721FD02214DF22C30C1
:10428000FDF71CFDFE214DF22D30FDF717FD03213A
:104290004DF22E30FDF712FD10214DF22F30FDF7BB
:1042A0000DFD03214DF23030FDF708FD33214DF2B5
:1042B0003130FDF703FD03214DF23230FDF7FEFCF6
:1042C0006D214DF23330FDF7F9FC00214FF45440DD
:1042D000FDF7F4FC33214DF20140FDF7EFFC002126
:1042E0004DF20240FDF7EAFC34214DF20340FDF7A8
:1042F000E5FC00214DF20440FDF7E0FC3A214DF2CF
:104300000540FDF7DBFC00214DF20640FDF7D6FC31
:104310004A214DF20740FDF7D1FC00214DF2084043
:10432000FDF7CCFC5C214DF20940FDF7C7FC0021F4
:104330004DF20A40FDF7C2FC81214DF20B40FDF722
:10434000BDFC00214DF20C40FDF7B8FCA6214DF25A
:104350000D40FDF7B3FC00214DF20E40FDF7AEFC21
:10436000E5214DF20F40FDF7A9FC01214DF210406F
:10437000FDF7A4FC13214DF21140FDF79FFC012134
:104380004DF21240FDF79AFC54214DF21340FDF717
:1043900095FC01214DF21440FDF790FC82214DF275
:1043A0001540FDF78BFC01214DF21640FDF786FC10
:1043B000CA214DF21740FDF781FC02214DF2184051
:1043C000FDF77CFC00214DF21940FDF777FC02213E
:1043D0004DF21A40FDF772FC01214DF21B40FDF732
:1043E0006DFC02214DF21C40FDF768FC34214DF2BA
:1043F0001D40FDF763FC02214DF21E40FDF75EFCFF
:1044000067214DF21F40FDF759FC02214DF220407B
:10441000FDF754FC84214DF22140FDF74FFC0221B1
:104420004DF22240FDF74AFCA4214DF22340FDF756
:1044300045FC02214DF22440FDF740FCB7214DF22E
:104440002540FDF73BFC02214DF22640FDF736FCEE
:10445000CF214DF22740FDF731FC02214DF22840DB
:10446000FDF72CFCDE214DF22940FDF727FC02214F
:104470004DF22A40FDF722FCF2214DF22B40FDF7D0
:104480001DFC02214DF22C40FDF718FCFE214DF2DF
:104490002D40FDF713FC03214DF22E40FDF70EFCDD
:1044A00010214DF22F40FDF709FC03214DF2304061
:1044B000FDF704FC33214DF23140FDF7FFFB0321F2
:1044C0004DF23240FDF7FAFB6D214DF23340FDF71E
:1044D000F5FB00214FF45540FDF7F0FB33214DF281
:1044E0000150FDF7EBFB00214DF20250FDF7E6FB1A
:1044F00034214DF20350FDF7E1FB00214DF2045051
:10450000FDF7DCFB3A214DF20550FDF7D7FB00210A
:104510004DF20650FDF7D2FB4A214DF20750FDF750
:10452000CDFB00214DF20850FDF7C8FB5C214DF298
:104530000950FDF7C3FB00214DF20A50FDF7BEFB09
:1045400081214DF20B50FDF7B9FB00214DF20C50CB
:10455000FDF7B4FBA6214DF20D50FDF7AFFB002196
:104560004DF20E50FDF7AAFBE5214DF20F50FDF77D
:10457000A5FB01214DF21050FDF7A0FB13214DF2D8
:104580001150FDF79BFB01214DF21250FDF796FBF8
:1045900054214DF21350FDF791FB01214DF21450BF
:1045A000FDF78CFB82214DF21550FDF787FB0121B1
:1045B0004DF21650FDF782FBCA214DF21750FDF760
:1045C0007DFB02214DF21850FDF778FB00214DF2E2
:1045D0001950FDF773FB02214DF21A50FDF76EFBE7
:1045E00001214DF21B50FDF769FB02214DF21C50D9
:1045F000FDF764FB34214DF21D50FDF75FFB0221F6
:104600004DF21E50FDF75AFB67214DF21F50FDF78A
:1046100055FB02214DF22050FDF750FB84214DF255
:104620002150FDF74BFB02214DF22250FDF746FBD6
:10463000A4214DF22350FDF741FB02214DF22450FD
:10464000FDF73CFBB7214DF22550FDF737FB02216A
:104650004DF22650FDF732FBCF214DF22750FDF7EA
:104660002DFB02214DF22850FDF728FBDE214DF2F3
:104670002950FDF723FB02214DF22A50FDF71EFBC6
:10468000F2214DF22B50FDF719FB02214DF22C5077
:10469000FDF714FBFE214DF22D50FDF70FFB03211A
:1046A0004DF22E50FDF70AFB10214DF22F50FDF771
:1046B00005FB03214DF23050FDF700FB33214DF295
:1046C0003150FDF7FBFA03214DF23250FDF7F6FAB7
:1046D0006D214DF23350FDF7F1FA00214FF45640B1
:1046E000FDF7ECFA33214DF20160FDF7E7FA002106
:1046F0004DF20260FDF7E2FA34214DF20360FDF75E
:10470000DDFA00214DF20460FDF7D8FA3A214DF2AE
:104710000560FDF7D3FA00214DF20660FDF7CEFAF1
:104720004A214DF20760FDF7C9FA00214DF20860F9
:10473000FDF7C4FA5C214DF20960FDF7BFFA0021D4
:104740004DF20A60FDF7BAFA81214DF20B60FDF7D8
:10475000B5FA00214DF20C60FDF7B0FAA6214DF23A
:104760000D60FDF7ABFA00214DF20E60FDF7A6FAE1
:10477000E5214DF20F60FDF7A1FA01214DF2106025
:10478000FDF79CFA13214DF21160FDF797FA012114
:104790004DF21260FDF792FA54214DF21360FDF7CD
:1047A0008DFA01214DF21460FDF788FA82214DF255
:1047B0001560FDF783FA01214DF21660FDF77EFAD0
:1047C000CA214DF21760FDF779FA02214DF2186007
:1047D000FDF774FA00214DF21960FDF76FFA02211E
:1047E0004DF21A60FDF76AFA01214DF21B60FDF7E8
:1047F00065FA02214DF21C60FDF760FA34214DF29A
:104800001D60FDF75BFA02214DF21E60FDF756FABE
:1048100067214DF21F60FDF751FA02214DF2206031
:10482000FDF74CFA84214DF22160FDF747FA022191
:104830004DF22260FDF742FAA4214DF22360FDF70C
:104840003DFA02214DF22460FDF738FAB7214DF20E
:104850002560FDF733FA02214DF22660FDF72EFAAE
:10486000CF214DF22760FDF729FA02214DF2286091
:10487000FDF724FADE214DF22960FDF71FFA02212F
:104880004DF22A60FDF71AFAF2214DF22B60FDF786
:1048900015FA02214DF22C60FDF710FAFE214DF2BF
:1048A0002D60FDF70BFA03214DF22E60FDF706FA9D
:1048B00010214DF22F60FDF701FA03214DF2306017
:1048C000FDF7FCF933214DF23160FDF7F7F90321D3
:1048D0004DF23260FDF7F2F96D214DF23360FDF7D4
:1048E000EDF955214FF47040FDF7E8F9AA214FF298
:1048F0000100FDF7E3F952214FF20200FDF7DEF966
:1049000008214FF20300FDF7D9F900214FF204000E
:10491000FDF7D4F9CC214FF43140FDF7CFF9002158
:104920004BF20110FDF7CAF905214FF43640FDF7AF
:10493000C5F970214FF43740FDF7C0F970214BF2F3
:104940000170FDF7BBF901214FF43840FDF7B6F9CE
:1049500003214BF60100FDF7B1F903214BF60200EC
:10496000FDF7ACF903214BF60300FDF7A7F902218F
:104970004FF43C40FDF7A2F900214BF60140FDF752
:104980009DF900214BF60240FDF798F9D0214FF434
:104990004940FDF793F902214CF60110FDF78EF91D
:1049A00050214CF60210FDF789F950214CF6031006
:1049B000FDF784F950214CF60410FDF77FF9002132
:1049C0004FF45450FDF77AF955214FF46850FDF734
:1049D00075F94FF48850FDF75FF97820FCF77CFFFC
:1049E0004FF42450FDF758F908BD08B5E220FDF753
:1049F00053F91D20FDF73EF90220FDF73BF9042095
:104A0000FDF738F96420FCF767FFE020FDF744F973
:104A10000120FDF72FF90A202BF08CF9E020FDF79B
:104A20003BF90320FDF726F90C202BF083F9012038
:104A3000FDF732F90A202BF07DF9E620FDF72CF97D
:104A40002F20FDF717F9FF20FDF714F9FF20FDF7E0
:104A500011F9B020FDF720F92020FDF70BF9002017
:104A6000FDF708F90320FDF705F940F21F30FDF7C7
:104A700001F90120FDF7FEF840F2DF10FDF7FAF82A
:104A80000020FDF7F7F8B420FDF706F90420FDF744
:104A9000F1F840F21F40FDF7EDF80020FDF7EAF8CD
:104AA0002E20FDF7E7F80020FDF7E4F80020FDF7E1
:104AB000E1F80020FDF7DEF80020FDF7DBF8B62076
:104AC000FDF7EAF80220FDF7D5F84FF40370FDF783
:104AD000D1F80020FDF7CEF81720FDF7CBF8152010
:104AE000FDF7C8F80020FDF7C5F80020FDF7C2F873
:104AF000F020FDF7D1F80320FDF7BCF82920FDF7E1
:104B0000CBF8D020FDF7C8F80020FDF7B3F8BE20A1
:104B1000FDF7C2F80520FDF7ADF8FE20FDF7AAF875
:104B20000120FDF7A7F80020FDF7A4F80020FDF70D
:104B3000A1F80020FDF79EF8B820FDF7ADF803209E
:104B4000FDF798F80120FDF795F8BA20FDF7A4F8D5
:104B50000120FDF78FF808BD08B52AF0D1FF08BD88
:104B600010B504462AF092FF230A5B00DBB2603BDB
:104B700003F0FE002BF05CF82AF0F4FFE0B22BF01B
:104B800057F82AF0EFFF2AF081FFA1202BF050F810
:104B90002AF0E8FF00202BF07BF804462AF096FF6D
:104BA000204610BD38B504460D462AF06FFF230A93
:104BB0005B00DBB2603B03F0FE002BF039F82AF01B
:104BC000D1FFE0B22BF034F82AF0CCFF28462BF0CE
:104BD0002FF82AF0C7FF2AF079FF0A202BF0AAF855
:104BE00038BD70B50C4607E0461CB6B2FFF7B8FFFB
:104BF00004F8010B2A463046531E9DB2002AF3D119
:104C000070BD70B504460E4607E016F8011B20463D
:104C1000FFF7C8FF0134A4B22A46531E9DB2002AF2
:104C2000F3D170BD08B50220FCF756FE08BD0000A8
:104C300038B50F4D01224FF4007128462BF00DFAC4
:104C40000C4C0122022120462BF007FAFFF7EAFF65
:104C500000224FF4007128462BF0FFF9FFF7E2FF26
:104C60000022022120462BF0F8F9FFF7DBFF38BDC8
:104C7000001C0140000C014010B50C4C00224FF408
:104C8000007120462BF0E9F9FFF7CCFF0122022149
:104C900007482BF0E2F9FFF7C5FF01224FF400713E
:104CA00020462BF0DAF9FFF7BDFF10BD001C0140D4
:104CB000000C014000B587B0154B9A6942F008021C
:104CC0009A619A6902F008020092009A9A6942F089
:104CD00080029A619B6903F080030193019B022388
:104CE00002930123039304930323059302A9094824
:104CF0002BF08CF84FF4007302931123039302A955
:104D000005482BF083F8FFF7B7FF07B05DF804FB09
:104D100000100240000C0140001C014038B5012287
:104D20004FF4007113482BF098F9FFF77BFF012235
:104D3000022111482BF091F9FFF774FF00244FF482
:104D400000710C482BF082F9054648B10134E4B2F9
:104D5000FA2C02D8FFF766FFF1E7FFF78DFF012578
:104D60000022022104482BF078F9FFF75BFF284668
:104D700038BD00BF001C0140000C014038B5104C8C
:104D800000224FF4007120462BF067F9FFF74AFF2D
:104D90000C4D0122022128462BF05FF9FFF742FF5C
:104DA0000022022128462BF058F9FFF73BFF012291
:104DB0004FF4007120462BF050F9FFF733FF38BD58
:104DC000001C0140000C014010B501224FF400719D
:104DD0000A482BF042F9FFF725FF094C0122022176
:104DE00020462BF03AF9FFF71DFF00220221204652
:104DF0002BF033F9FFF716FF10BD00BF001C014078
:104E0000000C014070B50446002518E000224FF464
:104E1000007114482BF021F9FFF704FF124E012214
:104E2000022130462BF019F9FFF7FCFE0022022187
:104E300030462BF012F96400E4B20135EDB2072DD3
:104E400009D814F0800FE1D001224FF40071054819
:104E50002BF003F9E0E701224FF4007101482BF039
:104E6000FCF870BD001C0140000C014070B5064606
:104E70000024254608E00022022112482BF0EDF81C
:104E8000FFF7D0FE0135EDB2072D12D86400E4B271
:104E9000012202210B482BF0E0F8FFF7C3FE4FF48C
:104EA000007109482BF0D2F80028E4D00134E4B2B4
:104EB000E1E71EB9FFF788FF204670BDFFF75EFFF0
:104EC000FAE700BF000C0140001C0140F8B50446A1
:104ED0000F461546FFF7ACFE7020FFF793FFFFF774
:104EE0001DFFE0B2FFF78EFFFFF718FF00263446E4
:104EF00001E00134E4B2AC4207D2385DFFF782FF33
:104F0000FFF70CFF06460028F3D0FFF7B5FE30464A
:104F1000F8BD70B504460E461546FFF789FE7020B1
:104F2000FFF770FFFFF7FAFEE0B2FFF76BFFFFF746
:104F3000F5FEFFF77DFE7120FFF764FFFFF7EEFE41
:104F4000002408E0681E201A18BF0120FFF78EFF1A
:104F500030550134E4B2AC42F4D3FFF78DFE70BD9E
:104F60002DE9F04198B04C4B9A6942F080029A6169
:104F70009A6902F080021192119A9A6942F08002B5
:104F80009A619B6903F080031293129B4FF40067B0
:104F900014970124159416944FF00308CDF85C8003
:104FA0003E4E14A930462AF031FF4FF4806314932B
:104FB000002515951694CDF85C8014A930462AF08A
:104FC00025FFFFF777FE2A46394630462BF045F895
:104FD00014202AF0AFFE2246394630462BF03DF829
:104FE00032202AF0A7FE8DF84C50224613A92846FD
:104FF000FFF76CFF224613A9A420FFF767FF1623D3
:105000008DF84C30224613A98020FFF75FFF0C2358
:105010008DF84C30224613A98820FFF757FF022253
:1050200013A9A120FFF775FF9DF84C30302B09D054
:105030009DF84D20012A09D0022A07D04BBB2AB186
:10504000012023E09DF84D204245F1D19DF84D20EF
:10505000134C02EB03230E93124B0D93EC4604F119
:10506000100EBEE80F00ACE80F00BEE80F00ACE881
:105070000F00BEE80F00ACE80F00DEF80030CCF8FF
:10508000003094E80F00FCF7ABFD002018B0BDE83D
:10509000F0810120FAE700BF00100240001C01402F
:1050A000B40D0020B0AA030830B583B000238DF8FA
:1050B00007305F4B1A780132D2B21A705D4BA3FBF6
:1050C0000213DB0803EB83035900511A11F0FF0FA1
:1050D00002D0092A00F28A8001220DF10701022084
:1050E000FFF717FF9DF8070000F00F0000287ED0A3
:1050F000052801D900207AE04FF6FF738340DB4397
:105100006FEA83436FEA93434B4A938604202AF065
:1051100011FE00242DE0494B1A889DF800301B0237
:1051200003F470639DF801100B44D31A4249221D09
:1051300001EB420293809DF802301B0203F470637E
:105140009DF80320134404F1100221F812309DF859
:10515000003003F0F003802B09D0374A05F110032B
:10516000002122F813102B1D02EB43039980013418
:10517000E4B2042C2DD8304B9B8E2546234113F0EE
:10518000010FF4D0042269462D4B33F81400FFF7C9
:10519000C0FE294B93F8443013F0010FBBD09DF8AB
:1051A00000301B0203F470639DF801201344224A6F
:1051B00004F1100122F811309DF802301B0203F4B3
:1051C00070639DF803100B44211D02EB4102938094
:1051D000BDE7194B9B8923B9174B1B8C0BB98DF875
:1051E0000730134B00221A70012000E000209DF8C8
:1051F000073013F01F0F0DD10F4A938EB2F93420F0
:10520000002A10DB0C4A4FF6FF719181118403F4E0
:1052100060439386064B1B78F02B02D9044B0A227D
:105220001A7003B030BDC3F30E03034A9386F1E74F
:105230004E0E0020CDCCCCCC0C000020400E002027
:10524000BCAA0308F8B504460F461546FFF7F0FC64
:105250002820FFF7D7FDFFF761FD200AFFF7D2FDF9
:10526000FFF75CFDE0B2FFF7CDFDFFF757FD00262D
:10527000344601E00134E4B2AC4207D2385DFFF7B6
:10528000C1FDFFF74BFD06460028F3D0FFF7F4FC05
:105290003046F8BD70B504460E461546FFF7C8FC0B
:1052A0002820FFF7AFFDFFF739FD200AFFF7AAFD21
:1052B000FFF734FDE0B2FFF7A5FDFFF72FFDFFF785
:1052C000B7FC2920FFF79EFDFFF728FD002408E02A
:1052D000681E201A18BF0120FFF7C8FD30550134A1
:1052E000E4B2AC42F4D3FFF7C7FC70BD2DE9F04344
:1052F00099B0484B9A6942F080029A619A6902F02B
:1053000080021092109A9A6942F080029A619B6919
:1053100003F080031193119B4FF40068CDF8508087
:10532000012615961696032717973B4D14A9284674
:105330002AF06CFD4FF48069CDF85090002415944C
:105340001696179714A928462AF060FDFFF7B2FCBD
:105350002246414628462AF080FE0A202AF0EAFC2E
:105360003246414628462AF078FE0A202AF0E2FC1E
:10537000CDF8509015941694179714A928462AF042
:1053800045FD64202AF0D6FC12AD0422294648F2DD
:105390004010FFF77FFF8DF84C40204C0E95204BBE
:1053A0000D93EC4604F1100EBEE80F00ACE80F00C0
:1053B000BEE80F00ACE80F00BEE80F00ACE80F003D
:1053C000DEF80030CCF8003094E80F00FCF708FC61
:1053D00014492846FCF71AF810B9134B0A221A7020
:1053E00002238DF84830012212A948F24000FFF74D
:1053F00029FF0A202AF09EFC00248DF84840012253
:1054000012A948F24000FFF71DFF204619B0BDE881
:10541000F08300BF00100240001C0140B40D0020CA
:10542000C8AA0308D4AA03080800002010B584B055
:105430008DF8070000238DF80B309C4B1A78013251
:10544000D2B21A709A4BA3FB0213DB0803EB83035F
:10545000A2EB430313F0FF0F02D0092A00F2FF80F2
:1054600001220DF1070148F24E10FFF713FF9DF8DE
:1054700007309DF90720002A23DB9DF8070000F084
:105480000F00002800F0EC808A4B1A78904200F25E
:10549000F6804FF6FF73834087498C8EDB436FEABB
:1054A00083436FEA93438B868889D31C01EB4303C4
:1054B00098800B8C0F3221F8123000238DF80B30BE
:1054C00067E07C4A127803F00F039A42D5D3002399
:1054D0008DF80B3001220DF10B0148F24E10FFF751
:1054E000B1FECAE7744B93F8443013F0010F1AD0A1
:1054F0009DF80D209DF80C309DF80B1003EB022356
:105500006D4A01F1100022F810309DF80F009DF84F
:105510000E3003EB00239BB2C3F54873043102EB5A
:105520004102938030E09DF80D209DF80C109DF80D
:105530000B3001EB022160481A1D00EB4202918002
:105540009DF80F109DF80E2002EB0122103320F879
:10555000132019E0594B19889DF80F209DF80E3043
:1055600003EB02239BB29DF80B20CB1A5248111D6E
:1055700000EB41018B809DF80D109DF80C3003EB82
:105580000123103220F812309DF80B3001338DF8D2
:105590000B309DF80B00474B1B7898422FD2464B9F
:1055A0009B8E034113F0010FEED0042203A9444B5C
:1055B00033F81000FFF76EFE404B9A8845F2105307
:1055C0009A428FD03C4B93F8443013F0010FC1D076
:1055D0009DF80D209DF80C109DF80B3001EB022179
:1055E00035481A1D00EB420291809DF80F109DF87E
:1055F0000E2002EB0122103320F81320C4E72E4ABC
:1056000091892E4A1288914205D82B4A118C2B4A37
:10561000528891421ED99DF8072012F00E0F09D032
:10562000254BDA899A815A8C1A84204B00221A70F1
:10563000012015E0204AD91C02EB410189889181A3
:105640000F3332F81330138480238DF8073094869B
:10565000012005E0154B00221A70012000E0002017
:105660009DF8073003F08F03802B0AD00F4B1B7877
:10567000F02B02D90D4B0A221A7004B010BD002085
:10568000EEE70D4A938EB2F93420002A08DB0A4A6D
:105690004FF6FF719181118403F460439386E5E72F
:1056A000C3F30E03044A9386E0E700BF4F0E0020C9
:1056B000CDCCCCCC080000200C000020400E0020F7
:1056C000DCAA030870B50446002517E000224FF459
:1056D000007111482AF0C1FC6400E4B20F4E0022B0
:1056E000022130462AF0B9FC0120FCF7F5F801222E
:1056F000022130462AF0B1FC0135EDB2072D09D860
:1057000014F0800FE2D001224FF4007102482AF019
:10571000A4FCE1E770BD00BF001C0140000C01408B
:1057200070B505462B4C0022022120462AF095FC3C
:10573000294E00224FF4007130462AF08EFC0022E0
:105740004FF4006130462AF088FC2846FFF7BAFF84
:105750000620FCF7C1F80022022120462AF07DFC39
:105760000120FCF7B9F80122022120462AF075FC3D
:105770000120FCF7B1F80022022120462AF06DFC3E
:105780000024254601E00135EDB20F2D18D8640044
:10579000A4B2104E0022022130462AF05EFC012005
:1057A000FCF79AF80122022130462AF056FC042127
:1057B00030462AF04BFC0028E5D00134A4B2E2E7E1
:1057C000240901224FF4006103482AF046FC2046D8
:1057D00070BD00BF000C0140001C014030B585B019
:1057E0000546002409E02846FFF79AFF04AB03EBC7
:1057F000440323F80C0C0134A4B2042CF3D9002088
:105800001AE001339BB2042B15D804AA02EB400224
:1058100032F80C2C04A901EB430131F80C1C8A422C
:10582000EFD904AD05EB400C2CF80C1C05EB430143
:1058300021F80C2CE5E72046032803D8441CA4B229
:105840002346E0E70020012308E004AA02EB43021C
:1058500032F80C2C104480B201339BB2032BF4D9E4
:10586000034BA3FB0030C0F34F0005B030BD00BFB9
:10587000ABAAAAAA70B505460C460D4B93F8443066
:1058800013F0010F0AD09020FFF7A8FF0646D020A2
:10589000FFF7A4FF03462E80238070BDD020FFF7C2
:1058A0009DFF06469020FFF799FF0346F3E700BFF0
:1058B0000C00002030B583B005460C4601A90DF15F
:1058C0000600FFF7D7FF69460DF10200FFF7D2FF90
:1058D000BDF80230BDF80620934203D803F1310130
:1058E000914205DA934220D302F1310199421FDB44
:1058F000BDF80000BDF80410884203D800F1310C57
:105900008C4506DA884215D33131814201DA002014
:105910000CE013445B102B80BDF80430BDF8002070
:1059200013445B102380012000E0002003B030BD51
:105930000020FBE70020F9E770B504464FF48061D2
:1059400032482AF083FB00284CD1A4B1304800F142
:1059500020010C30FFF7AEFF2D4BB3F93430002B94
:1059600007DB2B4B4FF440429A869A89DA831A8CD4
:105970005A86002070BD264800F120010C30FFF748
:1059800099FF0028E8D0224CA089B4F84030C01A12
:10599000A56B00B2FBF77CF92946FBF781FA0546B7
:1059A0001C4E30884008FBF773F92946FBF7BCF81A
:1059B000FBF712FBA081208CB4F84230C01AE56BD3
:1059C00000B2FBF765F92946FBF76AFA05467088CD
:1059D0004008FBF75DF92946FBF7A6F8FBF7FCFA50
:1059E0002084B9E70A4B9A8EB3F93430002B08DBD8
:1059F000074B0022DA835A864FF6FF729A811A8487
:105A0000B7E7C2F30E02024B9A86B2E7001C0140D0
:105A10000C000020400E00202DE9F04383B0044626
:105A20000E46154600F10D020C3800950B4692B259
:105A300080B2FCF77BFD06F10D03A6F10C01009589
:105A40009BB2224689B22046FCF770FD04F10109A1
:105A50001FFA89F906F101081FFA88F82A4641461B
:105A60004846FCF7AFFA671EBFB22A4641463846A1
:105A7000FCF7A8FA06F1FF381FFA88F82A464146D3
:105A80004846FCF79FFA2A4641463846FCF79AFA00
:105A90002B46062231462046FCF79BFD03B0BDE8AD
:105AA000F08300002DE9F0478CB08146CDE9042356
:105AB000002432E0651C09EB840639F824302A46BC
:105AC000354907A82CF028FD04EB8404A400A03479
:105AD000A4B2324F4FF4784ACDF808A007AB019337
