:020000040800F2
:1000000000000120358E0008BD570008BF570008CA
:10001000C1570008C3570008C5570008000000007A
:10002000000000000000000000000000B182000895
:10003000C75700080000000051830008958300089E
:100040007D8E00087D8E00087D8E00087D8E000864
:100050007D8E00087D8E00087D8E00087D8E000854
:100060007D8E00087D8E00087D8E00087D8E000844
:100070007D8E00087D8E00087D8E00087D8E000834
:100080007D8E00087D8E00087D8E00087D8E000824
:100090007D8E00087D8E00087D8E00087D8E000814
:1000A0007D8E0008C95700087D8E00087D8E0008EF
:1000B0007D8E00087D8E00087D8E00087D8E0008F4
:1000C0007D8E00087D8E00087D8E00087D8E0008E4
:1000D0007D8E00087D8E00087D8E00087D8E0008D4
:1000E0007D8E00087D8E00087D8E00087D8E0008C4
:1000F0007D8E00087D8E00087D8E00087D8E0008B4
:100100007D8E00087D8E00087D8E00087D8E0008A3
:100110007D8E00087D8E00087D8E00087D8E000893
:100120007D8E00087D8E00087D8E00087D8E000883
:1001300000000000000000000000000000000000BF
:1001400000000000000000000000000000000000AF
:10015000000000000000000000000000000000009F
:10016000000000000000000000000000000000008F
:10017000000000000000000000000000000000007F
:10018000000000000000000000000000000000006F
:10019000000000000000000000000000000000005F
:1001A000000000000000000000000000000000004F
:1001B000000000000000000000000000000000003F
:1001C000000000000000000000000000000000002F
:1001D000000000000000000000000000000000001F
:0401E0005FF8E0F1F3
:1001F00010B5054C237833B9044B13B10448AFF361
:1002000000800123237010BD100A002000000000B0
:10021000E40A010808B5034B1BB103490348AFF3D7
:10022000008008BD00000000140A0020E40A010854
:1002300081F0004102E000BF83F0004330B54FEA97
:1002400041044FEA430594EA050F08BF90EA020F04
:100250001FBF54EA000C55EA020C7FEA645C7FEA97
:10026000655C00F0E2804FEA5454D4EB5555B8BFBA
:100270006D420CDD2C4480EA020281EA030382EA2B
:10028000000083EA010180EA020281EA0303362DBD
:1002900088BF30BD11F0004F4FEA01314FF4801C90
:1002A0004CEA113102D0404261EB410113F0004FA2
:1002B0004FEA03334CEA133302D0524263EB430359
:1002C00094EA050F00F0A780A4F10104D5F1200EF7
:1002D0000DDB02FA0EFC22FA05F2801841F1000152
:1002E00003FA0EF2801843FA05F359410EE0A5F126
:1002F00020050EF1200E012A03FA0EFC28BF4CF057
:10030000020C43FA05F3C01851EBE37101F000450C
:1003100007D54FF0000EDCF1000C7EEB00006EEB19
:100320000101B1F5801F1BD3B1F5001F0CD34908A3
:100330005FEA30004FEA3C0C04F101044FEA4452FA
:1003400012F5800F80F09A80BCF1004F08BF5FEA81
:10035000500C50F1000041EB045141EA050130BD61
:100360005FEA4C0C404141EB0101013C28BFB1F573
:10037000801FE9D291F0000F04BF01460020B1FABE
:1003800081F308BF2033A3F10B03B3F120020CDA91
:100390000C3208DD02F1140CC2F10C0201FA0CF06F
:1003A00021FA02F10CE002F11402D8BFC2F1200CD4
:1003B00001FA02F120FA0CFCDCBF41EA0C0190408A
:1003C000E41AA2BF01EB0451294330BD6FEA0404D3
:1003D0001F3C1CDA0C340EDC04F11404C4F12002BE
:1003E00020FA04F001FA02F340EA030021FA04F3D0
:1003F00045EA030130BDC4F10C04C4F1200220FA27
:1004000002F001FA04F340EA0300294630BD21FA64
:1004100004F0294630BD94F0000F83F4801306BF2A
:1004200081F480110134013D4EE77FEA645C18BF1E
:100430007FEA655C29D094EA050F08BF90EA020FB5
:1004400005D054EA000C04BF1946104630BD91EAAD
:10045000030F1EBF0021002030BD5FEA545C05D1B0
:100460004000494128BF41F0004130BD14F58004EF
:100470003CBF01F5801130BD01F0004545F0FE4163
:1004800041F470014FF0000030BD7FEA645C1ABF98
:10049000194610467FEA655C1CBF0B46024650EACF
:1004A000013406BF52EA033591EA030F41F40021FB
:1004B00030BD00BF90F0000F04BF0021704730B581
:1004C0004FF4806404F132044FF000054FF0000156
:1004D00050E700BF90F0000F04BF0021704730B517
:1004E0004FF4806404F1320410F0004548BF4042EC
:1004F0004FF000013EE700BF42004FEAE2014FEA41
:1005000031014FEA02701FBF12F07F4393F07F4F1B
:1005100081F06051704732F07F4208BF704793F01E
:100520007F4F04BF41F40021704730B54FF4607431
:1005300001F0004521F000411CE700BF50EA010234
:1005400008BF704730B54FF000050AE050EA0102DD
:1005500008BF704730B511F0004502D5404261EB4D
:1005600041014FF4806404F132045FEA915C3FF48E
:10057000D8AE4FF003025FEADC0C18BF03325FEA2B
:10058000DC0C18BF033202EBDC02C2F1200300FADC
:1005900003FC20FA02F001FA03FE40EA0E0021FA01
:1005A00002F11444BDE600BF70B54FF0FF0C4CF4EF
:1005B000E06C1CEA11541DBF1CEA135594EA0C0FA1
:1005C00095EA0C0F00F0DEF82C4481EA030621EADC
:1005D0004C5123EA4C5350EA013518BF52EA033517
:1005E00041F4801143F4801338D0A0FB02CE4FF0C9
:1005F0000005E1FB02E506F00042E0FB03E54FF0F9
:100600000006E1FB03569CF0000F18BF4EF0010EF0
:10061000A4F1FF04B6F5007F64F5407404D25FEAEC
:100620004E0E6D4146EB060642EAC62141EA55519F
:100630004FEAC52040EA5E504FEACE2EB4F1FD0CE1
:1006400088BFBCF5E06F1ED8BEF1004F08BF5FEA5F
:10065000500E50F1000041EB045170BD06F0004611
:1006600046EA010140EA020081EA0301B4EB5C04BE
:10067000C2BFD4EB0C0541EA045170BD41F48011B6
:100680004FF0000E013C00F3AB8014F1360FDEBFDB
:10069000002001F0004170BDC4F10004203C35DAB7
:1006A0000C341BDC04F11404C4F1200500FA05F33A
:1006B00020FA04F001FA05F240EA020001F00042DB
:1006C00021F0004110EBD37021FA04F642EB060151
:1006D0005EEA430E08BF20EAD37070BDC4F10C047B
:1006E000C4F1200500FA04F320FA05F001FA04F23F
:1006F00040EA020001F0004110EBD37041F100012B
:100700005EEA430E08BF20EAD37070BDC4F1200535
:1007100000FA05F24EEA020E20FA04F301FA05F29D
:1007200043EA020321FA04F001F0004121FA04F245
:1007300020EA020000EBD3705EEA430E08BF20EA15
:10074000D37070BD94F0000F0FD101F0004640004F
:1007500041EB010111F4801F08BF013CF7D041EAD1
:10076000060195F0000F18BF704703F000465200D5
:1007700043EB030313F4801F08BF013DF7D043EAA6
:100780000603704794EA0C0F0CEA135518BF95EA5C
:100790000C0F0CD050EA410618BF52EA4306D1D1E3
:1007A00081EA030101F000414FF0000070BD50EA02
:1007B000410606BF1046194652EA430619D094EA8C
:1007C0000C0F02D150EA013613D195EA0C0F05D176
:1007D00052EA03361CBF104619460AD181EA0301CA
:1007E00001F0004141F0FE4141F470014FF0000082
:1007F00070BD41F0FE4141F4780170BD70B54FF01D
:10080000FF0C4CF4E06C1CEA11541DBF1CEA13559C
:1008100094EA0C0F95EA0C0F00F0A7F8A4EB05047E
:1008200081EA030E52EA03354FEA013100F0888075
:100830004FEA03334FF0805545EA131343EA12633E
:100840004FEA022245EA111545EA10654FEA0026F3
:100850000EF000419D4208BF964244F1FD0404F5AC
:10086000407402D25B084FEA3202B61A65EB030508
:100870005B084FEA32024FF480104FF4002CB6EBC5
:10088000020E75EB030E22BFB61A754640EA0C0045
:100890005B084FEA3202B6EB020E75EB030E22BF85
:1008A000B61A754640EA5C005B084FEA3202B6EBC6
:1008B000020E75EB030E22BFB61A754640EA9C0085
:1008C0005B084FEA3202B6EB020E75EB030E22BF55
:1008D000B61A754640EADC0055EA060E18D04FEA13
:1008E000051545EA16754FEA06164FEAC30343EAB3
:1008F00052734FEAC2025FEA1C1CC0D111F4801F80
:100900000BD141EA00014FF000004FF0004CB6E778
:1009100011F4801F04BF01430020B4F1FD0C88BF17
:10092000BCF5E06F3FF6AFAEB5EB030C04BFB6EB22
:10093000020C5FEA500C50F1000041EB045170BD15
:100940000EF0004E4EEA113114EB5C04C2BFD4EB42
:100950000C0541EA045170BD41F480114FF0000EC6
:10096000013C90E645EA060E8DE60CEA135594EA42
:100970000C0F08BF95EA0C0F3FF43BAF94EA0C0F45
:100980000AD150EA01347FF434AF95EA0C0F7FF4BA
:1009900025AF104619462CE795EA0C0F06D152EA0E
:1009A00003353FF4FDAE1046194622E750EA4106F2
:1009B00018BF52EA43067FF4C5AE50EA41047FF403
:1009C0000DAF52EA43057FF4EBAE12E74FF0FF3C68
:1009D00006E000BF4FF0010C02E000BF4FF0010C39
:1009E0004DF804CD4FEA410C7FEA6C5C4FEA430CB2
:1009F00018BF7FEA6C5C1BD001B050EA410C0CBF01
:100A000052EA430C91EA030F02BF90EA020F002062
:100A1000704710F1000F91EA030F58BF994208BFC9
:100A200090422CBFD8176FEAE37040F00100704786
:100A30004FEA410C7FEA6C5C02D150EA013C07D1DD
:100A40004FEA430C7FEA6C5CD6D152EA033CD3D028
:100A50005DF8040B704700BF8446104662468C4622
:100A60001946634600E000BF01B5FFF7B7FF002855
:100A700048BF10F1000F01BD4DF808EDFFF7F4FF7E
:100A80000CBF012000205DF808FB00BF4DF808ED09
:100A9000FFF7EAFF34BF012000205DF808FB00BF2C
:100AA0004DF808EDFFF7E0FF94BF012000205DF84E
:100AB00008FB00BF4DF808EDFFF7CEFF94BF012003
:100AC00000205DF808FB00BF4DF808EDFFF7C4FFFC
:100AD00034BF012000205DF808FB00BF4A0011D29E
:100AE00012F5001211D20DD56FF47873B3EB625288
:100AF0000ED44FEAC12343F0004343EA505323FA94
:100B000002F070474FF00000704750EA013002D108
:100B10004FF0FF3070474FF00000704780F000400A
:100B200002E000BF81F0004142001FBF5FEA4103C5
:100B300092EA030F7FEA226C7FEA236C6AD04FEAC5
:100B40001262D2EB1363C1BFD2184140484041400A
:100B5000B8BF5B42192B88BF704710F0004F40F4BC
:100B6000000020F07F4018BF404211F0004F41F4D8
:100B7000000121F07F4118BF494292EA030F3FD0A4
:100B8000A2F1010241FA03FC10EB0C00C3F12003B7
:100B900001FA03F100F0004302D5494260EB400046
:100BA000B0F5000F13D3B0F1807F06D340084FEAB1
:100BB000310102F10102FE2A51D2B1F1004F40EBA6
:100BC000C25008BF20F0010040EA0300704749000E
:100BD00040EB0000013A28BFB0F5000FEDD2B0FAAB
:100BE00080FCACF1080CB2EB0C0200FA0CF0AABFCE
:100BF00000EBC25052421843BCBFD040184370476C
:100C000092F0000F81F4000106BF80F40000013271
:100C1000013BB5E74FEA41037FEA226C18BF7FEA48
:100C2000236C21D092EA030F04D092F0000F08BF8A
:100C30000846704790EA010F1CBF0020704712F071
:100C40007F4F04D1400028BF40F00040704712F1B0
:100C500000723CBF00F50000704700F0004343F015
:100C6000FE4040F4000070477FEA226216BF08464B
:100C70007FEA23630146420206BF5FEA412390EA0E
:100C8000010F40F4800070474FF0000304E000BF04
:100C900010F0004348BF40425FEA000C08BF7047B5
:100CA00043F0964301464FF000001CE050EA010279
:100CB00008BF70474FF000030AE000BF50EA01028E
:100CC00008BF704711F0004302D5404261EB41017B
:100CD0005FEA010C02BF84460146002043F0B643A0
:100CE00008BFA3F18053A3F50003BCFA8CF2083AC5
:100CF000A3EBC25310DB01FA02FC634400FA02FCCE
:100D0000C2F12002BCF1004F20FA02F243EB0200D4
:100D100008BF20F00100704702F1200201FA02FC36
:100D2000C2F1200250EA4C0021FA02F243EB020029
:100D300008BF20EADC7070474FF0FF0C1CEAD0526D
:100D40001EBF1CEAD15392EA0C0F93EA0C0F6FD02E
:100D50001A4480EA010C400218BF5FEA41211ED00C
:100D60004FF0006343EA501043EA5111A0FB0131F8
:100D70000CF00040B1F5000F3EBF490041EAD371CD
:100D80005B0040EA010062F17F02FD2A1DD8B3F149
:100D9000004F40EBC25008BF20F00100704790F0B8
:100DA000000F0CF0004C08BF49024CEA502040EA0A
:100DB00051207F3AC2BFD2F1FF0340EAC2507047D0
:100DC00040F400004FF00003013A5DDC12F1190F0E
:100DD000DCBF00F000407047C2F10002410021FA80
:100DE00002F1C2F1200200FA02FC5FEA310040F198
:100DF000000053EA4C0308BF20EADC70704792F011
:100E0000000F00F0004C02BF400010F4000F013A48
:100E1000F9D040EA0C0093F0000F01F0004C02BF43
:100E2000490011F4000F013BF9D041EA0C018FE7B2
:100E30000CEAD15392EA0C0F18BF93EA0C0F0AD0B8
:100E400030F0004C18BF31F0004CD8D180EA0100DE
:100E500000F00040704790F0000F17BF90F0004F77
:100E6000084691F0000F91F0004F14D092EA0C0F59
:100E700001D142020FD193EA0C0F03D14B0218BFEC
:100E8000084608D180EA010000F0004040F0FE4032
:100E900040F40000704740F0FE4040F440007047CE
:100EA0004FF0FF0C1CEAD0521EBF1CEAD15392EA4D
:100EB0000C0F93EA0C0F69D0A2EB030280EA010C3D
:100EC00049024FEA402037D04FF0805343EA1111D6
:100ED00043EA10130CF000408B4238BF5B0042F134
:100EE0007D024FF4000C8B4224BF5B1A40EA0C00D9
:100EF000B3EB510F24BFA3EB510340EA5C00B3EB0B
:100F0000910F24BFA3EB910340EA9C00B3EBD10FF8
:100F100024BFA3EBD10340EADC001B0118BF5FEA4A
:100F20001C1CE0D1FD2A3FF650AF8B4240EBC25073
:100F300008BF20F0010070470CF0004C4CEA502034
:100F40007F32C2BFD2F1FF0340EAC250704740F483
:100F500000004FF00003013A37E792F0000F00F075
:100F6000004C02BF400010F4000F013AF9D040EAF3
:100F70000C0093F0000F01F0004C02BF490011F487
:100F8000000F013BF9D041EA0C0195E70CEAD1537F
:100F900092EA0C0F08D142027FF47DAF93EA0C0F66
:100FA0007FF470AF084676E793EA0C0F04D14B024A
:100FB0003FF44CAF08466EE730F0004C18BF31F0FC
:100FC000004CCAD130F000427FF45CAF31F00043F6
:100FD0007FF43CAF5FE700BF42000ED2B2F1FE4F9C
:100FE0000BD34FF09E03B3EB126209D44FEA0023F8
:100FF00043F0004323FA02F070474FF000007047BF
:1010000012F1610F01D1420202D14FF0FF3070475F
:101010004FF00000704700BF844641EA000313F020
:10102000030349D1403A23D30B6803604B68436004
:101030008B688360CB68C3600B6903614B69436154
:101040008B698361CB69C3610B6A03624B6A43623C
:101050008B6A8362CB6AC3620B6B03634B6B436324
:101060008B6B8363CB6BC36340304031403ADBD240
:1010700030320BD30B6803604B6843608B6883602E
:10108000CB68C36010301031103AF3D20C3205D364
:1010900051F8043B40F8043B043AF9D2043208D03A
:1010A000D2071CBF11F8013B00F8013B01D30B88AC
:1010B00003806046704700BF082A13D38B07B1D066
:1010C00010F00303AED0C3F10403D21ADB071CBF38
:1010D00011F8013B00F8013BA4D331F8023B20F8A2
:1010E000023B9FE7043AD9D3013A11F8013B00F8DB
:1010F000013BF9D20B7803704B7843708B78837087
:101100006046704780EA010C1CF0030F37D110F0E5
:10111000030C20F0030021F0030150F8042B08BF5A
:1011200051F8043B0ED08CF0030C6FF07F434FEA74
:10113000CC0C23FA0CFC51F8043B42EA0C0243EAC3
:101140000C0300BFA2F1013C9A4201BF2CEA020C41
:101150001CF0803F50F8042B51F8043BF2D04FEACA
:1011600002604FEA1222012828BFB0EB036F08BFCC
:101170001B0AF4D003F0FF03000EC01A704710F0F2
:10118000030F0AD010F8012B11F8013B012A28BFE8
:101190009A42F4D0A2EB030070474DF8045D50F87A
:1011A000042B01F0030521F0030151F8043B022D4B
:1011B00026D04DD822F07F45B5EB132FA2F1013C8C
:1011C0002CEA020C0DD11CF0803C08BF51F8043B06
:1011D0000AD185EA0205B5EB036F0CD150F8042B58
:1011E000E8E74FEA13235BE03CF07F4C54D10B78E7
:1011F0004FEA126554E04FEA126503F0FF034FE037
:101200004FEA0245A2F1013C4FEA15452CEA020CD7
:10121000B5EB134F18D11CF0803C08BF51F8043BCC
:1012200007D185EA0205B5EB034F09D150F8042B2D
:10123000E6E75FEA0C4C2FD10B884FEA12452FE00E
:101240004FEA03434FEA12454FEA134328E000BF39
:1012500002F0FF05B5EB136FA2F1013C2CEA020C82
:101260000DD11CF0803C08BF51F8043B0AD185EA3F
:101270000205B5EB032F0AD150F8042BE8E74FEA3B
:1012800013630DE012F0FF0F06D051F8043B4FEA54
:10129000122523F07F4303E04FF0000020BC70478D
:1012A00005F0FF0203F0FF00012828BF904204BFB1
:1012B0002D0A1B0AF4D0A2EB000020BC704700BF2F
:1012C0004FEA410C7FEA6C5C02D150EA013C0AD142
:1012D0004FEA430C7FEA6C5C02D152EA033C02D134
:1012E0004FF0000070474FF0010070474FEA410295
:1012F00012F5001215D211D56FF47873B3EB625268
:1013000012D94FEAC12343F0004343EA505311F08E
:10131000004F23FA02F018BF404270474FF0000020
:10132000704750EA013005D111F0004008BF6FF05E
:10133000004070474FF00000704700BF53B94AB9F2
:10134000002908BF00281CBF4FF0FF314FF0FF30CD
:1013500000F076B9ADF1080C6DE904CE00F006F8A6
:10136000DDF804E0DDE9022304B070472DE9F04721
:10137000089E0D4604468846002B4DD18A4294466D
:1013800068D9B2FA82F252B101FA02F3C2F1200135
:1013900020FA01F10CFA02FC41EA030894404FEAFA
:1013A0001C41B8FBF1F71FFA8CFE01FB178807FB05
:1013B0000EF0230C43EA084398420AD91CEB0303BE
:1013C00007F1FF3580F01E81984240F21B81023FF9
:1013D00063441B1AB3FBF1F001FB103300FB0EFE5C
:1013E000A4B244EA0344A6450AD91CEB040400F164
:1013F000FF3380F00981A64540F20681644402383B
:101400000021A4EB0E0440EA07401EB10023D440A3
:10141000C6E90043BDE8F0878B4208D9002E00F0F2
:10142000EE800021C6E900050846BDE8F087B3FA62
:1014300083F100294AD1AB4202D3824200F2FC8000
:10144000841A65EB030301209846002EE2D0C6E91A
:101450000048DFE702B9FFDEB2FA82F2002A40F06C
:101460009180A1EB0C0001214FEA1C471FFA8CFE72
:10147000B0FBF7F307FB1300250C45EA00450EFB14
:1014800003F0A84208D91CEB050503F1FF3802D28E
:10149000A84200F2CE8043462D1AB5FBF7F007FBB9
:1014A00010550EFB00FEA4B244EA0544A64508D937
:1014B0001CEB040400F1FF3502D2A64500F2B68011
:1014C0002846A4EB0E0440EA03409EE7C1F1200742
:1014D0008B4022FA07FC4CEA030C25FA07FA4FEA84
:1014E0001C49BAFBF9F820FA07F309FB18AA8D404A
:1014F0001FFA8CFE1D4300FA01F308FB0EF02C0CC2
:1015000044EA0A44A04202FA01F20BD91CEB04049B
:1015100008F1FF3A80F08880A04240F28580A8F16F
:1015200002086444241AB4FBF9F009FB104400FBE0
:101530000EFEADB245EA0444A64508D91CEB0404EE
:1015400000F1FF356CD2A6456AD90238644440EAFE
:101550000840A0FB0295A4EB0E04AC42C846AE4680
:1015600056D353D0002E69D0B3EB080264EB0E04BF
:1015700022FA01F304FA07F71F43CC40C6E90074CE
:10158000002147E70CFA02FCC2F1200125FA01F321
:101590004FEA1C4720FA01F195400D43B3FBF7F1E8
:1015A00007FB11331FFA8CFE280C40EA034001FBB5
:1015B0000EF3834204FA02F408D91CEB000001F197
:1015C000FF382FD283422DD902396044C01AB0FBB4
:1015D000F7F307FB1300ADB245EA004503FB0EF03D
:1015E000A84208D91CEB050503F1FF3816D2A84222
:1015F00014D9023B6544281A43EA014138E73146D1
:10160000304607E72F46E4E61846F9E64B45A9D2EF
:10161000B9EB020865EB0C0E0138A3E74346EAE795
:10162000284694E74146D1E7D0467BE76444023838
:1016300047E7023B65442FE7084606E73146E9E6FF
:10164000704700BF08B503F05DFF08BD10B5044644
:1016500003F01EFF230A5B00DBB2603B03F0FE00D9
:1016600003F0E8FF03F080FFE0B203F0E3FF03F0D4
:101670007BFF03F00DFFA12003F0DCFF03F074FFFC
:10168000002004F007F8044603F022FF204610BDB6
:1016900038B504460D4603F0FBFE230A5B00DBB2BF
:1016A000603B03F0FE0003F0C5FF03F05DFFE0B216
:1016B00003F0C0FF03F058FF284603F0BBFF03F020
:1016C00053FF03F005FF0A2005F0A2FA38BD70B5FC
:1016D0000C4607E0461CB6B2FFF7B8FF04F8010B52
:1016E0002A463046531E9DB2002AF3D170BD70B514
:1016F00004460E4607E016F8011B2046FFF7C8FF18
:101700000134A4B22A46531E9DB2002AF3D170BD03
:1017100008B5022003F054FE08BD000038B50F4D97
:1017200001224FF40071284605F005FC0C4C012203
:101730000221204605F0FFFBFFF7EAFF00224FF4ED
:101740000071284605F0F7FBFFF7E2FF00220221B7
:10175000204605F0F0FBFFF7DBFF38BD001C014021
:10176000000C014010B50C4C00224FF400712046D3
:1017700005F0E1FBFFF7CCFF01220221074805F04D
:10178000DAFBFFF7C5FF01224FF40071204605F098
:10179000D2FBFFF7BDFF10BD001C0140000C014053
:1017A00000B587B0154B9A6942F008029A619A69B0
:1017B00002F008020092009A9A6942F080029A614F
:1017C0009B6903F080030193019B02230293012391
:1017D000039304930323059302A9094805F084FAAF
:1017E0004FF4007302931123039302A9054805F0F7
:1017F0007BFAFFF7B7FF07B05DF804FB001002406B
:10180000000C0140001C014038B501224FF400716A
:10181000134805F090FBFFF77BFF012202211148DE
:1018200005F089FBFFF774FF00244FF400710C48AA
:1018300005F07AFB054648B10134E4B2FA2C02D82F
:10184000FFF766FFF1E7FFF78DFF01250022022178
:10185000044805F070FBFFF75BFF284638BD00BF6A
:10186000001C0140000C014038B5104C00224FF420
:101870000071204605F05FFBFFF74AFF0C4D012287
:101880000221284605F057FBFFF742FF0022022104
:10189000284605F050FBFFF73BFF01224FF4007193
:1018A000204605F048FBFFF733FF38BD001C014020
:1018B000000C014010B501224FF400710A4805F0F8
:1018C0003AFBFFF725FF094C01220221204605F0D3
:1018D00032FBFFF71DFF00220221204605F02BFB03
:1018E000FFF716FF10BD00BF001C0140000C0140B7
:1018F00070B50446002518E000224FF4007114482A
:1019000005F019FBFFF704FF124E012202213046B9
:1019100005F011FBFFF7FCFE00220221304605F026
:101920000AFB6400E4B20135EDB2072D09D814F0CA
:10193000800FE1D001224FF40071054805F0FBFA59
:10194000E0E701224FF40071014805F0F4FA70BDA0
:10195000001C0140000C014070B5064600242546DD
:1019600008E000220221124805F0E5FAFFF7D0FE58
:101970000135EDB2072D12D86400E4B20122022134
:101980000B4805F0D8FAFFF7C3FE4FF40071094881
:1019900005F0CAFA0028E4D00134E4B2E1E71EB948
:1019A000FFF788FF204670BDFFF75EFFFAE700BF34
:1019B000000C0140001C014008B5012006F0EAFBC4
:1019C000FBE708B5012006F0E5FBFBE708B50120C1
:1019D00006F0E0FBFBE70000034B0360034B0B60EA
:1019E00080231360704700BF380C0020380A0020A5
:1019F00010B596B01B4C0DF13C0CA646BEE80F008E
:101A0000ACE80F009EE807008CE8070000210FA853
:101A100006F08BFB144B18600DF1200C04F11C0E2A
:101A2000BEE80F00ACE80F009EE807008CE8070056
:101A3000002108A806F079FB0C4B18600DF1040E8C
:101A400004F1380CBCE80F00AEE80F009CE807007A
:101A50008EE80700002101A806F067FB044B186020
:101A600016B010BD000B0108300A0020340A002017
:101A70002C0A002030B587B000230293039304930F
:101A80000593184B1B680BB107B030BD154B0122F5
:101A90001A60154B5A6942F480725A615B6903F40B
:101AA00080730193019B41F2010302930225039588
:101AB0000324059402A90D4805F016F94FF680732A
:101AC00002930395059402A9094805F00DF94CF21B
:101AD000337302930395059402A9064805F004F9AF
:101AE000D2E700BF8C0C0020001002400020014013
:101AF000001801400014014010B58EB00023079378
:101B0000089309930A930B930C930D9300930193FD
:101B1000029303930493059306931C484FF02042CD
:101B2000026002F58272426006228260C360036135
:101B3000102242618361C361036243624FF48051AA
:101B40008162C3624FF480410163436383630F2367
:101B500007930893FF2409940A930B9211210C9187
:101B60000093019302940393049205916A4607A996
:101B700005F040FD30B9064AD36943F48063D36170
:101B80000EB010BD03F032FCF5E700BF900C002052
:101B90000000014008B5FFF76DFF08BDF8B5044629
:101BA0000F461546FFF7BAFD7020FFF7A1FEFFF7BD
:101BB0002BFEE0B2FFF79CFEFFF726FE0026344620
:101BC00001E00134E4B2AC4207D2385DFFF790FE89
:101BD000FFF71AFE06460028F3D0FFF7C3FD304694
:101BE000F8BD70B504460E461546FFF797FD702008
:101BF000FFF77EFEFFF708FEE0B2FFF779FEFFF782
:101C000003FEFFF78BFD7120FFF772FEFFF7FCFD6F
:101C1000002408E0681E201A18BF0120FFF79CFE70
:101C200030550134E4B2AC42F4D3FFF79BFD70BDF4
:101C30002DE9F04198B04C4B9A6942F080029A61CC
:101C40009A6902F080021192119A9A6942F0800218
:101C50009A619B6903F080031293129B4FF4006713
:101C600014970124159416944FF00308CDF85C8066
:101C70003E4E14A9304605F037F84FF480631493B4
:101C8000002515951694CDF85C8014A9304605F012
:101C90002BF8FFF785FD2A463946304605F04BF90B
:101CA000142004F0B5FF22463946304605F043F9CA
:101CB000322004F0ADFF8DF84C50224613A928467F
:101CC000FFF76CFF224613A9A420FFF767FF162336
:101CD0008DF84C30224613A98020FFF75FFF0C23BC
:101CE0008DF84C30224613A98820FFF757FF0222B7
:101CF00013A9A120FFF775FF9DF84C30302B09D0B8
:101D00009DF84D20012A09D0022A07D04BBB2AB1E9
:101D1000012023E09DF84D204245F1D19DF84D2052
:101D2000134C02EB03230E93124B0D93EC4604F17C
:101D3000100EBEE80F00ACE80F00BEE80F00ACE8E4
:101D40000F00BEE80F00ACE80F00DEF80030CCF862
:101D5000003094E80F0004F0FBFE002018B0BDE84E
:101D6000F0810120FAE700BF00100240001C014092
:101D7000580E0020780B010830B583B000238DF891
:101D800007305F4B1A780132D2B21A705D4BA3FB59
:101D90000213DB0803EB83035900511A11F0FF0F04
:101DA00002D0092A00F28A8001220DF107010220E7
:101DB000FFF717FF9DF8070000F00F0000287ED006
:101DC000052801D900207AE04FF6FF738340DB43FA
:101DD0006FEA83436FEA93434B4A9386042004F0EF
:101DE00017FF00242DE0494B1A889DF800301B0294
:101DF00003F470639DF801100B44D31A4249221D6D
:101E000001EB420293809DF802301B0203F47063E1
:101E10009DF80320134404F1100221F812309DF8BC
:101E2000003003F0F003802B09D0374A05F110038E
:101E3000002122F813102B1D02EB4303998001347B
:101E4000E4B2042C2DD8304B9B8E2546234113F051
:101E5000010FF4D0042269462D4B33F81400FFF72C
:101E6000C0FE294B93F8443013F0010FBBD09DF80E
:101E700000301B0203F470639DF801201344224AD2
:101E800004F1100122F811309DF802301B0203F416
:101E900070639DF803100B44211D02EB41029380F7
:101EA000BDE7194B9B8923B9174B1B8C0BB98DF8D8
:101EB0000730134B00221A70012000E000209DF82B
:101EC000073013F01F0F0DD10F4A938EB2F9342053
:101ED000002A10DB0C4A4FF6FF719181118403F444
:101EE00060439386064B1B78F02B02D9044B0A22E1
:101EF0001A7003B030BDC3F30E03034A9386F1E7B3
:101F0000D80C0020CDCCCCCC10000020240D00201B
:101F1000840B010870B58AB00024069407940894D5
:101F20000994254B9A6942F004029A619A6902F079
:101F300004020192019A9A6942F008029A619A6930
:101F400002F008020292029A9A6942F480729A613F
:101F50009A6902F480720392039A9A6942F04002ED
:101F60009A619A6902F040020492049A9A6942F0D6
:101F700020029A619B6903F020030593059B0F4E95
:101F800022462121304604F0D6FF0125069507950B
:101F900008950323099306A9304604F0A5FE2023E3
:101FA0000693079508940223099306A9304604F086
:101FB0009BFE0AB070BD00BF00100240000C014043
:101FC000F8B504460F461546FFF7A8FB2820FFF793
:101FD0008FFCFFF719FC200AFFF78AFCFFF714FCBF
:101FE000E0B2FFF785FCFFF70FFC0026344601E066
:101FF0000134E4B2AC4207D2385DFFF779FCFFF759
:1020000003FC06460028F3D0FFF7ACFB3046F8BDD2
:1020100070B504460E461546FFF780FB2820FFF7F3
:1020200067FCFFF7F1FB200AFFF762FCFFF7ECFB10
:10203000E0B2FFF75DFCFFF7E7FBFFF76FFB29203E
:10204000FFF756FCFFF7E0FB002408E0681E201AAB
:1020500018BF0120FFF780FC30550134E4B2AC42D8
:10206000F4D3FFF77FFB70BD2DE9F04389B03C4B03
:102070009A6942F080029A619A6902F080020092A5
:10208000009A9A6942F080029A619B6903F080038A
:102090000193019B4FF40068CDF81080012605964E
:1020A0000696032707972F4D04A9284604F01CFE27
:1020B0004FF48069CDF81090002405940696079798
:1020C00004A9284604F010FEFFF76AFB22464146A9
:1020D000284604F030FF0A2004F09AFD32464146BB
:1020E000284604F028FF0A2004F092FDCDF8109055
:1020F00005940694079704A9284604F0F5FD64208A
:1021000004F086FD042202A948F24010FFF780FF88
:102110008DF80C4002A9144806F02EFF134902A8BE
:10212000FEF7F0FF10B9124B0A221A7002238DF845
:102130000830012202A948F24000FFF741FF0A20BF
:1021400004F066FD00248DF80840012202A948F23F
:102150004000FFF735FF204609B0BDE8F08300BF1F
:1021600000100240001C0140900B01089C0B01086C
:102170000000002010B584B08DF8070000238DF812
:102180000B309C4B1A780132D2B21A709A4BA3FBD7
:102190000213DB0803EB8303A2EB430313F0FF0FEF
:1021A00002D0092A00F2FF8001220DF1070148F256
:1021B0004E10FFF72DFF9DF807309DF90720002AEC
:1021C00023DB9DF8070000F00F00002800F0EC80F2
:1021D0008A4B1A78904200F2F6804FF6FF738340E4
:1021E00087498C8EDB436FEA83436FEA93438B8688
:1021F0008889D31C01EB430398800B8C0F3221F8A4
:10220000123000238DF80B3067E07C4A127803F01F
:102210000F039A42D5D300238DF80B3001220DF124
:102220000B0148F24E10FFF7CBFECAE7744B93F850
:10223000443013F0010F1AD09DF80D209DF80C309A
:102240009DF80B1003EB02236D4A01F1100022F8F8
:1022500010309DF80F009DF80E3003EB00239BB269
:10226000C3F54873043102EB4102938030E09DF8DE
:102270000D209DF80C109DF80B3001EB02216048F9
:102280001A1D00EB420291809DF80F109DF80E2060
:1022900002EB0122103320F8132019E0594B198862
:1022A0009DF80F209DF80E3003EB02239BB29DF8A2
:1022B0000B20CB1A5248111D00EB41018B809DF879
:1022C0000D109DF80C3003EB0123103220F8123072
:1022D0009DF80B3001338DF80B309DF80B00474B08
:1022E0001B7898422FD2464B9B8E034113F0010F6F
:1022F000EED0042203A9444B33F81000FFF788FE08
:10230000404B9A8845F210539A428FD03C4B93F839
:10231000443013F0010FC1D09DF80D209DF80C1032
:102320009DF80B3001EB022135481A1D00EB4202EB
:1023300091809DF80F109DF80E2002EB01221033C2
:1023400020F81320C4E72E4A91892E4A1288914220
:1023500005D82B4A118C2B4A528891421ED99DF8E0
:10236000072012F00E0F09D0254BDA899A815A8C7A
:102370001A84204B00221A70012015E0204AD91C33
:1023800002EB4101898891810F3332F813301384B5
:1023900080238DF807309486012005E0154B00223C
:1023A0001A70012000E000209DF8073003F08F0331
:1023B000802B0AD00F4B1B78F02B02D90D4B0A2231
:1023C0001A7004B010BD0020EEE70D4A938EB2F9EA
:1023D0003420002A08DB0A4A4FF6FF7191811184EC
:1023E00003F460439386E5E7C3F30E03044A938640
:1023F000E0E700BFD90C0020CDCCCCCC0000002001
:1024000010000020240D0020A40B010882B0054B11
:10241000B3F800319BB2ADF80630BDF8060080B2CB
:1024200002B070470007006C82B0ADF80600BDF83E
:1024300006309BB2ADF80630BDF806309BB2024ABA
:10244000A2F8003102B070470007006C82B0ADF80E
:102450000600BDF806309BB2ADF80630BDF8063078
:102460009BB2024AA2F8FE3002B070470007006C2F
:10247000024BA3F8FE00A3F8001170470007006CA0
:10248000024B1A89024BA3F8FE207047240D00204E
:102490000007006C70B505460C46404B9B8841F622
:1024A0006312934217D045F21052934257D03B4EDD
:1024B0007089FFF7CBFF280AFFF7B6FFE8B2FFF7F6
:1024C000B3FFB089FFF7C2FF200AFFF7ADFFE0B20C
:1024D000FFF7AAFF70BD314B9B7953BB2F4B188878
:1024E000451BADB2013DADB25889FFF7AFFF0020EB
:1024F000FFF79AFF0020FFF797FF280AFFF794FFE6
:10250000E8B2FFF791FF254DA889FFF79FFF200A4A
:10251000FFF78AFFE0B2FFF787FF68880138C0F352
:102520000F20FFF781FF68880138C0B2FFF77CFFFA
:10253000D0E71A4E7089FFF789FF280AFFF774FF6A
:10254000E8B2FFF771FF30880138C0F30F20FFF7C2
:102550006BFF30880138C0B2FFF766FFD3E70F4E3C
:102560007089FFF773FF280AFFF75EFF708901305B
:1025700080B2FFF76BFFE8B2FFF756FFB089FFF7B5
:1025800065FF200AFFF750FFB089013080B2FFF7E6
:102590005DFFE0B2FFF748FF9CE700BF240D00207D
:1025A00010B5744B9B79012B10D02BB9714B9A88C5
:1025B00041F663139A420FD00138062800F2848056
:1025C000DFE800F07472706E6C6A1600694A9188D8
:1025D00041F663129142E8D00728EDD8DFE800F019
:1025E00072706C6E06046A68002402E0802400E0C9
:1025F000E024604B9B8845F21052934266D036200F
:1026000049F24132934203D047F28972934201D199
:1026100044F008042146FFF72BFF564B9B8841F6F8
:10262000631293420AD014F0200F52D0514A1188FD
:102630005288914202D24F480280418045F21052A6
:1026400093424FD04B4C6089FFF700FF0020FFF70B
:10265000EBFE0020FFF7E8FE20880138C0F30F20D2
:10266000FFF7E2FE20880138C0B2FFF7DDFEA08947
:10267000FFF7ECFE0020FFF7D7FE0020FFF7D4FEA7
:1026800060880138C0F30F20FFF7CEFE6088013864
:10269000C0B2FFF7C9FE10BDA024AAE76024A8E7D6
:1026A0002024A6E7C024A4E74024A2E78024A0E7D2
:1026B00040249EE7C0249CE720249AE7602498E702
:1026C000E02496E7A02494E7002492E74FF45850C2
:1026D00096E7284A118852889142AFD9254802804E
:1026E0004180ABE7234C6089FFF7B0FE0020FFF785
:1026F0009BFE6089013080B2FFF7A8FE0020FFF743
:1027000093FE6089023080B2FFF7A0FE2088013876
:10271000C0F30F20FFF788FE6089033080B2FFF717
:1027200095FE20880138C0B2FFF77EFEA089FFF732
:102730008DFE0020FFF778FEA089013080B2FFF700
:1027400085FE0020FFF770FEA089023080B2FFF7FF
:102750007DFE60880138C0F30F20FFF765FEA08979
:10276000033080B2FFF772FE60880138C0B2FFF715
:102770005BFE90E7240D002010B51446FFF78AFE9B
:10278000FFF77EFEA4B2024BA3F8004110BD00BFCC
:102790000007006C0000000010B50446BE20FFF7E3
:1027A00055FE0520FFF740FE2046FDF793FE0CA3E3
:1027B000D3E90023FDF7F8FEFEF790F980B2FFF7AA
:1027C00033FE0120FFF730FEFF20FFF72DFE002033
:1027D000FFF72AFE0020FFF727FE10BDAFF30080B1
:1027E000666666666666044008B5444B98710028C4
:1027F00043D1F0221A804FF4A0725A809B8845F290
:102800001052934212D041F6631293421FD03B4ABA
:102810002C2111812A2151812B21918145F21032E5
:10282000934222D00020FFF7BBFE08BD334A4FF48D
:10283000305111814FF4285151814FF42C51918125
:102840004FF4F07111804FF448715180E6E72B4A44
:102850002C2111812B2151812A2191814FF4F0717A
:1028600011804FF448715180D8E7244B4FF4A07287
:102870001A804FF4F0725A80D4E7204B4FF4A072C4
:102880001A80F0225A809B8845F21052934216D04B
:1028900041F66312934223D0184A2C2111812A2138
:1028A00051812B21918145F210329342BAD1134BC1
:1028B0004FF4F0721A804FF4A0725A80B2E70F4AB8
:1028C0004FF4305111814FF4285151814FF42C5164
:1028D00091814FF4487111804FF4F0715180E2E71B
:1028E000064A2C2111812A2151812B2191814FF4FB
:1028F000487111804FF4F0715180D4E7240D00200D
:1029000038B50546094B1A885C8802FB04F400219F
:102910000846FFF7BFFDFFF7B3FD002303E0044ABD
:10292000A2F800510133A342F9D338BD240D002091
:102930000007006C2DE9F041A8B0BA4B9A6942F447
:1029400080729A619A6902F480721192119A9A695E
:1029500042F020029A619A6902F020021292129AC1
:102960009A6942F020029A619A6902F02002139259
:10297000139A9A6942F480729A619A6902F4807299
:102980001492149A9A6942F008029A619B6903F0C2
:1029900008031593159B4FF4805524950223259326
:1029A00001242694032327939F4F24A9384604F03B
:1029B0009BF920232493DFF8748224A9404604F075
:1029C00093F91026249624A9404604F08DF9249406
:1029D00024A9384604F088F92494259424A994481D
:1029E00004F082F993484FF02043036003F58273AB
:1029F0004360062383600023C36046618361C36133
:102A000043628562C3624FF480420263436383631F
:102A10001D931E930F221F922393169317931894BE
:102A20001C9316AA1DA904F0E5FD322004F0F0F86D
:102A3000D320FFF70BFDFFF7E9FC7F4CA080FFF7E9
:102A4000E5FCA080FFF7E2FCA0800002A080FFF779
:102A5000DDFCA388184380B2A08049F2413398423C
:102A600045D1754DAB88754C0E93754B0D93EC4667
:102A700004F1100EBEE80F00ACE80F00BEE80F0036
:102A8000ACE80F00BEE80F00ACE80F00DEF8003045
:102A9000CCF8003094E80F0004F05AF8AB8847F205
:102AA0008972934200F0AC8049F24132934200F0C7
:102AB000AA8045F21032934200F0A88045F21052ED
:102AC000934200F0A68041F66312934200F0A48086
:102AD0000020FFF789FE01221146554804F02BFA29
:102AE0004FF6FF70FFF70CFF28B0BDE8F08104201F
:102AF000FFF7ACFCFFF78AFCA080FFF787FCA08003
:102B0000FFF784FCA0800002A080FFF77FFCA38871
:102B1000184380B2A08048F2525398426CD0464B82
:102B20009A8847F289739A429BD0D420FFF78EFC93
:102B3000FFF76CFC404CA080FFF768FCA080FFF71B
:102B400065FCA0800002A080FFF760FCA38818430A
:102B500080B2A08045F21033984282D055214FF4C4
:102B60007040FFF785FCAA214FF20100FFF780FCBF
:102B700052214FF20200FFF77BFC08214FF20300C5
:102B8000FFF776FC01214FF20400FFF771FC4FF4D0
:102B90004540FFF75BFCFFF739FCA0800002A080F6
:102BA0004CF20150FFF752FCFFF730FCA3881843AA
:102BB000A080052004F02CF8A28845F210539A4218
:102BC0003FF44FAFA120FFF741FCFFF71FFCA080AF
:102BD000FFF71CFCA0800002A080FFF717FCA38871
:102BE00003439BB2A38045F2617293427FF439AFF5
:102BF00041F66312A28034E747F28972A2808EE721
:102C000000F049FA64E700F017FB61E700F02AFCE6
:102C10005EE701F0A0FB5BE702F01BFB6420FFF71F
:102C2000BBFD55E7001002400020014000140140A8
:102C3000000C0140DC0C0020240D0020580E002068
:102C4000B80B01082DE9F04107460E469846069D4F
:102C5000141AA4B20134A4B209E0A9B20A4BA3F831
:102C60000011013292B2A242F7D30136B6B2464504
:102C700007D831463846FFF70DFCFFF701FC00226C
:102C8000F1E7BDE8F08100BF0007006C2DE9F04FCF
:102C900085B0BDF8384001948046A2EB000A894611
:102CA000A3EB010BBAF1000F0DDD01220292BBF183
:102CB000000F14DD01230393DA451CDD5646002581
:102CC0002F462C461BE0BAF1000F05D0A0EB020AFC
:102CD0004FF0FF320292EAE7CDF808A0E7E7BBF138
:102CE000000F05D0A1EB030B4FF0FF330393E3E795
:102CF000CDF80CB0E0E75E46E1E70134A4B2731C06
:102D00009C4213DC019A1FFA89F11FFA88F0FFF741
:102D100033FD57445D44BE4202DABF1B029B984418
:102D2000AE42EADAAD1B039B9944E6E705B0BDE885
:102D3000F08F000042B194460B4A1288824203D3BE
:102D4000094A52888A4200D2704700B583B00CEB22
:102D5000000292B2013A00930B4692B2FFF772FF63
:102D600003B05DF804FB00BF240D00202DE9F04FF7
:102D700087B0814688461E4601925200C2F1030385
:102D80000293002708E0019ABB1A9B000A330299BC
:102D900019440291531E0193019B9F4254DCBDB222
:102DA00005EB090B1FFA8BFBBDF80440A8EB0403ED
:102DB0009BB23246039319465846FFF7DDFC04EBFD
:102DC000090A1FFA8AFAA8EB05039AB2104632469E
:102DD000049001465046FFF7CFFC05EB08039AB27A
:102DE00094463246CDF814C061465046FFF7C4FC05
:102DF00004EB080A1FFA8AFA324651465846FFF792
:102E0000BBFCA9EB0505ADB2324651462846FFF79B
:102E1000B3FCA9EB0404A4B2324605992046FFF79F
:102E2000ABFC324603992846FFF7A6FC32460499CC
:102E30002046FFF7A1FC0137029A002AA3DABB0063
:102E400006331A440292A7E707B0BDE8F08F0000EE
:102E50002DE9F04F83B0044600908B4610469A4609
:102E6000904640F2C32909FB02F92B4AA2FB09292B
:102E70004FEA991909F10109420800FB0022019269
:102E8000420092B2201A80B2FFF754FF01251AE0E7
:102E900008F1FF381FFA88F4009B1E1BB6B2AFB2D0
:102EA0006400A4B207EB0B015346224689B23046B8
:102EB000FFF740FFABEB07015346224689B230468D
:102EC000FFF738FF01354D4523D808FB08F305FB14
:102ED0000533019A9342DDD9C845D9D9009B5F1BC0
:102EE000BFB20137BFB21FFA88F46E1E7600B6B2C9
:102EF00004EB0B015346324689B23846FFF71AFFFE
:102F0000ABEB04015346324689B23846FFF712FF55
:102F1000BEE703B0BDE8F08FD34D62102DE9F04F4E
:102F200085B0824688461F469DF838B0BDF83C30D3
:102F3000019317F0070318BF012303EBD7037908A8
:102F400001FB03F3DBB20293A2F12003DBB2A7F192
:102F50000C02142A5ED8DFE802F00B5D5D5D155DA2
:102F60005D5D5D5D5D5D1A5D5D5D5D5D5D5D21006D
:102F700003EB4303294A02EB8303039344464FF0D8
:102F800000093FE0264A02EB03130393F6E703EB45
:102F9000C303244A02EB83030393EFE7224A02EBC5
:102FA00083130393EAE7019A21465046FFF7E4FBB7
:102FB0006D00EDB20134A4B21C4B5B88A34229D949
:102FC000A4EB08039F4210D00136F6B2072E15D8A5
:102FD00015F0800FE7D1BBF1000FE9D1144B1A684F
:102FE00021465046FFF7C8FBE2E70AF1010A1FFA43
:102FF0008AFA0E4B1B8853450CD9444609F1010946
:103000005FFA89F9029B994504D2039B13F8095092
:103010000026DBE705B0BDE8F08F00BFC40B010858
:10302000381001082816010884230108240D002007
:10303000040000202DE9F04F83B082460D469DF834
:1030400030700D9EBDF838B002441FFA82F90B446F
:103050001FFA83F804460EE0454519D2CDF804B0B6
:10306000002300933B4629462046FFF757FF04EB19
:103070005704A4B201363278A2F12003DBB25E2BF2
:1030800006D84C45E8D35FFA8AF43D44ADB2E3E795
:1030900003B0BDE8F08F08B51120FFF7D7F936204F
:1030A000FFF7D4F90020FFF7BFF93A20FFF7CEF978
:1030B0000520FFF7B9F9B220FFF7C8F90C20FFF798
:1030C000B3F90C20FFF7B0F90020FFF7ADF933207A
:1030D000FFF7AAF93320FFF7A7F9B720FFF7B6F9F2
:1030E0003520FFF7A1F9BB20FFF7B0F93220FFF739
:1030F0009BF9C020FFF7AAF90C20FFF795F9C22031
:10310000FFF7A4F90120FFF78FF9C320FFF79EF91D
:103110001020FFF789F9C420FFF798F92020FFF766
:1031200083F9C620FFF792F90F20FFF77DF9D02031
:10313000FFF78CF9A420FFF777F9A120FFF774F9C6
:10314000E020FFF783F9D020FFF76EF90020FFF7AA
:103150006BF90220FFF768F90720FFF765F90A20ED
:10316000FFF762F92820FFF75FF93220FFF75CF9DB
:103170004420FFF759F94220FFF756F90620FFF7E0
:1031800053F90E20FFF750F91220FFF74DF91420E4
:10319000FFF74AF91720FFF747F9E120FFF756F943
:1031A000D020FFF741F90020FFF73EF90220FFF79A
:1031B0003BF90720FFF738F90A20FFF735F92820F7
:1031C000FFF732F93120FFF72FF95420FFF72CF9E0
:1031D0004720FFF729F90E20FFF726F91C20FFF7FB
:1031E00023F91720FFF720F91B20FFF71DF91E20F8
:1031F000FFF71AF92A20FFF729F90020FFF714F941
:103200000020FFF711F90020FFF70EF9EF20FFF77C
:103210000BF92B20FFF71AF90020FFF705F9002022
:10322000FFF702F90120FFF7FFF83F20FFF7FCF856
:103230002920FFF70BF908BD08B5CF20FFF706F9E5
:103240000020FFF7F1F8C120FFF7EEF83020FFF77C
:10325000EBF8ED20FFF7FAF86420FFF7E5F803201C
:10326000FFF7E2F81220FFF7DFF88120FFF7DCF824
:10327000E820FFF7EBF88520FFF7D6F81020FFF7DE
:10328000D3F87A20FFF7D0F8CB20FFF7DFF839200A
:10329000FFF7CAF82C20FFF7C7F80020FFF7C4F8A3
:1032A0003420FFF7C1F80220FFF7BEF8F720FFF740
:1032B000CDF82020FFF7B8F8EA20FFF7C7F8002084
:1032C000FFF7B2F80020FFF7AFF8C020FFF7BEF815
:1032D0001B20FFF7A9F8C120FFF7B8F80120FFF77E
:1032E000A3F8C520FFF7B2F83020FFF79DF8302093
:1032F000FFF79AF8C720FFF7A9F8B720FFF794F86F
:103300003620FFF7A3F84820FFF78EF83A20FFF7A2
:103310009DF85520FFF788F8B120FFF797F80020B7
:10332000FFF782F81A20FFF77FF8B620FFF78EF834
:103330000A20FFF779F8A220FFF776F8F220FFF7CE
:1033400085F80020FFF770F82620FFF77FF80120AE
:10335000FFF76AF8E020FFF779F80F20FFF764F82D
:103360002A20FFF761F82820FFF75EF80820FFF712
:103370005BF80E20FFF758F80820FFF755F85420A7
:10338000FFF752F8A920FFF74FF84320FFF74CF85A
:103390000A20FFF749F80F20FFF746F80020FFF753
:1033A00043F80020FFF740F80020FFF73DF8002029
:1033B000FFF73AF8E120FFF749F80020FFF734F86B
:1033C0001520FFF731F81720FFF72EF80720FFF739
:1033D0002BF81120FFF728F80620FFF725F82B20FF
:1033E000FFF722F85620FFF71FF83C20FFF71CF8E4
:1033F0000520FFF719F81020FFF716F80F20FFF748
:1034000013F83F20FFF710F83F20FFF70DF80F20CB
:10341000FFF70AF82B20FFF719F80020FFF704F850
:103420000020FFF701F80120FEF7FEFF3F20FEF726
:10343000FBFF2A20FFF70AF80020FEF7F5FF002027
:10344000FEF7F2FF0020FEF7EFFFEF20FEF7ECFFA4
:103450001120FEF7FBFF782003F0DAFB2920FEF7AE
:10346000F5FF08BD08B5ED20FEF7F0FF0120FEF7DF
:10347000DBFFFE20FEF7D8FFEE20FEF7E7FFDE20A1
:10348000FEF7D2FF2120FEF7CFFFF120FEF7DEFF8F
:103490000120FEF7C9FFDF20FEF7D8FF1020FEF75E
:1034A000C3FFC420FEF7D2FF8F20FEF7BDFFC6206A
:1034B000FEF7CCFF0020FEF7B7FFE220FEF7B4FFD7
:1034C000E220FEF7B1FFE220FEF7AEFFBF20FEF7DD
:1034D000BDFFAA20FEF7A8FFB020FEF7B7FF0D2022
:1034E000FEF7A2FF0020FEF79FFF0D20FEF79CFFD6
:1034F0000020FEF799FF1120FEF796FF0020FEF74F
:1035000093FF1920FEF790FF0020FEF78DFF21208A
:10351000FEF78AFF0020FEF787FF2D20FEF784FFCD
:103520000020FEF781FF3D20FEF77EFF0020FEF722
:103530007BFF5D20FEF778FF0020FEF775FF5D2022
:10354000FEF772FF0020FEF76FFFB120FEF77EFF4F
:103550008020FEF769FF0020FEF766FF8B20FEF754
:1035600063FF0020FEF760FF9620FEF75DFF00205E
:10357000FEF75AFFB220FEF769FF0020FEF754FF66
:103580000020FEF751FF0220FEF74EFF0020FEF75D
:103590004BFF0320FEF748FF0020FEF745FFB32056
:1035A000FEF754FF0020FEF73FFF0020FEF73CFF30
:1035B0000020FEF739FF0020FEF736FF0020FEF75F
:1035C00033FF0020FEF730FF0020FEF72DFF002024
:1035D000FEF72AFF0020FEF727FF0020FEF724FF5A
:1035E0000020FEF721FF0020FEF71EFF0020FEF75F
:1035F0001BFF0020FEF718FF0020FEF715FF00203C
:10360000FEF712FF0020FEF70FFF0020FEF70CFF71
:103610000020FEF709FF0020FEF706FF0020FEF75E
:1036200003FF0020FEF700FF0020FEF7FDFE002054
:10363000FEF7FAFEB420FEF709FF8B20FEF7F4FE3A
:103640000020FEF7F1FE9620FEF7EEFE0020FEF7CA
:10365000EBFEA120FEF7E8FE0020FEF7E5FEB52018
:10366000FEF7F4FE0220FEF7DFFE0020FEF7DCFE90
:103670000320FEF7D9FE0020FEF7D6FE0420FEF759
:10368000D3FE0020FEF7D0FEB620FEF7DFFE0020BE
:10369000FEF7CAFE0020FEF7C7FEB720FEF7D6FEF3
:1036A0000020FEF7C1FE0020FEF7BEFE3F20FEF721
:1036B000BBFE0020FEF7B8FE5E20FEF7B5FE002040
:1036C000FEF7B2FE6420FEF7AFFE0020FEF7ACFE70
:1036D0008C20FEF7A9FE0020FEF7A6FEAC20FEF728
:1036E000A3FE0020FEF7A0FEDC20FEF79DFE0020DA
:1036F000FEF79AFE7020FEF797FE0020FEF794FE7C
:103700009020FEF791FE0020FEF78EFEEB20FEF7E4
:103710008BFE0020FEF788FEDC20FEF785FE0020F1
:10372000FEF782FEB820FEF791FE0020FEF77CFE39
:103730000020FEF779FE0020FEF776FE0020FEF75F
:1037400073FE0020FEF770FE0020FEF76DFE0020E5
:10375000FEF76AFE0020FEF767FEBA20FEF776FE4F
:103760002420FEF761FE0020FEF75EFE0020FEF73B
:103770005BFE0020FEF758FEC120FEF767FE20200A
:10378000FEF752FE0020FEF74FFE5420FEF74CFEDF
:103790000020FEF749FEFF20FEF746FE0020FEF760
:1037A00043FEC220FEF752FE0A20FEF73DFE002037
:1037B000FEF73AFE0420FEF737FE0020FEF734FE47
:1037C000C320FEF743FE3C20FEF72EFE0020FEF74E
:1037D0002BFE3A20FEF728FE0020FEF725FE3920BA
:1037E000FEF722FE0020FEF71FFE3720FEF71CFE2C
:1037F0000020FEF719FE3C20FEF716FE0020FEF723
:1038000013FE3620FEF710FE0020FEF70DFE3220DC
:10381000FEF70AFE0020FEF707FE2F20FEF704FE4B
:103820000020FEF701FE2C20FEF7FEFD0020FEF733
:10383000FBFD2920FEF7F8FD0020FEF7F5FD262010
:10384000FEF7F2FD0020FEF7EFFD2420FEF7ECFD71
:103850000020FEF7E9FD2420FEF7E6FD0020FEF73C
:10386000E3FD2320FEF7E0FD0020FEF7DDFD3C2018
:10387000FEF7DAFD0020FEF7D7FD3620FEF7D4FD77
:103880000020FEF7D1FD3220FEF7CEFD0020FEF72E
:10389000CBFD2F20FEF7C8FD0020FEF7C5FD2C2034
:1038A000FEF7C2FD0020FEF7BFFD2920FEF7BCFD9C
:1038B0000020FEF7B9FD2620FEF7B6FD0020FEF73A
:1038C000B3FD2420FEF7B0FD0020FEF7ADFD24205F
:1038D000FEF7AAFD0020FEF7A7FD2320FEF7A4FDBA
:1038E0000020FEF7A1FDC420FEF7B0FD6220FEF728
:1038F0009BFD0020FEF798FD0520FEF795FD0020BA
:10390000FEF792FD8420FEF78FFD0020FEF78CFD70
:10391000F020FEF789FD0020FEF786FD1820FEF757
:1039200083FD0020FEF780FDA420FEF77DFD002032
:10393000FEF77AFD1820FEF777FD0020FEF774FDF4
:103940005020FEF771FD0020FEF76EFD0C20FEF703
:103950006BFD0020FEF768FD1720FEF765FD0020D7
:10396000FEF762FD9520FEF75FFD0020FEF75CFD8F
:10397000F320FEF759FD0020FEF756FDE620FEF786
:1039800053FD0020FEF750FDC520FEF75FFD3220FD
:10399000FEF74AFD0020FEF747FD4420FEF744FDF8
:1039A0000020FEF741FD6520FEF73EFD0020FEF7FA
:1039B0003BFD7620FEF738FD0020FEF735FD882020
:1039C000FEF732FD0020FEF72FFDC620FEF73EFD7C
:1039D0002020FEF729FD0020FEF726FD1720FEF728
:1039E00023FD0020FEF720FD0120FEF71DFD002035
:1039F000FEF71AFDC720FEF729FD0020FEF714FD93
:103A00000020FEF711FD0020FEF70EFD0020FEF75E
:103A10000BFDC820FEF71AFD0020FEF705FD002073
:103A2000FEF702FD0020FEF7FFFC0020FEF7FCFC85
:103A3000C920FEF70BFD0020FEF7F6FC0020FEF784
:103A4000F3FC0020FEF7F0FC0020FEF7EDFC002068
:103A5000FEF7EAFC0020FEF7E7FC0020FEF7E4FC9E
:103A60000020FEF7E1FC0020FEF7DEFC0020FEF760
:103A7000DBFC0020FEF7D8FC0020FEF7D5FC002080
:103A8000FEF7D2FC0020FEF7CFFC0020FEF7CCFCB6
:103A90000020FEF7C9FCE020FEF7D8FC1620FEF758
:103AA000C3FC0020FEF7C0FC1C20FEF7BDFC00207C
:103AB000FEF7BAFC2120FEF7B7FC0020FEF7B4FCAD
:103AC0003620FEF7B1FC0020FEF7AEFC4620FEF7E4
:103AD000ABFC0020FEF7A8FC5220FEF7A5FC00205E
:103AE000FEF7A2FC6420FEF79FFC0020FEF79CFC82
:103AF0007A20FEF799FC0020FEF796FC8B20FEF75B
:103B000093FC0020FEF790FC9920FEF78DFC00202E
:103B1000FEF78AFCA820FEF787FC0020FEF784FC55
:103B2000B920FEF781FC0020FEF77EFCC420FEF7E2
:103B30007BFC0020FEF778FCCA20FEF775FC002015
:103B4000FEF772FCD220FEF76FFC0020FEF76CFC43
:103B5000D920FEF769FC0020FEF766FCE020FEF7A6
:103B600063FC0020FEF760FCF320FEF75DFC002004
:103B7000FEF75AFCE120FEF769FC1620FEF754FC24
:103B80000020FEF751FC1C20FEF74EFC0020FEF743
:103B90004BFC2220FEF748FC0020FEF745FC3620B7
:103BA000FEF742FC0020FEF73FFC4520FEF73CFC00
:103BB0000020FEF739FC5220FEF736FC0020FEF70D
:103BC00033FC6420FEF730FC0020FEF72DFC7A2049
:103BD000FEF72AFC0020FEF727FC8B20FEF724FCD2
:103BE0000020FEF721FC9920FEF71EFC0020FEF7C6
:103BF0001BFCA820FEF718FC0020FEF715FCB920DE
:103C0000FEF712FC0020FEF70FFCC420FEF70CFCB0
:103C10000020FEF709FCCA20FEF706FC0020FEF794
:103C200003FCD220FEF700FC0020FEF7FDFBD820AD
:103C3000FEF7FAFB0020FEF7F7FBE020FEF7F4FBAF
:103C40000020FEF7F1FBF320FEF7EEFB0020FEF76D
:103C5000EBFBE220FEF7FAFB0520FEF7E5FB002078
:103C6000FEF7E2FB0B20FEF7DFFB0020FEF7DCFB9C
:103C70001B20FEF7D9FB0020FEF7D6FB3420FEF711
:103C8000D3FB0020FEF7D0FB4420FEF7CDFB002045
:103C9000FEF7CAFB4F20FEF7C7FB0020FEF7C4FB70
:103CA0006120FEF7C1FB0020FEF7BEFB7920FEF786
:103CB000BBFB0020FEF7B8FB8820FEF7B5FB002019
:103CC000FEF7B2FB9720FEF7AFFB0020FEF7ACFB40
:103CD000A620FEF7A9FB0020FEF7A6FBB720FEF703
:103CE000A3FB0020FEF7A0FBC220FEF79DFB0020F7
:103CF000FEF79AFBC720FEF797FB0020FEF794FB28
:103D0000D120FEF791FB0020FEF78EFBD620FEF7B8
:103D10008BFB0020FEF788FBDD20FEF785FB0020F3
:103D2000FEF782FBF320FEF77FFB0020FEF77CFB13
:103D3000E320FEF78BFB0520FEF776FB0020FEF765
:103D400073FB0A20FEF770FB0020FEF76DFB1C20C2
:103D5000FEF76AFB0020FEF767FB3320FEF764FBEB
:103D60000020FEF761FB4420FEF75EFB0020FEF71B
:103D70005BFB5020FEF758FB0020FEF755FB62204E
:103D8000FEF752FB0020FEF74FFB7820FEF74CFBBE
:103D90000020FEF749FB8820FEF746FB0020FEF7D7
:103DA00043FB9720FEF740FB0020FEF73DFBA620DB
:103DB000FEF73AFB0020FEF737FBB720FEF734FB97
:103DC0000020FEF731FBC220FEF72EFB0020FEF79D
:103DD0002BFBC720FEF728FB0020FEF725FBD12098
:103DE000FEF722FB0020FEF71FFBD520FEF71CFB91
:103DF0000020FEF719FBDD20FEF716FB0020FEF782
:103E000013FBF320FEF710FB0020FEF70DFBE42070
:103E1000FEF71CFB0120FEF707FB0020FEF704FB6A
:103E20000120FEF701FB0020FEF7FEFA0220FEF75C
:103E3000FBFA0020FEF7F8FA2A20FEF7F5FA002038
:103E4000FEF7F2FA3C20FEF7EFFA0020FEF7ECFA5C
:103E50004B20FEF7E9FA0020FEF7E6FA5D20FEF7B8
:103E6000E3FA0020FEF7E0FA7420FEF7DDFA002006
:103E7000FEF7DAFA8420FEF7D7FA0020FEF7D4FA2C
:103E80009320FEF7D1FA0020FEF7CEFAA220FEF72B
:103E9000CBFA0020FEF7C8FAB320FEF7C5FA0020DF
:103EA000FEF7C2FABE20FEF7BFFA0020FEF7BCFA0A
:103EB000C420FEF7B9FA0020FEF7B6FACD20FEF7CF
:103EC000B3FA0020FEF7B0FAD320FEF7ADFA0020D7
:103ED000FEF7AAFADD20FEF7A7FA0020FEF7A4FA03
:103EE000F320FEF7A1FA0020FEF79EFAE520FEF788
:103EF000ADFA0020FEF798FA0020FEF795FA0020B0
:103F0000FEF792FA0020FEF78FFA0220FEF78CFAF5
:103F10000020FEF789FA2920FEF786FA0020FEF736
:103F200083FA3C20FEF780FA0020FEF77DFA4B2052
:103F3000FEF77AFA0020FEF777FA5D20FEF774FAB2
:103F40000020FEF771FA7420FEF76EFA0020FEF7EB
:103F50006BFA8420FEF768FA0020FEF765FA9320DA
:103F6000FEF762FA0020FEF75FFAA220FEF75CFA85
:103F70000020FEF759FAB320FEF756FA0020FEF7AC
:103F800053FABE20FEF750FA0020FEF74DFAC42087
:103F9000FEF74AFA0020FEF747FACD20FEF744FA72
:103FA0000020FEF741FAD320FEF73EFA0020FEF78C
:103FB0003BFADC20FEF738FA0020FEF735FAF32052
:103FC000FEF732FA0020FEF72FFAE620FEF73EFA5F
:103FD0001120FEF729FA0020FEF726FA3420FEF71A
:103FE00023FA0020FEF720FA5620FEF71DFA0020E3
:103FF000FEF71AFA7620FEF717FA0020FEF714FAF9
:104000007720FEF711FA0020FEF70EFA6620FEF781
:104010000BFA0020FEF708FA8820FEF705FA0020C8
:10402000FEF702FA9920FEF7FFF90020FEF7FCF9EF
:10403000BB20FEF7F9F90020FEF7F6F99920FEF70C
:10404000F3F90020FEF7F0F96620FEF7EDF9002005
:10405000FEF7EAF95520FEF7E7F90020FEF7E4F94C
:104060005520FEF7E1F90020FEF7DEF94520FEF7C6
:10407000DBF90020FEF7D8F94320FEF7D5F9002040
:10408000FEF7D2F94420FEF7CFF90020FEF7CCF975
:10409000E720FEF7DBF93220FEF7C6F90020FEF735
:1040A000C3F95520FEF7C0F90020FEF7BDF97620D0
:1040B000FEF7BAF90020FEF7B7F96620FEF7B4F96B
:1040C0000020FEF7B1F96720FEF7AEF90020FEF7F9
:1040D000ABF96720FEF7A8F90020FEF7A5F98720C5
:1040E000FEF7A2F90020FEF79FF99920FEF79CF950
:1040F0000020FEF799F9BB20FEF796F90020FEF7A5
:1041000093F99920FEF790F90020FEF78DF97720BA
:10411000FEF78AF90020FEF787F94420FEF784F9BC
:104120000020FEF781F95620FEF77EF90020FEF709
:104130007BF92320FEF778F90020FEF775F933208C
:10414000FEF772F90020FEF76FF94520FEF76CF9D3
:104150000020FEF769F9E820FEF778F90020FEF765
:1041600063F90020FEF760F99920FEF75DF9002061
:10417000FEF75AF98720FEF757F90020FEF754F9A9
:104180008820FEF751F90020FEF74EF97720FEF760
:104190004BF90020FEF748F96620FEF745F90020AC
:1041A000FEF742F98820FEF73FF90020FEF73CF9C0
:1041B000AA20FEF739F90020FEF736F9BB20FEF7FA
:1041C00033F90020FEF730F99920FEF72DF9002091
:1041D000FEF72AF96620FEF727F90020FEF724F9FA
:1041E0005520FEF721F90020FEF71EF95520FEF7B5
:1041F0001BF90020FEF718F94420FEF715F90020FE
:10420000FEF712F94420FEF70FF90020FEF70CF933
:104210005520FEF709F90020FEF706F9E920FEF720
:1042200015F9AA20FEF700F90020FEF7FDF800209E
:10423000FEF7FAF80020FEF7F7F80020FEF706F97F
:10424000AA20FEF7F1F8CF20FEF700F90020FEF7D4
:10425000EBF80020FEF7E8F80020FEF7E5F8002074
:10426000FEF7E2F80020FEF7DFF80020FEF7DCF8AA
:104270000020FEF7D9F80020FEF7D6F80020FEF760
:10428000D3F80020FEF7D0F80020FEF7CDF800208C
:10429000FEF7CAF80020FEF7C7F80020FEF7C4F8C2
:1042A0000020FEF7C1F80020FEF7BEF80020FEF760
:1042B000BBF8F020FEF7CAF80020FEF7B5F8502052
:1042C000FEF7B2F80020FEF7AFF80020FEF7ACF8DA
:1042D0000020FEF7A9F8F320FEF7B8F80020FEF75B
:1042E000A3F8F920FEF7B2F80620FEF79DF810209B
:1042F000FEF79AF82920FEF797F80020FEF794F8C9
:104300003A20FEF7A3F85520FEF78EF81120FEF7AD
:104310009DF8642002F07CFC2920FEF797F83520F8
:10432000FEF794F80020FEF77FF85120FEF78EF894
:10433000FF20FEF779F85320FEF788F82C20FEF7CF
:1043400073F85520FEF782F88220FEF76DF82C20D6
:10435000FEF77CF808BD08B555214FF47040FEF714
:1043600087F8AA214FF20100FEF782F852214FF29E
:104370000200FEF77DF808214FF20300FEF778F8FF
:1043800001214FF20400FEF773F80D214FF4304085
:10439000FEF76EF80D214BF20100FEF769F80D21D2
:1043A0004BF20200FEF764F834214FF43640FEF77A
:1043B0005FF834214BF20160FEF75AF834214BF2DA
:1043C0000260FEF755F80D214FF43140FEF750F82A
:1043D0000D214BF20110FEF74BF80D214BF20210AC
:1043E000FEF746F834214FF43740FEF741F8342108
:1043F0004BF20170FEF73CF834214BF20270FEF7ED
:1044000037F800214FF43240FEF732F800214BF22A
:104410000120FEF72DF800214BF20220FEF728F8CC
:1044200024214FF43840FEF723F824214BF60100F5
:10443000FEF71EF824214BF60200FEF719F80121C1
:104440004FF43F40FEF714F80F214FF43340FEF7CE
:104450000FF80F214BF20130FEF70AF80F214BF253
:104460000230FEF705F834214FF43940FEF700F82A
:1044700034214BF60110FDF7FBFF34214BF60210FF
:10448000FDF7F6FF08214FF43540FDF7F1FF082155
:104490004BF20150FDF7ECFF08214BF20250FDF703
:1044A000E7FF03214FF44240FDF7E2FF24214FF4E0
:1044B0003A40FDF7DDFF24214BF60120FDF7D8FF40
:1044C00024214BF60220FDF7D3FF00214FF43C409E
:1044D000FDF7CEFF78214BF60140FDF7C9FF002123
:1044E0004BF60240FDF7C4FF00214FF43D40FDF7BD
:1044F000BFFF78214BF60150FDF7BAFF00214BF6C4
:104500000250FDF7B5FF00214FF43E40FDF7B0FF2C
:1045100064214BF60160FDF7ABFF00214FF45140E1
:10452000FDF7A6FF33214DF20110FDF7A1FF002199
:104530004DF20210FDF79CFF34214DF20310FDF700
:1045400097FF00214DF20410FDF792FF3A214DF242
:104550000510FDF78DFF00214DF20610FDF788FFD5
:104560004A214DF20710FDF783FF00214DF208109C
:10457000FDF77EFF5C214DF20910FDF779FF002168
:104580004DF20A10FDF774FF81214DF20B10FDF77B
:104590006FFF00214DF20C10FDF76AFFA6214DF2CE
:1045A0000D10FDF765FF00214DF20E10FDF760FFC5
:1045B000E5214DF20F10FDF75BFF01214DF21010C8
:1045C000FDF756FF13214DF21110FDF751FF0121A8
:1045D0004DF21210FDF74CFF54214DF21310FDF770
:1045E00047FF01214DF21410FDF742FF82214DF2E9
:1045F0001510FDF73DFF01214DF21610FDF738FFB4
:10460000CA214DF21710FDF733FF02214DF21810A9
:10461000FDF72EFF00214DF21910FDF729FF0221B1
:104620004DF21A10FDF724FF01214DF21B10FDF78A
:104630001FFF02214DF21C10FDF71AFF34214DF22D
:104640001D10FDF715FF02214DF21E10FDF710FFA2
:1046500067214DF21F10FDF70BFF02214DF22010D4
:10466000FDF706FF84214DF22110FDF701FF022125
:104670004DF22210FDF7FCFEA4214DF22310FDF7B0
:10468000F7FE02214DF22410FDF7F2FEB7214DF2A4
:104690002510FDF7EDFE02214DF22610FDF7E8FE94
:1046A000CF214DF22710FDF7E3FE02214DF2281035
:1046B000FDF7DEFEDE214DF22910FDF7D9FE0221C5
:1046C0004DF22A10FDF7D4FEF2214DF22B10FDF72A
:1046D000CFFE02214DF22C10FDF7CAFEFE214DF255
:1046E0002D10FDF7C5FE03214DF22E10FDF7C0FE83
:1046F00010214DF22F10FDF7BBFE03214DF23010BB
:10470000FDF7B6FE33214DF23110FDF7B1FE032166
:104710004DF23210FDF7ACFE6D214DF23310FDF776
:10472000A7FE00214FF45240FDF7A2FE33214DF2C7
:104730000120FDF79DFE00214DF20220FDF798FEBD
:1047400034214DF20320FDF793FE00214DF20420A9
:10475000FDF78EFE3A214DF20520FDF789FE00217E
:104760004DF20620FDF784FE4A214DF20720FDF7A9
:104770007FFE00214DF20820FDF77AFE5C214DF20C
:104780000920FDF775FE00214DF20A20FDF770FEAD
:1047900081214DF20B20FDF76BFE00214DF20C2024
:1047A000FDF766FEA6214DF20D20FDF761FE00210A
:1047B0004DF20E20FDF75CFEE5214DF20F20FDF7D6
:1047C00057FE01214DF21020FDF752FE13214DF24C
:1047D0001120FDF74DFE01214DF21220FDF748FE9C
:1047E00054214DF21320FDF743FE01214DF2142018
:1047F000FDF73EFE82214DF21520FDF739FE012125
:104800004DF21620FDF734FECA214DF21720FDF7B8
:104810002FFE02214DF21820FDF72AFE00214DF255
:104820001920FDF725FE02214DF21A20FDF720FE8A
:1048300001214DF21B20FDF71BFE02214DF21C2031
:10484000FDF716FE34214DF21D20FDF711FE022169
:104850004DF21E20FDF70CFE67214DF21F20FDF7E3
:1048600007FE02214DF22020FDF702FE84214DF2C9
:104870002120FDF7FDFD02214DF22220FDF7F8FD7C
:10488000A4214DF22320FDF7F3FD02214DF2242057
:10489000FDF7EEFDB7214DF22520FDF7E9FD0221E0
:1048A0004DF22620FDF7E4FDCF214DF22720FDF744
:1048B000DFFD02214DF22820FDF7DAFDDE214DF269
:1048C0002920FDF7D5FD02214DF22A20FDF7D0FD6C
:1048D000F2214DF22B20FDF7CBFD02214DF22C20D1
:1048E000FDF7C6FDFE214DF22D20FDF7C1FD032190
:1048F0004DF22E20FDF7BCFD10214DF22F20FDF7CB
:10490000B7FD03214DF23020FDF7B2FD33214DF20A
:104910003120FDF7ADFD03214DF23220FDF7A8FD5A
:104920006D214DF23320FDF7A3FD00214FF45340DC
:10493000FDF79EFD33214DF20130FDF799FD002179
:104940004DF20230FDF794FD34214DF20330FDF7B6
:104950008FFD00214DF20430FDF78AFD3A214DF222
:104960000530FDF785FD00214DF20630FDF780FD95
:104970004A214DF20730FDF77BFD00214DF2083052
:10498000FDF776FD5C214DF20930FDF771FD002148
:104990004DF20A30FDF76CFD81214DF20B30FDF731
:1049A00067FD00214DF20C30FDF762FDA6214DF2AE
:1049B0000D30FDF75DFD00214DF20E30FDF758FD85
:1049C000E5214DF20F30FDF753FD01214DF210307E
:1049D000FDF74EFD13214DF21130FDF749FD012188
:1049E0004DF21230FDF744FD54214DF21330FDF726
:1049F0003FFD01214DF21430FDF73AFD82214DF2C9
:104A00001530FDF735FD01214DF21630FDF730FD73
:104A1000CA214DF21730FDF72BFD02214DF218305F
:104A2000FDF726FD00214DF21930FDF721FD022191
:104A30004DF21A30FDF71CFD01214DF21B30FDF740
:104A400017FD02214DF21C30FDF712FD34214DF20D
:104A50001D30FDF70DFD02214DF21E30FDF708FD62
:104A600067214DF21F30FDF703FD02214DF220308A
:104A7000FDF7FEFC84214DF22130FDF7F9FC022107
:104A80004DF22230FDF7F4FCA4214DF22330FDF766
:104A9000EFFC02214DF22430FDF7EAFCB7214DF284
:104AA0002530FDF7E5FC02214DF22630FDF7E0FC54
:104AB000CF214DF22730FDF7DBFC02214DF22830EB
:104AC000FDF7D6FCDE214DF22930FDF7D1FC0221A5
:104AD0004DF22A30FDF7CCFCF2214DF22B30FDF7E0
:104AE000C7FC02214DF22C30FDF7C2FCFE214DF235
:104AF0002D30FDF7BDFC03214DF22E30FDF7B8FC43
:104B000010214DF22F30FDF7B3FC03214DF2303070
:104B1000FDF7AEFC33214DF23130FDF7A9FC032146
:104B20004DF23230FDF7A4FC6D214DF23330FDF72C
:104B30009FFC00214FF45440FDF79AFC33214DF2C5
:104B40000140FDF795FC00214DF20240FDF790FC7D
:104B500034214DF20340FDF78BFC00214DF204405F
:104B6000FDF786FC3A214DF20540FDF781FC00215E
:104B70004DF20640FDF77CFC4A214DF20740FDF75F
:104B800077FC00214DF20840FDF772FC5C214DF2EC
:104B90000940FDF76DFC00214DF20A40FDF768FC6D
:104BA00081214DF20B40FDF763FC00214DF20C40DA
:104BB000FDF75EFCA6214DF20D40FDF759FC0021EA
:104BC0004DF20E40FDF754FCE5214DF20F40FDF78C
:104BD0004FFC01214DF21040FDF74AFC13214DF22C
:104BE0001140FDF745FC01214DF21240FDF740FC5C
:104BF00054214DF21340FDF73BFC01214DF21440CE
:104C0000FDF736FC82214DF21540FDF731FC012104
:104C10004DF21640FDF72CFCCA214DF21740FDF76E
:104C200027FC02214DF21840FDF722FC00214DF235
:104C30001940FDF71DFC02214DF21A40FDF718FC4A
:104C400001214DF21B40FDF713FC02214DF21C40E7
:104C5000FDF70EFC34214DF21D40FDF709FC022149
:104C60004DF21E40FDF704FC67214DF21F40FDF799
:104C7000FFFB02214DF22040FDF7FAFB84214DF2AB
:104C80002140FDF7F5FB02214DF22240FDF7F0FB3C
:104C9000A4214DF22340FDF7EBFB02214DF224400D
:104CA000FDF7E6FBB7214DF22540FDF7E1FB0221C0
:104CB0004DF22640FDF7DCFBCF214DF22740FDF7FA
:104CC000D7FB02214DF22840FDF7D2FBDE214DF249
:104CD0002940FDF7CDFB02214DF22A40FDF7C8FB2C
:104CE000F2214DF22B40FDF7C3FB02214DF22C4087
:104CF000FDF7BEFBFE214DF22D40FDF7B9FB032170
:104D00004DF22E40FDF7B4FB10214DF22F40FDF780
:104D1000AFFB03214DF23040FDF7AAFB33214DF2EA
:104D20003140FDF7A5FB03214DF23240FDF7A0FB1A
:104D30006D214DF23340FDF79BFB00214FF45540B0
:104D4000FDF796FB33214DF20150FDF791FB002159
:104D50004DF20250FDF78CFB34214DF20350FDF76C
:104D600087FB00214DF20450FDF782FB3A214DF202
:104D70000550FDF77DFB00214DF20650FDF778FB55
:104D80004A214DF20750FDF773FB00214DF2085008
:104D9000FDF76EFB5C214DF20950FDF769FB002128
:104DA0004DF20A50FDF764FB81214DF20B50FDF7E7
:104DB0005FFB00214DF20C50FDF75AFBA6214DF28E
:104DC0000D50FDF755FB00214DF20E50FDF750FB45
:104DD000E5214DF20F50FDF74BFB01214DF2105034
:104DE000FDF746FB13214DF21150FDF741FB012168
:104DF0004DF21250FDF73CFB54214DF21350FDF7DC
:104E000037FB01214DF21450FDF732FB82214DF2A8
:104E10001550FDF72DFB01214DF21650FDF728FB33
:104E2000CA214DF21750FDF723FB02214DF2185015
:104E3000FDF71EFB00214DF21950FDF719FB022171
:104E40004DF21A50FDF714FB01214DF21B50FDF7F6
:104E50000FFB02214DF21C50FDF70AFB34214DF2ED
:104E60001D50FDF705FB02214DF21E50FDF700FB22
:104E700067214DF21F50FDF7FBFA02214DF2205041
:104E8000FDF7F6FA84214DF22150FDF7F1FA0221E7
:104E90004DF22250FDF7ECFAA4214DF22350FDF71C
:104EA000E7FA02214DF22450FDF7E2FAB7214DF264
:104EB0002550FDF7DDFA02214DF22650FDF7D8FA14
:104EC000CF214DF22750FDF7D3FA02214DF22850A1
:104ED000FDF7CEFADE214DF22950FDF7C9FA022185
:104EE0004DF22A50FDF7C4FAF2214DF22B50FDF796
:104EF000BFFA02214DF22C50FDF7BAFAFE214DF215
:104F00002D50FDF7B5FA03214DF22E50FDF7B0FA02
:104F100010214DF22F50FDF7ABFA03214DF2305026
:104F2000FDF7A6FA33214DF23150FDF7A1FA032126
:104F30004DF23250FDF79CFA6D214DF23350FDF7E2
:104F400097FA00214FF45640FDF792FA33214DF2C3
:104F50000160FDF78DFA00214DF20260FDF788FA3D
:104F600034214DF20360FDF783FA00214DF2046015
:104F7000FDF77EFA3A214DF20560FDF779FA00213E
:104F80004DF20660FDF774FA4A214DF20760FDF715
:104F90006FFA00214DF20860FDF76AFA5C214DF2CC
:104FA0000960FDF765FA00214DF20A60FDF760FA2D
:104FB00081214DF20B60FDF75BFA00214DF20C6090
:104FC000FDF756FAA6214DF20D60FDF751FA0021CA
:104FD0004DF20E60FDF74CFAE5214DF20F60FDF742
:104FE00047FA01214DF21060FDF742FA13214DF20C
:104FF0001160FDF73DFA01214DF21260FDF738FA1C
:1050000054214DF21360FDF733FA01214DF2146083
:10501000FDF72EFA82214DF21560FDF729FA0121E4
:105020004DF21660FDF724FACA214DF21760FDF724
:105030001FFA02214DF21860FDF71AFA00214DF215
:105040001960FDF715FA02214DF21A60FDF710FA0A
:1050500001214DF21B60FDF70BFA02214DF21C609D
:10506000FDF706FA34214DF21D60FDF701FA022129
:105070004DF21E60FDF7FCF967214DF21F60FDF750
:10508000F7F902214DF22060FDF7F2F984214DF28B
:105090002160FDF7EDF902214DF22260FDF7E8F9FC
:1050A000A4214DF22360FDF7E3F902214DF22460C3
:1050B000FDF7DEF9B7214DF22560FDF7D9F90221A0
:1050C0004DF22660FDF7D4F9CF214DF22760FDF7B0
:1050D000CFF902214DF22860FDF7CAF9DE214DF229
:1050E0002960FDF7C5F902214DF22A60FDF7C0F9EC
:1050F000F2214DF22B60FDF7BBF902214DF22C603D
:10510000FDF7B6F9FE214DF22D60FDF7B1F903214F
:105110004DF22E60FDF7ACF910214DF22F60FDF736
:10512000A7F903214DF23060FDF7A2F933214DF2CA
:105130003160FDF79DF903214DF23260FDF798F9DA
:105140006D214DF23360FDF793F955214FF4704016
:10515000FDF78EF9AA214FF20100FDF789F95221DE
:105160004FF20200FDF784F908214FF20300FDF72A
:105170007FF900214FF20400FDF77AF9CC214FF4BA
:105180003140FDF775F900214BF20110FDF770F980
:1051900005214FF43640FDF76BF970214FF437408D
:1051A000FDF766F970214BF20170FDF761F90121FD
:1051B0004FF43840FDF75CF903214BF60100FDF791
:1051C00057F903214BF60200FDF752F903214BF684
:1051D0000300FDF74DF902214FF43C40FDF748F97B
:1051E00000214BF60140FDF743F900214BF6024048
:1051F000FDF73EF9D0214FF44940FDF739F902217E
:105200004CF60110FDF734F950214CF60210FDF771
:105210002FF950214CF60310FDF72AF950214CF6D6
:105220000410FDF725F900214FF45450FDF720F943
:1052300055214FF46850FDF71BF94FF48850FDF7E6
:1052400005F9782000F0BCF84FF42450FDF7FEF883
:1052500008BD08B5E220FDF7F9F81D20FDF7E4F8D8
:105260000220FDF7E1F80420FDF7DEF8642000F0ED
:10527000A7F8E020FDF7EAF80120FDF7D5F80A20AD
:1052800001F0C6FCE020FDF7E1F80320FDF7CCF8C3
:105290000C2001F0BDFC0120FDF7D8F80A2001F038
:1052A000B7FCE620FDF7D2F82F20FDF7BDF8FF2070
:1052B000FDF7BAF8FF20FDF7B7F8B020FDF7C6F804
:1052C0002020FDF7B1F80020FDF7AEF80320FDF730
:1052D000ABF840F21F30FDF7A7F80120FDF7A4F866
:1052E00040F2DF10FDF7A0F80020FDF79DF8B42094
:1052F000FDF7ACF80420FDF797F840F21F40FDF7EA
:1053000093F80020FDF790F82E20FDF78DF800208F
:10531000FDF78AF80020FDF787F80020FDF784F8F4
:105320000020FDF781F8B620FDF790F80220FDF788
:105330007BF84FF40370FDF777F80020FDF774F861
:105340001720FDF771F81520FDF76EF80020FDF726
:105350006BF80020FDF768F8F020FDF777F80320E0
:10536000FDF762F82920FDF771F8D020FDF76EF8FF
:105370000020FDF759F8BE20FDF768F80520FDF77D
:1053800053F8FE20FDF750F80120FDF74DF80020FE
:10539000FDF74AF80020FDF747F80020FDF744F834
:1053A000B820FDF753F80320FDF73EF80120FDF784
:1053B0003BF8BA20FDF74AF80120FDF735F808BDA3
:1053C000A82303FB00F0800800BF03460138002B30
:1053D000FAD1704708B50268034B9A4200D008BD65
:1053E00001F004FCFBE700BF002C014072B6FEE7B1
:1053F00000B591B02822002106A803F06BFD002320
:1054000001930293039304930593012206924FF4B0
:10541000803307930A9202220D920E934FF4E01309
:105420000F9306A801F0ACFD80B90F230193022170
:105430000291002303934FF480620492059301A824
:1054400001F0DEFF20B911B05DF804FBFFF7CEFFDD
:10545000FFF7CCFF08B501F0B7FBFFF7C9FFFCF77A
:1054600059FD00F0FDFC00F051FD00F0A7FD01F03A
:1054700019FBFCF741FB00F005FCFCF7B9FA02F060
:105480004FFEFEE708B50220FFF79AFF08BD0000B7
:1054900010B50E4C01228021204601F04CFD012266
:1054A0004021204601F047FDFFF7ECFF002280215C
:1054B000204601F040FDFFF7E5FF00224021204695
:1054C00001F039FDFFF7DEFF10BD00BF000C014009
:1054D00010B50B4C00228021204601F02CFDFFF777
:1054E000D1FF01224021204601F025FDFFF7CAFF30
:1054F00001228021204601F01EFDFFF7C3FF10BDF1
:10550000000C014010B586B0154B9A6942F00802B4
:105510009A619A6902F008020092009A9A6942F030
:1055200008029A619B6903F008030193019B4023E1
:10553000029301230393049303230593094C02A9C7
:10554000204601F0D1FB802302931123039302A98B
:10555000204601F0C9FBFFF7BBFF06B010BD00BF3E
:1055600000100240000C014038B5134C012280218C
:10557000204601F0E0FCFFF785FF01224021204694
:1055800001F0D9FCFFF77EFF002480210A4801F0DA
:10559000CBFC054630B10134E4B2FA2CF5D9FFF763
:1055A00097FF012500224021034801F0C4FCFFF7CA
:1055B00069FF284638BD00BF000C014010B50F4CF4
:1055C00000228021204601F0B6FCFFF75BFF01229C
:1055D0004021204601F0AFFCFFF754FF002240219C
:1055E000204601F0A8FCFFF74DFF01228021204654
:1055F00001F0A1FCFFF746FF10BD00BF000C014009
:1056000010B50B4C01228021204601F094FCFFF7DD
:1056100039FF01224021204601F08DFCFFF732FFC7
:1056200000224021204601F086FCFFF72BFF10BD31
:10563000000C014070B50446002517E000228021CF
:10564000134801F078FCFFF71DFF114E01224021A5
:10565000304601F070FCFFF715FF00224021304674
:1056600001F069FC6400E4B20135EDB2072D08D801
:1056700014F0800FE2D001228021054801F05BFC8C
:10568000E1E701228021024801F055FC70BD00BF16
:10569000000C0140F8B507460024254608E000222A
:1056A0004021124801F047FCFFF7ECFE0135EDB256
:1056B000072D12D86400E4B20C4E0122402130467E
:1056C00001F039FCFFF7DEFE8021304601F02CFCB2
:1056D0000028E4D00134E4B2E1E71FB9FFF790FFFE
:1056E0002046F8BDFFF76AFFFAE700BF000C014053
:1056F00000B583B0114B9A6942F001029A619A6930
:1057000002F001020092009ADA6942F08052DA61F6
:10571000DB6903F080530193019B00220F216FF09E
:10572000010001F09BFA064A536823F0E06343F05E
:105730000073536003B05DF804FB00BF001002402B
:105740000000014000B589B001460022192001F097
:1057500085FA192001F0BAFA144B9A6942F40062F2
:105760009A619B6903F400630193019B02A903A85A
:1057700001F022FF01F010FF0D4BA3FB00239B0C57
:10578000013B0C480C4A026040F2E732C2604360C1
:1057900000230361836002F06BF918B1012009B0A6
:1057A0005DF804FB034802F019F8F8E70010024026
:1057B00083DE1B43340D0020002C0140FEE7FEE792
:1057C000FEE7FEE7FEE7704708B5024802F047F83B
:1057D00008BD00BF340D00200120704708B503F05C
:1057E0004FFB162303604FF0FF3008BD08B54FF0A4
:1057F000FF31FFF7F3FFFEE770B50C4616460025B4
:1058000006E0AFF30080214601F8010B01350C469C
:10581000B542F6DB304670BD70B50C461646002525
:1058200004E014F8010BAFF300800135B542F8DB5A
:10583000304670BD08B503460B4A126842B10A4AA9
:10584000106803446A46934206D8074A136008BDAD
:10585000054A06491160F2E703F012FB0C230360CE
:105860004FF0FF30F3E700BF7C0D0020381C002014
:105870004FF0FF3070474FF400534B6000207047EB
:10588000012070470020704770470000F0B589B0D4
:105890001E4B9A6942F040029A619A6902F04002F6
:1058A0000192019A9A6942F040029A619A6902F063
:1058B00040020292029A9A6942F004029A619B693C
:1058C00003F004030393039B102304930025059521
:1058D00001260696032407940D4F0DEB030138466D
:1058E00001F002FA0823049305950696079404A98B
:1058F000384601F0F9F904960595022306930794BA
:1059000004A9044801F0F0F909B0F0BD001002400C
:10591000001801400008014010B510B1274B0122CA
:105920001A70264B1B784BB31021254801F0FCFA66
:1059300020B10821224801F0F7FAC8B90A2001F085
:1059400067F91E4B00221A7010211D4801F0ECFA75
:10595000E8B1002408211A4801F0E6FA00B902244F
:105960000121184801F0E0FA01280ED103240CE0CF
:105970000121144801F0D8FA0128DFD01021104885
:1059800001F0D2FA012804D00024204610BD0124E1
:10599000E0E708210A4801F0C7FA012801D00024F5
:1059A000F3E70121074801F0BFFA044618B9034B99
:1059B00001221A70E9E70024E7E700BF0C0000208D
:1059C000001801400008014000B585B04FF6FF7097
:1059D000FCF796FF084B188818381F230293074BD3
:1059E000019310230093C822002180B2FDF722FB0F
:1059F00005B05DF804FB00BF240D00205C3B0108EE
:105A00002DE9F04F85B0BDF83C909DF83880804579
:105A100056D8904554D8884552D8984550D8844691
:105A2000A2EB000A8E46A3EB010BBAF1000F13DDC7
:105A300001220292BBF1000F1ADD01230393DA4524
:105A400022DD564600252F462C46CDF80080E04644
:105A5000CDF80490F1461BE0BAF1000F05D0A0EBA1
:105A6000020A4FF0FF320292E4E7CDF808A0E1E726
:105A7000BBF1000F05D0A1EB030B4FF0FF330393F5
:105A8000DDE7CDF80CB0DAE75E46DBE70134A4B21F
:105A9000731C9C4214DC019B009A1FFA89F11FFAC7
:105AA00088F0FDF7D5F957445D44BE4202DABF1BCA
:105AB000029B9844AE42E9DAAD1B039B9944E5E7AB
:105AC00005B0BDE8F08F00002DE9F0418CB0404BEF
:105AD0009A8841F218039A4202D0052600276BE00B
