:020000040800F2
:1000000000000120B5660008253F0008273F0008D2
:10001000293F00082B3F00082D3F0008000000008A
:10002000000000000000000000000000315B00083C
:100030002F3F000800000000D15B0008155C00089D
:10004000FD660008FD660008FD660008FD66000804
:10005000FD660008FD660008FD660008FD660008F4
:10006000FD660008FD660008FD660008FD660008E4
:10007000FD660008FD660008FD660008FD660008D4
:10008000FD660008FD660008FD660008FD660008C4
:10009000FD660008FD660008FD660008FD660008B4
:1000A000FD660008313F0008FD660008FD66000897
:1000B000FD660008FD660008FD660008FD66000894
:1000C000FD660008FD660008FD660008FD66000884
:1000D000FD660008FD660008FD660008FD66000874
:1000E000FD660008FD660008FD660008FD66000864
:1000F000FD660008FD660008FD660008FD66000854
:10010000FD660008FD660008FD660008FD66000843
:10011000FD660008FD660008FD660008FD66000833
:10012000FD660008FD660008FD660008FD66000823
:1001300000000000000000000000000000000000BF
:1001400000000000000000000000000000000000AF
:10015000000000000000000000000000000000009F
:10016000000000000000000000000000000000008F
:10017000000000000000000000000000000000007F
:10018000000000000000000000000000000000006F
:10019000000000000000000000000000000000005F
:1001A000000000000000000000000000000000004F
:1001B000000000000000000000000000000000003F
:1001C000000000000000000000000000000000002F
:1001D000000000000000000000000000000000001F
:0401E0005FF8E0F1F3
:1001F00010B5054C237833B9044B13B10448AFF361
:1002000000800123237010BDC00900200000000001
:100210000CC7000808B5034B1BB103490348AFF3F3
:10022000008008BD00000000C40900200CC70008C1
:1002300081F0004102E000BF83F0004330B54FEA97
:1002400041044FEA430594EA050F08BF90EA020F04
:100250001FBF54EA000C55EA020C7FEA645C7FEA97
:10026000655C00F0E2804FEA5454D4EB5555B8BFBA
:100270006D420CDD2C4480EA020281EA030382EA2B
:10028000000083EA010180EA020281EA0303362DBD
:1002900088BF30BD11F0004F4FEA01314FF4801C90
:1002A0004CEA113102D0404261EB410113F0004FA2
:1002B0004FEA03334CEA133302D0524263EB430359
:1002C00094EA050F00F0A780A4F10104D5F1200EF7
:1002D0000DDB02FA0EFC22FA05F2801841F1000152
:1002E00003FA0EF2801843FA05F359410EE0A5F126
:1002F00020050EF1200E012A03FA0EFC28BF4CF057
:10030000020C43FA05F3C01851EBE37101F000450C
:1003100007D54FF0000EDCF1000C7EEB00006EEB19
:100320000101B1F5801F1BD3B1F5001F0CD34908A3
:100330005FEA30004FEA3C0C04F101044FEA4452FA
:1003400012F5800F80F09A80BCF1004F08BF5FEA81
:10035000500C50F1000041EB045141EA050130BD61
:100360005FEA4C0C404141EB0101013C28BFB1F573
:10037000801FE9D291F0000F04BF01460020B1FABE
:1003800081F308BF2033A3F10B03B3F120020CDA91
:100390000C3208DD02F1140CC2F10C0201FA0CF06F
:1003A00021FA02F10CE002F11402D8BFC2F1200CD4
:1003B00001FA02F120FA0CFCDCBF41EA0C0190408A
:1003C000E41AA2BF01EB0451294330BD6FEA0404D3
:1003D0001F3C1CDA0C340EDC04F11404C4F12002BE
:1003E00020FA04F001FA02F340EA030021FA04F3D0
:1003F00045EA030130BDC4F10C04C4F1200220FA27
:1004000002F001FA04F340EA0300294630BD21FA64
:1004100004F0294630BD94F0000F83F4801306BF2A
:1004200081F480110134013D4EE77FEA645C18BF1E
:100430007FEA655C29D094EA050F08BF90EA020FB5
:1004400005D054EA000C04BF1946104630BD91EAAD
:10045000030F1EBF0021002030BD5FEA545C05D1B0
:100460004000494128BF41F0004130BD14F58004EF
:100470003CBF01F5801130BD01F0004545F0FE4163
:1004800041F470014FF0000030BD7FEA645C1ABF98
:10049000194610467FEA655C1CBF0B46024650EACF
:1004A000013406BF52EA033591EA030F41F40021FB
:1004B00030BD00BF90F0000F04BF0021704730B581
:1004C0004FF4806404F132044FF000054FF0000156
:1004D00050E700BF90F0000F04BF0021704730B517
:1004E0004FF4806404F1320410F0004548BF4042EC
:1004F0004FF000013EE700BF42004FEAE2014FEA41
:1005000031014FEA02701FBF12F07F4393F07F4F1B
:1005100081F06051704732F07F4208BF704793F01E
:100520007F4F04BF41F40021704730B54FF4607431
:1005300001F0004521F000411CE700BF50EA010234
:1005400008BF704730B54FF000050AE050EA0102DD
:1005500008BF704730B511F0004502D5404261EB4D
:1005600041014FF4806404F132045FEA915C3FF48E
:10057000D8AE4FF003025FEADC0C18BF03325FEA2B
:10058000DC0C18BF033202EBDC02C2F1200300FADC
:1005900003FC20FA02F001FA03FE40EA0E0021FA01
:1005A00002F11444BDE600BF4A0011D212F5001258
:1005B00011D20DD56FF47873B3EB62520ED44FEABB
:1005C000C12343F0004343EA505323FA02F070473B
:1005D0004FF00000704750EA013002D14FF0FF3079
:1005E00070474FF000007047844641EA000313F063
:1005F000030349D1403A23D30B6803604B6843603F
:100600008B688360CB68C3600B6903614B6943618E
:100610008B698361CB69C3610B6A03624B6A436276
:100620008B6A8362CB6AC3620B6B03634B6B43635E
:100630008B6B8363CB6BC36340304031403ADBD27A
:1006400030320BD30B6803604B6843608B68836068
:10065000CB68C36010301031103AF3D20C3205D39E
:1006600051F8043B40F8043B043AF9D2043208D074
:10067000D2071CBF11F8013B00F8013B01D30B88E6
:1006800003806046704700BF082A13D38B07B1D0A0
:1006900010F00303AED0C3F10403D21ADB071CBF72
:1006A00011F8013B00F8013BA4D331F8023B20F8DC
:1006B000023B9FE7043AD9D3013A11F8013B00F815
:1006C000013BF9D20B7803704B7843708B788370C1
:1006D0006046704770B54FF0FF0C4CF4E06C1CEABC
:1006E00011541DBF1CEA135594EA0C0F95EA0C0F28
:1006F00000F0DEF82C4481EA030621EA4C5123EA9B
:100700004C5350EA013518BF52EA033541F48011C9
:1007100043F4801338D0A0FB02CE4FF00005E1FB7C
:1007200002E506F00042E0FB03E54FF00006E1FBC6
:1007300003569CF0000F18BF4EF0010EA4F1FF0409
:10074000B6F5007F64F5407404D25FEA4E0E6D4149
:1007500046EB060642EAC62141EA55514FEAC5205A
:1007600040EA5E504FEACE2EB4F1FD0C88BFBCF5D6
:10077000E06F1ED8BEF1004F08BF5FEA500E50F187
:10078000000041EB045170BD06F0004646EA01014D
:1007900040EA020081EA0301B4EB5C04C2BFD4EB7F
:1007A0000C0541EA045170BD41F480114FF0000E78
:1007B000013C00F3AB8014F1360FDEBF002001F0E6
:1007C000004170BDC4F10004203C35DA0C341BDC60
:1007D00004F11404C4F1200500FA05F320FA04F032
:1007E00001FA05F240EA020001F0004221F0004166
:1007F00010EBD37021FA04F642EB06015EEA430ED9
:1008000008BF20EAD37070BDC4F10C04C4F1200508
:1008100000FA04F320FA05F001FA04F240EA0200BB
:1008200001F0004110EBD37041F100015EEA430E8C
:1008300008BF20EAD37070BDC4F1200500FA05F2AC
:100840004EEA020E20FA04F301FA05F243EA02032B
:1008500021FA04F001F0004121FA04F220EA02003A
:1008600000EBD3705EEA430E08BF20EAD37070BD80
:1008700094F0000F0FD101F00046400041EB010160
:1008800011F4801F08BF013CF7D041EA060195F042
:10089000000F18BF704703F00046520043EB0303FC
:1008A00013F4801F08BF013DF7D043EA06037047E9
:1008B00094EA0C0F0CEA135518BF95EA0C0F0CD0F4
:1008C00050EA410618BF52EA4306D1D181EA03013A
:1008D00001F000414FF0000070BD50EA410606BF34
:1008E0001046194652EA430619D094EA0C0F02D179
:1008F00050EA013613D195EA0C0F05D152EA0336BE
:100900001CBF104619460AD181EA030101F00041DB
:1009100041F0FE4141F470014FF0000070BD41F024
:10092000FE4141F4780170BD70B54FF0FF0C4CF4FE
:10093000E06C1CEA11541DBF1CEA135594EA0C0F1D
:1009400095EA0C0F00F0A7F8A4EB050481EA030E6A
:1009500052EA03354FEA013100F088804FEA033351
:100960004FF0805545EA131343EA12634FEA02221F
:1009700045EA111545EA10654FEA00260EF00041E0
:100980009D4208BF964244F1FD0404F5407402D232
:100990005B084FEA3202B61A65EB03055B084FEAC3
:1009A00032024FF480104FF4002CB6EB020E75EBC0
:1009B000030E22BFB61A754640EA0C005B084FEAE8
:1009C0003202B6EB020E75EB030E22BFB61A754665
:1009D00040EA5C005B084FEA3202B6EB020E75EBB0
:1009E000030E22BFB61A754640EA9C005B084FEA28
:1009F0003202B6EB020E75EB030E22BFB61A754635
:100A000040EADC0055EA060E18D04FEA051545EA23
:100A100016754FEA06164FEAC30343EA52734FEACC
:100A2000C2025FEA1C1CC0D111F4801F0BD141EA45
:100A300000014FF000004FF0004CB6E711F4801FAA
:100A400004BF01430020B4F1FD0C88BFBCF5E06F8A
:100A50003FF6AFAEB5EB030C04BFB6EB020C5FEA9A
:100A6000500C50F1000041EB045170BD0EF0004EEF
:100A70004EEA113114EB5C04C2BFD4EB0C0541EA21
:100A8000045170BD41F480114FF0000E013C90E61E
:100A900045EA060E8DE60CEA135594EA0C0F08BFE2
:100AA00095EA0C0F3FF43BAF94EA0C0F0AD150EAE1
:100AB00001347FF434AF95EA0C0F7FF425AF104674
:100AC00019462CE795EA0C0F06D152EA03353FF49C
:100AD000FDAE1046194622E750EA410618BF52EA19
:100AE00043067FF4C5AE50EA41047FF40DAF52EAED
:100AF00043057FF4EBAE12E74FF0FF3C06E000BF8A
:100B00004FF0010C02E000BF4FF0010C4DF804CD96
:100B10004FEA410C7FEA6C5C4FEA430C18BF7FEA56
:100B20006C5C1BD001B050EA410C0CBF52EA430C84
:100B300091EA030F02BF90EA020F0020704710F104
:100B4000000F91EA030F58BF994208BF90422CBF93
:100B5000D8176FEAE37040F0010070474FEA410C8C
:100B60007FEA6C5C02D150EA013C07D14FEA430CAA
:100B70007FEA6C5CD6D152EA033CD3D05DF8040B1B
:100B8000704700BF8446104662468C46194663464D
:100B900000E000BF01B5FFF7B7FF002848BF10F124
:100BA000000F01BD4DF808EDFFF7F4FF0CBF012069
:100BB00000205DF808FB00BF4DF808EDFFF7EAFFE5
:100BC00034BF012000205DF808FB00BF4DF808EDA0
:100BD000FFF7E0FF94BF012000205DF808FB00BF95
:100BE0004DF808EDFFF7CEFF94BF012000205DF81F
:100BF00008FB00BF4DF808EDFFF7C4FF34BF01202C
:100C000000205DF808FB00BF4FEA410C7FEA6C5CF6
:100C100002D150EA013C0AD14FEA430C7FEA6C5CF6
:100C200002D152EA033C02D14FF0000070474FF06E
:100C3000010070474FEA410212F5001215D211D59A
:100C40006FF47873B3EB625212D94FEAC12343F0C9
:100C5000004343EA505311F0004F23FA02F018BF4B
:100C6000404270474FF00000704750EA013005D114
:100C700011F0004008BF6FF0004070474FF00000D7
:100C8000704700BF53B94AB9002908BF00281CBFEC
:100C90004FF0FF314FF0FF3000F076B9ADF1080CA6
:100CA0006DE904CE00F006F8DDF804E0DDE902238A
:100CB00004B070472DE9F047089E0D46044688466B
:100CC000002B4DD18A42944668D9B2FA82F252B1D1
:100CD00001FA02F3C2F1200120FA01F10CFA02FC40
:100CE00041EA030894404FEA1C41B8FBF1F71FFAB0
:100CF0008CFE01FB178807FB0EF0230C43EA084328
:100D000098420AD91CEB030307F1FF3580F01E81DE
:100D1000984240F21B81023F63441B1AB3FBF1F07F
:100D200001FB103300FB0EFEA4B244EA0344A645C7
:100D30000AD91CEB040400F1FF3380F00981A645B9
:100D400040F20681644402380021A4EB0E0440EA1C
:100D500007401EB10023D440C6E90043BDE8F08738
:100D60008B4208D9002E00F0EE800021C6E9000574
:100D70000846BDE8F087B3FA83F100294AD1AB42B7
:100D800002D3824200F2FC80841A65EB0303012047
:100D90009846002EE2D0C6E90048DFE702B9FFDE40
:100DA000B2FA82F2002A40F09180A1EB0C000121FE
:100DB0004FEA1C471FFA8CFEB0FBF7F307FB13004A
:100DC000250C45EA00450EFB03F0A84208D91CEBB0
:100DD000050503F1FF3802D2A84200F2CE80434657
:100DE0002D1AB5FBF7F007FB10550EFB00FEA4B261
:100DF00044EA0544A64508D91CEB040400F1FF357C
:100E000002D2A64500F2B6802846A4EB0E0440EAC2
:100E100003409EE7C1F120078B4022FA07FC4CEA11
:100E2000030C25FA07FA4FEA1C49BAFBF9F820FA35
:100E300007F309FB18AA8D401FFA8CFE1D4300FA28
:100E400001F308FB0EF02C0C44EA0A44A04202FA1B
:100E500001F20BD91CEB040408F1FF3A80F0888002
:100E6000A04240F28580A8F102086444241AB4FB31
:100E7000F9F009FB104400FB0EFEADB245EA044454
:100E8000A64508D91CEB040400F1FF356CD2A64539
:100E90006AD90238644440EA0840A0FB0295A4EBFA
:100EA0000E04AC42C846AE4656D353D0002E69D08D
:100EB000B3EB080264EB0E0422FA01F304FA07F71D
:100EC0001F43CC40C6E90074002147E70CFA02FC3E
:100ED000C2F1200125FA01F34FEA1C4720FA01F183
:100EE00095400D43B3FBF7F107FB11331FFA8CFE5E
:100EF000280C40EA034001FB0EF3834204FA02F49B
:100F000008D91CEB000001F1FF382FD283422DD904
:100F100002396044C01AB0FBF7F307FB1300ADB20F
:100F200045EA004503FB0EF0A84208D91CEB050575
:100F300003F1FF3816D2A84214D9023B6544281A9F
:100F400043EA014138E73146304607E72F46E4E6F9
:100F50001846F9E64B45A9D2B9EB020865EB0C0E31
:100F60000138A3E74346EAE7284694E74146D1E73C
:100F7000D0467BE76444023847E7023B65442FE7ED
:100F8000084606E73146E9E6704700BF08B501208C
:100F900004F03AFDFBE708B5012004F035FDFBE75E
:100FA00008B5012004F030FDFBE70000034B0360AF
:100FB000034B0B6080231360704700BFE80B0020D9
:100FC000E809002010B596B01B4C0DF13C0CA6466C
:100FD000BEE80F00ACE80F009EE807008CE80700B1
:100FE00000210FA804F0DBFC144B18600DF1200C5D
:100FF00004F11C0EBEE80F00ACE80F009EE80700ED
:101000008CE80700002108A804F0C9FC0C4B18600C
:101010000DF1040E04F1380CBCE80F00AEE80F002F
:101020009CE807008EE80700002101A804F0B7FC47
:10103000044B186016B010BD28C70008E009002056
:10104000E4090020DC09002030B587B000230293BA
:10105000039304930593184B1B680BB107B030BD85
:10106000154B01221A60154B5A6942F480725A617D
:101070005B6903F480730193019B41F201030293C6
:10108000022503950324059402A90D4803F076FA7E
:101090004FF6807302930395059402A9094803F063
:1010A0006DFA4CF2337302930395059402A9064836
:1010B00003F064FAD2E700BF3C0C002000100240AD
:1010C00000200140001801400014014010B58EB00E
:1010D00000230793089309930A930B930C930D93A2
:1010E00000930193029303930493059306931C4882
:1010F0004FF02042026002F5827242600622826056
:10110000C3600361102242618361C3610362436271
:101110004FF480518162C3624FF4804101634363A5
:1011200083630F2307930893FF2409940A930B9278
:1011300011210C9100930193029403930492059161
:101140006A4607A903F090FE30B9064AD36943F412
:101150008063D3610EB010BD02F02CFEF5E700BF36
:10116000400C00200000014008B5FFF76DFF08BDEE
:1011700070B58AB000240694079408940994254B0E
:101180009A6942F004029A619A6902F0040201929B
:10119000019A9A6942F008029A619A6902F008027B
:1011A0000292029A9A6942F480729A619A6902F4F0
:1011B00080720392039A9A6942F040029A619A6996
:1011C00002F040020492049A9A6942F020029A6165
:1011D0009B6903F020030593059B0F4E22462121B6
:1011E000304603F0EBFA0125069507950895032391
:1011F000099306A9304603F0C1F920230693079509
:1012000008940223099306A9304603F0B7F90AB0FF
:1012100070BD00BF00100240000C014082B0054BC1
:10122000B3F800319BB2ADF80630BDF8060080B2CD
:1012300002B070470007006C82B0ADF80600BDF840
:1012400006309BB2ADF80630BDF806309BB2024ABC
:10125000A2F8003102B070470007006C82B0ADF810
:101260000600BDF806309BB2ADF80630BDF806307A
:101270009BB2024AA2F8FE3002B070470007006C31
:10128000024BA3F8FE00A3F8001170470007006CA2
:10129000024B1A89024BA3F8FE207047D00C0020A5
:1012A0000007006C08B5074B9A8845F210539A4224
:1012B00003D02920FFF7D2FF08BD4FF42450FFF7D9
:1012C000CDFFF9E7D00C002070B505460C46404B29
:1012D0009B8841F66312934217D045F21052934215
:1012E00057D03B4E7089FFF7B9FF280AFFF7A4FFDC
:1012F000E8B2FFF7A1FFB089FFF7B0FF200AFFF7C0
:101300009BFFE0B2FFF798FF70BD314B9B7953BB59
:101310002F4B1888451BADB2013DADB25889FFF780
:101320009DFF0020FFF788FF0020FFF785FF280AB8
:10133000FFF782FFE8B2FFF77FFF254DA889FFF78F
:101340008DFF200AFFF778FFE0B2FFF775FF68888E
:101350000138C0F30F20FFF76FFF68880138C0B273
:10136000FFF76AFFD0E71A4E7089FFF777FF280A68
:10137000FFF762FFE8B2FFF75FFF30880138C0F384
:101380000F20FFF759FF30880138C0B2FFF754FF34
:10139000D3E70F4E7089FFF761FF280AFFF74CFF74
:1013A0007089013080B2FFF759FFE8B2FFF744FFC0
:1013B000B089FFF753FF200AFFF73EFFB0890130E5
:1013C00080B2FFF74BFFE0B2FFF736FF9CE700BFAC
:1013D000D00C002010B5744B9B79012B10D02BB989
:1013E000714B9A8841F663139A420FD00138062850
:1013F00000F28480DFE800F07472706E6C6A160090
:10140000694A918841F663129142E8D00728EDD8E5
:10141000DFE800F072706C6E06046A68002402E077
:10142000802400E0E024604B9B8845F210529342F8
:1014300066D0362049F24132934203D047F2897296
:10144000934201D144F008042146FFF719FF564B9F
:101450009B8841F6631293420AD014F0200F52D0B9
:10146000514A11885288914202D24F4802804180ED
:1014700045F2105293424FD04B4C6089FFF7EEFE7D
:101480000020FFF7D9FE0020FFF7D6FE20880138A4
:10149000C0F30F20FFF7D0FE20880138C0B2FFF75D
:1014A000CBFEA089FFF7DAFE0020FFF7C5FE002083
:1014B000FFF7C2FE60880138C0F30F20FFF7BCFEC3
:1014C00060880138C0B2FFF7B7FE10BDA024AAE7BC
:1014D0006024A8E72024A6E7C024A4E74024A2E7CC
:1014E0008024A0E740249EE7C0249CE720249AE7BC
:1014F000602498E7E02496E7A02494E7002492E78C
:101500004FF4585096E7284A118852889142AFD933
:10151000254802804180ABE7234C6089FFF79EFE9F
:101520000020FFF789FE6089013080B2FFF796FE48
:101530000020FFF781FE6089023080B2FFF78EFE47
:1015400020880138C0F30F20FFF776FE6089033052
:1015500080B2FFF783FE20880138C0B2FFF76CFE2F
:10156000A089FFF77BFE0020FFF766FEA08901300F
:1015700080B2FFF773FE0020FFF75EFEA089023005
:1015800080B2FFF76BFE60880138C0F30F20FFF7D1
:1015900053FEA089033080B2FFF760FE60880138F7
:1015A000C0B2FFF749FE90E7D00C00200000000019
:1015B00010B50446BE20FFF751FE0520FFF73CFEA4
:1015C0002046FEF787FF0CA3D3E90023FFF782F83C
:1015D000FEF7EAFF80B2FFF72FFE0120FFF72CFE97
:1015E000FF20FFF729FE0020FFF726FE0020FFF76F
:1015F00023FE10BDAFF30080666666666666044033
:1016000008B5444B9871002843D1F0221A804FF45A
:10161000A0725A809B8845F21052934212D041F634
:10162000631293421FD03B4A2C2111812A21518100
:101630002B21918145F21032934222D00020FFF7F6
:10164000C9FE08BD334A4FF4305111814FF428517F
:1016500051814FF42C5191814FF4F07111804FF46E
:1016600048715180E6E72B4A2C2111812B215181B1
:101670002A2191814FF4F07111804FF4487151800B
:10168000D8E7244B4FF4A0721A804FF4F0725A80BE
:10169000D4E7204B4FF4A0721A80F0225A809B8826
:1016A00045F21052934216D041F66312934223D072
:1016B000184A2C2111812A2151812B21918145F237
:1016C00010329342BAD1134B4FF4F0721A804FF498
:1016D000A0725A80B2E70F4A4FF4305111814FF493
:1016E000285151814FF42C5191814FF44871118050
:1016F0004FF4F0715180E2E7064A2C2111812A2132
:1017000051812B2191814FF4487111804FF4F07178
:101710005180D4E7D00C002038B50546094B1A8813
:101720005C8802FB04F400210846FFF7CDFDFFF7BB
:10173000AFFD002303E0044AA2F800510133A342A5
:10174000F9D338BDD00C00200007006C2DE9F04122
:10175000A8B0BA4B9A6942F480729A619A6902F40D
:1017600080721192119A9A6942F020029A619A69E4
:1017700002F020021292129A9A6942F020029A61B3
:101780009A6902F020021392139A9A6942F48072C5
:101790009A619A6902F480721492149A9A6942F0DA
:1017A00008029A619B6903F008031593159B4FF497
:1017B00080552495022325930124269403232793FF
:1017C0009F4F24A9384602F0D9FE20232493DFF846
:1017D000748224A9404602F0D1FE1026249624A942
:1017E000404602F0CBFE249424A9384602F0C6FEFF
:1017F0002494259424A9944802F0C0FE93484FF005
:101800002043036003F58273436006238360002353
:10181000C36046618361C36143628562C3624FF402
:1018200080420263436383631D931E930F221F92C2
:1018300023931693179318941C9316AA1DA903F0CB
:1018400013FB322002F02EFED320FFF707FDFFF737
:10185000E5FC7F4CA080FFF7E1FCA080FFF7DEFCF9
:10186000A0800002A080FFF7D9FCA388184380B2B3
:10187000A08049F24133984245D1754DAB88754CF3
:101880000E93754B0D93EC4604F1100EBEE80F005D
:10189000ACE80F00BEE80F00ACE80F00BEE80F0098
:1018A000ACE80F00DEF80030CCF8003094E80F0010
:1018B00002F098FDAB8847F28972934200F0AC8049
:1018C00049F24132934200F0AA8045F2103293422D
:1018D00000F0A88045F21052934200F0A68041F635
:1018E0006312934200F0A4800020FFF789FE0122DA
:1018F0001146554802F062FF4FF6FF70FFF70CFFEC
:1019000028B0BDE8F0810420FFF7A8FCFFF786FCB3
:10191000A080FFF783FCA080FFF780FCA08000027E
:10192000A080FFF77BFCA388184380B2A08048F218
:10193000525398426CD0464B9A8847F289739A4228
:101940009BD0D420FFF78AFCFFF768FC404CA080B6
:10195000FFF764FCA080FFF761FCA0800002A0807C
:10196000FFF75CFCA388184380B2A08045F21033D7
:10197000984282D055214FF47040FFF781FCAA2194
:101980004FF20100FFF77CFC52214FF20200FFF7FB
:1019900077FC08214FF20300FFF772FC01214FF2A0
:1019A0000400FFF76DFC4FF44540FFF757FCFFF7CD
:1019B00035FCA0800002A0804CF20150FFF74EFCE5
:1019C000FFF72CFCA3881843A080052002F06AFDD5
:1019D000A28845F210539A423FF44FAFA120FFF77F
:1019E0003DFCFFF71BFCA080FFF718FCA080000265
:1019F000A080FFF713FCA38803439BB2A38045F2AA
:101A0000617293427FF439AF41F66312A28034E7EA
:101A100047F28972A2808EE700F02AF864E700F0AE
:101A2000F8F861E700F00BFA5EE701F081F95BE797
:101A300002F0FCF86420FFF7BBFD55E70010024000
:101A40000020014000140140000C0140880C0020DF
:101A5000D00C0020040E0020A0C70008A82303FB20
:101A600000F0800800BF03460138002BFAD1704710
:101A700008B51120FFF7F2FB3620FFF7EFFB00203F
:101A8000FFF7DAFB3A20FFF7E9FB0520FFF7D4FB6D
:101A9000B220FFF7E3FB0C20FFF7CEFB0C20FFF793
:101AA000CBFB0020FFF7C8FB3320FFF7C5FB33203B
:101AB000FFF7C2FBB720FFF7D1FB3520FFF7BCFBD8
:101AC000BB20FFF7CBFB3220FFF7B6FBC020FFF7B0
:101AD000C5FB0C20FFF7B0FBC220FFF7BFFB0120C6
:101AE000FFF7AAFBC320FFF7B9FB1020FFF7A4FB09
:101AF000C420FFF7B3FB2020FFF79EFBC620FFF7B3
:101B0000ADFB0F20FFF798FBD020FFF7A7FBA42029
:101B1000FFF792FBA120FFF78FFBE020FFF79EFB72
:101B2000D020FFF789FB0020FFF786FB0220FFF79C
:101B300083FB0720FFF780FB0A20FFF77DFB2820AF
:101B4000FFF77AFB3220FFF777FB4420FFF774FBA7
:101B50004220FFF771FB0620FFF76EFB0E20FFF718
:101B60006BFB1220FFF768FB1420FFF765FB1720C3
:101B7000FFF762FBE120FFF771FBD020FFF75CFB72
:101B80000020FFF759FB0220FFF756FB0720FFF765
:101B900053FB0A20FFF750FB2820FFF74DFB3120B5
:101BA000FFF74AFB5420FFF747FB4720FFF744FBB2
:101BB0000E20FFF741FB1C20FFF73EFB1720FFF72D
:101BC0003BFB1B20FFF738FB1E20FFF735FB2A20CD
:101BD000FFF744FB0020FFF72FFB0020FFF72CFB53
:101BE0000020FFF729FBEF20FFF726FB2B20FFF754
:101BF00035FB0020FFF720FB0020FFF71DFB012035
:101C0000FFF71AFB3F20FFF717FB2920FFF726FB02
:101C100008BD08B5CF20FFF721FB0020FFF70CFB24
:101C2000C120FFF709FB3020FFF706FBED20FFF78F
:101C300015FB6420FFF700FB0320FFF7FDFA1220DD
:101C4000FFF7FAFA8120FFF7F7FAE820FFF706FB23
:101C50008520FFF7F1FA1020FFF7EEFA7A20FFF760
:101C6000EBFACB20FFF7FAFA3920FFF7E5FA2C2040
:101C7000FFF7E2FA0020FFF7DFFA3420FFF7DCFA83
:101C80000220FFF7D9FAF720FFF7E8FA2020FFF744
:101C9000D3FAEA20FFF7E2FA0020FFF7CDFA00209E
:101CA000FFF7CAFAC020FFF7D9FA1B20FFF7C4FAE2
:101CB000C120FFF7D3FA0120FFF7BEFAC520FFF7D6
:101CC000CDFA3020FFF7B8FA3020FFF7B5FAC72079
:101CD000FFF7C4FAB720FFF7AFFA3620FFF7BEFAD6
:101CE0004820FFF7A9FA3A20FFF7B8FA5520FFF786
:101CF000A3FAB120FFF7B2FA0020FFF79DFA1A20ED
:101D0000FFF79AFAB620FFF7A9FA0A20FFF794FA2C
:101D1000A220FFF791FAF220FFF7A0FA0020FFF7C8
:101D20008BFA2620FFF79AFA0120FFF785FAE020C8
:101D3000FFF794FA0F20FFF77FFA2A20FFF77CFACB
:101D40002820FFF779FA0820FFF776FA0E20FFF730
:101D500073FA0820FFF770FA5420FFF76DFAA920F4
:101D6000FFF76AFA4320FFF767FA0A20FFF764FAE1
:101D70000F20FFF761FA0020FFF75EFA0020FFF75F
:101D80005BFA0020FFF758FA0020FFF755FAE12030
:101D9000FFF764FA0020FFF74FFA1520FFF74CFA1F
:101DA0001720FFF749FA0720FFF746FA1120FFF73F
:101DB00043FA0620FFF740FA2B20FFF73DFA5620A2
:101DC000FFF73AFA3C20FFF737FA0520FFF734FA1D
:101DD0001020FFF731FA0F20FFF72EFA3F20FFF710
:101DE0002BFA3F20FFF728FA0F20FFF725FA2B20C8
:101DF000FFF734FA0020FFF71FFA0020FFF71CFA64
:101E00000120FFF719FA3F20FFF716FA2A20FFF703
:101E100025FA0020FFF710FA0020FFF70DFA002046
:101E2000FFF70AFAEF20FFF707FA1120FFF716FA7B
:101E3000782002F037FB2920FFF710FA08BD08B51B
:101E4000ED20FFF70BFA0120FFF7F6F9FE20FFF770
:101E5000F3F9EE20FFF702FADE20FFF7EDF921207B
:101E6000FFF7EAF9F120FFF7F9F90120FFF7E4F9AC
:101E7000DF20FFF7F3F91020FFF7DEF9C420FFF7AA
:101E8000EDF98F20FFF7D8F9C620FFF7E7F900201A
:101E9000FFF7D2F9E220FFF7CFF9E220FFF7CCF904
:101EA000E220FFF7C9F9BF20FFF7D8F9AA20FFF712
:101EB000C3F9B020FFF7D2F90D20FFF7BDF90020DC
:101EC000FFF7BAF90D20FFF7B7F90020FFF7B4F9D3
:101ED0001120FFF7B1F90020FFF7AEF91920FFF745
:101EE000ABF90020FFF7A8F92120FFF7A5F90020A2
:101EF000FFF7A2F92D20FFF79FF90020FFF79CF9CB
:101F00003D20FFF799F90020FFF796F95D20FFF7D4
:101F100093F90020FFF790F95D20FFF78DF900207D
:101F2000FFF78AF9B120FFF799F98020FFF784F9CC
:101F30000020FFF781F98B20FFF77EF90020FFF7E3
:101F40007BF99620FFF778F90020FFF775F9B220AA
:101F5000FFF784F90020FFF76FF90020FFF76CF915
:101F60000220FFF769F90020FFF766F90320FFF769
:101F700063F90020FFF760F9B320FFF76FF9002045
:101F8000FFF75AF90020FFF757F90020FFF754F93F
:101F90000020FFF751F90020FFF74EF90020FFF76E
:101FA0004BF90020FFF748F90020FFF745F9002022
:101FB000FFF742F90020FFF73FF90020FFF73CF957
:101FC0000020FFF739F90020FFF736F90020FFF76E
:101FD00033F90020FFF730F90020FFF72DF900203A
:101FE000FFF72AF90020FFF727F90020FFF724F96F
:101FF0000020FFF721F90020FFF71EF90020FFF76E
:102000001BF90020FFF718F90020FFF715F9B4209D
:10201000FFF724F98B20FFF70FF90020FFF70CF9E9
:102020009620FFF709F90020FFF706F9A120FFF736
:1020300003F90020FFF700F9B520FFF70FF90220A0
:10204000FFF7FAF80020FFF7F7F80320FFF7F4F89E
:102050000020FFF7F1F80420FFF7EEF80020FFF76B
:10206000EBF8B620FFF7FAF80020FFF7E5F80020BC
:10207000FFF7E2F8B720FFF7F1F80020FFF7DCF8F0
:102080000020FFF7D9F83F20FFF7D6F80020FFF730
:10209000D3F85E20FFF7D0F80020FFF7CDF86420DA
:1020A000FFF7CAF80020FFF7C7F88C20FFF7C4F845
:1020B0000020FFF7C1F8AC20FFF7BEF80020FFF7C3
:1020C000BBF8DC20FFF7B8F80020FFF7B5F8702068
:1020D000FFF7B2F80020FFF7AFF89020FFF7ACF859
:1020E0000020FFF7A9F8EB20FFF7A6F80020FFF784
:1020F000A3F8DC20FFF7A0F80020FFF79DF8B82038
:10210000FFF7ACF80020FFF797F80020FFF794F8EE
:102110000020FFF791F80020FFF78EF80020FFF76E
:102120008BF80020FFF788F80020FFF785F80020E3
:10213000FFF782F8BA20FFF791F82420FFF77CF828
:102140000020FFF779F80020FFF776F80020FFF76E
:1021500073F8C120FFF782F82020FFF76DF8002008
:10216000FFF76AF85420FFF767F80020FFF764F8DC
:10217000FF20FFF761F80020FFF75EF8C220FFF7AD
:102180006DF80A20FFF758F80020FFF755F80420F3
:10219000FFF752F80020FFF74FF8C320FFF75EF873
:1021A0003C20FFF749F80020FFF746F83A20FFF7F8
:1021B00043F80020FFF740F83920FFF73DF80020F2
:1021C000FFF73AF83720FFF737F80020FFF734F829
:1021D0003C20FFF731F80020FFF72EF83620FFF7FC
:1021E0002BF80020FFF728F83220FFF725F8002011
:1021F000FFF722F82F20FFF71FF80020FFF71CF849
:102200002C20FFF719F80020FFF716F82920FFF718
:1022100013F80020FFF710F82620FFF70DF8002034
:10222000FFF70AF82420FFF707F80020FFF704F86B
:102230002420FFF701F80020FEF7FEFF2320FEF721
:10224000FBFF0020FEF7F8FF3C20FEF7F5FF002023
:10225000FEF7F2FF3620FEF7EFFF0020FEF7ECFF5F
:102260003220FEF7E9FF0020FEF7E6FF2F20FEF701
:10227000E3FF0020FEF7E0FF2C20FEF7DDFF00204B
:10228000FEF7DAFF2920FEF7D7FF0020FEF7D4FF84
:102290002620FEF7D1FF0020FEF7CEFF2420FEF718
:1022A000CBFF0020FEF7C8FF2420FEF7C5FF00206B
:1022B000FEF7C2FF2320FEF7BFFF0020FEF7BCFFA2
:1022C000C420FEF7CBFF6220FEF7B6FF0020FEF72A
:1022D000B3FF0520FEF7B0FF0020FEF7ADFF84201E
:1022E000FEF7AAFF0020FEF7A7FFF020FEF7A4FFED
:1022F0000020FEF7A1FF1820FEF79EFF0020FEF74A
:102300009BFFA420FEF798FF0020FEF795FF182002
:10231000FEF792FF0020FEF78FFF5020FEF78CFFA4
:102320000020FEF789FF0C20FEF786FF0020FEF755
:1023300083FF1720FEF780FF0020FEF77DFF95202A
:10234000FEF77AFF0020FEF777FFF320FEF774FF19
:102350000020FEF771FFE620FEF76EFF0020FEF77B
:102360006BFFC520FEF77AFF3220FEF765FF0020E5
:10237000FEF762FF4420FEF75FFF0020FEF75CFFE0
:102380006520FEF759FF0020FEF756FF7620FEF786
:1023900053FF0020FEF750FF8820FEF74DFF00207E
:1023A000FEF74AFFC620FEF759FF2020FEF744FF44
:1023B0000020FEF741FF1720FEF73EFF0020FEF74A
:1023C0003BFF0120FEF738FF0020FEF735FFC72056
:1023D000FEF744FF0020FEF72FFF0020FEF72CFF42
:1023E0000020FEF729FF0020FEF726FFC820FEF799
:1023F00035FF0020FEF720FF0020FEF71DFF002024
:10240000FEF71AFF0020FEF717FFC920FEF726FF90
:102410000020FEF711FF0020FEF70EFF0020FEF760
:102420000BFF0020FEF708FF0020FEF705FF00204D
:10243000FEF702FF0020FEF7FFFE0020FEF7FCFE85
:102440000020FEF7F9FE0020FEF7F6FE0020FEF762
:10245000F3FE0020FEF7F0FE0020FEF7EDFE002068
:10246000FEF7EAFE0020FEF7E7FE0020FEF7E4FE9E
:10247000E020FEF7F3FE1620FEF7DEFE0020FEF75A
:10248000DBFE1C20FEF7D8FE0020FEF7D5FE212043
:10249000FEF7D2FE0020FEF7CFFE3620FEF7CCFE80
:1024A0000020FEF7C9FE4620FEF7C6FE0020FEF71C
:1024B000C3FE5220FEF7C0FE0020FEF7BDFE6420E2
:1024C000FEF7BAFE0020FEF7B7FE7A20FEF7B4FE54
:1024D0000020FEF7B1FE8B20FEF7AEFE0020FEF7D7
:1024E000ABFE9920FEF7A8FE0020FEF7A5FEA8206F
:1024F000FEF7A2FE0020FEF79FFEB920FEF79CFE2D
:102500000020FEF799FEC420FEF796FE0020FEF79D
:1025100093FECA20FEF790FE0020FEF78DFED2202B
:10252000FEF78AFE0020FEF787FED920FEF784FE24
:102530000020FEF781FEE020FEF77EFE0020FEF781
:102540007BFEF320FEF778FE0020FEF775FEE1200B
:10255000FEF784FE1620FEF76FFE0020FEF76CFEED
:102560001C20FEF769FE0020FEF766FE2220FEF723
:1025700063FE0020FEF760FE3620FEF75DFE0020C1
:10258000FEF75AFE4520FEF757FE0020FEF754FEE8
:102590005220FEF751FE0020FEF74EFE6420FEF7AB
:1025A0004BFE0020FEF748FE7A20FEF745FE002095
:1025B000FEF742FE8B20FEF73FFE0020FEF73CFEBA
:1025C0009920FEF739FE0020FEF736FEA820FEF720
:1025D00033FE0020FEF730FEB920FEF72DFE00206E
:1025E000FEF72AFEC420FEF727FE0020FEF724FE99
:1025F000CA20FEF721FE0020FEF71EFED220FEF7C5
:102600001BFE0020FEF718FED820FEF715FE002066
:10261000FEF712FEE020FEF70FFE0020FEF70CFE94
:10262000F320FEF709FE0020FEF706FEE220FEF78B
:1026300015FE0520FEF700FE0020FEF7FDFD0B2035
:10264000FEF7FAFD0020FEF7F7FD1B20FEF7F4FD74
:102650000020FEF7F1FD3420FEF7EEFD0020FEF72E
:10266000EBFD4420FEF7E8FD0020FEF7E5FD4F20DE
:10267000FEF7E2FD0020FEF7DFFD6120FEF7DCFD46
:102680000020FEF7D9FD7920FEF7D6FD0020FEF7E9
:10269000D3FD8820FEF7D0FD0020FEF7CDFD97206A
:1026A000FEF7CAFD0020FEF7C7FDA620FEF7C4FD19
:1026B0000020FEF7C1FDB720FEF7BEFD0020FEF7AB
:1026C000BBFDC220FEF7B8FD0020FEF7B5FDC72018
:1026D000FEF7B2FD0020FEF7AFFDD120FEF7ACFD06
:1026E0000020FEF7A9FDD620FEF7A6FD0020FEF78C
:1026F000A3FDDD20FEF7A0FD0020FEF79DFDF320E9
:10270000FEF79AFD0020FEF797FDE320FEF7A6FDF9
:102710000520FEF791FD0020FEF78EFD0A20FEF752
:102720008BFD0020FEF788FD1C20FEF785FD0020B4
:10273000FEF782FD3320FEF77FFD0020FEF77CFDD3
:102740004420FEF779FD0020FEF776FD5020FEF7CD
:1027500073FD0020FEF770FD6220FEF76DFD002086
:10276000FEF76AFD7820FEF767FD0020FEF764FDA6
:102770008820FEF761FD0020FEF75EFD9720FEF742
:102780005BFD0020FEF758FDA620FEF755FD00205A
:10279000FEF752FDB720FEF74FFD0020FEF74CFD7F
:1027A000C220FEF749FD0020FEF746FDC720FEF7D8
:1027B00043FD0020FEF740FDD120FEF73DFD002047
:1027C000FEF73AFDD520FEF737FD0020FEF734FD79
:1027D000DD20FEF731FD0020FEF72EFDF320FEF791
:1027E0002BFD0020FEF728FDE420FEF737FD012039
:1027F000FEF722FD0020FEF71FFD0120FEF71CFD65
:102800000020FEF719FD0220FEF716FD0020FEF75E
:1028100013FD2A20FEF710FD0020FEF70DFD3C20E1
:10282000FEF70AFD0020FEF707FD4B20FEF704FD32
:102830000020FEF701FD5D20FEF7FEFC0020FEF704
:10284000FBFC7420FEF7F8FC0020FEF7F5FC84206A
:10285000FEF7F2FC0020FEF7EFFC9320FEF7ECFC05
:102860000020FEF7E9FCA220FEF7E6FC0020FEF7C0
:10287000E3FCB320FEF7E0FC0020FEF7DDFCBE2009
:10288000FEF7DAFC0020FEF7D7FCC420FEF7D4FCEC
:102890000020FEF7D1FCCD20FEF7CEFC0020FEF795
:1028A000CBFCD320FEF7C8FC0020FEF7C5FCDD20E2
:1028B000FEF7C2FC0020FEF7BFFCF320FEF7BCFCD5
:1028C0000020FEF7B9FCE520FEF7C8FC0020FEF76B
:1028D000B3FC0020FEF7B0FC0020FEF7ADFC0020AA
:1028E000FEF7AAFC0220FEF7A7FC0020FEF7A4FCDE
:1028F0002920FEF7A1FC0020FEF79EFC3C20FEF7FD
:102900009BFC0020FEF798FC4B20FEF795FC002076
:10291000FEF792FC5D20FEF78FFC0020FEF78CFC9A
:102920007420FEF789FC0020FEF786FC8420FEF769
:1029300083FC0020FEF780FC9320FEF77DFC002046
:10294000FEF77AFCA220FEF777FC0020FEF774FC6D
:10295000B320FEF771FC0020FEF76EFCBE20FEF7F0
:102960006BFC0020FEF768FCC420FEF765FC00202D
:10297000FEF762FCCD20FEF75FFC0020FEF75CFC5A
:10298000D320FEF759FC0020FEF756FCDC20FEF7B2
:1029900053FC0020FEF750FCF320FEF74DFC002016
:1029A000FEF74AFCE620FEF759FC1120FEF744FC36
:1029B0000020FEF741FC3420FEF73EFC0020FEF72D
:1029C0003BFC5620FEF738FC0020FEF735FC762055
:1029D000FEF732FC0020FEF72FFC7720FEF72CFCE0
:1029E0000020FEF729FC6620FEF726FC0020FEF7FB
:1029F00023FC8820FEF720FC0020FEF71DFC992018
:102A0000FEF71AFC0020FEF717FCBB20FEF714FCB3
:102A10000020FEF711FC9920FEF70EFC0020FEF7C7
:102A20000BFC6620FEF708FC0020FEF705FC552095
:102A3000FEF702FC0020FEF7FFFB5520FEF7FCFB33
:102A40000020FEF7F9FB4520FEF7F6FB0020FEF71D
:102A5000F3FB4320FEF7F0FB0020FEF7EDFB4420E4
:102A6000FEF7EAFB0020FEF7E7FBE720FEF7F6FBA8
:102A70003220FEF7E1FB0020FEF7DEFB5520FEF7DB
:102A8000DBFB0020FEF7D8FB7620FEF7D5FB00200D
:102A9000FEF7D2FB6620FEF7CFFB0020FEF7CCFB53
:102AA0006720FEF7C9FB0020FEF7C6FB6720FEF794
:102AB000C3FB0020FEF7C0FB8720FEF7BDFB002014
:102AC000FEF7BAFB9920FEF7B7FB0020FEF7B4FB38
:102AD000BB20FEF7B1FB0020FEF7AEFB9920FEF70E
:102AE000ABFB0020FEF7A8FB7720FEF7A5FB00203C
:102AF000FEF7A2FB4420FEF79FFB0020FEF79CFBA5
:102B00005620FEF799FB0020FEF796FB2320FEF7E8
:102B100093FB0020FEF790FB3320FEF78DFB002097
:102B2000FEF78AFB4520FEF787FB0020FEF784FBBB
:102B3000E820FEF793FB0020FEF77EFB0020FEF767
:102B40007BFB9920FEF778FB0020FEF775FB8720C2
:102B5000FEF772FB0020FEF76FFB8820FEF76CFB90
:102B60000020FEF769FB7720FEF766FB0020FEF7EA
:102B700063FB6620FEF760FB0020FEF75DFB88200C
:102B8000FEF75AFB0020FEF757FBAA20FEF754FB86
:102B90000020FEF751FBBB20FEF74EFB0020FEF7A6
:102BA0004BFB9920FEF748FB0020FEF745FB662013
:102BB000FEF742FB0020FEF73FFB5520FEF73CFBF3
:102BC0000020FEF739FB5520FEF736FB0020FEF70C
:102BD00033FB4420FEF730FB0020FEF72DFB4420A2
:102BE000FEF72AFB0020FEF727FB5520FEF724FB0B
:102BF0000020FEF721FBE920FEF730FBAA20FEF7BC
:102C00001BFB0020FEF718FB0020FEF715FB002041
:102C1000FEF712FB0020FEF721FBAA20FEF70CFBBB
:102C2000CF20FEF71BFB0020FEF706FB0020FEF77F
:102C300003FB0020FEF700FB0020FEF7FDFA00205A
:102C4000FEF7FAFA0020FEF7F7FA0020FEF7F4FA92
:102C50000020FEF7F1FA0020FEF7EEFA0020FEF762
:102C6000EBFA0020FEF7E8FA0020FEF7E5FA002074
:102C7000FEF7E2FA0020FEF7DFFA0020FEF7DCFAAA
:102C80000020FEF7D9FA0020FEF7D6FAF020FEF772
:102C9000E5FA0020FEF7D0FA5020FEF7CDFA00202A
:102CA000FEF7CAFA0020FEF7C7FA0020FEF7C4FAC2
:102CB000F320FEF7D3FA0020FEF7BEFAF920FEF764
:102CC000CDFA0620FEF7B8FA1020FEF7B5FA292053
:102CD000FEF7B2FA0020FEF7AFFA3A20FEF7BEFA8E
:102CE0005520FEF7A9FA1120FEF7B8FA642001F08A
:102CF000D9FB2920FEF7B2FA3520FEF7AFFA002003
:102D0000FEF79AFA5120FEF7A9FAFF20FEF794FA8F
:102D10005320FEF7A3FA2C20FEF78EFA5520FEF77B
:102D20009DFA8220FEF788FA2C20FEF797FA08BD5C
:102D300008B555214FF47040FEF7A2FAAA214FF2D0
:102D40000100FEF79DFA52214FF20200FEF798FAB9
:102D500008214FF20300FEF793FA01214FF204001D
:102D6000FEF78EFA0D214FF43040FEF789FA0D215F
:102D70004BF20100FEF784FA0D214BF20200FEF740
:102D80007FFA34214FF43640FEF77AFA34214BF2C1
:102D90000160FEF775FA34214BF20260FEF770FA1B
:102DA0000D214FF43140FEF76BFA0D214BF201106B
:102DB000FEF766FA0D214BF20210FEF761FA34219C
:102DC0004FF43740FEF75CFA34214BF20170FEF706
:102DD00057FA34214BF20270FEF752FA00214FF4F9
:102DE0003240FEF74DFA00214BF20120FEF748FA7F
:102DF00000214BF20220FEF743FA24214FF4384021
:102E0000FEF73EFA24214BF60100FEF739FA2421A1
:102E10004BF60200FEF734FA01214FF43F40FEF773
:102E20002FFA0F214FF43340FEF72AFA0F214BF20D
:102E30000130FEF725FA0F214BF20230FEF720FA9F
:102E400034214FF43940FEF71BFA34214BF60110C0
:102E5000FEF716FA34214BF60210FEF711FA08219C
:102E60004FF43540FEF70CFA08214BF20150FEF703
:102E700007FA08214BF20250FEF702FA03214FF441
:102E80004240FEF7FDF924214FF43A40FEF7F8F9ED
:102E900024214BF60120FEF7F3F924214BF6022002
:102EA000FEF7EEF900214FF43C40FEF7E9F97821F6
:102EB0004BF60140FEF7E4F900214BF60240FEF725
:102EC000DFF900214FF43D40FEF7DAF978214BF6A7
:102ED0000150FEF7D5F900214BF60250FEF7D0F96C
:102EE00000214FF43E40FEF7CBF964214BF6016020
:102EF000FEF7C6F900214FF45140FEF7C1F9332126
:102F00004DF20110FEF7BCF900214DF20210FEF760
:102F1000B7F934214DF20310FEF7B2F900214DF25A
:102F20000410FEF7ADF93A214DF20510FEF7A8F9AD
:102F300000214DF20610FEF7A3F94A214DF20710C9
:102F4000FEF79EF900214DF20810FEF799F95C2179
:102F50004DF20910FEF794F900214DF20A10FEF728
:102F60008FF981214DF20B10FEF78AF900214DF205
:102F70000C10FEF785F9A6214DF20D10FEF780F931
:102F800000214DF20E10FEF77BF9E5214DF20F10F6
:102F9000FEF776F901214DF21010FEF771F91321B9
:102FA0004DF21110FEF76CF901214DF21210FEF7EF
:102FB00067F954214DF21310FEF762F901214DF229
:102FC0001410FEF75DF982214DF21510FEF758F945
:102FD00001214DF21610FEF753F9CA214DF21710D8
:102FE000FEF74EF902214DF21810FEF749F90021C3
:102FF0004DF21910FEF744F902214DF21A10FEF7B6
:103000003FF901214DF21B10FEF73AF902214DF272
:103010001C10FEF735F934214DF21D10FEF730F982
:1030200002214DF21E10FEF72BF967214DF21F1001
:10303000FEF726F902214DF22010FEF721F9842136
:103040004DF22110FEF71CF902214DF22210FEF77D
:1030500017F9A4214DF22310FEF712F902214DF2C7
:103060002410FEF70DF9B7214DF22510FEF708F9EF
:1030700002214DF22610FEF703F9CF214DF2271061
:10308000FEF7FEF802214DF22810FEF7F9F8DE21D6
:103090004DF22910FEF7F4F802214DF22A10FEF746
:1030A000EFF8F2214DF22B10FEF7EAF802214DF273
:1030B0002C10FEF7E5F8FE214DF22D10FEF7E0F89A
:1030C00003214DF22E10FEF7DBF810214DF22F10E8
:1030D000FEF7D6F803214DF23010FEF7D1F8332178
:1030E0004DF23110FEF7CCF803214DF23210FEF70D
:1030F000C7F86D214DF23310FEF7C2F800214FF4EE
:103100005240FEF7BDF833214DF20120FEF7B8F82A
:1031100000214DF20220FEF7B3F834214DF20320D6
:10312000FEF7AEF800214DF20420FEF7A9F83A218F
:103130004DF20520FEF7A4F800214DF20620FEF71F
:103140009FF84A214DF20720FEF79AF800214DF230
:103150000820FEF795F85C214DF20920FEF790F863
:1031600000214DF20A20FEF78BF881214DF20B2051
:10317000FEF786F800214DF20C20FEF781F8A6211B
:103180004DF20D20FEF77CF800214DF20E20FEF7E7
:1031900077F8E5214DF20F20FEF772F801214DF28C
:1031A0001020FEF76DF813214DF21120FEF768F89C
:1031B00001214DF21220FEF763F854214DF2132045
:1031C000FEF75EF801214DF21420FEF759F8822136
:1031D0004DF21520FEF754F801214DF21620FEF7AE
:1031E0004FF8CA214DF21720FEF74AF802214DF29E
:1031F0001820FEF745F800214DF21920FEF740F89F
:1032000002214DF21A20FEF73BF801214DF21B205E
:10321000FEF736F802214DF21C20FEF731F834217A
:103220004DF21D20FEF72CF802214DF21E20FEF774
:1032300027F867214DF21F20FEF722F802214DF2F8
:103240002020FEF71DF884214DF22120FEF718F80A
:1032500002214DF22220FEF713F8A4214DF2232083
:10326000FEF70EF802214DF22420FEF709F8B721EF
:103270004DF22520FEF704F802214DF22620FDF73D
:10328000FFFFCF214DF22720FDF7FAFF02214DF27B
:103290002820FDF7F5FFDE214DF22920FDF7F0FF94
:1032A00002214DF22A20FDF7EBFFF2214DF22B20F7
:1032B000FDF7E6FF02214DF22C20FDF7E1FFFE2194
:1032C0004DF22D20FDF7DCFF03214DF22E20FDF7FE
:1032D000D7FF10214DF22F20FDF7D2FF03214DF231
:1032E0003020FDF7CDFF33214DF23120FDF7C8FF2F
:1032F00003214DF23220FDF7C3FF6D214DF2332043
:10330000FDF7BEFF00214FF45340FDF7B9FF332115
:103310004DF20130FDF7B4FF00214DF20230FDF710
:10332000AFFF34214DF20330FDF7AAFF00214DF22B
:103330000430FDF7A5FF3A214DF20530FDF7A0FF5F
:1033400000214DF20630FDF79BFF4A214DF2073078
:10335000FDF796FF00214DF20830FDF791FF5C214B
:103360004DF20930FDF78CFF00214DF20A30FDF7D8
:1033700087FF81214DF20B30FDF782FF00214DF2D6
:103380000C30FDF77DFFA6214DF20D30FDF778FFE3
:1033900000214DF20E30FDF773FFE5214DF20F30A5
:1033A000FDF76EFF01214DF21030FDF769FF13218B
:1033B0004DF21130FDF764FF01214DF21230FDF79F
:1033C0005FFF54214DF21330FDF75AFF01214DF2FA
:1033D0001430FDF755FF82214DF21530FDF750FFF7
:1033E00001214DF21630FDF74BFFCA214DF2173087
:1033F000FDF746FF02214DF21830FDF741FF002195
:103400004DF21930FDF73CFF02214DF21A30FDF765
:1034100037FF01214DF21B30FDF732FF02214DF243
:103420001C30FDF72DFF34214DF21D30FDF728FF34
:1034300002214DF21E30FDF723FF67214DF21F30B0
:10344000FDF71EFF02214DF22030FDF719FF842108
:103450004DF22130FDF714FF02214DF22230FDF72D
:103460000FFFA4214DF22330FDF70AFF02214DF298
:103470002430FDF705FFB7214DF22530FDF700FFA1
:1034800002214DF22630FDF7FBFECF214DF2273011
:10349000FDF7F6FE02214DF22830FDF7F1FEDE21A8
:1034A0004DF22930FDF7ECFE02214DF22A30FDF7F6
:1034B000E7FEF2214DF22B30FDF7E2FE02214DF244
:1034C0002C30FDF7DDFEFE214DF22D30FDF7D8FE4C
:1034D00003214DF22E30FDF7D3FE10214DF22F3097
:1034E000FDF7CEFE03214DF23030FDF7C9FE33214A
:1034F0004DF23130FDF7C4FE03214DF23230FDF7BD
:10350000BFFE6D214DF23330FDF7BAFE00214FF4BE
:103510005440FDF7B5FE33214DF20140FDF7B0FEFA
:1035200000214DF20240FDF7ABFE34214DF2034085
:10353000FDF7A6FE00214DF20440FDF7A1FE3A2161
:103540004DF20540FDF79CFE00214DF20640FDF7CF
:1035500097FE4A214DF20740FDF792FE00214DF201
:103560000840FDF78DFE5C214DF20940FDF788FE15
:1035700000214DF20A40FDF783FE81214DF20B4000
:10358000FDF77EFE00214DF20C40FDF779FEA621ED
:103590004DF20D40FDF774FE00214DF20E40FDF797
:1035A0006FFEE5214DF20F40FDF76AFE01214DF25D
:1035B0001040FDF765FE13214DF21140FDF760FE4E
:1035C00001214DF21240FDF75BFE54214DF21340F4
:1035D000FDF756FE01214DF21440FDF751FE822108
:1035E0004DF21540FDF74CFE01214DF21640FDF75E
:1035F00047FECA214DF21740FDF742FE02214DF26F
:103600001840FDF73DFE00214DF21940FDF738FE50
:1036100002214DF21A40FDF733FE01214DF21B400D
:10362000FDF72EFE02214DF21C40FDF729FE34214C
:103630004DF21D40FDF724FE02214DF21E40FDF724
:103640001FFE67214DF21F40FDF71AFE02214DF2C9
:103650002040FDF715FE84214DF22140FDF710FEBC
:1036600002214DF22240FDF70BFEA4214DF2234032
:10367000FDF706FE02214DF22440FDF701FEB721C1
:103680004DF22540FDF7FCFD02214DF22640FDF7ED
:10369000F7FDCF214DF22740FDF7F2FD02214DF25B
:1036A0002840FDF7EDFDDE214DF22940FDF7E8FD54
:1036B00002214DF22A40FDF7E3FDF2214DF22B40AD
:1036C000FDF7DEFD02214DF22C40FDF7D9FDFE2174
:1036D0004DF22D40FDF7D4FD03214DF22E40FDF7B4
:1036E000CFFD10214DF22F40FDF7CAFD03214DF211
:1036F0003040FDF7C5FD33214DF23140FDF7C0FDEF
:1037000003214DF23240FDF7BBFD6D214DF23340F8
:10371000FDF7B6FD00214FF45540FDF7B1FD332113
:103720004DF20150FDF7ACFD00214DF20250FDF7C6
:10373000A7FD34214DF20350FDF7A2FD00214DF20B
:103740000450FDF79DFD3A214DF20550FDF798FD1F
:1037500000214DF20650FDF793FD4A214DF207502E
:10376000FDF78EFD00214DF20850FDF789FD5C212B
:103770004DF20950FDF784FD00214DF20A50FDF78E
:103780007FFD81214DF20B50FDF77AFD00214DF2B6
:103790000C50FDF775FDA6214DF20D50FDF770FDA3
:1037A00000214DF20E50FDF76BFDE5214DF20F505B
:1037B000FDF766FD01214DF21050FDF761FD13216B
:1037C0004DF21150FDF75CFD01214DF21250FDF755
:1037D00057FD54214DF21350FDF752FD01214DF2DA
:1037E0001450FDF74DFD82214DF21550FDF748FDB7
:1037F00001214DF21650FDF743FDCA214DF217503D
:10380000FDF73EFD02214DF21850FDF739FD002174
:103810004DF21950FDF734FD02214DF21A50FDF71B
:103820002FFD01214DF21B50FDF72AFD02214DF223
:103830001C50FDF725FD34214DF21D50FDF720FDF4
:1038400002214DF21E50FDF71BFD67214DF21F5066
:10385000FDF716FD02214DF22050FDF711FD8421E8
:103860004DF22150FDF70CFD02214DF22250FDF7E3
:1038700007FDA4214DF22350FDF702FD02214DF278
:103880002450FDF7FDFCB7214DF22550FDF7F8FC63
:1038900002214DF22650FDF7F3FCCF214DF22750C7
:1038A000FDF7EEFC02214DF22850FDF7E9FCDE2188
:1038B0004DF22950FDF7E4FC02214DF22A50FDF7AC
:1038C000DFFCF2214DF22B50FDF7DAFC02214DF224
:1038D0002C50FDF7D5FCFE214DF22D50FDF7D0FC0C
:1038E00003214DF22E50FDF7CBFC10214DF22F504D
:1038F000FDF7C6FC03214DF23050FDF7C1FC33212A
:103900004DF23150FDF7BCFC03214DF23250FDF772
:10391000B7FC6D214DF23350FDF7B2FC00214FF49E
:103920005640FDF7ADFC33214DF20160FDF7A8FCD8
:1039300000214DF20260FDF7A3FC34214DF203603B
:10394000FDF79EFC00214DF20460FDF799FC3A2141
:103950004DF20560FDF794FC00214DF20660FDF785
:103960008FFC4A214DF20760FDF78AFC00214DF2E1
:103970000860FDF785FC5C214DF20960FDF780FCD5
:1039800000214DF20A60FDF77BFC81214DF20B60B6
:10399000FDF776FC00214DF20C60FDF771FCA621CD
:1039A0004DF20D60FDF76CFC00214DF20E60FDF74D
:1039B00067FCE5214DF20F60FDF762FC01214DF23D
:1039C0001060FDF75DFC13214DF21160FDF758FC0E
:1039D00001214DF21260FDF753FC54214DF21360AA
:1039E000FDF74EFC01214DF21460FDF749FC8221E8
:1039F0004DF21560FDF744FC01214DF21660FDF714
:103A00003FFCCA214DF21760FDF73AFC02214DF24E
:103A10001860FDF735FC00214DF21960FDF730FC10
:103A200002214DF21A60FDF72BFC01214DF21B60C3
:103A3000FDF726FC02214DF21C60FDF721FC34212C
:103A40004DF21D60FDF71CFC02214DF21E60FDF7DA
:103A500017FC67214DF21F60FDF712FC02214DF2A9
:103A60002060FDF70DFC84214DF22160FDF708FC7C
:103A700002214DF22260FDF703FCA4214DF22360E8
:103A8000FDF7FEFB02214DF22460FDF7F9FBB721A3
:103A90004DF22560FDF7F4FB02214DF22660FDF7A3
:103AA000EFFBCF214DF22760FDF7EAFB02214DF23B
:103AB0002860FDF7E5FBDE214DF22960FDF7E0FB14
:103AC00002214DF22A60FDF7DBFBF2214DF22B6063
:103AD000FDF7D6FB02214DF22C60FDF7D1FBFE2154
:103AE0004DF22D60FDF7CCFB03214DF22E60FDF76A
:103AF000C7FB10214DF22F60FDF7C2FB03214DF2F1
:103B00003060FDF7BDFB33214DF23160FDF7B8FBAE
:103B100003214DF23260FDF7B3FB6D214DF23360AE
:103B2000FDF7AEFB55214FF47040FDF7A9FBAA212C
:103B30004FF20100FDF7A4FB52214FF20200FDF706
:103B40009FFB08214FF20300FDF79AFB00214FF283
:103B50000400FDF795FBCC214FF43140FDF790FBBD
:103B600000214BF20110FDF78BFB05214FF436408D
:103B7000FDF786FB70214FF43740FDF781FB702184
:103B80004BF20170FDF77CFB01214FF43840FDF74B
:103B900077FB03214BF60100FDF772FB03214BF687
:103BA0000200FDF76DFB03214BF60300FDF768FBF8
:103BB00002214FF43C40FDF763FB00214BF601402E
:103BC000FDF75EFB00214BF60240FDF759FBD021CB
:103BD0004FF44940FDF754FB02214CF60110FDF76C
:103BE0004FFB50214CF60210FDF74AFB50214CF6DA
:103BF0000310FDF745FB50214CF60410FDF740FB88
:103C000000214FF45450FDF73BFB55214FF4685011
:103C1000FDF736FB4FF48850FDF720FB7820FDF7C9
:103C20001DFF4FF42450FDF719FB08BD08B5E22035
:103C3000FDF714FB1D20FDF7FFFA0220FDF7FCFA4B
:103C40000420FDF7F9FA6420FDF708FFE020FDF7F6
:103C500005FB0120FDF7F0FA0A2000F023FCE0202C
:103C6000FDF7FCFA0320FDF7E7FA0C2000F01AFC40
:103C70000120FDF7F3FA0A2000F014FCE620FDF71E
:103C8000EDFA2F20FDF7D8FAFF20FDF7D5FAFF2037
:103C9000FDF7D2FAB020FDF7E1FA2020FDF7CCFACB
:103CA0000020FDF7C9FA0320FDF7C6FA40F21F30E5
:103CB000FDF7C2FA0120FDF7BFFA40F2DF10FDF771
:103CC000BBFA0020FDF7B8FAB420FDF7C7FA0420CC
:103CD000FDF7B2FA40F21F40FDF7AEFA0020FDF703
:103CE000ABFA2E20FDF7A8FA0020FDF7A5FA002078
:103CF000FDF7A2FA0020FDF79FFA0020FDF79CFADD
:103D0000B620FDF7ABFA0220FDF796FA4FF40370E8
:103D1000FDF792FA0020FDF78FFA1720FDF78CFAD5
:103D20001520FDF789FA0020FDF786FA0020FDF73F
:103D300083FAF020FDF792FA0320FDF77DFA29209F
:103D4000FDF78CFAD020FDF789FA0020FDF774FA10
:103D5000BE20FDF783FA0520FDF76EFAFE20FDF781
:103D60006BFA0120FDF768FA0020FDF765FA0020E4
:103D7000FDF762FA0020FDF75FFAB820FDF76EFA52
:103D80000320FDF759FA0120FDF756FABA20FDF796
:103D900065FA0120FDF750FA08BD000008B5026879
:103DA000034B9A4200D008BD00F06AFBFBE700BF5E
:103DB000002C014072B6FEE700B591B02822002128
:103DC00006A802F0C7FC0023019302930393049317
:103DD0000593012206924FF4803307930A92022240
:103DE0000D920E934FF4E0130F9306A800F002FD1E
:103DF00080B90F23019302210291002303934FF412
:103E000080620492059301A800F034FF20B911B03C
:103E10005DF804FBFFF7CEFFFFF7CCFF08B500F01D
:103E20001DFBFFF7C9FFFDF7A3F900F07FF900F0D4
:103E3000D3F900F029FA00F07FFAFDF747F9FDF712
:103E400085FCFDF72FFA4FF6FF70FDF765FCFDF7D7
:103E5000B9F801F09FFDFEE700B583B0114B9A69F8
:103E600042F001029A619A6902F001020092009AFE
:103E7000DA6942F08052DA61DB6903F08053019322
:103E8000019B00220F216FF0010000F031FB064A78
:103E9000536823F0E06343F00073536003B05DF8B0
:103EA00004FB00BF001002400000014000B589B0D3
:103EB00001460022192000F01BFB192000F050FBE6
:103EC000144B9A6942F400629A619B6903F400639F
:103ED0000193019B02A903A800F0A8FF00F096FF40
:103EE0000D4BA3FB00239B0C013B0C480C4A0260CA
:103EF00040F2E732C260436000230361836001F057
:103F0000F1F918B1012009B05DF804FB034801F094
:103F10009FF8F8E70010024083DE1B43E00C00200E
:103F2000002C0140FEE7FEE7FEE7FEE7FEE77047F4
:103F300008B5024801F0CDF808BD00BFE00C002034
:103F40000120704708B502F0DBFB162303604FF039
:103F5000FF3008BD08B54FF0FF31FFF7F3FFFEE774
:103F600070B50C461646002506E0AFF300802146EA
:103F700001F8010B01350C46B542F6DB304670BD49
:103F800070B50C461646002504E014F8010BAFF39B
:103F900000800135B542F8DB304670BD08B50346F8
:103FA0000B4A126842B10A4A106803446A469342B7
:103FB00006D8074A136008BD054A06491160F2E7B2
:103FC00002F09EFB0C2303604FF0FF30F3E700BFCD
:103FD000280D0020E01B00204FF0FF3070474FF409
:103FE00000534B600020704701207047002070474D
:103FF0007047000084B00368B3F1804F07D0154AC2
:10400000934210D0144A934218D004B0704703F57D
:104010000433DA6942F00102DA61DB6903F001037B
:104020000193019BF1E70D4BDA6942F00202DA617C
:10403000DB6903F002030293029BE6E7074BDA69B0
:1040400042F00402DA61DB6903F004030393039B8B
:10405000DBE700BF00040040000800400010024001
:1040600000B589B000230493059306930793036872
:10407000B3F1804F08D0274A93421AD0264A934280
:104080002BD009B05DF804FB03F504339A6942F0C4
:1040900004029A619B6903F004030193019B0123CD
:1040A000049302230593079304A91C4800F066FAC1
:1040B000E7E71B4B9A6942F004029A619B6903F09F
:1040C00004030293029B4023049302230593079366
:1040D00004A9124800F052FAD3E7114B9A6942F052
:1040E00020029A619B6903F020030393039B4FF422
:1040F0008053049302230593079304A9094800F011
:104100003DFA094A536843F0E06343F48053536037
:10411000B7E700BF0004004000080040000801406D
:1041200000100240001401400000014000B58FB0B3
:1041300000230A930B930C930D9308930993019317
:1041400002930393049305930693079321484FF03A
:104150008042026047224260836040F2F312C260F4
:1041600003618023836101F0BDF820BB4FF48053CD
:104170000A930AA9174801F0B9F9F8B9154801F0EE
:10418000DDF8F0B900230893099308A9114801F05C
:104190001BFAC8B960230193002202920392059290
:1041A00001A90C4801F02EF988B90A48FFF758FF19
:1041B0000FB05DF804FBFFF7FDFDD7E7FFF7FAFD51
:1041C000DCE7FFF7F7FDDDE7FFF7F4FDE2E7FFF7D8
:1041D000F1FDEAE72C0D002000B58FB000230A9313
:1041E0000B930C930D9308930993019302930393FC
:1041F00004930593069307932148224A02601722ED
:10420000426083604EF66022C26003618023836156
:1042100001F068F820BB4FF480530A930AA91848AC
:1042200001F064F9F8B9164801F088F8F0B90023F4
:104230000893099308A9124801F0C6F9C8B9602388
:104240000193002202920392059201A90C4801F009
:10425000D9F888B90A48FFF703FF0FB05DF804FBEF
:10426000FFF7A8FDD7E7FFF7A5FDDCE7FFF7A2FD05
:10427000DDE7FFF79FFDE2E7FFF79CFDEAE700BF00
:10428000740D00200004004000B58FB000230A9395
:104290000B930C930D93089309930193029303934B
:1042A00004930593069307932148224A026047220C
:1042B0004260836040F2F312C26003618023836135
:1042C00001F010F820BB4FF480530A930AA9184854
:1042D00001F00CF9F8B9164801F030F8F0B90023F4
:1042E0000893099308A9124801F06EF9C8B9602330
:1042F0000193002202920392059201A90C4801F059
:1043000081F888B90A48FFF7ABFE0FB05DF804FBEF
:10431000FFF750FDD7E7FFF74DFDDCE7FFF74AFD5C
:10432000DDE7FFF747FDE2E7FFF744FDEAE700BFFF
:10433000BC0D00200008004008B50A480A4B036085
:104340004FF4E133436000238360C36003610C22B8
:1043500042618361C36101F0F7F900B908BDFFF75D
:1043600029FDFBE7040E00200038014010B586B09F
:10437000002302930393049305930268174B9A4218
:1043800001D006B010BD03F558439A6942F480424B
:104390009A619A6902F480420092009A9A6942F006
:1043A00004029A619B6903F004030193019B4FF49B
:1043B000007302930223039303230593084C02A97D
:1043C000204600F0DBF84FF4806302930023039350
:1043D000049302A9204600F0D1F8D2E7003801404A
:1043E000000801400FB400B593B00DF1500C8CE8FB
:1043F0000F00EFF305835BB34FF0500383F3118895
:10440000BFF36F8FBFF34F8F26AA0192259902A8A1
:1044100002F020FA02A802F0EFF9642382B202A9A6
:1044200014A801F0C0F9EFF3058313B1002383F35F
:10443000118813B05DF804EB04B070474FF0E0232F
:104440004FF08052C3F8042DBFF34F8FBFF36F8F2F
:1044500014A801F014FA2128F0D0D5E708B5074ACE
:10446000136843F010031360032000F02FF80020BE
:10447000FFF71CFDFFF7F0FC002008BD0020024004
:10448000034A1168034B1B780B441360704700BF4D
:10449000480E002004000020014B1868704700BF40
:1044A000480E002038B50446FFF7F6FF0546B4F184
:1044B000FF3F02D0044B1B781C44FFF7EDFF401B6D
:1044C000A042FAD338BD00BF04000020074AD368D9
:1044D00023F4E0631B041B0C000200F4E0600343C0
:1044E00043F0BF6343F40033D360704700ED00E056
:1044F00000B5194BDB68C3F30223C3F1070CBCF111
:10450000040F28BF4FF0040C03F1040EBEF1060F98
:1045100018D9033B4FF0FF3E0EFA0CFC21EA0C01C8
:1045200099400EFA03F322EA0303194300280BDB38
:104530000901C9B200F1604000F5614080F8001344
:104540005DF804FB0023E5E700F00F000901C9B2A4
:10455000024B1954F4E700BF00ED00E014ED00E059
:10456000002807DB00F01F02400901239340024AA4
:1045700042F82030704700BF00E100E070B582B023
:104580000024A446B0E0874DAA4210D007D9864D3A
:10459000AA420CD005F58035AA4208D013E0A5F553
:1045A0008015AA4203D005F57025AA4207D18A6872
:1045B000002A62D0012A5BD04361082403E0A5F5FC
:1045C0008015AA42F3D0BEF1FF0F58D80646BEF1BF
:1045D000FF0F56D84FEA8C0233680F25954023EA27
:1045E000050304FA02F2134333604B6813F0805F53
:1045F00078D06E4B9A6942F001029A619B6903F090
:1046000001030193019B4FEA9C02951C684B53F8F0
:1046100025600CF003039D000F23AB4026EA030640
:10462000644B984233D003F58063984200F0988041
:1046300003F58063984200F0958003F5806398420B
:1046400000F0928003F58063984200F08F8003F5BC
:104650008063984219D006231AE0CC68B3E7CC688F
:104660000434B0E7CC680834ADE7CC680C34AAE772
:1046700003610824A7E70024A5E70424A3E7061D97
:10468000A5E7ACF108029200A6E7052300E00023AD
:10469000AB4033430232464D45F822304B6813F4A9
:1046A000803F65D0444A136843EA0E0313604B68A9
:1046B00013F4003F62D0404A536843EA0E0353604C
:1046C0004B6813F4801F5FD03B4A936843EA0E03A4
:1046D00093604B6813F4001F5CD0374AD36843EAF9
:1046E0000E03D3600CF1010C0A6832FA0CF357D0B8
:1046F000012303FA0CF302EA030E33EA0202F1D1BA
:104700004A68122A3FF63FAF122A3FF65CAF01A576
:1047100055F822F0AF4500085B46000865460008E2
:1047200077460008C7450008C7450008C745000888
:10473000C7450008C7450008C7450008C745000829
:10474000C7450008C7450008C7450008C745000819
:10475000C7450008C74500085F4600086B460008CB
:10476000012395E7022393E7032391E704238FE7CF
:10477000114A136823EA0E03136098E70E4A536840
:1047800023EA0E0353609BE70B4A936823EA0E0368
:1047900093609EE7084AD36823EA0E03D360A1E73B
:1047A00002B070BD00002210000031100010024065
:1047B0000000014000080140000401400AB101610D
:1047C000704709040161704782B0084B1B68084AB2
:1047D000A2FB03235B0A00FB03F3019300BF019BD1
:1047E0005A1E0192002BF9D102B070470000002040
:1047F000D34D6210002800F0F18170B582B00446FC
:10480000036813F0010F2CD0994B5B6803F00C0385
:10481000042B1DD0964B5B6803F00C03082B12D0C1
:104820006368B3F5803F41D0002B55D103F180433D
:1048300003F504331A6822F480321A601A6822F4ED
:1048400080221A6037E08A4B5B6813F4803FE7D020
:10485000874B1B6813F4003F03D06368002B00F004
:10486000BF81236813F0020F75D0814B5B6813F092
:104870000C0F5FD07E4B5B6803F00C03082B54D009
:104880002369002B00F08A807A4B01221A60FFF71F
:1048900003FE0546764B1B6813F0020F75D1FFF738
:1048A000FBFD401B0228F5D903209EE1704A1368E6
:1048B00043F480331360636843B3FFF7EDFD0546AF
:1048C0006B4B1B6813F4003FCBD1FFF7E5FD401B9A
:1048D0006428F5D9032088E1B3F5A02F09D0644BF3
:1048E0001A6822F480321A601A6822F480221A6050
:1048F000E1E703F18043A3F53C331A6842F48022D8
:104900001A601A6842F480321A60D4E7FFF7C4FDD7
:104910000546574B1B6813F4003FA2D0FFF7BCFDC0
:10492000401B6428F5D903205FE1514B5B6813F409
:10493000803FA5D14E4B1B6813F0020F03D02369B3
:10494000012B40F04F814A4A136823F0F803616954
:1049500043EAC1031360236813F0080F33D0A3693F
:10496000002B5CD0434B0122C3F88024FFF794FD59
:1049700005463F4B5B6A13F0020F21D1FFF78CFD18
:10498000401B0228F5D903202FE1394A136823F090
:10499000F803616943EAC1031360DCE7354B002289
:1049A0001A60FFF779FD0546314B1B6813F0020FC3
:1049B000D1D0FFF771FD401B0228F5D9032014E187
:1049C0000120FFF701FF236813F0040F00F0968029
:1049D000274BDB6913F0805F34D1254BDA6942F055
:1049E0008052DA61DB6903F080530193019B01255A
:1049F000214B1B6813F4807F26D0E368012B3DD048
:104A0000002B53D103F1804303F504331A6A22F0DB
:104A100001021A621A6A22F004021A6233E0154B8C
:104A20000022C3F88024FFF737FD0546104B5B6A70
:104A300013F0020FC7D0FFF72FFD401B0228F5D956
:104A40000320D2E00025D3E70B4A136843F48073B8
:104A50001360FFF721FD0646074B1B6813F4807FA8
:104A6000CBD1FFF719FD801B6428F5D90320BCE0EA
:104A70000010024000004242007000405F4A136A8A
:104A800043F001031362E36833B3FFF705FD064605
:104A90005A4B1B6A13F0020F2FD1FFF7FDFC801B4E
:104AA00041F288339842F3D903209EE0052B09D0C8
:104AB000524B1A6A22F001021A621A6A22F00402A8
:104AC0001A62E0E74D4B1A6A42F004021A621A6A4F
:104AD00042F001021A62D6E7FFF7DEFC0646474BBA
:104AE0001B6A13F0020F08D0FFF7D6FC801B41F2BF
:104AF00088339842F3D9032077E0E5B9E369002BC6
:104B000072D03E4A526802F00C02082A56D0022B9C
:104B100017D03B4B00221A66FFF7BEFC0446374B0A
:104B20001B6813F0007F47D0FFF7B6FC001B02287C
:104B3000F5D9032059E0314AD36923F08053D3617A
:104B4000DCE72F4B00221A66FFF7A6FC05462B4B2D
:104B50001B6813F0007F06D0FFF79EFC401B022865
:104B6000F5D9032041E0236AB3F5803F1AD02349E9
:104B70004B6823F47413226A606A024313434B6048
:104B80001F4B01221A66FFF787FC04461B4B1B686C
:104B900013F0007F0ED1FFF77FFC001B0228F5D930
:104BA000032022E0154A536823F40033A1680B4325
:104BB0005360DCE7002018E0002016E0012B16D03F
:104BC0000E4B5B6803F48031226A914211D103F4E9
:104BD0007013626A93420ED1002006E001207047F4
:104BE000012002E0012000E0002002B070BD0120A1
:104BF000FBE70120F9E70120F7E700BF00100240C2
:104C00000000424286B0174B0FCB0DF1180C0CE997
:104C10000F0040F20123ADF80430134B5B6803F042
:104C20000C02082A02D0114806B07047C3F3834231
:104C300018326A4412F8100C13F4803F0DD00A4B5E
:104C40005B68C3F3404318336B4413F8143C074AC2
:104C500002FB00F0B0FBF3F0E6E7054B03FB00F0CE
:104C6000E2E700BFC4C700080010024000127A004B
:104C700000093D00002800F0A08070B50D460446F4
:104C8000524B1B6803F007038B420BD24F4A136849
:104C900023F007030B431360136803F007038B42F1
:104CA00040F08D80236813F0020F17D013F0040F2B
:104CB00004D0474A536843F4E0635360236813F019
:104CC000080F04D0424A536843F460535360404A8B
:104CD000536823F0F003A1680B435360236813F07B
:104CE000010F31D06368012B20D0022B25D0384A28
:104CF000126812F0020F64D035494A6822F00302AC
:104D000013434B60FFF7C8FB0646314B5B6803F06B
:104D10000C036268B3EB820F16D0FFF7BDFB801B5C
:104D200041F288339842F0D9032045E0284A1268BE
:104D300012F4003FE0D101203EE0254A126812F053
:104D4000007FD9D1012037E0204B1B6803F0070317
:104D5000AB420AD91D4A136823F007032B431360A3
:104D6000136803F00703AB422DD1236813F0040F3F
:104D700006D0174A536823F4E063E1680B4353609D
:104D8000236813F0080F07D0114A536823F46053C7
:104D9000216943EAC1035360FFF734FF0C4B5B68A2
:104DA000C3F303130B4AD35CD8400B4B18600B4B77
:104DB0001868FFF77BF8002070BD012070470120C4
:104DC000FAE70120F8E70120F6E700BF00200240E3
:104DD00000100240ACC700080000002008000020BE
:104DE000014B1868704700BF0000002008B5FFF7AE
:104DF000F7FF044B5B68C3F30223034AD35CD8403C
:104E000008BD00BF00100240BCC7000808B5FFF78E
:104E1000E7FF044B5B68C3F3C223034AD35CD8406B
:104E200008BD00BF00100240BCC700080F2303608C
:104E30000B4B5A6802F0030242605A6802F0F0021B
:104E400082605A6802F4E062C2605B68DB0803F4C7
:104E5000E0630361034B1B6803F007030B607047BB
:104E6000001002400020024060B370B50E461546A7
:104E700004468369B3F5807F26D090F84130E3B1D2
:104E8000214651F8080B00F001FDA2683146206868
:104E900000F030FD236BA2682946606800F052FDE7
:104EA0002268A16852F8213043F0010342F8213012
:104EB000012384F84130002070BD80F84030FCF7B9
:104EC00053F9DDE7012070470120F5E730B4036AAC
:104ED00023F001030362036A4268846924F07304C7
:104EE0000D682C4323F0020C8B6843EA0C03104D31
:104EF000A84203D005F50065A84205D123F00803B8
:104F0000CD682B4323F00403094DA84203D005F5D7
:104F10000065A84205D122F440724D692A438D698B
:104F20002A43426084614A684263036230BC70472E
:104F3000002C014030B4036A23F480730362036AD7
:104F40004268C46924F0730C0C6844EA0C0523F42D
:104F500000738C6843EA0423114CA04203D004F58B
:104F60000064A04206D123F40063CC6843EA042322
:104F700023F480630A4CA04203D004F50064A042ED
:104F800007D122F440524C6942EA04128C6942EA89
:104F900004124260C5614A68C263036230BC704754
:104FA000002C014030B4036A23F480530362036A87
:104FB0004468C26922F4E6420D6842EA052223F4FD
:104FC00000538D6843EA0533094DA84203D005F527
:104FD0000065A84204D124F480444D6944EA851454
:104FE0004460C2614A680264036230BC704700BF1B
:104FF000002C014010B4036A046A24F00104046226
:10500000846924F0F00C4CEA021223F00A030B43EB
:105010008261036210BC704710B4046A24F010046B
:1050200004628469036A24F4704C4CEA023223F06F
:10503000A00343EA01138261036210BC70478368D6
:1050400023F070030B4343F00703836070470000B5
:1050500090F83D30DBB2012B2FD1022380F83D3098
:105060000268D36843F00103D3600368154A934292
:1050700018D002F50062934214D0B3F1804F11D0E2
:10508000A2F5983293420DD002F58062934209D086
:1050900002F58062934205D01A6842F001021A605C
:1050A000002070479A6802F00702062A07D01A68A3
:1050B00042F001021A600020704701207047002072
:1050C000704700BF002C0140704770477047704721
:1050D000704710B5044603681A6912F0020F11D028
:1050E000DA6812F0020F0DD06FF002021A6101238C
:1050F000037703689B6913F0030F70D0FFF7E6FF97
:105100000023237723681A6912F0040F12D0DA689B
:1051100012F0040F0ED06FF004021A6102232377FD
:1051200023689B6913F4407F5FD02046FFF7CEFFD2
:105130000023237723681A6912F0080F12D0DA6867
:1051400012F0080F0ED06FF008021A6104232377C3
:105150002368DB6913F0030F4ED02046FFF7B6FF3C
:105160000023237723681A6912F0100F12D0DA682F
:1051700012F0100F0ED06FF010021A61082323777F
:105180002368DB6913F4407F3DD02046FFF79EFF84
:105190000023237723681A6912F0010F03D0DA681D
:1051A00012F0010F36D123681A6912F0800F03D074
:1051B000DA6812F0800F34D123681A6912F0400FB8
:1051C00003D0DA6812F0400F32D123681A6912F066
:1051D000200F03D0DA6812F0200F30D110BDFFF796
:1051E00074FF2046FFF773FF8AE72046FFF76DFF45
:1051F0002046FFF76CFF9BE72046FFF766FF20463F
:10520000FFF765FFACE72046FFF75FFF2046FFF79B
:105210005EFFBDE76FF001021A612046FEF7BEFD9A
:10522000C1E76FF080021A61204600F00CFAC3E774
:105230006FF040021A612046FFF74AFFC5E76FF0A2
:1052400020021A61204600F0FDF9C7E70368244AEE
:10525000904212D002F5006290420ED0B0F1804F21
:105260000BD0A2F59832904207D002F580629042AE
:1052700003D002F58062904203D123F070034A68A4
:105280001343174A904212D002F5006290420ED0AA
:10529000B0F1804F0BD0A2F59832904207D002F5C2
:1052A0008062904203D002F58062904203D123F4E1
:1052B0004073CA68134323F080034A6913430360B1
:1052C0008B68C3620B688362054B984203D003F579
:1052D0000063984201D10B69036301234361704766
:1052E000002C014040B310B5044690F83D30F3B1B6
:1052F000022384F83D30214651F8040BFFF7A6FF46
:10530000012384F8463084F83E3084F83F3084F836
:10531000403084F8413084F8423084F8433084F8D7
:10532000443084F8453084F83D30002010BD80F8CA
:105330003C30FEF75FFEDBE70120704740B310B55D
:10534000044690F83D30F3B1022384F83D30214605
:1053500051F8040BFFF77AFF012384F8463084F8F4
:105360003E3084F83F3084F8403084F8413084F88F
:10537000423084F8433084F8443084F8453084F86F
:105380003D30002010BD80F83C30FFF79DFEDBE78C
:105390000120704730B4036A23F010030362036AEC
:1053A0004468826922F4E6420D6842EA052223F04D
:1053B00020038D6843EA0513114DA84203D005F57B
:1053C0000065A84206D123F08003CD6843EA0513A7
:1053D00023F040030A4DA84203D005F50065A8421A
:1053E00007D124F440644D6944EA85048D6944EA98
:1053F0008504446082614A688263036230BC7047FE
:10540000002C014038B590F83C30012B60D00446A8
:105410000D46012380F83C300C2A1AD8DFE802F050
:10542000071919191D19191931191919440000689A
:10543000FFF74CFD2268936943F0080393612268EB
:10544000936923F0040393612268936929690B43EC
:105450009361002084F83C0038BD0068FFF79AFF94
:105460002268936943F4006393612268936923F48B
:105470008063936122689369296943EA01239361F8
:10548000E7E70068FFF756FD2268D36943F0080399
:10549000D3612268D36923F00403D3612268D369FE
:1054A00029690B43D361D4E70068FFF77BFD2268CD
:1054B000D36943F40063D3612268D36923F4806322
:1054C000D3612268D369296943EA0123D361C0E724
:1054D0000220C1E710B4846824F47F4C42EA03221E
:1054E0000A4342EA0C02826010BC704790F83C30DC
:1054F000012B66D010B50446012380F83C3002230E
:1055000080F83D300268936823F47F4323F07703EB
:1055100093600B68602B40D022D8402B47D00BD92A
:10552000502B0ED1CA6849680068FFF763FD50210F
:105530002068FFF784FD04E0202B0CD008D9302B25
:1055400009D0012384F83D30002084F83C0010BDD0
:105550000BB1102BF5D119462068FFF770FDF0E76D
:10556000702B0ED0B3F5005FEBD1CB684A68896829
:105570000068FFF7AFFF2268936843F480439360AD
:10558000DFE7CB684A6889680068FFF7A3FF2268F5
:10559000936843F077039360D3E7CA68496800686B
:1055A000FFF73AFD60212068FFF749FDC9E7CA68A7
:1055B00049680068FFF71EFD40212068FFF73FFDA6
:1055C000BFE702207047000090F83C30012B34D038
:1055D00010B4012380F83C30022380F83D3003688A
:1055E0005A689C6822F0700C0A6842EA0C025A6001
:1055F0000368134A934212D002F5006293420ED020
:10560000B3F1804F0BD0A2F59832934207D002F548
:105610008062934203D002F58062934204D124F069
:1056200080044A6814439C60012380F83D300023C5
:1056300080F83C30184610BC70470220704700BF0D
:10564000002C01407047704710B50446026813698A
:1056500023F44053C1680B43136183680269134309
:1056600042691A430168CB6823F4B05323F00C035A
:105670001343CB600268536923F4407381690B4381
:1056800053610268134B9A4220D0FFF7AFFB0246EA
:1056900002EB820202EB820263689B00B2FBF3F230
:1056A0000D48A0FB02314909642303FB11231B01B0
:1056B0003233A0FB03235B0903F0F00202EB01127B
:1056C00003F00F03216813448B6010BDFFF79EFBAE
:1056D0000246DDE7003801401F85EB512DE9F84314
:1056E00005460F4616469946DDF820802C6824684A
:1056F00037EA04030CBF4FF0010C4FF0000CB44527
:105700001FD1B8F1FF3FF1D0B8F1000F05D0FEF77F
:10571000C3FEA0EB09004045E8D92A68D36823F40A
:10572000D073D3602A68536923F0010353612023A7
:1057300085F83D3085F83E30002385F83C30032065
:1057400000E00020BDE8F88358B310B5044690F897
:105750003D300BB3242384F83D302268D36823F412
:105760000053D3602046FFF76FFF2268136923F4CC
:10577000904313612268536923F02A03536122681E
:10578000D36843F40053D36000202064202384F8BE
:105790003D3084F83E3010BD80F83C30FEF7E6FD29
:1057A000D8E7012070472DE9F04182B01E4690F8FD
:1057B0003D30DBB2202B54D104460D4690460029E3
:1057C00053D0002A53D090F83C30012B51D0012304
:1057D00080F83C3000230364212380F83D30FEF73D
:1057E0005BFE0746A4F82480A4F82680A368B3F5DE
:1057F000805F05D04FF00008002384F83C3012E0B1
:10580000236913B14FF00008F6E7A8460025F3E737
:1058100038F8023B2268C3F308035360E28C92B26B
:10582000013A92B2E284E38C9BB273B100963B469C
:10583000002280212046FFF751FFE0B9002DE7D07C
:1058400015F8012B23685A60E8E700963B460022D2
:1058500040212046FFF742FF78B9202384F83D30ED
:1058600000E0022002B0BDE8F0810120FAE701204B
:10587000F8E70220F6E70320F4E70320F2E790F8C8
:105880003D3090F83E0018437047000010B40A689D
:1058900050F8223023F0010340F822308B68082BA7
:1058A00024D000244A6822431343CA6813430A6978
:1058B00013434A691343CA6913430A6A13434A6A82
:1058C00013438A6A1343CA6A13430A6B13438A69F0
:1058D00013434A6B1343096850F82140044A22409D
:1058E0001A4340F82120002010BC70474024D9E71B
:1058F0008000F0FF00B5013250F8223003F0404C38
:105900000B68D1F804E043EA0E13D1F808E043EA4B
:105910000E23D1F80CE043EA0E43D1F810E00EF16B
:10592000FF3E43EA0E53D1F814E0AEF1020E43EA13
:105930000E6389690B434CEA030340F822300020D0
:105940005DF804FBB3F5804F05D06FF0704340F86D
:1059500022300020704730B450F82230094C1C40EF
:105960000B684D6843EA05138D6843EA05238D698A
:105970002B43C96843EA0143234340F82230002007
:1059800030BC70470000F0CF842801D0033070474E
:105990000020704708B500F0D1FC002008BD2DE9BB
:1059A000F04387B004460F464569BDB18669AEB184
:1059B000D0F80480D0F80090B0F90800FFF7E4FFB9
:1059C0000296019500903B4622694946404600F008
:1059D00047FC0590059807B0BDE8F0836568266828
:1059E000D4F81080B4F90800FFF7CEFF05AB01939F
:1059F00000903B461FFA88F23146284600F06AFCC8
:105A00000128E7D00020E6E708B500B9012000F042
:105A1000DFFD002008BD00F1080343604FF0FF32B6
:105A20008260C36003610023036070470023036149
:105A3000704743684B609A688A605160996008615A
:105A4000036801330360704730B40D68B5F1FF3F60
:105A500011D000F108031C465B681A68AA42FAD903
:105A600063684B6099608C60616008610368013312
:105A7000036030BC70470469F2E7036941688268DB
:105A80008A60416851605A68824206D000220261F1
:105A90001A68013A1A601868704782685A60F5E718
:105AA00082B0002301930D4B1B68B3F1FF3F08D078
:105AB0004FF0500383F31188BFF36F8FBFF34F8F05
:105AC000FEE74FF0500383F31188BFF36F8FBFF3EE
:105AD0004F8F019B002BFCD002B070470C000020C0
